{
	"data": {
		"bytecode": {
			"linkReferences": {},
			"object": "60806040523480156200001157600080fd5b50620000276000801b336200002d60201b60201c565b620001a6565b6200003f82826200004360201b60201c565b5050565b6200005582826200013460201b60201c565b6200013057600160008084815260200190815260200160002060000160008373ffffffffffffffffffffffffffffffffffffffff1673ffffffffffffffffffffffffffffffffffffffff16815260200190815260200160002060006101000a81548160ff021916908315150217905550620000d56200019e60201b60201c565b73ffffffffffffffffffffffffffffffffffffffff168173ffffffffffffffffffffffffffffffffffffffff16837f2f8788117e7eff1d82e926ec794901d17c78024a50270940304540a733656f0d60405160405180910390a45b5050565b600080600084815260200190815260200160002060000160008373ffffffffffffffffffffffffffffffffffffffff1673ffffffffffffffffffffffffffffffffffffffff16815260200190815260200160002060009054906101000a900460ff16905092915050565b600033905090565b61527880620001b66000396000f3fe60806040523480156200001157600080fd5b5060043610620001b45760003560e01c80637048027511620000f3578063b4af12bf11620000a5578063d9ee3845116200007b578063d9ee38451462000533578063e9aa339b1462000569578063f0bd87cc146200059f578063f394397014620005c157620001b4565b8063b4af12bf14620004d3578063be06882114620004f3578063d547741f146200051357620001b4565b80637048027514620003e55780638cd6d3c014620004055780638f283970146200042557806391d148541462000445578063a217fddf146200047b578063a6f50c59146200049d57620001b4565b806324d7806c116200016b57806336568abe116200014157806336568abe146200033657806340b1fc4314620003565780634c813ff1146200038c5780635ece0b5414620003c557620001b4565b806324d7806c14620002aa5780632f2ff15d14620002e05780633460c114146200030057620001b4565b806301ffc9a714620001b9578063068af89014620001ef57806308ccf219146200020f57806319ce533c146200022f5780631c9a4fd1146200023b578063248a9ca31462000274575b600080fd5b620001d76004803603810190620001d1919062002ec7565b620005e3565b604051620001e6919062003288565b60405180910390f35b6200020d600480360381019062000207919062002c48565b62000660565b005b6200022d600480360381019062000227919062002c16565b62000842565b005b62000239620008be565b005b62000259600480360381019062000253919062002c16565b62000979565b6040516200026b94939291906200323b565b60405180910390f35b6200029260048036038101906200028c919062002e4e565b62000d7b565b604051620002a19190620032a5565b60405180910390f35b620002c86004803603810190620002c2919062002c16565b62000d9a565b604051620002d7919062003288565b60405180910390f35b620002fe6004803603810190620002f8919062002e80565b62000db2565b005b6200031e600480360381019062000318919062002c16565b62000de3565b6040516200032d919062003288565b60405180910390f35b6200035460048036038101906200034e919062002e80565b62000e8f565b005b6200037460048036038101906200036e919062002ef9565b62000f19565b60405162000383919062003288565b60405180910390f35b620003aa6004803603810190620003a4919062002c8f565b62000f8b565b604051620003bc94939291906200323b565b60405180910390f35b620003e36004803603810190620003dd919062002d17565b620014e8565b005b620004036004803603810190620003fd919062002c16565b620016bc565b005b6200042360048036038101906200041d919062002f2b565b6200171b565b005b6200044360048036038101906200043d919062002c16565b62001895565b005b6200046360048036038101906200045d919062002e80565b620018f4565b60405162000472919062003288565b60405180910390f35b620004856200195e565b604051620004949190620032a5565b60405180910390f35b620004bb6004803603810190620004b5919062002c48565b62001965565b604051620004ca919062003288565b60405180910390f35b620004f16004803603810190620004eb919062002c16565b62001d7a565b005b6200051160048036038101906200050b919062002f2b565b62001df6565b005b6200053160048036038101906200052b919062002e80565b62001fbb565b005b6200055160048036038101906200054b919062002c16565b62001fec565b6040516200056091906200334c565b60405180910390f35b62000587600480360381019062000581919062002ef9565b62002352565b604051620005969190620032a5565b60405180910390f35b620005a962002426565b604051620005b89190620032a5565b60405180910390f35b620005cb6200244a565b604051620005da9190620032a5565b60405180910390f35b60007f7965db0b000000000000000000000000000000000000000000000000000000007bffffffffffffffffffffffffffffffffffffffffffffffffffffffff1916827bffffffffffffffffffffffffffffffffffffffffffffffffffffffff1916148062000659575062000658826200246e565b5b9050919050565b6200066b3362000d9a565b620006ad576040517f08c379a0000000000000000000000000000000000000000000000000000000008152600401620006a49062003308565b60405180910390fd5b620006b7620029ae565b81816000019073ffffffffffffffffffffffffffffffffffffffff16908173ffffffffffffffffffffffffffffffffffffffff168152505080600460008573ffffffffffffffffffffffffffffffffffffffff1673ffffffffffffffffffffffffffffffffffffffff16815260200190815260200160002060008201518160000160006101000a81548173ffffffffffffffffffffffffffffffffffffffff021916908373ffffffffffffffffffffffffffffffffffffffff1602179055506020820151816001015560408201518160020155606082015181600301556080820151816004016000820151816000019080519060200190620007bb929190620029fe565b506020820151816001019080519060200190620007da929190620029fe565b506040820151816002019080519060200190620007f9929190620029fe565b50606082015181600301908051906020019062000818929190620029fe565b50608082015181600401908051906020019062000837929190620029fe565b505050905050505050565b6200084d3362000d9a565b6200088f576040517f08c379a0000000000000000000000000000000000000000000000000000000008152600401620008869062003308565b60405180910390fd5b620008bb7ff309ffc42715a0bfccdfa0c4cac305505f15ab9b9262b7451ceea96c0cc351878262000db2565b50565b620008c93362000d9a565b6200090b576040517f08c379a0000000000000000000000000000000000000000000000000000000008152600401620009029062003308565b60405180910390fd5b604051620009199062002a8f565b604051809103906000f08015801562000936573d6000803e3d6000fd5b50600360006101000a81548173ffffffffffffffffffffffffffffffffffffffff021916908373ffffffffffffffffffffffffffffffffffffffff160217905550565b6000806000806000600460008773ffffffffffffffffffffffffffffffffffffffff1673ffffffffffffffffffffffffffffffffffffffff1681526020019081526020016000206040518060a00160405290816000820160009054906101000a900473ffffffffffffffffffffffffffffffffffffffff1673ffffffffffffffffffffffffffffffffffffffff1673ffffffffffffffffffffffffffffffffffffffff168152602001600182015481526020016002820154815260200160038201548152602001600482016040518060a001604052908160008201805462000a6190620035e5565b80601f016020809104026020016040519081016040528092919081815260200182805462000a8f90620035e5565b801562000ae05780601f1062000ab45761010080835404028352916020019162000ae0565b820191906000526020600020905b81548152906001019060200180831162000ac257829003601f168201915b5050505050815260200160018201805462000afb90620035e5565b80601f016020809104026020016040519081016040528092919081815260200182805462000b2990620035e5565b801562000b7a5780601f1062000b4e5761010080835404028352916020019162000b7a565b820191906000526020600020905b81548152906001019060200180831162000b5c57829003601f168201915b5050505050815260200160028201805462000b9590620035e5565b80601f016020809104026020016040519081016040528092919081815260200182805462000bc390620035e5565b801562000c145780601f1062000be85761010080835404028352916020019162000c14565b820191906000526020600020905b81548152906001019060200180831162000bf657829003601f168201915b5050505050815260200160038201805462000c2f90620035e5565b80601f016020809104026020016040519081016040528092919081815260200182805462000c5d90620035e5565b801562000cae5780601f1062000c825761010080835404028352916020019162000cae565b820191906000526020600020905b81548152906001019060200180831162000c9057829003601f168201915b5050505050815260200160048201805462000cc990620035e5565b80601f016020809104026020016040519081016040528092919081815260200182805462000cf790620035e5565b801562000d485780601f1062000d1c5761010080835404028352916020019162000d48565b820191906000526020600020905b81548152906001019060200180831162000d2a57829003601f168201915b50505050508152505081525050905080600001518160200151826040015183606001519450945094509450509193509193565b6000806000838152602001908152602001600020600101549050919050565b600062000dab6000801b83620018f4565b9050919050565b62000dbd8262000d7b565b62000dd28162000dcc620024d8565b620024e0565b62000dde838362002588565b505050565b60008073ffffffffffffffffffffffffffffffffffffffff16600460008473ffffffffffffffffffffffffffffffffffffffff1673ffffffffffffffffffffffffffffffffffffffff16815260200190815260200160002060000160009054906101000a900473ffffffffffffffffffffffffffffffffffffffff1673ffffffffffffffffffffffffffffffffffffffff161462000e85576001905062000e8a565b600090505b919050565b62000e99620024d8565b73ffffffffffffffffffffffffffffffffffffffff168173ffffffffffffffffffffffffffffffffffffffff161462000f09576040517f08c379a000000000000000000000000000000000000000000000000000000000815260040162000f00906200332a565b60405180910390fd5b62000f1582826200266d565b5050565b60008060001b600560008479ffffffffffffffffffffffffffffffffffffffffffffffffffff191679ffffffffffffffffffffffffffffffffffffffffffffffffffff1916815260200190815260200160002060010154111562000f81576001905062000f86565b600090505b919050565b60008060008087600460008b73ffffffffffffffffffffffffffffffffffffffff1673ffffffffffffffffffffffffffffffffffffffff16815260200190815260200160002060000160006101000a81548173ffffffffffffffffffffffffffffffffffffffff021916908373ffffffffffffffffffffffffffffffffffffffff16021790555086600460008b73ffffffffffffffffffffffffffffffffffffffff1673ffffffffffffffffffffffffffffffffffffffff1681526020019081526020016000206001018190555085600460008b73ffffffffffffffffffffffffffffffffffffffff1673ffffffffffffffffffffffffffffffffffffffff1681526020019081526020016000206002018190555084600460008b73ffffffffffffffffffffffffffffffffffffffff1673ffffffffffffffffffffffffffffffffffffffff168152602001908152602001600020600301819055506000600460008b73ffffffffffffffffffffffffffffffffffffffff1673ffffffffffffffffffffffffffffffffffffffff1681526020019081526020016000206040518060a00160405290816000820160009054906101000a900473ffffffffffffffffffffffffffffffffffffffff1673ffffffffffffffffffffffffffffffffffffffff1673ffffffffffffffffffffffffffffffffffffffff168152602001600182015481526020016002820154815260200160038201548152602001600482016040518060a0016040529081600082018054620011c990620035e5565b80601f0160208091040260200160405190810160405280929190818152602001828054620011f790620035e5565b8015620012485780601f106200121c5761010080835404028352916020019162001248565b820191906000526020600020905b8154815290600101906020018083116200122a57829003601f168201915b505050505081526020016001820180546200126390620035e5565b80601f01602080910402602001604051908101604052809291908181526020018280546200129190620035e5565b8015620012e25780601f10620012b657610100808354040283529160200191620012e2565b820191906000526020600020905b815481529060010190602001808311620012c457829003601f168201915b50505050508152602001600282018054620012fd90620035e5565b80601f01602080910402602001604051908101604052809291908181526020018280546200132b90620035e5565b80156200137c5780601f1062001350576101008083540402835291602001916200137c565b820191906000526020600020905b8154815290600101906020018083116200135e57829003601f168201915b505050505081526020016003820180546200139790620035e5565b80601f0160208091040260200160405190810160405280929190818152602001828054620013c590620035e5565b8015620014165780601f10620013ea5761010080835404028352916020019162001416565b820191906000526020600020905b815481529060010190602001808311620013f857829003601f168201915b505050505081526020016004820180546200143190620035e5565b80601f01602080910402602001604051908101604052809291908181526020018280546200145f90620035e5565b8015620014b05780601f106200148457610100808354040283529160200191620014b0565b820191906000526020600020905b8154815290600101906020018083116200149257829003601f168201915b505050505081525050815250509050806000015181602001518260400151836060015194509450945094505095509550955095915050565b80600460008873ffffffffffffffffffffffffffffffffffffffff1673ffffffffffffffffffffffffffffffffffffffff168152602001908152602001600020600401600401908051906020019062001543929190620029fe565b5083600460008873ffffffffffffffffffffffffffffffffffffffff1673ffffffffffffffffffffffffffffffffffffffff16815260200190815260200160002060040160010190805190602001906200159f929190620029fe565b5082600460008873ffffffffffffffffffffffffffffffffffffffff1673ffffffffffffffffffffffffffffffffffffffff1681526020019081526020016000206004016002019080519060200190620015fb929190620029fe565b5081600460008873ffffffffffffffffffffffffffffffffffffffff1673ffffffffffffffffffffffffffffffffffffffff168152602001908152602001600020600401600301908051906020019062001657929190620029fe565b5084600460008873ffffffffffffffffffffffffffffffffffffffff1673ffffffffffffffffffffffffffffffffffffffff1681526020019081526020016000206004016000019080519060200190620016b3929190620029fe565b50505050505050565b620016c73362000d9a565b62001709576040517f08c379a0000000000000000000000000000000000000000000000000000000008152600401620017009062003308565b60405180910390fd5b620017186000801b8262000db2565b50565b6000801b600560008679ffffffffffffffffffffffffffffffffffffffffffffffffffff191679ffffffffffffffffffffffffffffffffffffffffffffffffffff191681526020019081526020016000206001015411156200178b57620017858484848462001df6565b6200188f565b6200179562002a9d565b83816000019073ffffffffffffffffffffffffffffffffffffffff16908173ffffffffffffffffffffffffffffffffffffffff1681525050828160200181815250508181604001818152505080600560008779ffffffffffffffffffffffffffffffffffffffffffffffffffff191679ffffffffffffffffffffffffffffffffffffffffffffffffffff1916815260200190815260200160002060008201518160000160006101000a81548173ffffffffffffffffffffffffffffffffffffffff021916908373ffffffffffffffffffffffffffffffffffffffff1602179055506020820151816001015560408201518160020155905050505b50505050565b620018a03362000d9a565b620018e2576040517f08c379a0000000000000000000000000000000000000000000000000000000008152600401620018d99062003308565b60405180910390fd5b620018f16000801b8262000db2565b50565b600080600084815260200190815260200160002060000160008373ffffffffffffffffffffffffffffffffffffffff1673ffffffffffffffffffffffffffffffffffffffff16815260200190815260200160002060009054906101000a900460ff16905092915050565b6000801b81565b600080600460008473ffffffffffffffffffffffffffffffffffffffff1673ffffffffffffffffffffffffffffffffffffffff1681526020019081526020016000206040518060a00160405290816000820160009054906101000a900473ffffffffffffffffffffffffffffffffffffffff1673ffffffffffffffffffffffffffffffffffffffff1673ffffffffffffffffffffffffffffffffffffffff168152602001600182015481526020016002820154815260200160038201548152602001600482016040518060a001604052908160008201805462001a4890620035e5565b80601f016020809104026020016040519081016040528092919081815260200182805462001a7690620035e5565b801562001ac75780601f1062001a9b5761010080835404028352916020019162001ac7565b820191906000526020600020905b81548152906001019060200180831162001aa957829003601f168201915b5050505050815260200160018201805462001ae290620035e5565b80601f016020809104026020016040519081016040528092919081815260200182805462001b1090620035e5565b801562001b615780601f1062001b355761010080835404028352916020019162001b61565b820191906000526020600020905b81548152906001019060200180831162001b4357829003601f168201915b5050505050815260200160028201805462001b7c90620035e5565b80601f016020809104026020016040519081016040528092919081815260200182805462001baa90620035e5565b801562001bfb5780601f1062001bcf5761010080835404028352916020019162001bfb565b820191906000526020600020905b81548152906001019060200180831162001bdd57829003601f168201915b5050505050815260200160038201805462001c1690620035e5565b80601f016020809104026020016040519081016040528092919081815260200182805462001c4490620035e5565b801562001c955780601f1062001c695761010080835404028352916020019162001c95565b820191906000526020600020905b81548152906001019060200180831162001c7757829003601f168201915b5050505050815260200160048201805462001cb090620035e5565b80601f016020809104026020016040519081016040528092919081815260200182805462001cde90620035e5565b801562001d2f5780601f1062001d035761010080835404028352916020019162001d2f565b820191906000526020600020905b81548152906001019060200180831162001d1157829003601f168201915b5050505050815250508152505090508373ffffffffffffffffffffffffffffffffffffffff16816000015173ffffffffffffffffffffffffffffffffffffffff161491505092915050565b62001d853362000d9a565b62001dc7576040517f08c379a000000000000000000000000000000000000000000000000000000000815260040162001dbe9062003308565b60405180910390fd5b62001df37f85faced7bde13e1a7dad704b895f006e704f207617d68166b31ba2d79624862d8262000db2565b50565b6000600560008679ffffffffffffffffffffffffffffffffffffffffffffffffffff191679ffffffffffffffffffffffffffffffffffffffffffffffffffff191681526020019081526020016000206040518060600160405290816000820160009054906101000a900473ffffffffffffffffffffffffffffffffffffffff1673ffffffffffffffffffffffffffffffffffffffff1673ffffffffffffffffffffffffffffffffffffffff16815260200160018201548152602001600282015481525050905083816000019073ffffffffffffffffffffffffffffffffffffffff16908173ffffffffffffffffffffffffffffffffffffffff1681525050828160200181815250508181604001818152505080600560008779ffffffffffffffffffffffffffffffffffffffffffffffffffff191679ffffffffffffffffffffffffffffffffffffffffffffffffffff1916815260200190815260200160002060008201518160000160006101000a81548173ffffffffffffffffffffffffffffffffffffffff021916908373ffffffffffffffffffffffffffffffffffffffff16021790555060208201518160010155604082015181600201559050505050505050565b62001fc68262000d7b565b62001fdb8162001fd5620024d8565b620024e0565b62001fe783836200266d565b505050565b62001ff662002ad7565b6000600460008473ffffffffffffffffffffffffffffffffffffffff1673ffffffffffffffffffffffffffffffffffffffff1681526020019081526020016000206004016040518060a00160405290816000820180546200205790620035e5565b80601f01602080910402602001604051908101604052809291908181526020018280546200208590620035e5565b8015620020d65780601f10620020aa57610100808354040283529160200191620020d6565b820191906000526020600020905b815481529060010190602001808311620020b857829003601f168201915b50505050508152602001600182018054620020f190620035e5565b80601f01602080910402602001604051908101604052809291908181526020018280546200211f90620035e5565b8015620021705780601f10620021445761010080835404028352916020019162002170565b820191906000526020600020905b8154815290600101906020018083116200215257829003601f168201915b505050505081526020016002820180546200218b90620035e5565b80601f0160208091040260200160405190810160405280929190818152602001828054620021b990620035e5565b80156200220a5780601f10620021de576101008083540402835291602001916200220a565b820191906000526020600020905b815481529060010190602001808311620021ec57829003601f168201915b505050505081526020016003820180546200222590620035e5565b80601f01602080910402602001604051908101604052809291908181526020018280546200225390620035e5565b8015620022a45780601f106200227857610100808354040283529160200191620022a4565b820191906000526020600020905b8154815290600101906020018083116200228657829003601f168201915b50505050508152602001600482018054620022bf90620035e5565b80601f0160208091040260200160405190810160405280929190818152602001828054620022ed90620035e5565b80156200233e5780601f1062002312576101008083540402835291602001916200233e565b820191906000526020600020905b8154815290600101906020018083116200232057829003601f168201915b505050505081525050905080915050919050565b600080600560008479ffffffffffffffffffffffffffffffffffffffffffffffffffff191679ffffffffffffffffffffffffffffffffffffffffffffffffffff191681526020019081526020016000206040518060600160405290816000820160009054906101000a900473ffffffffffffffffffffffffffffffffffffffff1673ffffffffffffffffffffffffffffffffffffffff1673ffffffffffffffffffffffffffffffffffffffff1681526020016001820154815260200160028201548152505090508060200151915050919050565b7f85faced7bde13e1a7dad704b895f006e704f207617d68166b31ba2d79624862d81565b7ff309ffc42715a0bfccdfa0c4cac305505f15ab9b9262b7451ceea96c0cc3518781565b60007f01ffc9a7000000000000000000000000000000000000000000000000000000007bffffffffffffffffffffffffffffffffffffffffffffffffffffffff1916827bffffffffffffffffffffffffffffffffffffffffffffffffffffffff1916149050919050565b600033905090565b620024ec8282620018f4565b6200258457620025148173ffffffffffffffffffffffffffffffffffffffff16601462002753565b620025248360001c602062002753565b60405160200162002537929190620031f9565b6040516020818303038152906040526040517f08c379a00000000000000000000000000000000000000000000000000000000081526004016200257b9190620032c2565b60405180910390fd5b5050565b620025948282620018f4565b6200266957600160008084815260200190815260200160002060000160008373ffffffffffffffffffffffffffffffffffffffff1673ffffffffffffffffffffffffffffffffffffffff16815260200190815260200160002060006101000a81548160ff0219169083151502179055506200260e620024d8565b73ffffffffffffffffffffffffffffffffffffffff168173ffffffffffffffffffffffffffffffffffffffff16837f2f8788117e7eff1d82e926ec794901d17c78024a50270940304540a733656f0d60405160405180910390a45b5050565b620026798282620018f4565b156200274f57600080600084815260200190815260200160002060000160008373ffffffffffffffffffffffffffffffffffffffff1673ffffffffffffffffffffffffffffffffffffffff16815260200190815260200160002060006101000a81548160ff021916908315150217905550620026f4620024d8565b73ffffffffffffffffffffffffffffffffffffffff168173ffffffffffffffffffffffffffffffffffffffff16837ff6391f5c32d9c69d2a47ea670b442974b53935d1edc7fd64eb21e047a839171b60405160405180910390a45b5050565b60606000600283600262002768919062003464565b62002774919062003407565b67ffffffffffffffff81111562002790576200278f620036de565b5b6040519080825280601f01601f191660200182016040528015620027c35781602001600182028036833780820191505090505b5090507f300000000000000000000000000000000000000000000000000000000000000081600081518110620027fe57620027fd620036af565b5b60200101907effffffffffffffffffffffffffffffffffffffffffffffffffffffffffffff1916908160001a9053507f780000000000000000000000000000000000000000000000000000000000000081600181518110620028655762002864620036af565b5b60200101907effffffffffffffffffffffffffffffffffffffffffffffffffffffffffffff1916908160001a90535060006001846002620028a7919062003464565b620028b3919062003407565b90505b60018111156200295d577f3031323334353637383961626364656600000000000000000000000000000000600f861660108110620028f957620028f8620036af565b5b1a60f81b828281518110620029135762002912620036af565b5b60200101907effffffffffffffffffffffffffffffffffffffffffffffffffffffffffffff1916908160001a905350600485901c9450806200295590620035b6565b9050620028b6565b5060008414620029a4576040517f08c379a00000000000000000000000000000000000000000000000000000000081526004016200299b90620032e6565b60405180910390fd5b8091505092915050565b6040518060a00160405280600073ffffffffffffffffffffffffffffffffffffffff168152602001600081526020016000801916815260200160008152602001620029f862002ad7565b81525090565b82805462002a0c90620035e5565b90600052602060002090601f01602090048101928262002a30576000855562002a7c565b82601f1062002a4b57805160ff191683800117855562002a7c565b8280016001018555821562002a7c579182015b8281111562002a7b57825182559160200191906001019062002a5e565b5b50905062002a8b919062002b06565b5090565b61199b80620038a883390190565b6040518060600160405280600073ffffffffffffffffffffffffffffffffffffffff16815260200160008019168152602001600081525090565b6040518060a0016040528060608152602001606081526020016060815260200160608152602001606081525090565b5b8082111562002b2157600081600090555060010162002b07565b5090565b600062002b3c62002b368462003399565b62003370565b90508281526020810184848401111562002b5b5762002b5a62003712565b5b62002b6884828562003571565b509392505050565b60008135905062002b818162003825565b92915050565b60008135905062002b98816200383f565b92915050565b60008135905062002baf8162003859565b92915050565b60008135905062002bc68162003873565b92915050565b600082601f83011262002be45762002be36200370d565b5b813562002bf684826020860162002b25565b91505092915050565b60008135905062002c10816200388d565b92915050565b60006020828403121562002c2f5762002c2e6200371c565b5b600062002c3f8482850162002b70565b91505092915050565b6000806040838503121562002c625762002c616200371c565b5b600062002c728582860162002b70565b925050602062002c858582860162002b70565b9150509250929050565b600080600080600060a0868803121562002cae5762002cad6200371c565b5b600062002cbe8882890162002b70565b955050602062002cd18882890162002b70565b945050604062002ce48882890162002bff565b935050606062002cf78882890162002b87565b925050608062002d0a8882890162002bff565b9150509295509295909350565b60008060008060008060c0878903121562002d375762002d366200371c565b5b600062002d4789828a0162002b70565b965050602087013567ffffffffffffffff81111562002d6b5762002d6a62003717565b5b62002d7989828a0162002bcc565b955050604087013567ffffffffffffffff81111562002d9d5762002d9c62003717565b5b62002dab89828a0162002bcc565b945050606087013567ffffffffffffffff81111562002dcf5762002dce62003717565b5b62002ddd89828a0162002bcc565b935050608087013567ffffffffffffffff81111562002e015762002e0062003717565b5b62002e0f89828a0162002bcc565b92505060a087013567ffffffffffffffff81111562002e335762002e3262003717565b5b62002e4189828a0162002bcc565b9150509295509295509295565b60006020828403121562002e675762002e666200371c565b5b600062002e778482850162002b87565b91505092915050565b6000806040838503121562002e9a5762002e996200371c565b5b600062002eaa8582860162002b87565b925050602062002ebd8582860162002b70565b9150509250929050565b60006020828403121562002ee05762002edf6200371c565b5b600062002ef08482850162002b9e565b91505092915050565b60006020828403121562002f125762002f116200371c565b5b600062002f228482850162002bb5565b91505092915050565b6000806000806080858703121562002f485762002f476200371c565b5b600062002f588782880162002bb5565b945050602062002f6b8782880162002b70565b935050604062002f7e8782880162002b87565b925050606062002f918782880162002bff565b91505092959194509250565b62002fa881620034c5565b82525050565b62002fb981620034d9565b82525050565b62002fca81620034e5565b82525050565b600062002fdd82620033cf565b62002fe98185620033da565b935062002ffb81856020860162003580565b620030068162003721565b840191505092915050565b60006200301e82620033cf565b6200302a8185620033eb565b93506200303c81856020860162003580565b620030478162003721565b840191505092915050565b60006200305f82620033cf565b6200306b8185620033fc565b93506200307d81856020860162003580565b80840191505092915050565b600062003098602083620033eb565b9150620030a58262003732565b602082019050919050565b6000620030bf601583620033eb565b9150620030cc826200375b565b602082019050919050565b6000620030e6601783620033fc565b9150620030f38262003784565b601782019050919050565b60006200310d601183620033fc565b91506200311a82620037ad565b601182019050919050565b600062003134602f83620033eb565b91506200314182620037d6565b604082019050919050565b600060a08301600083015184820360008601526200316b828262002fd0565b9150506020830151848203602086015262003187828262002fd0565b91505060408301518482036040860152620031a3828262002fd0565b91505060608301518482036060860152620031bf828262002fd0565b91505060808301518482036080860152620031db828262002fd0565b9150508091505092915050565b620031f38162003567565b82525050565b60006200320682620030d7565b915062003214828562003052565b91506200322182620030fe565b91506200322f828462003052565b91508190509392505050565b600060808201905062003252600083018762002f9d565b620032616020830186620031e8565b62003270604083018562002fbf565b6200327f6060830184620031e8565b95945050505050565b60006020820190506200329f600083018462002fae565b92915050565b6000602082019050620032bc600083018462002fbf565b92915050565b60006020820190508181036000830152620032de818462003011565b905092915050565b60006020820190508181036000830152620033018162003089565b9050919050565b600060208201905081810360008301526200332381620030b0565b9050919050565b60006020820190508181036000830152620033458162003125565b9050919050565b600060208201905081810360008301526200336881846200314c565b905092915050565b60006200337c6200338f565b90506200338a82826200361b565b919050565b6000604051905090565b600067ffffffffffffffff821115620033b757620033b6620036de565b5b620033c28262003721565b9050602081019050919050565b600081519050919050565b600082825260208201905092915050565b600082825260208201905092915050565b600081905092915050565b6000620034148262003567565b9150620034218362003567565b9250827fffffffffffffffffffffffffffffffffffffffffffffffffffffffffffffffff0382111562003459576200345862003651565b5b828201905092915050565b6000620034718262003567565b91506200347e8362003567565b9250817fffffffffffffffffffffffffffffffffffffffffffffffffffffffffffffffff0483118215151615620034ba57620034b962003651565b5b828202905092915050565b6000620034d28262003547565b9050919050565b60008115159050919050565b6000819050919050565b60007fffffffff0000000000000000000000000000000000000000000000000000000082169050919050565b60007fffffffffffff000000000000000000000000000000000000000000000000000082169050919050565b600073ffffffffffffffffffffffffffffffffffffffff82169050919050565b6000819050919050565b82818337600083830152505050565b60005b83811015620035a057808201518184015260208101905062003583565b83811115620035b0576000848401525b50505050565b6000620035c38262003567565b91506000821415620035da57620035d962003651565b5b600182039050919050565b60006002820490506001821680620035fe57607f821691505b6020821081141562003615576200361462003680565b5b50919050565b620036268262003721565b810181811067ffffffffffffffff82111715620036485762003647620036de565b5b80604052505050565b7f4e487b7100000000000000000000000000000000000000000000000000000000600052601160045260246000fd5b7f4e487b7100000000000000000000000000000000000000000000000000000000600052602260045260246000fd5b7f4e487b7100000000000000000000000000000000000000000000000000000000600052603260045260246000fd5b7f4e487b7100000000000000000000000000000000000000000000000000000000600052604160045260246000fd5b600080fd5b600080fd5b600080fd5b600080fd5b6000601f19601f8301169050919050565b7f537472696e67733a20686578206c656e67746820696e73756666696369656e74600082015250565b7f5265737472696374656420746f2061646d696e732e0000000000000000000000600082015250565b7f416363657373436f6e74726f6c3a206163636f756e7420000000000000000000600082015250565b7f206973206d697373696e6720726f6c6520000000000000000000000000000000600082015250565b7f416363657373436f6e74726f6c3a2063616e206f6e6c792072656e6f756e636560008201527f20726f6c657320666f722073656c660000000000000000000000000000000000602082015250565b6200383081620034c5565b81146200383c57600080fd5b50565b6200384a81620034e5565b81146200385657600080fd5b50565b6200386481620034ef565b81146200387057600080fd5b50565b6200387e816200351b565b81146200388a57600080fd5b50565b620038988162003567565b8114620038a457600080fd5b5056fe60806040523480156200001157600080fd5b50620000276000801b336200002d60201b60201c565b620001a6565b6200003f82826200004360201b60201c565b5050565b6200005582826200013460201b60201c565b6200013057600160008084815260200190815260200160002060000160008373ffffffffffffffffffffffffffffffffffffffff1673ffffffffffffffffffffffffffffffffffffffff16815260200190815260200160002060006101000a81548160ff021916908315150217905550620000d56200019e60201b60201c565b73ffffffffffffffffffffffffffffffffffffffff168173ffffffffffffffffffffffffffffffffffffffff16837f2f8788117e7eff1d82e926ec794901d17c78024a50270940304540a733656f0d60405160405180910390a45b5050565b600080600084815260200190815260200160002060000160008373ffffffffffffffffffffffffffffffffffffffff1673ffffffffffffffffffffffffffffffffffffffff16815260200190815260200160002060009054906101000a900460ff16905092915050565b600033905090565b6117e580620001b66000396000f3fe608060405234801561001057600080fd5b50600436106101165760003560e01c806391b465c8116100a2578063bf9fc20211610071578063bf9fc202146102ee578063d547741f1461031e578063f0bd87cc1461033a578063f394397014610358578063fa0b5e551461037657610116565b806391b465c81461026857806391d1485414610284578063a217fddf146102b4578063b4af12bf146102d257610116565b80632f2ff15d116100e95780632f2ff15d146101c757806336568abe146101e35780636386c1c7146101ff57806370480275146102305780638f2839701461024c57610116565b806301ffc9a71461011b57806308ccf2191461014b578063248a9ca31461016757806324d7806c14610197575b600080fd5b610135600480360381019061013091906110c2565b610392565b604051610142919061127e565b60405180910390f35b61016560048036038101906101609190610fa8565b61040c565b005b610181600480360381019061017c9190611055565b610481565b60405161018e9190611299565b60405180910390f35b6101b160048036038101906101ac9190610fa8565b6104a0565b6040516101be919061127e565b60405180910390f35b6101e160048036038101906101dc9190611082565b6104b6565b005b6101fd60048036038101906101f89190611082565b6104df565b005b61021960048036038101906102149190610fa8565b610562565b6040516102279291906112cf565b60405180910390f35b61024a60048036038101906102459190610fa8565b61060c565b005b61026660048036038101906102619190610fa8565b610664565b005b610282600480360381019061027d9190610fd5565b6106bc565b005b61029e60048036038101906102999190611082565b6106c0565b6040516102ab919061127e565b60405180910390f35b6102bc61072a565b6040516102c99190611299565b60405180910390f35b6102ec60048036038101906102e79190610fa8565b610731565b005b61030860048036038101906103039190610fa8565b6107a6565b60405161031591906112b4565b60405180910390f35b61033860048036038101906103339190611082565b6107ff565b005b610342610828565b60405161034f9190611299565b60405180910390f35b61036061084c565b60405161036d9190611299565b60405180910390f35b610390600480360381019061038b9190611015565b610870565b005b60007f7965db0b000000000000000000000000000000000000000000000000000000007bffffffffffffffffffffffffffffffffffffffffffffffffffffffff1916827bffffffffffffffffffffffffffffffffffffffffffffffffffffffff19161480610405575061040482610a07565b5b9050919050565b610415336104a0565b610454576040517f08c379a000000000000000000000000000000000000000000000000000000000815260040161044b9061133a565b60405180910390fd5b61047e7ff309ffc42715a0bfccdfa0c4cac305505f15ab9b9262b7451ceea96c0cc35187826104b6565b50565b6000806000838152602001908152602001600020600101549050919050565b60006104af6000801b836106c0565b9050919050565b6104bf82610481565b6104d0816104cb610a71565b610a79565b6104da8383610b16565b505050565b6104e7610a71565b73ffffffffffffffffffffffffffffffffffffffff168173ffffffffffffffffffffffffffffffffffffffff1614610554576040517f08c379a000000000000000000000000000000000000000000000000000000000815260040161054b9061135a565b60405180910390fd5b61055e8282610bf6565b5050565b6000806000600360008573ffffffffffffffffffffffffffffffffffffffff1673ffffffffffffffffffffffffffffffffffffffff168152602001908152602001600020604051806040016040529081600082015481526020016001820160009054906101000a900460ff1660028111156105e0576105df611592565b5b60028111156105f2576105f1611592565b5b815250509050806020015181600001519250925050915091565b610615336104a0565b610654576040517f08c379a000000000000000000000000000000000000000000000000000000000815260040161064b9061133a565b60405180910390fd5b6106616000801b826104b6565b50565b61066d336104a0565b6106ac576040517f08c379a00000000000000000000000000000000000000000000000000000000081526004016106a39061133a565b60405180910390fd5b6106b96000801b826104b6565b50565b5050565b600080600084815260200190815260200160002060000160008373ffffffffffffffffffffffffffffffffffffffff1673ffffffffffffffffffffffffffffffffffffffff16815260200190815260200160002060009054906101000a900460ff16905092915050565b6000801b81565b61073a336104a0565b610779576040517f08c379a00000000000000000000000000000000000000000000000000000000081526004016107709061133a565b60405180910390fd5b6107a37f85faced7bde13e1a7dad704b895f006e704f207617d68166b31ba2d79624862d826104b6565b50565b6000600360008373ffffffffffffffffffffffffffffffffffffffff1673ffffffffffffffffffffffffffffffffffffffff16815260200190815260200160002060010160009054906101000a900460ff169050919050565b61080882610481565b61081981610814610a71565b610a79565b6108238383610bf6565b505050565b7f85faced7bde13e1a7dad704b895f006e704f207617d68166b31ba2d79624862d81565b7ff309ffc42715a0bfccdfa0c4cac305505f15ab9b9262b7451ceea96c0cc3518781565b610879336104a0565b6108b8576040517f08c379a00000000000000000000000000000000000000000000000000000000081526004016108af9061133a565b60405180910390fd5b6108c0610f13565b428160000181815250506000821415610909576000816020019060028111156108ec576108eb611592565b5b90816002811115610900576108ff611592565b5b81525050610985565b60018214156109485760018160200190600281111561092b5761092a611592565b5b9081600281111561093f5761093e611592565b5b81525050610984565b60028214156109835760028160200190600281111561096a57610969611592565b5b9081600281111561097e5761097d611592565b5b815250505b5b5b80600360008573ffffffffffffffffffffffffffffffffffffffff1673ffffffffffffffffffffffffffffffffffffffff1681526020019081526020016000206000820151816000015560208201518160010160006101000a81548160ff021916908360028111156109fa576109f9611592565b5b0217905550905050505050565b60007f01ffc9a7000000000000000000000000000000000000000000000000000000007bffffffffffffffffffffffffffffffffffffffffffffffffffffffff1916827bffffffffffffffffffffffffffffffffffffffffffffffffffffffff1916149050919050565b600033905090565b610a8382826106c0565b610b1257610aa88173ffffffffffffffffffffffffffffffffffffffff166014610cd7565b610ab68360001c6020610cd7565b604051602001610ac7929190611244565b6040516020818303038152906040526040517f08c379a0000000000000000000000000000000000000000000000000000000008152600401610b0991906112f8565b60405180910390fd5b5050565b610b2082826106c0565b610bf257600160008084815260200190815260200160002060000160008373ffffffffffffffffffffffffffffffffffffffff1673ffffffffffffffffffffffffffffffffffffffff16815260200190815260200160002060006101000a81548160ff021916908315150217905550610b97610a71565b73ffffffffffffffffffffffffffffffffffffffff168173ffffffffffffffffffffffffffffffffffffffff16837f2f8788117e7eff1d82e926ec794901d17c78024a50270940304540a733656f0d60405160405180910390a45b5050565b610c0082826106c0565b15610cd357600080600084815260200190815260200160002060000160008373ffffffffffffffffffffffffffffffffffffffff1673ffffffffffffffffffffffffffffffffffffffff16815260200190815260200160002060006101000a81548160ff021916908315150217905550610c78610a71565b73ffffffffffffffffffffffffffffffffffffffff168173ffffffffffffffffffffffffffffffffffffffff16837ff6391f5c32d9c69d2a47ea670b442974b53935d1edc7fd64eb21e047a839171b60405160405180910390a45b5050565b606060006002836002610cea91906113f7565b610cf491906113a1565b67ffffffffffffffff811115610d0d57610d0c6115f0565b5b6040519080825280601f01601f191660200182016040528015610d3f5781602001600182028036833780820191505090505b5090507f300000000000000000000000000000000000000000000000000000000000000081600081518110610d7757610d766115c1565b5b60200101907effffffffffffffffffffffffffffffffffffffffffffffffffffffffffffff1916908160001a9053507f780000000000000000000000000000000000000000000000000000000000000081600181518110610ddb57610dda6115c1565b5b60200101907effffffffffffffffffffffffffffffffffffffffffffffffffffffffffffff1916908160001a90535060006001846002610e1b91906113f7565b610e2591906113a1565b90505b6001811115610ec5577f3031323334353637383961626364656600000000000000000000000000000000600f861660108110610e6757610e666115c1565b5b1a60f81b828281518110610e7e57610e7d6115c1565b5b60200101907effffffffffffffffffffffffffffffffffffffffffffffffffffffffffffff1916908160001a905350600485901c945080610ebe90611539565b9050610e28565b5060008414610f09576040517f08c379a0000000000000000000000000000000000000000000000000000000008152600401610f009061131a565b60405180910390fd5b8091505092915050565b60405180604001604052806000815260200160006002811115610f3957610f38611592565b5b81525090565b600081359050610f4e8161173c565b92915050565b600081359050610f6381611753565b92915050565b600081359050610f788161176a565b92915050565b600081359050610f8d81611781565b92915050565b600081359050610fa281611798565b92915050565b600060208284031215610fbe57610fbd61161f565b5b6000610fcc84828501610f3f565b91505092915050565b60008060408385031215610fec57610feb61161f565b5b6000610ffa85828601610f3f565b925050602061100b85828601610f7e565b9150509250929050565b6000806040838503121561102c5761102b61161f565b5b600061103a85828601610f3f565b925050602061104b85828601610f93565b9150509250929050565b60006020828403121561106b5761106a61161f565b5b600061107984828501610f54565b91505092915050565b600080604083850312156110995761109861161f565b5b60006110a785828601610f54565b92505060206110b885828601610f3f565b9150509250929050565b6000602082840312156110d8576110d761161f565b5b60006110e684828501610f69565b91505092915050565b6110f881611463565b82525050565b6111078161146f565b82525050565b611116816114f4565b82525050565b60006111278261137a565b6111318185611385565b9350611141818560208601611506565b61114a81611624565b840191505092915050565b60006111608261137a565b61116a8185611396565b935061117a818560208601611506565b80840191505092915050565b6000611193602083611385565b915061119e82611635565b602082019050919050565b60006111b6601583611385565b91506111c18261165e565b602082019050919050565b60006111d9601783611396565b91506111e482611687565b601782019050919050565b60006111fc601183611396565b9150611207826116b0565b601182019050919050565b600061121f602f83611385565b915061122a826116d9565b604082019050919050565b61123e816114ea565b82525050565b600061124f826111cc565b915061125b8285611155565b9150611266826111ef565b91506112728284611155565b91508190509392505050565b600060208201905061129360008301846110ef565b92915050565b60006020820190506112ae60008301846110fe565b92915050565b60006020820190506112c9600083018461110d565b92915050565b60006040820190506112e4600083018561110d565b6112f16020830184611235565b9392505050565b60006020820190508181036000830152611312818461111c565b905092915050565b6000602082019050818103600083015261133381611186565b9050919050565b60006020820190508181036000830152611353816111a9565b9050919050565b6000602082019050818103600083015261137381611212565b9050919050565b600081519050919050565b600082825260208201905092915050565b600081905092915050565b60006113ac826114ea565b91506113b7836114ea565b9250827fffffffffffffffffffffffffffffffffffffffffffffffffffffffffffffffff038211156113ec576113eb611563565b5b828201905092915050565b6000611402826114ea565b915061140d836114ea565b9250817fffffffffffffffffffffffffffffffffffffffffffffffffffffffffffffffff048311821515161561144657611445611563565b5b828202905092915050565b600061145c826114ca565b9050919050565b60008115159050919050565b6000819050919050565b60007fffffffff0000000000000000000000000000000000000000000000000000000082169050919050565b60006114b082611451565b9050919050565b60008190506114c582611728565b919050565b600073ffffffffffffffffffffffffffffffffffffffff82169050919050565b6000819050919050565b60006114ff826114b7565b9050919050565b60005b83811015611524578082015181840152602081019050611509565b83811115611533576000848401525b50505050565b6000611544826114ea565b9150600082141561155857611557611563565b5b600182039050919050565b7f4e487b7100000000000000000000000000000000000000000000000000000000600052601160045260246000fd5b7f4e487b7100000000000000000000000000000000000000000000000000000000600052602160045260246000fd5b7f4e487b7100000000000000000000000000000000000000000000000000000000600052603260045260246000fd5b7f4e487b7100000000000000000000000000000000000000000000000000000000600052604160045260246000fd5b600080fd5b6000601f19601f8301169050919050565b7f537472696e67733a20686578206c656e67746820696e73756666696369656e74600082015250565b7f5265737472696374656420746f2061646d696e732e0000000000000000000000600082015250565b7f416363657373436f6e74726f6c3a206163636f756e7420000000000000000000600082015250565b7f206973206d697373696e6720726f6c6520000000000000000000000000000000600082015250565b7f416363657373436f6e74726f6c3a2063616e206f6e6c792072656e6f756e636560008201527f20726f6c657320666f722073656c660000000000000000000000000000000000602082015250565b6003811061173957611738611592565b5b50565b61174581611451565b811461175057600080fd5b50565b61175c8161146f565b811461176757600080fd5b50565b61177381611479565b811461177e57600080fd5b50565b61178a816114a5565b811461179557600080fd5b50565b6117a1816114ea565b81146117ac57600080fd5b5056fea264697066735822122016b30cca747972edd900ad131ebeb95c627a690265f51b47fe8be2c7028595cd64736f6c63430008060033a26469706673582212206e2a62681b121f2b3b3b6f194c0446c94ca3cf795e905694e0215ba2169a66bf64736f6c63430008060033",
			"opcodes": "PUSH1 0x80 PUSH1 0x40 MSTORE CALLVALUE DUP1 ISZERO PUSH3 0x11 JUMPI PUSH1 0x0 DUP1 REVERT JUMPDEST POP PUSH3 0x27 PUSH1 0x0 DUP1 SHL CALLER PUSH3 0x2D PUSH1 0x20 SHL PUSH1 0x20 SHR JUMP JUMPDEST PUSH3 0x1A6 JUMP JUMPDEST PUSH3 0x3F DUP3 DUP3 PUSH3 0x43 PUSH1 0x20 SHL PUSH1 0x20 SHR JUMP JUMPDEST POP POP JUMP JUMPDEST PUSH3 0x55 DUP3 DUP3 PUSH3 0x134 PUSH1 0x20 SHL PUSH1 0x20 SHR JUMP JUMPDEST PUSH3 0x130 JUMPI PUSH1 0x1 PUSH1 0x0 DUP1 DUP5 DUP2 MSTORE PUSH1 0x20 ADD SWAP1 DUP2 MSTORE PUSH1 0x20 ADD PUSH1 0x0 KECCAK256 PUSH1 0x0 ADD PUSH1 0x0 DUP4 PUSH20 0xFFFFFFFFFFFFFFFFFFFFFFFFFFFFFFFFFFFFFFFF AND PUSH20 0xFFFFFFFFFFFFFFFFFFFFFFFFFFFFFFFFFFFFFFFF AND DUP2 MSTORE PUSH1 0x20 ADD SWAP1 DUP2 MSTORE PUSH1 0x20 ADD PUSH1 0x0 KECCAK256 PUSH1 0x0 PUSH2 0x100 EXP DUP2 SLOAD DUP2 PUSH1 0xFF MUL NOT AND SWAP1 DUP4 ISZERO ISZERO MUL OR SWAP1 SSTORE POP PUSH3 0xD5 PUSH3 0x19E PUSH1 0x20 SHL PUSH1 0x20 SHR JUMP JUMPDEST PUSH20 0xFFFFFFFFFFFFFFFFFFFFFFFFFFFFFFFFFFFFFFFF AND DUP2 PUSH20 0xFFFFFFFFFFFFFFFFFFFFFFFFFFFFFFFFFFFFFFFF AND DUP4 PUSH32 0x2F8788117E7EFF1D82E926EC794901D17C78024A50270940304540A733656F0D PUSH1 0x40 MLOAD PUSH1 0x40 MLOAD DUP1 SWAP2 SUB SWAP1 LOG4 JUMPDEST POP POP JUMP JUMPDEST PUSH1 0x0 DUP1 PUSH1 0x0 DUP5 DUP2 MSTORE PUSH1 0x20 ADD SWAP1 DUP2 MSTORE PUSH1 0x20 ADD PUSH1 0x0 KECCAK256 PUSH1 0x0 ADD PUSH1 0x0 DUP4 PUSH20 0xFFFFFFFFFFFFFFFFFFFFFFFFFFFFFFFFFFFFFFFF AND PUSH20 0xFFFFFFFFFFFFFFFFFFFFFFFFFFFFFFFFFFFFFFFF AND DUP2 MSTORE PUSH1 0x20 ADD SWAP1 DUP2 MSTORE PUSH1 0x20 ADD PUSH1 0x0 KECCAK256 PUSH1 0x0 SWAP1 SLOAD SWAP1 PUSH2 0x100 EXP SWAP1 DIV PUSH1 0xFF AND SWAP1 POP SWAP3 SWAP2 POP POP JUMP JUMPDEST PUSH1 0x0 CALLER SWAP1 POP SWAP1 JUMP JUMPDEST PUSH2 0x5278 DUP1 PUSH3 0x1B6 PUSH1 0x0 CODECOPY PUSH1 0x0 RETURN INVALID PUSH1 0x80 PUSH1 0x40 MSTORE CALLVALUE DUP1 ISZERO PUSH3 0x11 JUMPI PUSH1 0x0 DUP1 REVERT JUMPDEST POP PUSH1 0x4 CALLDATASIZE LT PUSH3 0x1B4 JUMPI PUSH1 0x0 CALLDATALOAD PUSH1 0xE0 SHR DUP1 PUSH4 0x70480275 GT PUSH3 0xF3 JUMPI DUP1 PUSH4 0xB4AF12BF GT PUSH3 0xA5 JUMPI DUP1 PUSH4 0xD9EE3845 GT PUSH3 0x7B JUMPI DUP1 PUSH4 0xD9EE3845 EQ PUSH3 0x533 JUMPI DUP1 PUSH4 0xE9AA339B EQ PUSH3 0x569 JUMPI DUP1 PUSH4 0xF0BD87CC EQ PUSH3 0x59F JUMPI DUP1 PUSH4 0xF3943970 EQ PUSH3 0x5C1 JUMPI PUSH3 0x1B4 JUMP JUMPDEST DUP1 PUSH4 0xB4AF12BF EQ PUSH3 0x4D3 JUMPI DUP1 PUSH4 0xBE068821 EQ PUSH3 0x4F3 JUMPI DUP1 PUSH4 0xD547741F EQ PUSH3 0x513 JUMPI PUSH3 0x1B4 JUMP JUMPDEST DUP1 PUSH4 0x70480275 EQ PUSH3 0x3E5 JUMPI DUP1 PUSH4 0x8CD6D3C0 EQ PUSH3 0x405 JUMPI DUP1 PUSH4 0x8F283970 EQ PUSH3 0x425 JUMPI DUP1 PUSH4 0x91D14854 EQ PUSH3 0x445 JUMPI DUP1 PUSH4 0xA217FDDF EQ PUSH3 0x47B JUMPI DUP1 PUSH4 0xA6F50C59 EQ PUSH3 0x49D JUMPI PUSH3 0x1B4 JUMP JUMPDEST DUP1 PUSH4 0x24D7806C GT PUSH3 0x16B JUMPI DUP1 PUSH4 0x36568ABE GT PUSH3 0x141 JUMPI DUP1 PUSH4 0x36568ABE EQ PUSH3 0x336 JUMPI DUP1 PUSH4 0x40B1FC43 EQ PUSH3 0x356 JUMPI DUP1 PUSH4 0x4C813FF1 EQ PUSH3 0x38C JUMPI DUP1 PUSH4 0x5ECE0B54 EQ PUSH3 0x3C5 JUMPI PUSH3 0x1B4 JUMP JUMPDEST DUP1 PUSH4 0x24D7806C EQ PUSH3 0x2AA JUMPI DUP1 PUSH4 0x2F2FF15D EQ PUSH3 0x2E0 JUMPI DUP1 PUSH4 0x3460C114 EQ PUSH3 0x300 JUMPI PUSH3 0x1B4 JUMP JUMPDEST DUP1 PUSH4 0x1FFC9A7 EQ PUSH3 0x1B9 JUMPI DUP1 PUSH4 0x68AF890 EQ PUSH3 0x1EF JUMPI DUP1 PUSH4 0x8CCF219 EQ PUSH3 0x20F JUMPI DUP1 PUSH4 0x19CE533C EQ PUSH3 0x22F JUMPI DUP1 PUSH4 0x1C9A4FD1 EQ PUSH3 0x23B JUMPI DUP1 PUSH4 0x248A9CA3 EQ PUSH3 0x274 JUMPI JUMPDEST PUSH1 0x0 DUP1 REVERT JUMPDEST PUSH3 0x1D7 PUSH1 0x4 DUP1 CALLDATASIZE SUB DUP2 ADD SWAP1 PUSH3 0x1D1 SWAP2 SWAP1 PUSH3 0x2EC7 JUMP JUMPDEST PUSH3 0x5E3 JUMP JUMPDEST PUSH1 0x40 MLOAD PUSH3 0x1E6 SWAP2 SWAP1 PUSH3 0x3288 JUMP JUMPDEST PUSH1 0x40 MLOAD DUP1 SWAP2 SUB SWAP1 RETURN JUMPDEST PUSH3 0x20D PUSH1 0x4 DUP1 CALLDATASIZE SUB DUP2 ADD SWAP1 PUSH3 0x207 SWAP2 SWAP1 PUSH3 0x2C48 JUMP JUMPDEST PUSH3 0x660 JUMP JUMPDEST STOP JUMPDEST PUSH3 0x22D PUSH1 0x4 DUP1 CALLDATASIZE SUB DUP2 ADD SWAP1 PUSH3 0x227 SWAP2 SWAP1 PUSH3 0x2C16 JUMP JUMPDEST PUSH3 0x842 JUMP JUMPDEST STOP JUMPDEST PUSH3 0x239 PUSH3 0x8BE JUMP JUMPDEST STOP JUMPDEST PUSH3 0x259 PUSH1 0x4 DUP1 CALLDATASIZE SUB DUP2 ADD SWAP1 PUSH3 0x253 SWAP2 SWAP1 PUSH3 0x2C16 JUMP JUMPDEST PUSH3 0x979 JUMP JUMPDEST PUSH1 0x40 MLOAD PUSH3 0x26B SWAP5 SWAP4 SWAP3 SWAP2 SWAP1 PUSH3 0x323B JUMP JUMPDEST PUSH1 0x40 MLOAD DUP1 SWAP2 SUB SWAP1 RETURN JUMPDEST PUSH3 0x292 PUSH1 0x4 DUP1 CALLDATASIZE SUB DUP2 ADD SWAP1 PUSH3 0x28C SWAP2 SWAP1 PUSH3 0x2E4E JUMP JUMPDEST PUSH3 0xD7B JUMP JUMPDEST PUSH1 0x40 MLOAD PUSH3 0x2A1 SWAP2 SWAP1 PUSH3 0x32A5 JUMP JUMPDEST PUSH1 0x40 MLOAD DUP1 SWAP2 SUB SWAP1 RETURN JUMPDEST PUSH3 0x2C8 PUSH1 0x4 DUP1 CALLDATASIZE SUB DUP2 ADD SWAP1 PUSH3 0x2C2 SWAP2 SWAP1 PUSH3 0x2C16 JUMP JUMPDEST PUSH3 0xD9A JUMP JUMPDEST PUSH1 0x40 MLOAD PUSH3 0x2D7 SWAP2 SWAP1 PUSH3 0x3288 JUMP JUMPDEST PUSH1 0x40 MLOAD DUP1 SWAP2 SUB SWAP1 RETURN JUMPDEST PUSH3 0x2FE PUSH1 0x4 DUP1 CALLDATASIZE SUB DUP2 ADD SWAP1 PUSH3 0x2F8 SWAP2 SWAP1 PUSH3 0x2E80 JUMP JUMPDEST PUSH3 0xDB2 JUMP JUMPDEST STOP JUMPDEST PUSH3 0x31E PUSH1 0x4 DUP1 CALLDATASIZE SUB DUP2 ADD SWAP1 PUSH3 0x318 SWAP2 SWAP1 PUSH3 0x2C16 JUMP JUMPDEST PUSH3 0xDE3 JUMP JUMPDEST PUSH1 0x40 MLOAD PUSH3 0x32D SWAP2 SWAP1 PUSH3 0x3288 JUMP JUMPDEST PUSH1 0x40 MLOAD DUP1 SWAP2 SUB SWAP1 RETURN JUMPDEST PUSH3 0x354 PUSH1 0x4 DUP1 CALLDATASIZE SUB DUP2 ADD SWAP1 PUSH3 0x34E SWAP2 SWAP1 PUSH3 0x2E80 JUMP JUMPDEST PUSH3 0xE8F JUMP JUMPDEST STOP JUMPDEST PUSH3 0x374 PUSH1 0x4 DUP1 CALLDATASIZE SUB DUP2 ADD SWAP1 PUSH3 0x36E SWAP2 SWAP1 PUSH3 0x2EF9 JUMP JUMPDEST PUSH3 0xF19 JUMP JUMPDEST PUSH1 0x40 MLOAD PUSH3 0x383 SWAP2 SWAP1 PUSH3 0x3288 JUMP JUMPDEST PUSH1 0x40 MLOAD DUP1 SWAP2 SUB SWAP1 RETURN JUMPDEST PUSH3 0x3AA PUSH1 0x4 DUP1 CALLDATASIZE SUB DUP2 ADD SWAP1 PUSH3 0x3A4 SWAP2 SWAP1 PUSH3 0x2C8F JUMP JUMPDEST PUSH3 0xF8B JUMP JUMPDEST PUSH1 0x40 MLOAD PUSH3 0x3BC SWAP5 SWAP4 SWAP3 SWAP2 SWAP1 PUSH3 0x323B JUMP JUMPDEST PUSH1 0x40 MLOAD DUP1 SWAP2 SUB SWAP1 RETURN JUMPDEST PUSH3 0x3E3 PUSH1 0x4 DUP1 CALLDATASIZE SUB DUP2 ADD SWAP1 PUSH3 0x3DD SWAP2 SWAP1 PUSH3 0x2D17 JUMP JUMPDEST PUSH3 0x14E8 JUMP JUMPDEST STOP JUMPDEST PUSH3 0x403 PUSH1 0x4 DUP1 CALLDATASIZE SUB DUP2 ADD SWAP1 PUSH3 0x3FD SWAP2 SWAP1 PUSH3 0x2C16 JUMP JUMPDEST PUSH3 0x16BC JUMP JUMPDEST STOP JUMPDEST PUSH3 0x423 PUSH1 0x4 DUP1 CALLDATASIZE SUB DUP2 ADD SWAP1 PUSH3 0x41D SWAP2 SWAP1 PUSH3 0x2F2B JUMP JUMPDEST PUSH3 0x171B JUMP JUMPDEST STOP JUMPDEST PUSH3 0x443 PUSH1 0x4 DUP1 CALLDATASIZE SUB DUP2 ADD SWAP1 PUSH3 0x43D SWAP2 SWAP1 PUSH3 0x2C16 JUMP JUMPDEST PUSH3 0x1895 JUMP JUMPDEST STOP JUMPDEST PUSH3 0x463 PUSH1 0x4 DUP1 CALLDATASIZE SUB DUP2 ADD SWAP1 PUSH3 0x45D SWAP2 SWAP1 PUSH3 0x2E80 JUMP JUMPDEST PUSH3 0x18F4 JUMP JUMPDEST PUSH1 0x40 MLOAD PUSH3 0x472 SWAP2 SWAP1 PUSH3 0x3288 JUMP JUMPDEST PUSH1 0x40 MLOAD DUP1 SWAP2 SUB SWAP1 RETURN JUMPDEST PUSH3 0x485 PUSH3 0x195E JUMP JUMPDEST PUSH1 0x40 MLOAD PUSH3 0x494 SWAP2 SWAP1 PUSH3 0x32A5 JUMP JUMPDEST PUSH1 0x40 MLOAD DUP1 SWAP2 SUB SWAP1 RETURN JUMPDEST PUSH3 0x4BB PUSH1 0x4 DUP1 CALLDATASIZE SUB DUP2 ADD SWAP1 PUSH3 0x4B5 SWAP2 SWAP1 PUSH3 0x2C48 JUMP JUMPDEST PUSH3 0x1965 JUMP JUMPDEST PUSH1 0x40 MLOAD PUSH3 0x4CA SWAP2 SWAP1 PUSH3 0x3288 JUMP JUMPDEST PUSH1 0x40 MLOAD DUP1 SWAP2 SUB SWAP1 RETURN JUMPDEST PUSH3 0x4F1 PUSH1 0x4 DUP1 CALLDATASIZE SUB DUP2 ADD SWAP1 PUSH3 0x4EB SWAP2 SWAP1 PUSH3 0x2C16 JUMP JUMPDEST PUSH3 0x1D7A JUMP JUMPDEST STOP JUMPDEST PUSH3 0x511 PUSH1 0x4 DUP1 CALLDATASIZE SUB DUP2 ADD SWAP1 PUSH3 0x50B SWAP2 SWAP1 PUSH3 0x2F2B JUMP JUMPDEST PUSH3 0x1DF6 JUMP JUMPDEST STOP JUMPDEST PUSH3 0x531 PUSH1 0x4 DUP1 CALLDATASIZE SUB DUP2 ADD SWAP1 PUSH3 0x52B SWAP2 SWAP1 PUSH3 0x2E80 JUMP JUMPDEST PUSH3 0x1FBB JUMP JUMPDEST STOP JUMPDEST PUSH3 0x551 PUSH1 0x4 DUP1 CALLDATASIZE SUB DUP2 ADD SWAP1 PUSH3 0x54B SWAP2 SWAP1 PUSH3 0x2C16 JUMP JUMPDEST PUSH3 0x1FEC JUMP JUMPDEST PUSH1 0x40 MLOAD PUSH3 0x560 SWAP2 SWAP1 PUSH3 0x334C JUMP JUMPDEST PUSH1 0x40 MLOAD DUP1 SWAP2 SUB SWAP1 RETURN JUMPDEST PUSH3 0x587 PUSH1 0x4 DUP1 CALLDATASIZE SUB DUP2 ADD SWAP1 PUSH3 0x581 SWAP2 SWAP1 PUSH3 0x2EF9 JUMP JUMPDEST PUSH3 0x2352 JUMP JUMPDEST PUSH1 0x40 MLOAD PUSH3 0x596 SWAP2 SWAP1 PUSH3 0x32A5 JUMP JUMPDEST PUSH1 0x40 MLOAD DUP1 SWAP2 SUB SWAP1 RETURN JUMPDEST PUSH3 0x5A9 PUSH3 0x2426 JUMP JUMPDEST PUSH1 0x40 MLOAD PUSH3 0x5B8 SWAP2 SWAP1 PUSH3 0x32A5 JUMP JUMPDEST PUSH1 0x40 MLOAD DUP1 SWAP2 SUB SWAP1 RETURN JUMPDEST PUSH3 0x5CB PUSH3 0x244A JUMP JUMPDEST PUSH1 0x40 MLOAD PUSH3 0x5DA SWAP2 SWAP1 PUSH3 0x32A5 JUMP JUMPDEST PUSH1 0x40 MLOAD DUP1 SWAP2 SUB SWAP1 RETURN JUMPDEST PUSH1 0x0 PUSH32 0x7965DB0B00000000000000000000000000000000000000000000000000000000 PUSH28 0xFFFFFFFFFFFFFFFFFFFFFFFFFFFFFFFFFFFFFFFFFFFFFFFFFFFFFFFF NOT AND DUP3 PUSH28 0xFFFFFFFFFFFFFFFFFFFFFFFFFFFFFFFFFFFFFFFFFFFFFFFFFFFFFFFF NOT AND EQ DUP1 PUSH3 0x659 JUMPI POP PUSH3 0x658 DUP3 PUSH3 0x246E JUMP JUMPDEST JUMPDEST SWAP1 POP SWAP2 SWAP1 POP JUMP JUMPDEST PUSH3 0x66B CALLER PUSH3 0xD9A JUMP JUMPDEST PUSH3 0x6AD JUMPI PUSH1 0x40 MLOAD PUSH32 0x8C379A000000000000000000000000000000000000000000000000000000000 DUP2 MSTORE PUSH1 0x4 ADD PUSH3 0x6A4 SWAP1 PUSH3 0x3308 JUMP JUMPDEST PUSH1 0x40 MLOAD DUP1 SWAP2 SUB SWAP1 REVERT JUMPDEST PUSH3 0x6B7 PUSH3 0x29AE JUMP JUMPDEST DUP2 DUP2 PUSH1 0x0 ADD SWAP1 PUSH20 0xFFFFFFFFFFFFFFFFFFFFFFFFFFFFFFFFFFFFFFFF AND SWAP1 DUP2 PUSH20 0xFFFFFFFFFFFFFFFFFFFFFFFFFFFFFFFFFFFFFFFF AND DUP2 MSTORE POP POP DUP1 PUSH1 0x4 PUSH1 0x0 DUP6 PUSH20 0xFFFFFFFFFFFFFFFFFFFFFFFFFFFFFFFFFFFFFFFF AND PUSH20 0xFFFFFFFFFFFFFFFFFFFFFFFFFFFFFFFFFFFFFFFF AND DUP2 MSTORE PUSH1 0x20 ADD SWAP1 DUP2 MSTORE PUSH1 0x20 ADD PUSH1 0x0 KECCAK256 PUSH1 0x0 DUP3 ADD MLOAD DUP2 PUSH1 0x0 ADD PUSH1 0x0 PUSH2 0x100 EXP DUP2 SLOAD DUP2 PUSH20 0xFFFFFFFFFFFFFFFFFFFFFFFFFFFFFFFFFFFFFFFF MUL NOT AND SWAP1 DUP4 PUSH20 0xFFFFFFFFFFFFFFFFFFFFFFFFFFFFFFFFFFFFFFFF AND MUL OR SWAP1 SSTORE POP PUSH1 0x20 DUP3 ADD MLOAD DUP2 PUSH1 0x1 ADD SSTORE PUSH1 0x40 DUP3 ADD MLOAD DUP2 PUSH1 0x2 ADD SSTORE PUSH1 0x60 DUP3 ADD MLOAD DUP2 PUSH1 0x3 ADD SSTORE PUSH1 0x80 DUP3 ADD MLOAD DUP2 PUSH1 0x4 ADD PUSH1 0x0 DUP3 ADD MLOAD DUP2 PUSH1 0x0 ADD SWAP1 DUP1 MLOAD SWAP1 PUSH1 0x20 ADD SWAP1 PUSH3 0x7BB SWAP3 SWAP2 SWAP1 PUSH3 0x29FE JUMP JUMPDEST POP PUSH1 0x20 DUP3 ADD MLOAD DUP2 PUSH1 0x1 ADD SWAP1 DUP1 MLOAD SWAP1 PUSH1 0x20 ADD SWAP1 PUSH3 0x7DA SWAP3 SWAP2 SWAP1 PUSH3 0x29FE JUMP JUMPDEST POP PUSH1 0x40 DUP3 ADD MLOAD DUP2 PUSH1 0x2 ADD SWAP1 DUP1 MLOAD SWAP1 PUSH1 0x20 ADD SWAP1 PUSH3 0x7F9 SWAP3 SWAP2 SWAP1 PUSH3 0x29FE JUMP JUMPDEST POP PUSH1 0x60 DUP3 ADD MLOAD DUP2 PUSH1 0x3 ADD SWAP1 DUP1 MLOAD SWAP1 PUSH1 0x20 ADD SWAP1 PUSH3 0x818 SWAP3 SWAP2 SWAP1 PUSH3 0x29FE JUMP JUMPDEST POP PUSH1 0x80 DUP3 ADD MLOAD DUP2 PUSH1 0x4 ADD SWAP1 DUP1 MLOAD SWAP1 PUSH1 0x20 ADD SWAP1 PUSH3 0x837 SWAP3 SWAP2 SWAP1 PUSH3 0x29FE JUMP JUMPDEST POP POP POP SWAP1 POP POP POP POP POP JUMP JUMPDEST PUSH3 0x84D CALLER PUSH3 0xD9A JUMP JUMPDEST PUSH3 0x88F JUMPI PUSH1 0x40 MLOAD PUSH32 0x8C379A000000000000000000000000000000000000000000000000000000000 DUP2 MSTORE PUSH1 0x4 ADD PUSH3 0x886 SWAP1 PUSH3 0x3308 JUMP JUMPDEST PUSH1 0x40 MLOAD DUP1 SWAP2 SUB SWAP1 REVERT JUMPDEST PUSH3 0x8BB PUSH32 0xF309FFC42715A0BFCCDFA0C4CAC305505F15AB9B9262B7451CEEA96C0CC35187 DUP3 PUSH3 0xDB2 JUMP JUMPDEST POP JUMP JUMPDEST PUSH3 0x8C9 CALLER PUSH3 0xD9A JUMP JUMPDEST PUSH3 0x90B JUMPI PUSH1 0x40 MLOAD PUSH32 0x8C379A000000000000000000000000000000000000000000000000000000000 DUP2 MSTORE PUSH1 0x4 ADD PUSH3 0x902 SWAP1 PUSH3 0x3308 JUMP JUMPDEST PUSH1 0x40 MLOAD DUP1 SWAP2 SUB SWAP1 REVERT JUMPDEST PUSH1 0x40 MLOAD PUSH3 0x919 SWAP1 PUSH3 0x2A8F JUMP JUMPDEST PUSH1 0x40 MLOAD DUP1 SWAP2 SUB SWAP1 PUSH1 0x0 CREATE DUP1 ISZERO DUP1 ISZERO PUSH3 0x936 JUMPI RETURNDATASIZE PUSH1 0x0 DUP1 RETURNDATACOPY RETURNDATASIZE PUSH1 0x0 REVERT JUMPDEST POP PUSH1 0x3 PUSH1 0x0 PUSH2 0x100 EXP DUP2 SLOAD DUP2 PUSH20 0xFFFFFFFFFFFFFFFFFFFFFFFFFFFFFFFFFFFFFFFF MUL NOT AND SWAP1 DUP4 PUSH20 0xFFFFFFFFFFFFFFFFFFFFFFFFFFFFFFFFFFFFFFFF AND MUL OR SWAP1 SSTORE POP JUMP JUMPDEST PUSH1 0x0 DUP1 PUSH1 0x0 DUP1 PUSH1 0x0 PUSH1 0x4 PUSH1 0x0 DUP8 PUSH20 0xFFFFFFFFFFFFFFFFFFFFFFFFFFFFFFFFFFFFFFFF AND PUSH20 0xFFFFFFFFFFFFFFFFFFFFFFFFFFFFFFFFFFFFFFFF AND DUP2 MSTORE PUSH1 0x20 ADD SWAP1 DUP2 MSTORE PUSH1 0x20 ADD PUSH1 0x0 KECCAK256 PUSH1 0x40 MLOAD DUP1 PUSH1 0xA0 ADD PUSH1 0x40 MSTORE SWAP1 DUP2 PUSH1 0x0 DUP3 ADD PUSH1 0x0 SWAP1 SLOAD SWAP1 PUSH2 0x100 EXP SWAP1 DIV PUSH20 0xFFFFFFFFFFFFFFFFFFFFFFFFFFFFFFFFFFFFFFFF AND PUSH20 0xFFFFFFFFFFFFFFFFFFFFFFFFFFFFFFFFFFFFFFFF AND PUSH20 0xFFFFFFFFFFFFFFFFFFFFFFFFFFFFFFFFFFFFFFFF AND DUP2 MSTORE PUSH1 0x20 ADD PUSH1 0x1 DUP3 ADD SLOAD DUP2 MSTORE PUSH1 0x20 ADD PUSH1 0x2 DUP3 ADD SLOAD DUP2 MSTORE PUSH1 0x20 ADD PUSH1 0x3 DUP3 ADD SLOAD DUP2 MSTORE PUSH1 0x20 ADD PUSH1 0x4 DUP3 ADD PUSH1 0x40 MLOAD DUP1 PUSH1 0xA0 ADD PUSH1 0x40 MSTORE SWAP1 DUP2 PUSH1 0x0 DUP3 ADD DUP1 SLOAD PUSH3 0xA61 SWAP1 PUSH3 0x35E5 JUMP JUMPDEST DUP1 PUSH1 0x1F ADD PUSH1 0x20 DUP1 SWAP2 DIV MUL PUSH1 0x20 ADD PUSH1 0x40 MLOAD SWAP1 DUP2 ADD PUSH1 0x40 MSTORE DUP1 SWAP3 SWAP2 SWAP1 DUP2 DUP2 MSTORE PUSH1 0x20 ADD DUP3 DUP1 SLOAD PUSH3 0xA8F SWAP1 PUSH3 0x35E5 JUMP JUMPDEST DUP1 ISZERO PUSH3 0xAE0 JUMPI DUP1 PUSH1 0x1F LT PUSH3 0xAB4 JUMPI PUSH2 0x100 DUP1 DUP4 SLOAD DIV MUL DUP4 MSTORE SWAP2 PUSH1 0x20 ADD SWAP2 PUSH3 0xAE0 JUMP JUMPDEST DUP3 ADD SWAP2 SWAP1 PUSH1 0x0 MSTORE PUSH1 0x20 PUSH1 0x0 KECCAK256 SWAP1 JUMPDEST DUP2 SLOAD DUP2 MSTORE SWAP1 PUSH1 0x1 ADD SWAP1 PUSH1 0x20 ADD DUP1 DUP4 GT PUSH3 0xAC2 JUMPI DUP3 SWAP1 SUB PUSH1 0x1F AND DUP3 ADD SWAP2 JUMPDEST POP POP POP POP POP DUP2 MSTORE PUSH1 0x20 ADD PUSH1 0x1 DUP3 ADD DUP1 SLOAD PUSH3 0xAFB SWAP1 PUSH3 0x35E5 JUMP JUMPDEST DUP1 PUSH1 0x1F ADD PUSH1 0x20 DUP1 SWAP2 DIV MUL PUSH1 0x20 ADD PUSH1 0x40 MLOAD SWAP1 DUP2 ADD PUSH1 0x40 MSTORE DUP1 SWAP3 SWAP2 SWAP1 DUP2 DUP2 MSTORE PUSH1 0x20 ADD DUP3 DUP1 SLOAD PUSH3 0xB29 SWAP1 PUSH3 0x35E5 JUMP JUMPDEST DUP1 ISZERO PUSH3 0xB7A JUMPI DUP1 PUSH1 0x1F LT PUSH3 0xB4E JUMPI PUSH2 0x100 DUP1 DUP4 SLOAD DIV MUL DUP4 MSTORE SWAP2 PUSH1 0x20 ADD SWAP2 PUSH3 0xB7A JUMP JUMPDEST DUP3 ADD SWAP2 SWAP1 PUSH1 0x0 MSTORE PUSH1 0x20 PUSH1 0x0 KECCAK256 SWAP1 JUMPDEST DUP2 SLOAD DUP2 MSTORE SWAP1 PUSH1 0x1 ADD SWAP1 PUSH1 0x20 ADD DUP1 DUP4 GT PUSH3 0xB5C JUMPI DUP3 SWAP1 SUB PUSH1 0x1F AND DUP3 ADD SWAP2 JUMPDEST POP POP POP POP POP DUP2 MSTORE PUSH1 0x20 ADD PUSH1 0x2 DUP3 ADD DUP1 SLOAD PUSH3 0xB95 SWAP1 PUSH3 0x35E5 JUMP JUMPDEST DUP1 PUSH1 0x1F ADD PUSH1 0x20 DUP1 SWAP2 DIV MUL PUSH1 0x20 ADD PUSH1 0x40 MLOAD SWAP1 DUP2 ADD PUSH1 0x40 MSTORE DUP1 SWAP3 SWAP2 SWAP1 DUP2 DUP2 MSTORE PUSH1 0x20 ADD DUP3 DUP1 SLOAD PUSH3 0xBC3 SWAP1 PUSH3 0x35E5 JUMP JUMPDEST DUP1 ISZERO PUSH3 0xC14 JUMPI DUP1 PUSH1 0x1F LT PUSH3 0xBE8 JUMPI PUSH2 0x100 DUP1 DUP4 SLOAD DIV MUL DUP4 MSTORE SWAP2 PUSH1 0x20 ADD SWAP2 PUSH3 0xC14 JUMP JUMPDEST DUP3 ADD SWAP2 SWAP1 PUSH1 0x0 MSTORE PUSH1 0x20 PUSH1 0x0 KECCAK256 SWAP1 JUMPDEST DUP2 SLOAD DUP2 MSTORE SWAP1 PUSH1 0x1 ADD SWAP1 PUSH1 0x20 ADD DUP1 DUP4 GT PUSH3 0xBF6 JUMPI DUP3 SWAP1 SUB PUSH1 0x1F AND DUP3 ADD SWAP2 JUMPDEST POP POP POP POP POP DUP2 MSTORE PUSH1 0x20 ADD PUSH1 0x3 DUP3 ADD DUP1 SLOAD PUSH3 0xC2F SWAP1 PUSH3 0x35E5 JUMP JUMPDEST DUP1 PUSH1 0x1F ADD PUSH1 0x20 DUP1 SWAP2 DIV MUL PUSH1 0x20 ADD PUSH1 0x40 MLOAD SWAP1 DUP2 ADD PUSH1 0x40 MSTORE DUP1 SWAP3 SWAP2 SWAP1 DUP2 DUP2 MSTORE PUSH1 0x20 ADD DUP3 DUP1 SLOAD PUSH3 0xC5D SWAP1 PUSH3 0x35E5 JUMP JUMPDEST DUP1 ISZERO PUSH3 0xCAE JUMPI DUP1 PUSH1 0x1F LT PUSH3 0xC82 JUMPI PUSH2 0x100 DUP1 DUP4 SLOAD DIV MUL DUP4 MSTORE SWAP2 PUSH1 0x20 ADD SWAP2 PUSH3 0xCAE JUMP JUMPDEST DUP3 ADD SWAP2 SWAP1 PUSH1 0x0 MSTORE PUSH1 0x20 PUSH1 0x0 KECCAK256 SWAP1 JUMPDEST DUP2 SLOAD DUP2 MSTORE SWAP1 PUSH1 0x1 ADD SWAP1 PUSH1 0x20 ADD DUP1 DUP4 GT PUSH3 0xC90 JUMPI DUP3 SWAP1 SUB PUSH1 0x1F AND DUP3 ADD SWAP2 JUMPDEST POP POP POP POP POP DUP2 MSTORE PUSH1 0x20 ADD PUSH1 0x4 DUP3 ADD DUP1 SLOAD PUSH3 0xCC9 SWAP1 PUSH3 0x35E5 JUMP JUMPDEST DUP1 PUSH1 0x1F ADD PUSH1 0x20 DUP1 SWAP2 DIV MUL PUSH1 0x20 ADD PUSH1 0x40 MLOAD SWAP1 DUP2 ADD PUSH1 0x40 MSTORE DUP1 SWAP3 SWAP2 SWAP1 DUP2 DUP2 MSTORE PUSH1 0x20 ADD DUP3 DUP1 SLOAD PUSH3 0xCF7 SWAP1 PUSH3 0x35E5 JUMP JUMPDEST DUP1 ISZERO PUSH3 0xD48 JUMPI DUP1 PUSH1 0x1F LT PUSH3 0xD1C JUMPI PUSH2 0x100 DUP1 DUP4 SLOAD DIV MUL DUP4 MSTORE SWAP2 PUSH1 0x20 ADD SWAP2 PUSH3 0xD48 JUMP JUMPDEST DUP3 ADD SWAP2 SWAP1 PUSH1 0x0 MSTORE PUSH1 0x20 PUSH1 0x0 KECCAK256 SWAP1 JUMPDEST DUP2 SLOAD DUP2 MSTORE SWAP1 PUSH1 0x1 ADD SWAP1 PUSH1 0x20 ADD DUP1 DUP4 GT PUSH3 0xD2A JUMPI DUP3 SWAP1 SUB PUSH1 0x1F AND DUP3 ADD SWAP2 JUMPDEST POP POP POP POP POP DUP2 MSTORE POP POP DUP2 MSTORE POP POP SWAP1 POP DUP1 PUSH1 0x0 ADD MLOAD DUP2 PUSH1 0x20 ADD MLOAD DUP3 PUSH1 0x40 ADD MLOAD DUP4 PUSH1 0x60 ADD MLOAD SWAP5 POP SWAP5 POP SWAP5 POP SWAP5 POP POP SWAP2 SWAP4 POP SWAP2 SWAP4 JUMP JUMPDEST PUSH1 0x0 DUP1 PUSH1 0x0 DUP4 DUP2 MSTORE PUSH1 0x20 ADD SWAP1 DUP2 MSTORE PUSH1 0x20 ADD PUSH1 0x0 KECCAK256 PUSH1 0x1 ADD SLOAD SWAP1 POP SWAP2 SWAP1 POP JUMP JUMPDEST PUSH1 0x0 PUSH3 0xDAB PUSH1 0x0 DUP1 SHL DUP4 PUSH3 0x18F4 JUMP JUMPDEST SWAP1 POP SWAP2 SWAP1 POP JUMP JUMPDEST PUSH3 0xDBD DUP3 PUSH3 0xD7B JUMP JUMPDEST PUSH3 0xDD2 DUP2 PUSH3 0xDCC PUSH3 0x24D8 JUMP JUMPDEST PUSH3 0x24E0 JUMP JUMPDEST PUSH3 0xDDE DUP4 DUP4 PUSH3 0x2588 JUMP JUMPDEST POP POP POP JUMP JUMPDEST PUSH1 0x0 DUP1 PUSH20 0xFFFFFFFFFFFFFFFFFFFFFFFFFFFFFFFFFFFFFFFF AND PUSH1 0x4 PUSH1 0x0 DUP5 PUSH20 0xFFFFFFFFFFFFFFFFFFFFFFFFFFFFFFFFFFFFFFFF AND PUSH20 0xFFFFFFFFFFFFFFFFFFFFFFFFFFFFFFFFFFFFFFFF AND DUP2 MSTORE PUSH1 0x20 ADD SWAP1 DUP2 MSTORE PUSH1 0x20 ADD PUSH1 0x0 KECCAK256 PUSH1 0x0 ADD PUSH1 0x0 SWAP1 SLOAD SWAP1 PUSH2 0x100 EXP SWAP1 DIV PUSH20 0xFFFFFFFFFFFFFFFFFFFFFFFFFFFFFFFFFFFFFFFF AND PUSH20 0xFFFFFFFFFFFFFFFFFFFFFFFFFFFFFFFFFFFFFFFF AND EQ PUSH3 0xE85 JUMPI PUSH1 0x1 SWAP1 POP PUSH3 0xE8A JUMP JUMPDEST PUSH1 0x0 SWAP1 POP JUMPDEST SWAP2 SWAP1 POP JUMP JUMPDEST PUSH3 0xE99 PUSH3 0x24D8 JUMP JUMPDEST PUSH20 0xFFFFFFFFFFFFFFFFFFFFFFFFFFFFFFFFFFFFFFFF AND DUP2 PUSH20 0xFFFFFFFFFFFFFFFFFFFFFFFFFFFFFFFFFFFFFFFF AND EQ PUSH3 0xF09 JUMPI PUSH1 0x40 MLOAD PUSH32 0x8C379A000000000000000000000000000000000000000000000000000000000 DUP2 MSTORE PUSH1 0x4 ADD PUSH3 0xF00 SWAP1 PUSH3 0x332A JUMP JUMPDEST PUSH1 0x40 MLOAD DUP1 SWAP2 SUB SWAP1 REVERT JUMPDEST PUSH3 0xF15 DUP3 DUP3 PUSH3 0x266D JUMP JUMPDEST POP POP JUMP JUMPDEST PUSH1 0x0 DUP1 PUSH1 0x0 SHL PUSH1 0x5 PUSH1 0x0 DUP5 PUSH26 0xFFFFFFFFFFFFFFFFFFFFFFFFFFFFFFFFFFFFFFFFFFFFFFFFFFFF NOT AND PUSH26 0xFFFFFFFFFFFFFFFFFFFFFFFFFFFFFFFFFFFFFFFFFFFFFFFFFFFF NOT AND DUP2 MSTORE PUSH1 0x20 ADD SWAP1 DUP2 MSTORE PUSH1 0x20 ADD PUSH1 0x0 KECCAK256 PUSH1 0x1 ADD SLOAD GT ISZERO PUSH3 0xF81 JUMPI PUSH1 0x1 SWAP1 POP PUSH3 0xF86 JUMP JUMPDEST PUSH1 0x0 SWAP1 POP JUMPDEST SWAP2 SWAP1 POP JUMP JUMPDEST PUSH1 0x0 DUP1 PUSH1 0x0 DUP1 DUP8 PUSH1 0x4 PUSH1 0x0 DUP12 PUSH20 0xFFFFFFFFFFFFFFFFFFFFFFFFFFFFFFFFFFFFFFFF AND PUSH20 0xFFFFFFFFFFFFFFFFFFFFFFFFFFFFFFFFFFFFFFFF AND DUP2 MSTORE PUSH1 0x20 ADD SWAP1 DUP2 MSTORE PUSH1 0x20 ADD PUSH1 0x0 KECCAK256 PUSH1 0x0 ADD PUSH1 0x0 PUSH2 0x100 EXP DUP2 SLOAD DUP2 PUSH20 0xFFFFFFFFFFFFFFFFFFFFFFFFFFFFFFFFFFFFFFFF MUL NOT AND SWAP1 DUP4 PUSH20 0xFFFFFFFFFFFFFFFFFFFFFFFFFFFFFFFFFFFFFFFF AND MUL OR SWAP1 SSTORE POP DUP7 PUSH1 0x4 PUSH1 0x0 DUP12 PUSH20 0xFFFFFFFFFFFFFFFFFFFFFFFFFFFFFFFFFFFFFFFF AND PUSH20 0xFFFFFFFFFFFFFFFFFFFFFFFFFFFFFFFFFFFFFFFF AND DUP2 MSTORE PUSH1 0x20 ADD SWAP1 DUP2 MSTORE PUSH1 0x20 ADD PUSH1 0x0 KECCAK256 PUSH1 0x1 ADD DUP2 SWAP1 SSTORE POP DUP6 PUSH1 0x4 PUSH1 0x0 DUP12 PUSH20 0xFFFFFFFFFFFFFFFFFFFFFFFFFFFFFFFFFFFFFFFF AND PUSH20 0xFFFFFFFFFFFFFFFFFFFFFFFFFFFFFFFFFFFFFFFF AND DUP2 MSTORE PUSH1 0x20 ADD SWAP1 DUP2 MSTORE PUSH1 0x20 ADD PUSH1 0x0 KECCAK256 PUSH1 0x2 ADD DUP2 SWAP1 SSTORE POP DUP5 PUSH1 0x4 PUSH1 0x0 DUP12 PUSH20 0xFFFFFFFFFFFFFFFFFFFFFFFFFFFFFFFFFFFFFFFF AND PUSH20 0xFFFFFFFFFFFFFFFFFFFFFFFFFFFFFFFFFFFFFFFF AND DUP2 MSTORE PUSH1 0x20 ADD SWAP1 DUP2 MSTORE PUSH1 0x20 ADD PUSH1 0x0 KECCAK256 PUSH1 0x3 ADD DUP2 SWAP1 SSTORE POP PUSH1 0x0 PUSH1 0x4 PUSH1 0x0 DUP12 PUSH20 0xFFFFFFFFFFFFFFFFFFFFFFFFFFFFFFFFFFFFFFFF AND PUSH20 0xFFFFFFFFFFFFFFFFFFFFFFFFFFFFFFFFFFFFFFFF AND DUP2 MSTORE PUSH1 0x20 ADD SWAP1 DUP2 MSTORE PUSH1 0x20 ADD PUSH1 0x0 KECCAK256 PUSH1 0x40 MLOAD DUP1 PUSH1 0xA0 ADD PUSH1 0x40 MSTORE SWAP1 DUP2 PUSH1 0x0 DUP3 ADD PUSH1 0x0 SWAP1 SLOAD SWAP1 PUSH2 0x100 EXP SWAP1 DIV PUSH20 0xFFFFFFFFFFFFFFFFFFFFFFFFFFFFFFFFFFFFFFFF AND PUSH20 0xFFFFFFFFFFFFFFFFFFFFFFFFFFFFFFFFFFFFFFFF AND PUSH20 0xFFFFFFFFFFFFFFFFFFFFFFFFFFFFFFFFFFFFFFFF AND DUP2 MSTORE PUSH1 0x20 ADD PUSH1 0x1 DUP3 ADD SLOAD DUP2 MSTORE PUSH1 0x20 ADD PUSH1 0x2 DUP3 ADD SLOAD DUP2 MSTORE PUSH1 0x20 ADD PUSH1 0x3 DUP3 ADD SLOAD DUP2 MSTORE PUSH1 0x20 ADD PUSH1 0x4 DUP3 ADD PUSH1 0x40 MLOAD DUP1 PUSH1 0xA0 ADD PUSH1 0x40 MSTORE SWAP1 DUP2 PUSH1 0x0 DUP3 ADD DUP1 SLOAD PUSH3 0x11C9 SWAP1 PUSH3 0x35E5 JUMP JUMPDEST DUP1 PUSH1 0x1F ADD PUSH1 0x20 DUP1 SWAP2 DIV MUL PUSH1 0x20 ADD PUSH1 0x40 MLOAD SWAP1 DUP2 ADD PUSH1 0x40 MSTORE DUP1 SWAP3 SWAP2 SWAP1 DUP2 DUP2 MSTORE PUSH1 0x20 ADD DUP3 DUP1 SLOAD PUSH3 0x11F7 SWAP1 PUSH3 0x35E5 JUMP JUMPDEST DUP1 ISZERO PUSH3 0x1248 JUMPI DUP1 PUSH1 0x1F LT PUSH3 0x121C JUMPI PUSH2 0x100 DUP1 DUP4 SLOAD DIV MUL DUP4 MSTORE SWAP2 PUSH1 0x20 ADD SWAP2 PUSH3 0x1248 JUMP JUMPDEST DUP3 ADD SWAP2 SWAP1 PUSH1 0x0 MSTORE PUSH1 0x20 PUSH1 0x0 KECCAK256 SWAP1 JUMPDEST DUP2 SLOAD DUP2 MSTORE SWAP1 PUSH1 0x1 ADD SWAP1 PUSH1 0x20 ADD DUP1 DUP4 GT PUSH3 0x122A JUMPI DUP3 SWAP1 SUB PUSH1 0x1F AND DUP3 ADD SWAP2 JUMPDEST POP POP POP POP POP DUP2 MSTORE PUSH1 0x20 ADD PUSH1 0x1 DUP3 ADD DUP1 SLOAD PUSH3 0x1263 SWAP1 PUSH3 0x35E5 JUMP JUMPDEST DUP1 PUSH1 0x1F ADD PUSH1 0x20 DUP1 SWAP2 DIV MUL PUSH1 0x20 ADD PUSH1 0x40 MLOAD SWAP1 DUP2 ADD PUSH1 0x40 MSTORE DUP1 SWAP3 SWAP2 SWAP1 DUP2 DUP2 MSTORE PUSH1 0x20 ADD DUP3 DUP1 SLOAD PUSH3 0x1291 SWAP1 PUSH3 0x35E5 JUMP JUMPDEST DUP1 ISZERO PUSH3 0x12E2 JUMPI DUP1 PUSH1 0x1F LT PUSH3 0x12B6 JUMPI PUSH2 0x100 DUP1 DUP4 SLOAD DIV MUL DUP4 MSTORE SWAP2 PUSH1 0x20 ADD SWAP2 PUSH3 0x12E2 JUMP JUMPDEST DUP3 ADD SWAP2 SWAP1 PUSH1 0x0 MSTORE PUSH1 0x20 PUSH1 0x0 KECCAK256 SWAP1 JUMPDEST DUP2 SLOAD DUP2 MSTORE SWAP1 PUSH1 0x1 ADD SWAP1 PUSH1 0x20 ADD DUP1 DUP4 GT PUSH3 0x12C4 JUMPI DUP3 SWAP1 SUB PUSH1 0x1F AND DUP3 ADD SWAP2 JUMPDEST POP POP POP POP POP DUP2 MSTORE PUSH1 0x20 ADD PUSH1 0x2 DUP3 ADD DUP1 SLOAD PUSH3 0x12FD SWAP1 PUSH3 0x35E5 JUMP JUMPDEST DUP1 PUSH1 0x1F ADD PUSH1 0x20 DUP1 SWAP2 DIV MUL PUSH1 0x20 ADD PUSH1 0x40 MLOAD SWAP1 DUP2 ADD PUSH1 0x40 MSTORE DUP1 SWAP3 SWAP2 SWAP1 DUP2 DUP2 MSTORE PUSH1 0x20 ADD DUP3 DUP1 SLOAD PUSH3 0x132B SWAP1 PUSH3 0x35E5 JUMP JUMPDEST DUP1 ISZERO PUSH3 0x137C JUMPI DUP1 PUSH1 0x1F LT PUSH3 0x1350 JUMPI PUSH2 0x100 DUP1 DUP4 SLOAD DIV MUL DUP4 MSTORE SWAP2 PUSH1 0x20 ADD SWAP2 PUSH3 0x137C JUMP JUMPDEST DUP3 ADD SWAP2 SWAP1 PUSH1 0x0 MSTORE PUSH1 0x20 PUSH1 0x0 KECCAK256 SWAP1 JUMPDEST DUP2 SLOAD DUP2 MSTORE SWAP1 PUSH1 0x1 ADD SWAP1 PUSH1 0x20 ADD DUP1 DUP4 GT PUSH3 0x135E JUMPI DUP3 SWAP1 SUB PUSH1 0x1F AND DUP3 ADD SWAP2 JUMPDEST POP POP POP POP POP DUP2 MSTORE PUSH1 0x20 ADD PUSH1 0x3 DUP3 ADD DUP1 SLOAD PUSH3 0x1397 SWAP1 PUSH3 0x35E5 JUMP JUMPDEST DUP1 PUSH1 0x1F ADD PUSH1 0x20 DUP1 SWAP2 DIV MUL PUSH1 0x20 ADD PUSH1 0x40 MLOAD SWAP1 DUP2 ADD PUSH1 0x40 MSTORE DUP1 SWAP3 SWAP2 SWAP1 DUP2 DUP2 MSTORE PUSH1 0x20 ADD DUP3 DUP1 SLOAD PUSH3 0x13C5 SWAP1 PUSH3 0x35E5 JUMP JUMPDEST DUP1 ISZERO PUSH3 0x1416 JUMPI DUP1 PUSH1 0x1F LT PUSH3 0x13EA JUMPI PUSH2 0x100 DUP1 DUP4 SLOAD DIV MUL DUP4 MSTORE SWAP2 PUSH1 0x20 ADD SWAP2 PUSH3 0x1416 JUMP JUMPDEST DUP3 ADD SWAP2 SWAP1 PUSH1 0x0 MSTORE PUSH1 0x20 PUSH1 0x0 KECCAK256 SWAP1 JUMPDEST DUP2 SLOAD DUP2 MSTORE SWAP1 PUSH1 0x1 ADD SWAP1 PUSH1 0x20 ADD DUP1 DUP4 GT PUSH3 0x13F8 JUMPI DUP3 SWAP1 SUB PUSH1 0x1F AND DUP3 ADD SWAP2 JUMPDEST POP POP POP POP POP DUP2 MSTORE PUSH1 0x20 ADD PUSH1 0x4 DUP3 ADD DUP1 SLOAD PUSH3 0x1431 SWAP1 PUSH3 0x35E5 JUMP JUMPDEST DUP1 PUSH1 0x1F ADD PUSH1 0x20 DUP1 SWAP2 DIV MUL PUSH1 0x20 ADD PUSH1 0x40 MLOAD SWAP1 DUP2 ADD PUSH1 0x40 MSTORE DUP1 SWAP3 SWAP2 SWAP1 DUP2 DUP2 MSTORE PUSH1 0x20 ADD DUP3 DUP1 SLOAD PUSH3 0x145F SWAP1 PUSH3 0x35E5 JUMP JUMPDEST DUP1 ISZERO PUSH3 0x14B0 JUMPI DUP1 PUSH1 0x1F LT PUSH3 0x1484 JUMPI PUSH2 0x100 DUP1 DUP4 SLOAD DIV MUL DUP4 MSTORE SWAP2 PUSH1 0x20 ADD SWAP2 PUSH3 0x14B0 JUMP JUMPDEST DUP3 ADD SWAP2 SWAP1 PUSH1 0x0 MSTORE PUSH1 0x20 PUSH1 0x0 KECCAK256 SWAP1 JUMPDEST DUP2 SLOAD DUP2 MSTORE SWAP1 PUSH1 0x1 ADD SWAP1 PUSH1 0x20 ADD DUP1 DUP4 GT PUSH3 0x1492 JUMPI DUP3 SWAP1 SUB PUSH1 0x1F AND DUP3 ADD SWAP2 JUMPDEST POP POP POP POP POP DUP2 MSTORE POP POP DUP2 MSTORE POP POP SWAP1 POP DUP1 PUSH1 0x0 ADD MLOAD DUP2 PUSH1 0x20 ADD MLOAD DUP3 PUSH1 0x40 ADD MLOAD DUP4 PUSH1 0x60 ADD MLOAD SWAP5 POP SWAP5 POP SWAP5 POP SWAP5 POP POP SWAP6 POP SWAP6 POP SWAP6 POP SWAP6 SWAP2 POP POP JUMP JUMPDEST DUP1 PUSH1 0x4 PUSH1 0x0 DUP9 PUSH20 0xFFFFFFFFFFFFFFFFFFFFFFFFFFFFFFFFFFFFFFFF AND PUSH20 0xFFFFFFFFFFFFFFFFFFFFFFFFFFFFFFFFFFFFFFFF AND DUP2 MSTORE PUSH1 0x20 ADD SWAP1 DUP2 MSTORE PUSH1 0x20 ADD PUSH1 0x0 KECCAK256 PUSH1 0x4 ADD PUSH1 0x4 ADD SWAP1 DUP1 MLOAD SWAP1 PUSH1 0x20 ADD SWAP1 PUSH3 0x1543 SWAP3 SWAP2 SWAP1 PUSH3 0x29FE JUMP JUMPDEST POP DUP4 PUSH1 0x4 PUSH1 0x0 DUP9 PUSH20 0xFFFFFFFFFFFFFFFFFFFFFFFFFFFFFFFFFFFFFFFF AND PUSH20 0xFFFFFFFFFFFFFFFFFFFFFFFFFFFFFFFFFFFFFFFF AND DUP2 MSTORE PUSH1 0x20 ADD SWAP1 DUP2 MSTORE PUSH1 0x20 ADD PUSH1 0x0 KECCAK256 PUSH1 0x4 ADD PUSH1 0x1 ADD SWAP1 DUP1 MLOAD SWAP1 PUSH1 0x20 ADD SWAP1 PUSH3 0x159F SWAP3 SWAP2 SWAP1 PUSH3 0x29FE JUMP JUMPDEST POP DUP3 PUSH1 0x4 PUSH1 0x0 DUP9 PUSH20 0xFFFFFFFFFFFFFFFFFFFFFFFFFFFFFFFFFFFFFFFF AND PUSH20 0xFFFFFFFFFFFFFFFFFFFFFFFFFFFFFFFFFFFFFFFF AND DUP2 MSTORE PUSH1 0x20 ADD SWAP1 DUP2 MSTORE PUSH1 0x20 ADD PUSH1 0x0 KECCAK256 PUSH1 0x4 ADD PUSH1 0x2 ADD SWAP1 DUP1 MLOAD SWAP1 PUSH1 0x20 ADD SWAP1 PUSH3 0x15FB SWAP3 SWAP2 SWAP1 PUSH3 0x29FE JUMP JUMPDEST POP DUP2 PUSH1 0x4 PUSH1 0x0 DUP9 PUSH20 0xFFFFFFFFFFFFFFFFFFFFFFFFFFFFFFFFFFFFFFFF AND PUSH20 0xFFFFFFFFFFFFFFFFFFFFFFFFFFFFFFFFFFFFFFFF AND DUP2 MSTORE PUSH1 0x20 ADD SWAP1 DUP2 MSTORE PUSH1 0x20 ADD PUSH1 0x0 KECCAK256 PUSH1 0x4 ADD PUSH1 0x3 ADD SWAP1 DUP1 MLOAD SWAP1 PUSH1 0x20 ADD SWAP1 PUSH3 0x1657 SWAP3 SWAP2 SWAP1 PUSH3 0x29FE JUMP JUMPDEST POP DUP5 PUSH1 0x4 PUSH1 0x0 DUP9 PUSH20 0xFFFFFFFFFFFFFFFFFFFFFFFFFFFFFFFFFFFFFFFF AND PUSH20 0xFFFFFFFFFFFFFFFFFFFFFFFFFFFFFFFFFFFFFFFF AND DUP2 MSTORE PUSH1 0x20 ADD SWAP1 DUP2 MSTORE PUSH1 0x20 ADD PUSH1 0x0 KECCAK256 PUSH1 0x4 ADD PUSH1 0x0 ADD SWAP1 DUP1 MLOAD SWAP1 PUSH1 0x20 ADD SWAP1 PUSH3 0x16B3 SWAP3 SWAP2 SWAP1 PUSH3 0x29FE JUMP JUMPDEST POP POP POP POP POP POP POP JUMP JUMPDEST PUSH3 0x16C7 CALLER PUSH3 0xD9A JUMP JUMPDEST PUSH3 0x1709 JUMPI PUSH1 0x40 MLOAD PUSH32 0x8C379A000000000000000000000000000000000000000000000000000000000 DUP2 MSTORE PUSH1 0x4 ADD PUSH3 0x1700 SWAP1 PUSH3 0x3308 JUMP JUMPDEST PUSH1 0x40 MLOAD DUP1 SWAP2 SUB SWAP1 REVERT JUMPDEST PUSH3 0x1718 PUSH1 0x0 DUP1 SHL DUP3 PUSH3 0xDB2 JUMP JUMPDEST POP JUMP JUMPDEST PUSH1 0x0 DUP1 SHL PUSH1 0x5 PUSH1 0x0 DUP7 PUSH26 0xFFFFFFFFFFFFFFFFFFFFFFFFFFFFFFFFFFFFFFFFFFFFFFFFFFFF NOT AND PUSH26 0xFFFFFFFFFFFFFFFFFFFFFFFFFFFFFFFFFFFFFFFFFFFFFFFFFFFF NOT AND DUP2 MSTORE PUSH1 0x20 ADD SWAP1 DUP2 MSTORE PUSH1 0x20 ADD PUSH1 0x0 KECCAK256 PUSH1 0x1 ADD SLOAD GT ISZERO PUSH3 0x178B JUMPI PUSH3 0x1785 DUP5 DUP5 DUP5 DUP5 PUSH3 0x1DF6 JUMP JUMPDEST PUSH3 0x188F JUMP JUMPDEST PUSH3 0x1795 PUSH3 0x2A9D JUMP JUMPDEST DUP4 DUP2 PUSH1 0x0 ADD SWAP1 PUSH20 0xFFFFFFFFFFFFFFFFFFFFFFFFFFFFFFFFFFFFFFFF AND SWAP1 DUP2 PUSH20 0xFFFFFFFFFFFFFFFFFFFFFFFFFFFFFFFFFFFFFFFF AND DUP2 MSTORE POP POP DUP3 DUP2 PUSH1 0x20 ADD DUP2 DUP2 MSTORE POP POP DUP2 DUP2 PUSH1 0x40 ADD DUP2 DUP2 MSTORE POP POP DUP1 PUSH1 0x5 PUSH1 0x0 DUP8 PUSH26 0xFFFFFFFFFFFFFFFFFFFFFFFFFFFFFFFFFFFFFFFFFFFFFFFFFFFF NOT AND PUSH26 0xFFFFFFFFFFFFFFFFFFFFFFFFFFFFFFFFFFFFFFFFFFFFFFFFFFFF NOT AND DUP2 MSTORE PUSH1 0x20 ADD SWAP1 DUP2 MSTORE PUSH1 0x20 ADD PUSH1 0x0 KECCAK256 PUSH1 0x0 DUP3 ADD MLOAD DUP2 PUSH1 0x0 ADD PUSH1 0x0 PUSH2 0x100 EXP DUP2 SLOAD DUP2 PUSH20 0xFFFFFFFFFFFFFFFFFFFFFFFFFFFFFFFFFFFFFFFF MUL NOT AND SWAP1 DUP4 PUSH20 0xFFFFFFFFFFFFFFFFFFFFFFFFFFFFFFFFFFFFFFFF AND MUL OR SWAP1 SSTORE POP PUSH1 0x20 DUP3 ADD MLOAD DUP2 PUSH1 0x1 ADD SSTORE PUSH1 0x40 DUP3 ADD MLOAD DUP2 PUSH1 0x2 ADD SSTORE SWAP1 POP POP POP JUMPDEST POP POP POP POP JUMP JUMPDEST PUSH3 0x18A0 CALLER PUSH3 0xD9A JUMP JUMPDEST PUSH3 0x18E2 JUMPI PUSH1 0x40 MLOAD PUSH32 0x8C379A000000000000000000000000000000000000000000000000000000000 DUP2 MSTORE PUSH1 0x4 ADD PUSH3 0x18D9 SWAP1 PUSH3 0x3308 JUMP JUMPDEST PUSH1 0x40 MLOAD DUP1 SWAP2 SUB SWAP1 REVERT JUMPDEST PUSH3 0x18F1 PUSH1 0x0 DUP1 SHL DUP3 PUSH3 0xDB2 JUMP JUMPDEST POP JUMP JUMPDEST PUSH1 0x0 DUP1 PUSH1 0x0 DUP5 DUP2 MSTORE PUSH1 0x20 ADD SWAP1 DUP2 MSTORE PUSH1 0x20 ADD PUSH1 0x0 KECCAK256 PUSH1 0x0 ADD PUSH1 0x0 DUP4 PUSH20 0xFFFFFFFFFFFFFFFFFFFFFFFFFFFFFFFFFFFFFFFF AND PUSH20 0xFFFFFFFFFFFFFFFFFFFFFFFFFFFFFFFFFFFFFFFF AND DUP2 MSTORE PUSH1 0x20 ADD SWAP1 DUP2 MSTORE PUSH1 0x20 ADD PUSH1 0x0 KECCAK256 PUSH1 0x0 SWAP1 SLOAD SWAP1 PUSH2 0x100 EXP SWAP1 DIV PUSH1 0xFF AND SWAP1 POP SWAP3 SWAP2 POP POP JUMP JUMPDEST PUSH1 0x0 DUP1 SHL DUP2 JUMP JUMPDEST PUSH1 0x0 DUP1 PUSH1 0x4 PUSH1 0x0 DUP5 PUSH20 0xFFFFFFFFFFFFFFFFFFFFFFFFFFFFFFFFFFFFFFFF AND PUSH20 0xFFFFFFFFFFFFFFFFFFFFFFFFFFFFFFFFFFFFFFFF AND DUP2 MSTORE PUSH1 0x20 ADD SWAP1 DUP2 MSTORE PUSH1 0x20 ADD PUSH1 0x0 KECCAK256 PUSH1 0x40 MLOAD DUP1 PUSH1 0xA0 ADD PUSH1 0x40 MSTORE SWAP1 DUP2 PUSH1 0x0 DUP3 ADD PUSH1 0x0 SWAP1 SLOAD SWAP1 PUSH2 0x100 EXP SWAP1 DIV PUSH20 0xFFFFFFFFFFFFFFFFFFFFFFFFFFFFFFFFFFFFFFFF AND PUSH20 0xFFFFFFFFFFFFFFFFFFFFFFFFFFFFFFFFFFFFFFFF AND PUSH20 0xFFFFFFFFFFFFFFFFFFFFFFFFFFFFFFFFFFFFFFFF AND DUP2 MSTORE PUSH1 0x20 ADD PUSH1 0x1 DUP3 ADD SLOAD DUP2 MSTORE PUSH1 0x20 ADD PUSH1 0x2 DUP3 ADD SLOAD DUP2 MSTORE PUSH1 0x20 ADD PUSH1 0x3 DUP3 ADD SLOAD DUP2 MSTORE PUSH1 0x20 ADD PUSH1 0x4 DUP3 ADD PUSH1 0x40 MLOAD DUP1 PUSH1 0xA0 ADD PUSH1 0x40 MSTORE SWAP1 DUP2 PUSH1 0x0 DUP3 ADD DUP1 SLOAD PUSH3 0x1A48 SWAP1 PUSH3 0x35E5 JUMP JUMPDEST DUP1 PUSH1 0x1F ADD PUSH1 0x20 DUP1 SWAP2 DIV MUL PUSH1 0x20 ADD PUSH1 0x40 MLOAD SWAP1 DUP2 ADD PUSH1 0x40 MSTORE DUP1 SWAP3 SWAP2 SWAP1 DUP2 DUP2 MSTORE PUSH1 0x20 ADD DUP3 DUP1 SLOAD PUSH3 0x1A76 SWAP1 PUSH3 0x35E5 JUMP JUMPDEST DUP1 ISZERO PUSH3 0x1AC7 JUMPI DUP1 PUSH1 0x1F LT PUSH3 0x1A9B JUMPI PUSH2 0x100 DUP1 DUP4 SLOAD DIV MUL DUP4 MSTORE SWAP2 PUSH1 0x20 ADD SWAP2 PUSH3 0x1AC7 JUMP JUMPDEST DUP3 ADD SWAP2 SWAP1 PUSH1 0x0 MSTORE PUSH1 0x20 PUSH1 0x0 KECCAK256 SWAP1 JUMPDEST DUP2 SLOAD DUP2 MSTORE SWAP1 PUSH1 0x1 ADD SWAP1 PUSH1 0x20 ADD DUP1 DUP4 GT PUSH3 0x1AA9 JUMPI DUP3 SWAP1 SUB PUSH1 0x1F AND DUP3 ADD SWAP2 JUMPDEST POP POP POP POP POP DUP2 MSTORE PUSH1 0x20 ADD PUSH1 0x1 DUP3 ADD DUP1 SLOAD PUSH3 0x1AE2 SWAP1 PUSH3 0x35E5 JUMP JUMPDEST DUP1 PUSH1 0x1F ADD PUSH1 0x20 DUP1 SWAP2 DIV MUL PUSH1 0x20 ADD PUSH1 0x40 MLOAD SWAP1 DUP2 ADD PUSH1 0x40 MSTORE DUP1 SWAP3 SWAP2 SWAP1 DUP2 DUP2 MSTORE PUSH1 0x20 ADD DUP3 DUP1 SLOAD PUSH3 0x1B10 SWAP1 PUSH3 0x35E5 JUMP JUMPDEST DUP1 ISZERO PUSH3 0x1B61 JUMPI DUP1 PUSH1 0x1F LT PUSH3 0x1B35 JUMPI PUSH2 0x100 DUP1 DUP4 SLOAD DIV MUL DUP4 MSTORE SWAP2 PUSH1 0x20 ADD SWAP2 PUSH3 0x1B61 JUMP JUMPDEST DUP3 ADD SWAP2 SWAP1 PUSH1 0x0 MSTORE PUSH1 0x20 PUSH1 0x0 KECCAK256 SWAP1 JUMPDEST DUP2 SLOAD DUP2 MSTORE SWAP1 PUSH1 0x1 ADD SWAP1 PUSH1 0x20 ADD DUP1 DUP4 GT PUSH3 0x1B43 JUMPI DUP3 SWAP1 SUB PUSH1 0x1F AND DUP3 ADD SWAP2 JUMPDEST POP POP POP POP POP DUP2 MSTORE PUSH1 0x20 ADD PUSH1 0x2 DUP3 ADD DUP1 SLOAD PUSH3 0x1B7C SWAP1 PUSH3 0x35E5 JUMP JUMPDEST DUP1 PUSH1 0x1F ADD PUSH1 0x20 DUP1 SWAP2 DIV MUL PUSH1 0x20 ADD PUSH1 0x40 MLOAD SWAP1 DUP2 ADD PUSH1 0x40 MSTORE DUP1 SWAP3 SWAP2 SWAP1 DUP2 DUP2 MSTORE PUSH1 0x20 ADD DUP3 DUP1 SLOAD PUSH3 0x1BAA SWAP1 PUSH3 0x35E5 JUMP JUMPDEST DUP1 ISZERO PUSH3 0x1BFB JUMPI DUP1 PUSH1 0x1F LT PUSH3 0x1BCF JUMPI PUSH2 0x100 DUP1 DUP4 SLOAD DIV MUL DUP4 MSTORE SWAP2 PUSH1 0x20 ADD SWAP2 PUSH3 0x1BFB JUMP JUMPDEST DUP3 ADD SWAP2 SWAP1 PUSH1 0x0 MSTORE PUSH1 0x20 PUSH1 0x0 KECCAK256 SWAP1 JUMPDEST DUP2 SLOAD DUP2 MSTORE SWAP1 PUSH1 0x1 ADD SWAP1 PUSH1 0x20 ADD DUP1 DUP4 GT PUSH3 0x1BDD JUMPI DUP3 SWAP1 SUB PUSH1 0x1F AND DUP3 ADD SWAP2 JUMPDEST POP POP POP POP POP DUP2 MSTORE PUSH1 0x20 ADD PUSH1 0x3 DUP3 ADD DUP1 SLOAD PUSH3 0x1C16 SWAP1 PUSH3 0x35E5 JUMP JUMPDEST DUP1 PUSH1 0x1F ADD PUSH1 0x20 DUP1 SWAP2 DIV MUL PUSH1 0x20 ADD PUSH1 0x40 MLOAD SWAP1 DUP2 ADD PUSH1 0x40 MSTORE DUP1 SWAP3 SWAP2 SWAP1 DUP2 DUP2 MSTORE PUSH1 0x20 ADD DUP3 DUP1 SLOAD PUSH3 0x1C44 SWAP1 PUSH3 0x35E5 JUMP JUMPDEST DUP1 ISZERO PUSH3 0x1C95 JUMPI DUP1 PUSH1 0x1F LT PUSH3 0x1C69 JUMPI PUSH2 0x100 DUP1 DUP4 SLOAD DIV MUL DUP4 MSTORE SWAP2 PUSH1 0x20 ADD SWAP2 PUSH3 0x1C95 JUMP JUMPDEST DUP3 ADD SWAP2 SWAP1 PUSH1 0x0 MSTORE PUSH1 0x20 PUSH1 0x0 KECCAK256 SWAP1 JUMPDEST DUP2 SLOAD DUP2 MSTORE SWAP1 PUSH1 0x1 ADD SWAP1 PUSH1 0x20 ADD DUP1 DUP4 GT PUSH3 0x1C77 JUMPI DUP3 SWAP1 SUB PUSH1 0x1F AND DUP3 ADD SWAP2 JUMPDEST POP POP POP POP POP DUP2 MSTORE PUSH1 0x20 ADD PUSH1 0x4 DUP3 ADD DUP1 SLOAD PUSH3 0x1CB0 SWAP1 PUSH3 0x35E5 JUMP JUMPDEST DUP1 PUSH1 0x1F ADD PUSH1 0x20 DUP1 SWAP2 DIV MUL PUSH1 0x20 ADD PUSH1 0x40 MLOAD SWAP1 DUP2 ADD PUSH1 0x40 MSTORE DUP1 SWAP3 SWAP2 SWAP1 DUP2 DUP2 MSTORE PUSH1 0x20 ADD DUP3 DUP1 SLOAD PUSH3 0x1CDE SWAP1 PUSH3 0x35E5 JUMP JUMPDEST DUP1 ISZERO PUSH3 0x1D2F JUMPI DUP1 PUSH1 0x1F LT PUSH3 0x1D03 JUMPI PUSH2 0x100 DUP1 DUP4 SLOAD DIV MUL DUP4 MSTORE SWAP2 PUSH1 0x20 ADD SWAP2 PUSH3 0x1D2F JUMP JUMPDEST DUP3 ADD SWAP2 SWAP1 PUSH1 0x0 MSTORE PUSH1 0x20 PUSH1 0x0 KECCAK256 SWAP1 JUMPDEST DUP2 SLOAD DUP2 MSTORE SWAP1 PUSH1 0x1 ADD SWAP1 PUSH1 0x20 ADD DUP1 DUP4 GT PUSH3 0x1D11 JUMPI DUP3 SWAP1 SUB PUSH1 0x1F AND DUP3 ADD SWAP2 JUMPDEST POP POP POP POP POP DUP2 MSTORE POP POP DUP2 MSTORE POP POP SWAP1 POP DUP4 PUSH20 0xFFFFFFFFFFFFFFFFFFFFFFFFFFFFFFFFFFFFFFFF AND DUP2 PUSH1 0x0 ADD MLOAD PUSH20 0xFFFFFFFFFFFFFFFFFFFFFFFFFFFFFFFFFFFFFFFF AND EQ SWAP2 POP POP SWAP3 SWAP2 POP POP JUMP JUMPDEST PUSH3 0x1D85 CALLER PUSH3 0xD9A JUMP JUMPDEST PUSH3 0x1DC7 JUMPI PUSH1 0x40 MLOAD PUSH32 0x8C379A000000000000000000000000000000000000000000000000000000000 DUP2 MSTORE PUSH1 0x4 ADD PUSH3 0x1DBE SWAP1 PUSH3 0x3308 JUMP JUMPDEST PUSH1 0x40 MLOAD DUP1 SWAP2 SUB SWAP1 REVERT JUMPDEST PUSH3 0x1DF3 PUSH32 0x85FACED7BDE13E1A7DAD704B895F006E704F207617D68166B31BA2D79624862D DUP3 PUSH3 0xDB2 JUMP JUMPDEST POP JUMP JUMPDEST PUSH1 0x0 PUSH1 0x5 PUSH1 0x0 DUP7 PUSH26 0xFFFFFFFFFFFFFFFFFFFFFFFFFFFFFFFFFFFFFFFFFFFFFFFFFFFF NOT AND PUSH26 0xFFFFFFFFFFFFFFFFFFFFFFFFFFFFFFFFFFFFFFFFFFFFFFFFFFFF NOT AND DUP2 MSTORE PUSH1 0x20 ADD SWAP1 DUP2 MSTORE PUSH1 0x20 ADD PUSH1 0x0 KECCAK256 PUSH1 0x40 MLOAD DUP1 PUSH1 0x60 ADD PUSH1 0x40 MSTORE SWAP1 DUP2 PUSH1 0x0 DUP3 ADD PUSH1 0x0 SWAP1 SLOAD SWAP1 PUSH2 0x100 EXP SWAP1 DIV PUSH20 0xFFFFFFFFFFFFFFFFFFFFFFFFFFFFFFFFFFFFFFFF AND PUSH20 0xFFFFFFFFFFFFFFFFFFFFFFFFFFFFFFFFFFFFFFFF AND PUSH20 0xFFFFFFFFFFFFFFFFFFFFFFFFFFFFFFFFFFFFFFFF AND DUP2 MSTORE PUSH1 0x20 ADD PUSH1 0x1 DUP3 ADD SLOAD DUP2 MSTORE PUSH1 0x20 ADD PUSH1 0x2 DUP3 ADD SLOAD DUP2 MSTORE POP POP SWAP1 POP DUP4 DUP2 PUSH1 0x0 ADD SWAP1 PUSH20 0xFFFFFFFFFFFFFFFFFFFFFFFFFFFFFFFFFFFFFFFF AND SWAP1 DUP2 PUSH20 0xFFFFFFFFFFFFFFFFFFFFFFFFFFFFFFFFFFFFFFFF AND DUP2 MSTORE POP POP DUP3 DUP2 PUSH1 0x20 ADD DUP2 DUP2 MSTORE POP POP DUP2 DUP2 PUSH1 0x40 ADD DUP2 DUP2 MSTORE POP POP DUP1 PUSH1 0x5 PUSH1 0x0 DUP8 PUSH26 0xFFFFFFFFFFFFFFFFFFFFFFFFFFFFFFFFFFFFFFFFFFFFFFFFFFFF NOT AND PUSH26 0xFFFFFFFFFFFFFFFFFFFFFFFFFFFFFFFFFFFFFFFFFFFFFFFFFFFF NOT AND DUP2 MSTORE PUSH1 0x20 ADD SWAP1 DUP2 MSTORE PUSH1 0x20 ADD PUSH1 0x0 KECCAK256 PUSH1 0x0 DUP3 ADD MLOAD DUP2 PUSH1 0x0 ADD PUSH1 0x0 PUSH2 0x100 EXP DUP2 SLOAD DUP2 PUSH20 0xFFFFFFFFFFFFFFFFFFFFFFFFFFFFFFFFFFFFFFFF MUL NOT AND SWAP1 DUP4 PUSH20 0xFFFFFFFFFFFFFFFFFFFFFFFFFFFFFFFFFFFFFFFF AND MUL OR SWAP1 SSTORE POP PUSH1 0x20 DUP3 ADD MLOAD DUP2 PUSH1 0x1 ADD SSTORE PUSH1 0x40 DUP3 ADD MLOAD DUP2 PUSH1 0x2 ADD SSTORE SWAP1 POP POP POP POP POP POP POP JUMP JUMPDEST PUSH3 0x1FC6 DUP3 PUSH3 0xD7B JUMP JUMPDEST PUSH3 0x1FDB DUP2 PUSH3 0x1FD5 PUSH3 0x24D8 JUMP JUMPDEST PUSH3 0x24E0 JUMP JUMPDEST PUSH3 0x1FE7 DUP4 DUP4 PUSH3 0x266D JUMP JUMPDEST POP POP POP JUMP JUMPDEST PUSH3 0x1FF6 PUSH3 0x2AD7 JUMP JUMPDEST PUSH1 0x0 PUSH1 0x4 PUSH1 0x0 DUP5 PUSH20 0xFFFFFFFFFFFFFFFFFFFFFFFFFFFFFFFFFFFFFFFF AND PUSH20 0xFFFFFFFFFFFFFFFFFFFFFFFFFFFFFFFFFFFFFFFF AND DUP2 MSTORE PUSH1 0x20 ADD SWAP1 DUP2 MSTORE PUSH1 0x20 ADD PUSH1 0x0 KECCAK256 PUSH1 0x4 ADD PUSH1 0x40 MLOAD DUP1 PUSH1 0xA0 ADD PUSH1 0x40 MSTORE SWAP1 DUP2 PUSH1 0x0 DUP3 ADD DUP1 SLOAD PUSH3 0x2057 SWAP1 PUSH3 0x35E5 JUMP JUMPDEST DUP1 PUSH1 0x1F ADD PUSH1 0x20 DUP1 SWAP2 DIV MUL PUSH1 0x20 ADD PUSH1 0x40 MLOAD SWAP1 DUP2 ADD PUSH1 0x40 MSTORE DUP1 SWAP3 SWAP2 SWAP1 DUP2 DUP2 MSTORE PUSH1 0x20 ADD DUP3 DUP1 SLOAD PUSH3 0x2085 SWAP1 PUSH3 0x35E5 JUMP JUMPDEST DUP1 ISZERO PUSH3 0x20D6 JUMPI DUP1 PUSH1 0x1F LT PUSH3 0x20AA JUMPI PUSH2 0x100 DUP1 DUP4 SLOAD DIV MUL DUP4 MSTORE SWAP2 PUSH1 0x20 ADD SWAP2 PUSH3 0x20D6 JUMP JUMPDEST DUP3 ADD SWAP2 SWAP1 PUSH1 0x0 MSTORE PUSH1 0x20 PUSH1 0x0 KECCAK256 SWAP1 JUMPDEST DUP2 SLOAD DUP2 MSTORE SWAP1 PUSH1 0x1 ADD SWAP1 PUSH1 0x20 ADD DUP1 DUP4 GT PUSH3 0x20B8 JUMPI DUP3 SWAP1 SUB PUSH1 0x1F AND DUP3 ADD SWAP2 JUMPDEST POP POP POP POP POP DUP2 MSTORE PUSH1 0x20 ADD PUSH1 0x1 DUP3 ADD DUP1 SLOAD PUSH3 0x20F1 SWAP1 PUSH3 0x35E5 JUMP JUMPDEST DUP1 PUSH1 0x1F ADD PUSH1 0x20 DUP1 SWAP2 DIV MUL PUSH1 0x20 ADD PUSH1 0x40 MLOAD SWAP1 DUP2 ADD PUSH1 0x40 MSTORE DUP1 SWAP3 SWAP2 SWAP1 DUP2 DUP2 MSTORE PUSH1 0x20 ADD DUP3 DUP1 SLOAD PUSH3 0x211F SWAP1 PUSH3 0x35E5 JUMP JUMPDEST DUP1 ISZERO PUSH3 0x2170 JUMPI DUP1 PUSH1 0x1F LT PUSH3 0x2144 JUMPI PUSH2 0x100 DUP1 DUP4 SLOAD DIV MUL DUP4 MSTORE SWAP2 PUSH1 0x20 ADD SWAP2 PUSH3 0x2170 JUMP JUMPDEST DUP3 ADD SWAP2 SWAP1 PUSH1 0x0 MSTORE PUSH1 0x20 PUSH1 0x0 KECCAK256 SWAP1 JUMPDEST DUP2 SLOAD DUP2 MSTORE SWAP1 PUSH1 0x1 ADD SWAP1 PUSH1 0x20 ADD DUP1 DUP4 GT PUSH3 0x2152 JUMPI DUP3 SWAP1 SUB PUSH1 0x1F AND DUP3 ADD SWAP2 JUMPDEST POP POP POP POP POP DUP2 MSTORE PUSH1 0x20 ADD PUSH1 0x2 DUP3 ADD DUP1 SLOAD PUSH3 0x218B SWAP1 PUSH3 0x35E5 JUMP JUMPDEST DUP1 PUSH1 0x1F ADD PUSH1 0x20 DUP1 SWAP2 DIV MUL PUSH1 0x20 ADD PUSH1 0x40 MLOAD SWAP1 DUP2 ADD PUSH1 0x40 MSTORE DUP1 SWAP3 SWAP2 SWAP1 DUP2 DUP2 MSTORE PUSH1 0x20 ADD DUP3 DUP1 SLOAD PUSH3 0x21B9 SWAP1 PUSH3 0x35E5 JUMP JUMPDEST DUP1 ISZERO PUSH3 0x220A JUMPI DUP1 PUSH1 0x1F LT PUSH3 0x21DE JUMPI PUSH2 0x100 DUP1 DUP4 SLOAD DIV MUL DUP4 MSTORE SWAP2 PUSH1 0x20 ADD SWAP2 PUSH3 0x220A JUMP JUMPDEST DUP3 ADD SWAP2 SWAP1 PUSH1 0x0 MSTORE PUSH1 0x20 PUSH1 0x0 KECCAK256 SWAP1 JUMPDEST DUP2 SLOAD DUP2 MSTORE SWAP1 PUSH1 0x1 ADD SWAP1 PUSH1 0x20 ADD DUP1 DUP4 GT PUSH3 0x21EC JUMPI DUP3 SWAP1 SUB PUSH1 0x1F AND DUP3 ADD SWAP2 JUMPDEST POP POP POP POP POP DUP2 MSTORE PUSH1 0x20 ADD PUSH1 0x3 DUP3 ADD DUP1 SLOAD PUSH3 0x2225 SWAP1 PUSH3 0x35E5 JUMP JUMPDEST DUP1 PUSH1 0x1F ADD PUSH1 0x20 DUP1 SWAP2 DIV MUL PUSH1 0x20 ADD PUSH1 0x40 MLOAD SWAP1 DUP2 ADD PUSH1 0x40 MSTORE DUP1 SWAP3 SWAP2 SWAP1 DUP2 DUP2 MSTORE PUSH1 0x20 ADD DUP3 DUP1 SLOAD PUSH3 0x2253 SWAP1 PUSH3 0x35E5 JUMP JUMPDEST DUP1 ISZERO PUSH3 0x22A4 JUMPI DUP1 PUSH1 0x1F LT PUSH3 0x2278 JUMPI PUSH2 0x100 DUP1 DUP4 SLOAD DIV MUL DUP4 MSTORE SWAP2 PUSH1 0x20 ADD SWAP2 PUSH3 0x22A4 JUMP JUMPDEST DUP3 ADD SWAP2 SWAP1 PUSH1 0x0 MSTORE PUSH1 0x20 PUSH1 0x0 KECCAK256 SWAP1 JUMPDEST DUP2 SLOAD DUP2 MSTORE SWAP1 PUSH1 0x1 ADD SWAP1 PUSH1 0x20 ADD DUP1 DUP4 GT PUSH3 0x2286 JUMPI DUP3 SWAP1 SUB PUSH1 0x1F AND DUP3 ADD SWAP2 JUMPDEST POP POP POP POP POP DUP2 MSTORE PUSH1 0x20 ADD PUSH1 0x4 DUP3 ADD DUP1 SLOAD PUSH3 0x22BF SWAP1 PUSH3 0x35E5 JUMP JUMPDEST DUP1 PUSH1 0x1F ADD PUSH1 0x20 DUP1 SWAP2 DIV MUL PUSH1 0x20 ADD PUSH1 0x40 MLOAD SWAP1 DUP2 ADD PUSH1 0x40 MSTORE DUP1 SWAP3 SWAP2 SWAP1 DUP2 DUP2 MSTORE PUSH1 0x20 ADD DUP3 DUP1 SLOAD PUSH3 0x22ED SWAP1 PUSH3 0x35E5 JUMP JUMPDEST DUP1 ISZERO PUSH3 0x233E JUMPI DUP1 PUSH1 0x1F LT PUSH3 0x2312 JUMPI PUSH2 0x100 DUP1 DUP4 SLOAD DIV MUL DUP4 MSTORE SWAP2 PUSH1 0x20 ADD SWAP2 PUSH3 0x233E JUMP JUMPDEST DUP3 ADD SWAP2 SWAP1 PUSH1 0x0 MSTORE PUSH1 0x20 PUSH1 0x0 KECCAK256 SWAP1 JUMPDEST DUP2 SLOAD DUP2 MSTORE SWAP1 PUSH1 0x1 ADD SWAP1 PUSH1 0x20 ADD DUP1 DUP4 GT PUSH3 0x2320 JUMPI DUP3 SWAP1 SUB PUSH1 0x1F AND DUP3 ADD SWAP2 JUMPDEST POP POP POP POP POP DUP2 MSTORE POP POP SWAP1 POP DUP1 SWAP2 POP POP SWAP2 SWAP1 POP JUMP JUMPDEST PUSH1 0x0 DUP1 PUSH1 0x5 PUSH1 0x0 DUP5 PUSH26 0xFFFFFFFFFFFFFFFFFFFFFFFFFFFFFFFFFFFFFFFFFFFFFFFFFFFF NOT AND PUSH26 0xFFFFFFFFFFFFFFFFFFFFFFFFFFFFFFFFFFFFFFFFFFFFFFFFFFFF NOT AND DUP2 MSTORE PUSH1 0x20 ADD SWAP1 DUP2 MSTORE PUSH1 0x20 ADD PUSH1 0x0 KECCAK256 PUSH1 0x40 MLOAD DUP1 PUSH1 0x60 ADD PUSH1 0x40 MSTORE SWAP1 DUP2 PUSH1 0x0 DUP3 ADD PUSH1 0x0 SWAP1 SLOAD SWAP1 PUSH2 0x100 EXP SWAP1 DIV PUSH20 0xFFFFFFFFFFFFFFFFFFFFFFFFFFFFFFFFFFFFFFFF AND PUSH20 0xFFFFFFFFFFFFFFFFFFFFFFFFFFFFFFFFFFFFFFFF AND PUSH20 0xFFFFFFFFFFFFFFFFFFFFFFFFFFFFFFFFFFFFFFFF AND DUP2 MSTORE PUSH1 0x20 ADD PUSH1 0x1 DUP3 ADD SLOAD DUP2 MSTORE PUSH1 0x20 ADD PUSH1 0x2 DUP3 ADD SLOAD DUP2 MSTORE POP POP SWAP1 POP DUP1 PUSH1 0x20 ADD MLOAD SWAP2 POP POP SWAP2 SWAP1 POP JUMP JUMPDEST PUSH32 0x85FACED7BDE13E1A7DAD704B895F006E704F207617D68166B31BA2D79624862D DUP2 JUMP JUMPDEST PUSH32 0xF309FFC42715A0BFCCDFA0C4CAC305505F15AB9B9262B7451CEEA96C0CC35187 DUP2 JUMP JUMPDEST PUSH1 0x0 PUSH32 0x1FFC9A700000000000000000000000000000000000000000000000000000000 PUSH28 0xFFFFFFFFFFFFFFFFFFFFFFFFFFFFFFFFFFFFFFFFFFFFFFFFFFFFFFFF NOT AND DUP3 PUSH28 0xFFFFFFFFFFFFFFFFFFFFFFFFFFFFFFFFFFFFFFFFFFFFFFFFFFFFFFFF NOT AND EQ SWAP1 POP SWAP2 SWAP1 POP JUMP JUMPDEST PUSH1 0x0 CALLER SWAP1 POP SWAP1 JUMP JUMPDEST PUSH3 0x24EC DUP3 DUP3 PUSH3 0x18F4 JUMP JUMPDEST PUSH3 0x2584 JUMPI PUSH3 0x2514 DUP2 PUSH20 0xFFFFFFFFFFFFFFFFFFFFFFFFFFFFFFFFFFFFFFFF AND PUSH1 0x14 PUSH3 0x2753 JUMP JUMPDEST PUSH3 0x2524 DUP4 PUSH1 0x0 SHR PUSH1 0x20 PUSH3 0x2753 JUMP JUMPDEST PUSH1 0x40 MLOAD PUSH1 0x20 ADD PUSH3 0x2537 SWAP3 SWAP2 SWAP1 PUSH3 0x31F9 JUMP JUMPDEST PUSH1 0x40 MLOAD PUSH1 0x20 DUP2 DUP4 SUB SUB DUP2 MSTORE SWAP1 PUSH1 0x40 MSTORE PUSH1 0x40 MLOAD PUSH32 0x8C379A000000000000000000000000000000000000000000000000000000000 DUP2 MSTORE PUSH1 0x4 ADD PUSH3 0x257B SWAP2 SWAP1 PUSH3 0x32C2 JUMP JUMPDEST PUSH1 0x40 MLOAD DUP1 SWAP2 SUB SWAP1 REVERT JUMPDEST POP POP JUMP JUMPDEST PUSH3 0x2594 DUP3 DUP3 PUSH3 0x18F4 JUMP JUMPDEST PUSH3 0x2669 JUMPI PUSH1 0x1 PUSH1 0x0 DUP1 DUP5 DUP2 MSTORE PUSH1 0x20 ADD SWAP1 DUP2 MSTORE PUSH1 0x20 ADD PUSH1 0x0 KECCAK256 PUSH1 0x0 ADD PUSH1 0x0 DUP4 PUSH20 0xFFFFFFFFFFFFFFFFFFFFFFFFFFFFFFFFFFFFFFFF AND PUSH20 0xFFFFFFFFFFFFFFFFFFFFFFFFFFFFFFFFFFFFFFFF AND DUP2 MSTORE PUSH1 0x20 ADD SWAP1 DUP2 MSTORE PUSH1 0x20 ADD PUSH1 0x0 KECCAK256 PUSH1 0x0 PUSH2 0x100 EXP DUP2 SLOAD DUP2 PUSH1 0xFF MUL NOT AND SWAP1 DUP4 ISZERO ISZERO MUL OR SWAP1 SSTORE POP PUSH3 0x260E PUSH3 0x24D8 JUMP JUMPDEST PUSH20 0xFFFFFFFFFFFFFFFFFFFFFFFFFFFFFFFFFFFFFFFF AND DUP2 PUSH20 0xFFFFFFFFFFFFFFFFFFFFFFFFFFFFFFFFFFFFFFFF AND DUP4 PUSH32 0x2F8788117E7EFF1D82E926EC794901D17C78024A50270940304540A733656F0D PUSH1 0x40 MLOAD PUSH1 0x40 MLOAD DUP1 SWAP2 SUB SWAP1 LOG4 JUMPDEST POP POP JUMP JUMPDEST PUSH3 0x2679 DUP3 DUP3 PUSH3 0x18F4 JUMP JUMPDEST ISZERO PUSH3 0x274F JUMPI PUSH1 0x0 DUP1 PUSH1 0x0 DUP5 DUP2 MSTORE PUSH1 0x20 ADD SWAP1 DUP2 MSTORE PUSH1 0x20 ADD PUSH1 0x0 KECCAK256 PUSH1 0x0 ADD PUSH1 0x0 DUP4 PUSH20 0xFFFFFFFFFFFFFFFFFFFFFFFFFFFFFFFFFFFFFFFF AND PUSH20 0xFFFFFFFFFFFFFFFFFFFFFFFFFFFFFFFFFFFFFFFF AND DUP2 MSTORE PUSH1 0x20 ADD SWAP1 DUP2 MSTORE PUSH1 0x20 ADD PUSH1 0x0 KECCAK256 PUSH1 0x0 PUSH2 0x100 EXP DUP2 SLOAD DUP2 PUSH1 0xFF MUL NOT AND SWAP1 DUP4 ISZERO ISZERO MUL OR SWAP1 SSTORE POP PUSH3 0x26F4 PUSH3 0x24D8 JUMP JUMPDEST PUSH20 0xFFFFFFFFFFFFFFFFFFFFFFFFFFFFFFFFFFFFFFFF AND DUP2 PUSH20 0xFFFFFFFFFFFFFFFFFFFFFFFFFFFFFFFFFFFFFFFF AND DUP4 PUSH32 0xF6391F5C32D9C69D2A47EA670B442974B53935D1EDC7FD64EB21E047A839171B PUSH1 0x40 MLOAD PUSH1 0x40 MLOAD DUP1 SWAP2 SUB SWAP1 LOG4 JUMPDEST POP POP JUMP JUMPDEST PUSH1 0x60 PUSH1 0x0 PUSH1 0x2 DUP4 PUSH1 0x2 PUSH3 0x2768 SWAP2 SWAP1 PUSH3 0x3464 JUMP JUMPDEST PUSH3 0x2774 SWAP2 SWAP1 PUSH3 0x3407 JUMP JUMPDEST PUSH8 0xFFFFFFFFFFFFFFFF DUP2 GT ISZERO PUSH3 0x2790 JUMPI PUSH3 0x278F PUSH3 0x36DE JUMP JUMPDEST JUMPDEST PUSH1 0x40 MLOAD SWAP1 DUP1 DUP3 MSTORE DUP1 PUSH1 0x1F ADD PUSH1 0x1F NOT AND PUSH1 0x20 ADD DUP3 ADD PUSH1 0x40 MSTORE DUP1 ISZERO PUSH3 0x27C3 JUMPI DUP2 PUSH1 0x20 ADD PUSH1 0x1 DUP3 MUL DUP1 CALLDATASIZE DUP4 CALLDATACOPY DUP1 DUP3 ADD SWAP2 POP POP SWAP1 POP JUMPDEST POP SWAP1 POP PUSH32 0x3000000000000000000000000000000000000000000000000000000000000000 DUP2 PUSH1 0x0 DUP2 MLOAD DUP2 LT PUSH3 0x27FE JUMPI PUSH3 0x27FD PUSH3 0x36AF JUMP JUMPDEST JUMPDEST PUSH1 0x20 ADD ADD SWAP1 PUSH31 0xFFFFFFFFFFFFFFFFFFFFFFFFFFFFFFFFFFFFFFFFFFFFFFFFFFFFFFFFFFFFFF NOT AND SWAP1 DUP2 PUSH1 0x0 BYTE SWAP1 MSTORE8 POP PUSH32 0x7800000000000000000000000000000000000000000000000000000000000000 DUP2 PUSH1 0x1 DUP2 MLOAD DUP2 LT PUSH3 0x2865 JUMPI PUSH3 0x2864 PUSH3 0x36AF JUMP JUMPDEST JUMPDEST PUSH1 0x20 ADD ADD SWAP1 PUSH31 0xFFFFFFFFFFFFFFFFFFFFFFFFFFFFFFFFFFFFFFFFFFFFFFFFFFFFFFFFFFFFFF NOT AND SWAP1 DUP2 PUSH1 0x0 BYTE SWAP1 MSTORE8 POP PUSH1 0x0 PUSH1 0x1 DUP5 PUSH1 0x2 PUSH3 0x28A7 SWAP2 SWAP1 PUSH3 0x3464 JUMP JUMPDEST PUSH3 0x28B3 SWAP2 SWAP1 PUSH3 0x3407 JUMP JUMPDEST SWAP1 POP JUMPDEST PUSH1 0x1 DUP2 GT ISZERO PUSH3 0x295D JUMPI PUSH32 0x3031323334353637383961626364656600000000000000000000000000000000 PUSH1 0xF DUP7 AND PUSH1 0x10 DUP2 LT PUSH3 0x28F9 JUMPI PUSH3 0x28F8 PUSH3 0x36AF JUMP JUMPDEST JUMPDEST BYTE PUSH1 0xF8 SHL DUP3 DUP3 DUP2 MLOAD DUP2 LT PUSH3 0x2913 JUMPI PUSH3 0x2912 PUSH3 0x36AF JUMP JUMPDEST JUMPDEST PUSH1 0x20 ADD ADD SWAP1 PUSH31 0xFFFFFFFFFFFFFFFFFFFFFFFFFFFFFFFFFFFFFFFFFFFFFFFFFFFFFFFFFFFFFF NOT AND SWAP1 DUP2 PUSH1 0x0 BYTE SWAP1 MSTORE8 POP PUSH1 0x4 DUP6 SWAP1 SHR SWAP5 POP DUP1 PUSH3 0x2955 SWAP1 PUSH3 0x35B6 JUMP JUMPDEST SWAP1 POP PUSH3 0x28B6 JUMP JUMPDEST POP PUSH1 0x0 DUP5 EQ PUSH3 0x29A4 JUMPI PUSH1 0x40 MLOAD PUSH32 0x8C379A000000000000000000000000000000000000000000000000000000000 DUP2 MSTORE PUSH1 0x4 ADD PUSH3 0x299B SWAP1 PUSH3 0x32E6 JUMP JUMPDEST PUSH1 0x40 MLOAD DUP1 SWAP2 SUB SWAP1 REVERT JUMPDEST DUP1 SWAP2 POP POP SWAP3 SWAP2 POP POP JUMP JUMPDEST PUSH1 0x40 MLOAD DUP1 PUSH1 0xA0 ADD PUSH1 0x40 MSTORE DUP1 PUSH1 0x0 PUSH20 0xFFFFFFFFFFFFFFFFFFFFFFFFFFFFFFFFFFFFFFFF AND DUP2 MSTORE PUSH1 0x20 ADD PUSH1 0x0 DUP2 MSTORE PUSH1 0x20 ADD PUSH1 0x0 DUP1 NOT AND DUP2 MSTORE PUSH1 0x20 ADD PUSH1 0x0 DUP2 MSTORE PUSH1 0x20 ADD PUSH3 0x29F8 PUSH3 0x2AD7 JUMP JUMPDEST DUP2 MSTORE POP SWAP1 JUMP JUMPDEST DUP3 DUP1 SLOAD PUSH3 0x2A0C SWAP1 PUSH3 0x35E5 JUMP JUMPDEST SWAP1 PUSH1 0x0 MSTORE PUSH1 0x20 PUSH1 0x0 KECCAK256 SWAP1 PUSH1 0x1F ADD PUSH1 0x20 SWAP1 DIV DUP2 ADD SWAP3 DUP3 PUSH3 0x2A30 JUMPI PUSH1 0x0 DUP6 SSTORE PUSH3 0x2A7C JUMP JUMPDEST DUP3 PUSH1 0x1F LT PUSH3 0x2A4B JUMPI DUP1 MLOAD PUSH1 0xFF NOT AND DUP4 DUP1 ADD OR DUP6 SSTORE PUSH3 0x2A7C JUMP JUMPDEST DUP3 DUP1 ADD PUSH1 0x1 ADD DUP6 SSTORE DUP3 ISZERO PUSH3 0x2A7C JUMPI SWAP2 DUP3 ADD JUMPDEST DUP3 DUP2 GT ISZERO PUSH3 0x2A7B JUMPI DUP3 MLOAD DUP3 SSTORE SWAP2 PUSH1 0x20 ADD SWAP2 SWAP1 PUSH1 0x1 ADD SWAP1 PUSH3 0x2A5E JUMP JUMPDEST JUMPDEST POP SWAP1 POP PUSH3 0x2A8B SWAP2 SWAP1 PUSH3 0x2B06 JUMP JUMPDEST POP SWAP1 JUMP JUMPDEST PUSH2 0x199B DUP1 PUSH3 0x38A8 DUP4 CODECOPY ADD SWAP1 JUMP JUMPDEST PUSH1 0x40 MLOAD DUP1 PUSH1 0x60 ADD PUSH1 0x40 MSTORE DUP1 PUSH1 0x0 PUSH20 0xFFFFFFFFFFFFFFFFFFFFFFFFFFFFFFFFFFFFFFFF AND DUP2 MSTORE PUSH1 0x20 ADD PUSH1 0x0 DUP1 NOT AND DUP2 MSTORE PUSH1 0x20 ADD PUSH1 0x0 DUP2 MSTORE POP SWAP1 JUMP JUMPDEST PUSH1 0x40 MLOAD DUP1 PUSH1 0xA0 ADD PUSH1 0x40 MSTORE DUP1 PUSH1 0x60 DUP2 MSTORE PUSH1 0x20 ADD PUSH1 0x60 DUP2 MSTORE PUSH1 0x20 ADD PUSH1 0x60 DUP2 MSTORE PUSH1 0x20 ADD PUSH1 0x60 DUP2 MSTORE PUSH1 0x20 ADD PUSH1 0x60 DUP2 MSTORE POP SWAP1 JUMP JUMPDEST JUMPDEST DUP1 DUP3 GT ISZERO PUSH3 0x2B21 JUMPI PUSH1 0x0 DUP2 PUSH1 0x0 SWAP1 SSTORE POP PUSH1 0x1 ADD PUSH3 0x2B07 JUMP JUMPDEST POP SWAP1 JUMP JUMPDEST PUSH1 0x0 PUSH3 0x2B3C PUSH3 0x2B36 DUP5 PUSH3 0x3399 JUMP JUMPDEST PUSH3 0x3370 JUMP JUMPDEST SWAP1 POP DUP3 DUP2 MSTORE PUSH1 0x20 DUP2 ADD DUP5 DUP5 DUP5 ADD GT ISZERO PUSH3 0x2B5B JUMPI PUSH3 0x2B5A PUSH3 0x3712 JUMP JUMPDEST JUMPDEST PUSH3 0x2B68 DUP5 DUP3 DUP6 PUSH3 0x3571 JUMP JUMPDEST POP SWAP4 SWAP3 POP POP POP JUMP JUMPDEST PUSH1 0x0 DUP2 CALLDATALOAD SWAP1 POP PUSH3 0x2B81 DUP2 PUSH3 0x3825 JUMP JUMPDEST SWAP3 SWAP2 POP POP JUMP JUMPDEST PUSH1 0x0 DUP2 CALLDATALOAD SWAP1 POP PUSH3 0x2B98 DUP2 PUSH3 0x383F JUMP JUMPDEST SWAP3 SWAP2 POP POP JUMP JUMPDEST PUSH1 0x0 DUP2 CALLDATALOAD SWAP1 POP PUSH3 0x2BAF DUP2 PUSH3 0x3859 JUMP JUMPDEST SWAP3 SWAP2 POP POP JUMP JUMPDEST PUSH1 0x0 DUP2 CALLDATALOAD SWAP1 POP PUSH3 0x2BC6 DUP2 PUSH3 0x3873 JUMP JUMPDEST SWAP3 SWAP2 POP POP JUMP JUMPDEST PUSH1 0x0 DUP3 PUSH1 0x1F DUP4 ADD SLT PUSH3 0x2BE4 JUMPI PUSH3 0x2BE3 PUSH3 0x370D JUMP JUMPDEST JUMPDEST DUP2 CALLDATALOAD PUSH3 0x2BF6 DUP5 DUP3 PUSH1 0x20 DUP7 ADD PUSH3 0x2B25 JUMP JUMPDEST SWAP2 POP POP SWAP3 SWAP2 POP POP JUMP JUMPDEST PUSH1 0x0 DUP2 CALLDATALOAD SWAP1 POP PUSH3 0x2C10 DUP2 PUSH3 0x388D JUMP JUMPDEST SWAP3 SWAP2 POP POP JUMP JUMPDEST PUSH1 0x0 PUSH1 0x20 DUP3 DUP5 SUB SLT ISZERO PUSH3 0x2C2F JUMPI PUSH3 0x2C2E PUSH3 0x371C JUMP JUMPDEST JUMPDEST PUSH1 0x0 PUSH3 0x2C3F DUP5 DUP3 DUP6 ADD PUSH3 0x2B70 JUMP JUMPDEST SWAP2 POP POP SWAP3 SWAP2 POP POP JUMP JUMPDEST PUSH1 0x0 DUP1 PUSH1 0x40 DUP4 DUP6 SUB SLT ISZERO PUSH3 0x2C62 JUMPI PUSH3 0x2C61 PUSH3 0x371C JUMP JUMPDEST JUMPDEST PUSH1 0x0 PUSH3 0x2C72 DUP6 DUP3 DUP7 ADD PUSH3 0x2B70 JUMP JUMPDEST SWAP3 POP POP PUSH1 0x20 PUSH3 0x2C85 DUP6 DUP3 DUP7 ADD PUSH3 0x2B70 JUMP JUMPDEST SWAP2 POP POP SWAP3 POP SWAP3 SWAP1 POP JUMP JUMPDEST PUSH1 0x0 DUP1 PUSH1 0x0 DUP1 PUSH1 0x0 PUSH1 0xA0 DUP7 DUP9 SUB SLT ISZERO PUSH3 0x2CAE JUMPI PUSH3 0x2CAD PUSH3 0x371C JUMP JUMPDEST JUMPDEST PUSH1 0x0 PUSH3 0x2CBE DUP9 DUP3 DUP10 ADD PUSH3 0x2B70 JUMP JUMPDEST SWAP6 POP POP PUSH1 0x20 PUSH3 0x2CD1 DUP9 DUP3 DUP10 ADD PUSH3 0x2B70 JUMP JUMPDEST SWAP5 POP POP PUSH1 0x40 PUSH3 0x2CE4 DUP9 DUP3 DUP10 ADD PUSH3 0x2BFF JUMP JUMPDEST SWAP4 POP POP PUSH1 0x60 PUSH3 0x2CF7 DUP9 DUP3 DUP10 ADD PUSH3 0x2B87 JUMP JUMPDEST SWAP3 POP POP PUSH1 0x80 PUSH3 0x2D0A DUP9 DUP3 DUP10 ADD PUSH3 0x2BFF JUMP JUMPDEST SWAP2 POP POP SWAP3 SWAP6 POP SWAP3 SWAP6 SWAP1 SWAP4 POP JUMP JUMPDEST PUSH1 0x0 DUP1 PUSH1 0x0 DUP1 PUSH1 0x0 DUP1 PUSH1 0xC0 DUP8 DUP10 SUB SLT ISZERO PUSH3 0x2D37 JUMPI PUSH3 0x2D36 PUSH3 0x371C JUMP JUMPDEST JUMPDEST PUSH1 0x0 PUSH3 0x2D47 DUP10 DUP3 DUP11 ADD PUSH3 0x2B70 JUMP JUMPDEST SWAP7 POP POP PUSH1 0x20 DUP8 ADD CALLDATALOAD PUSH8 0xFFFFFFFFFFFFFFFF DUP2 GT ISZERO PUSH3 0x2D6B JUMPI PUSH3 0x2D6A PUSH3 0x3717 JUMP JUMPDEST JUMPDEST PUSH3 0x2D79 DUP10 DUP3 DUP11 ADD PUSH3 0x2BCC JUMP JUMPDEST SWAP6 POP POP PUSH1 0x40 DUP8 ADD CALLDATALOAD PUSH8 0xFFFFFFFFFFFFFFFF DUP2 GT ISZERO PUSH3 0x2D9D JUMPI PUSH3 0x2D9C PUSH3 0x3717 JUMP JUMPDEST JUMPDEST PUSH3 0x2DAB DUP10 DUP3 DUP11 ADD PUSH3 0x2BCC JUMP JUMPDEST SWAP5 POP POP PUSH1 0x60 DUP8 ADD CALLDATALOAD PUSH8 0xFFFFFFFFFFFFFFFF DUP2 GT ISZERO PUSH3 0x2DCF JUMPI PUSH3 0x2DCE PUSH3 0x3717 JUMP JUMPDEST JUMPDEST PUSH3 0x2DDD DUP10 DUP3 DUP11 ADD PUSH3 0x2BCC JUMP JUMPDEST SWAP4 POP POP PUSH1 0x80 DUP8 ADD CALLDATALOAD PUSH8 0xFFFFFFFFFFFFFFFF DUP2 GT ISZERO PUSH3 0x2E01 JUMPI PUSH3 0x2E00 PUSH3 0x3717 JUMP JUMPDEST JUMPDEST PUSH3 0x2E0F DUP10 DUP3 DUP11 ADD PUSH3 0x2BCC JUMP JUMPDEST SWAP3 POP POP PUSH1 0xA0 DUP8 ADD CALLDATALOAD PUSH8 0xFFFFFFFFFFFFFFFF DUP2 GT ISZERO PUSH3 0x2E33 JUMPI PUSH3 0x2E32 PUSH3 0x3717 JUMP JUMPDEST JUMPDEST PUSH3 0x2E41 DUP10 DUP3 DUP11 ADD PUSH3 0x2BCC JUMP JUMPDEST SWAP2 POP POP SWAP3 SWAP6 POP SWAP3 SWAP6 POP SWAP3 SWAP6 JUMP JUMPDEST PUSH1 0x0 PUSH1 0x20 DUP3 DUP5 SUB SLT ISZERO PUSH3 0x2E67 JUMPI PUSH3 0x2E66 PUSH3 0x371C JUMP JUMPDEST JUMPDEST PUSH1 0x0 PUSH3 0x2E77 DUP5 DUP3 DUP6 ADD PUSH3 0x2B87 JUMP JUMPDEST SWAP2 POP POP SWAP3 SWAP2 POP POP JUMP JUMPDEST PUSH1 0x0 DUP1 PUSH1 0x40 DUP4 DUP6 SUB SLT ISZERO PUSH3 0x2E9A JUMPI PUSH3 0x2E99 PUSH3 0x371C JUMP JUMPDEST JUMPDEST PUSH1 0x0 PUSH3 0x2EAA DUP6 DUP3 DUP7 ADD PUSH3 0x2B87 JUMP JUMPDEST SWAP3 POP POP PUSH1 0x20 PUSH3 0x2EBD DUP6 DUP3 DUP7 ADD PUSH3 0x2B70 JUMP JUMPDEST SWAP2 POP POP SWAP3 POP SWAP3 SWAP1 POP JUMP JUMPDEST PUSH1 0x0 PUSH1 0x20 DUP3 DUP5 SUB SLT ISZERO PUSH3 0x2EE0 JUMPI PUSH3 0x2EDF PUSH3 0x371C JUMP JUMPDEST JUMPDEST PUSH1 0x0 PUSH3 0x2EF0 DUP5 DUP3 DUP6 ADD PUSH3 0x2B9E JUMP JUMPDEST SWAP2 POP POP SWAP3 SWAP2 POP POP JUMP JUMPDEST PUSH1 0x0 PUSH1 0x20 DUP3 DUP5 SUB SLT ISZERO PUSH3 0x2F12 JUMPI PUSH3 0x2F11 PUSH3 0x371C JUMP JUMPDEST JUMPDEST PUSH1 0x0 PUSH3 0x2F22 DUP5 DUP3 DUP6 ADD PUSH3 0x2BB5 JUMP JUMPDEST SWAP2 POP POP SWAP3 SWAP2 POP POP JUMP JUMPDEST PUSH1 0x0 DUP1 PUSH1 0x0 DUP1 PUSH1 0x80 DUP6 DUP8 SUB SLT ISZERO PUSH3 0x2F48 JUMPI PUSH3 0x2F47 PUSH3 0x371C JUMP JUMPDEST JUMPDEST PUSH1 0x0 PUSH3 0x2F58 DUP8 DUP3 DUP9 ADD PUSH3 0x2BB5 JUMP JUMPDEST SWAP5 POP POP PUSH1 0x20 PUSH3 0x2F6B DUP8 DUP3 DUP9 ADD PUSH3 0x2B70 JUMP JUMPDEST SWAP4 POP POP PUSH1 0x40 PUSH3 0x2F7E DUP8 DUP3 DUP9 ADD PUSH3 0x2B87 JUMP JUMPDEST SWAP3 POP POP PUSH1 0x60 PUSH3 0x2F91 DUP8 DUP3 DUP9 ADD PUSH3 0x2BFF JUMP JUMPDEST SWAP2 POP POP SWAP3 SWAP6 SWAP2 SWAP5 POP SWAP3 POP JUMP JUMPDEST PUSH3 0x2FA8 DUP2 PUSH3 0x34C5 JUMP JUMPDEST DUP3 MSTORE POP POP JUMP JUMPDEST PUSH3 0x2FB9 DUP2 PUSH3 0x34D9 JUMP JUMPDEST DUP3 MSTORE POP POP JUMP JUMPDEST PUSH3 0x2FCA DUP2 PUSH3 0x34E5 JUMP JUMPDEST DUP3 MSTORE POP POP JUMP JUMPDEST PUSH1 0x0 PUSH3 0x2FDD DUP3 PUSH3 0x33CF JUMP JUMPDEST PUSH3 0x2FE9 DUP2 DUP6 PUSH3 0x33DA JUMP JUMPDEST SWAP4 POP PUSH3 0x2FFB DUP2 DUP6 PUSH1 0x20 DUP7 ADD PUSH3 0x3580 JUMP JUMPDEST PUSH3 0x3006 DUP2 PUSH3 0x3721 JUMP JUMPDEST DUP5 ADD SWAP2 POP POP SWAP3 SWAP2 POP POP JUMP JUMPDEST PUSH1 0x0 PUSH3 0x301E DUP3 PUSH3 0x33CF JUMP JUMPDEST PUSH3 0x302A DUP2 DUP6 PUSH3 0x33EB JUMP JUMPDEST SWAP4 POP PUSH3 0x303C DUP2 DUP6 PUSH1 0x20 DUP7 ADD PUSH3 0x3580 JUMP JUMPDEST PUSH3 0x3047 DUP2 PUSH3 0x3721 JUMP JUMPDEST DUP5 ADD SWAP2 POP POP SWAP3 SWAP2 POP POP JUMP JUMPDEST PUSH1 0x0 PUSH3 0x305F DUP3 PUSH3 0x33CF JUMP JUMPDEST PUSH3 0x306B DUP2 DUP6 PUSH3 0x33FC JUMP JUMPDEST SWAP4 POP PUSH3 0x307D DUP2 DUP6 PUSH1 0x20 DUP7 ADD PUSH3 0x3580 JUMP JUMPDEST DUP1 DUP5 ADD SWAP2 POP POP SWAP3 SWAP2 POP POP JUMP JUMPDEST PUSH1 0x0 PUSH3 0x3098 PUSH1 0x20 DUP4 PUSH3 0x33EB JUMP JUMPDEST SWAP2 POP PUSH3 0x30A5 DUP3 PUSH3 0x3732 JUMP JUMPDEST PUSH1 0x20 DUP3 ADD SWAP1 POP SWAP2 SWAP1 POP JUMP JUMPDEST PUSH1 0x0 PUSH3 0x30BF PUSH1 0x15 DUP4 PUSH3 0x33EB JUMP JUMPDEST SWAP2 POP PUSH3 0x30CC DUP3 PUSH3 0x375B JUMP JUMPDEST PUSH1 0x20 DUP3 ADD SWAP1 POP SWAP2 SWAP1 POP JUMP JUMPDEST PUSH1 0x0 PUSH3 0x30E6 PUSH1 0x17 DUP4 PUSH3 0x33FC JUMP JUMPDEST SWAP2 POP PUSH3 0x30F3 DUP3 PUSH3 0x3784 JUMP JUMPDEST PUSH1 0x17 DUP3 ADD SWAP1 POP SWAP2 SWAP1 POP JUMP JUMPDEST PUSH1 0x0 PUSH3 0x310D PUSH1 0x11 DUP4 PUSH3 0x33FC JUMP JUMPDEST SWAP2 POP PUSH3 0x311A DUP3 PUSH3 0x37AD JUMP JUMPDEST PUSH1 0x11 DUP3 ADD SWAP1 POP SWAP2 SWAP1 POP JUMP JUMPDEST PUSH1 0x0 PUSH3 0x3134 PUSH1 0x2F DUP4 PUSH3 0x33EB JUMP JUMPDEST SWAP2 POP PUSH3 0x3141 DUP3 PUSH3 0x37D6 JUMP JUMPDEST PUSH1 0x40 DUP3 ADD SWAP1 POP SWAP2 SWAP1 POP JUMP JUMPDEST PUSH1 0x0 PUSH1 0xA0 DUP4 ADD PUSH1 0x0 DUP4 ADD MLOAD DUP5 DUP3 SUB PUSH1 0x0 DUP7 ADD MSTORE PUSH3 0x316B DUP3 DUP3 PUSH3 0x2FD0 JUMP JUMPDEST SWAP2 POP POP PUSH1 0x20 DUP4 ADD MLOAD DUP5 DUP3 SUB PUSH1 0x20 DUP7 ADD MSTORE PUSH3 0x3187 DUP3 DUP3 PUSH3 0x2FD0 JUMP JUMPDEST SWAP2 POP POP PUSH1 0x40 DUP4 ADD MLOAD DUP5 DUP3 SUB PUSH1 0x40 DUP7 ADD MSTORE PUSH3 0x31A3 DUP3 DUP3 PUSH3 0x2FD0 JUMP JUMPDEST SWAP2 POP POP PUSH1 0x60 DUP4 ADD MLOAD DUP5 DUP3 SUB PUSH1 0x60 DUP7 ADD MSTORE PUSH3 0x31BF DUP3 DUP3 PUSH3 0x2FD0 JUMP JUMPDEST SWAP2 POP POP PUSH1 0x80 DUP4 ADD MLOAD DUP5 DUP3 SUB PUSH1 0x80 DUP7 ADD MSTORE PUSH3 0x31DB DUP3 DUP3 PUSH3 0x2FD0 JUMP JUMPDEST SWAP2 POP POP DUP1 SWAP2 POP POP SWAP3 SWAP2 POP POP JUMP JUMPDEST PUSH3 0x31F3 DUP2 PUSH3 0x3567 JUMP JUMPDEST DUP3 MSTORE POP POP JUMP JUMPDEST PUSH1 0x0 PUSH3 0x3206 DUP3 PUSH3 0x30D7 JUMP JUMPDEST SWAP2 POP PUSH3 0x3214 DUP3 DUP6 PUSH3 0x3052 JUMP JUMPDEST SWAP2 POP PUSH3 0x3221 DUP3 PUSH3 0x30FE JUMP JUMPDEST SWAP2 POP PUSH3 0x322F DUP3 DUP5 PUSH3 0x3052 JUMP JUMPDEST SWAP2 POP DUP2 SWAP1 POP SWAP4 SWAP3 POP POP POP JUMP JUMPDEST PUSH1 0x0 PUSH1 0x80 DUP3 ADD SWAP1 POP PUSH3 0x3252 PUSH1 0x0 DUP4 ADD DUP8 PUSH3 0x2F9D JUMP JUMPDEST PUSH3 0x3261 PUSH1 0x20 DUP4 ADD DUP7 PUSH3 0x31E8 JUMP JUMPDEST PUSH3 0x3270 PUSH1 0x40 DUP4 ADD DUP6 PUSH3 0x2FBF JUMP JUMPDEST PUSH3 0x327F PUSH1 0x60 DUP4 ADD DUP5 PUSH3 0x31E8 JUMP JUMPDEST SWAP6 SWAP5 POP POP POP POP POP JUMP JUMPDEST PUSH1 0x0 PUSH1 0x20 DUP3 ADD SWAP1 POP PUSH3 0x329F PUSH1 0x0 DUP4 ADD DUP5 PUSH3 0x2FAE JUMP JUMPDEST SWAP3 SWAP2 POP POP JUMP JUMPDEST PUSH1 0x0 PUSH1 0x20 DUP3 ADD SWAP1 POP PUSH3 0x32BC PUSH1 0x0 DUP4 ADD DUP5 PUSH3 0x2FBF JUMP JUMPDEST SWAP3 SWAP2 POP POP JUMP JUMPDEST PUSH1 0x0 PUSH1 0x20 DUP3 ADD SWAP1 POP DUP2 DUP2 SUB PUSH1 0x0 DUP4 ADD MSTORE PUSH3 0x32DE DUP2 DUP5 PUSH3 0x3011 JUMP JUMPDEST SWAP1 POP SWAP3 SWAP2 POP POP JUMP JUMPDEST PUSH1 0x0 PUSH1 0x20 DUP3 ADD SWAP1 POP DUP2 DUP2 SUB PUSH1 0x0 DUP4 ADD MSTORE PUSH3 0x3301 DUP2 PUSH3 0x3089 JUMP JUMPDEST SWAP1 POP SWAP2 SWAP1 POP JUMP JUMPDEST PUSH1 0x0 PUSH1 0x20 DUP3 ADD SWAP1 POP DUP2 DUP2 SUB PUSH1 0x0 DUP4 ADD MSTORE PUSH3 0x3323 DUP2 PUSH3 0x30B0 JUMP JUMPDEST SWAP1 POP SWAP2 SWAP1 POP JUMP JUMPDEST PUSH1 0x0 PUSH1 0x20 DUP3 ADD SWAP1 POP DUP2 DUP2 SUB PUSH1 0x0 DUP4 ADD MSTORE PUSH3 0x3345 DUP2 PUSH3 0x3125 JUMP JUMPDEST SWAP1 POP SWAP2 SWAP1 POP JUMP JUMPDEST PUSH1 0x0 PUSH1 0x20 DUP3 ADD SWAP1 POP DUP2 DUP2 SUB PUSH1 0x0 DUP4 ADD MSTORE PUSH3 0x3368 DUP2 DUP5 PUSH3 0x314C JUMP JUMPDEST SWAP1 POP SWAP3 SWAP2 POP POP JUMP JUMPDEST PUSH1 0x0 PUSH3 0x337C PUSH3 0x338F JUMP JUMPDEST SWAP1 POP PUSH3 0x338A DUP3 DUP3 PUSH3 0x361B JUMP JUMPDEST SWAP2 SWAP1 POP JUMP JUMPDEST PUSH1 0x0 PUSH1 0x40 MLOAD SWAP1 POP SWAP1 JUMP JUMPDEST PUSH1 0x0 PUSH8 0xFFFFFFFFFFFFFFFF DUP3 GT ISZERO PUSH3 0x33B7 JUMPI PUSH3 0x33B6 PUSH3 0x36DE JUMP JUMPDEST JUMPDEST PUSH3 0x33C2 DUP3 PUSH3 0x3721 JUMP JUMPDEST SWAP1 POP PUSH1 0x20 DUP2 ADD SWAP1 POP SWAP2 SWAP1 POP JUMP JUMPDEST PUSH1 0x0 DUP2 MLOAD SWAP1 POP SWAP2 SWAP1 POP JUMP JUMPDEST PUSH1 0x0 DUP3 DUP3 MSTORE PUSH1 0x20 DUP3 ADD SWAP1 POP SWAP3 SWAP2 POP POP JUMP JUMPDEST PUSH1 0x0 DUP3 DUP3 MSTORE PUSH1 0x20 DUP3 ADD SWAP1 POP SWAP3 SWAP2 POP POP JUMP JUMPDEST PUSH1 0x0 DUP2 SWAP1 POP SWAP3 SWAP2 POP POP JUMP JUMPDEST PUSH1 0x0 PUSH3 0x3414 DUP3 PUSH3 0x3567 JUMP JUMPDEST SWAP2 POP PUSH3 0x3421 DUP4 PUSH3 0x3567 JUMP JUMPDEST SWAP3 POP DUP3 PUSH32 0xFFFFFFFFFFFFFFFFFFFFFFFFFFFFFFFFFFFFFFFFFFFFFFFFFFFFFFFFFFFFFFFF SUB DUP3 GT ISZERO PUSH3 0x3459 JUMPI PUSH3 0x3458 PUSH3 0x3651 JUMP JUMPDEST JUMPDEST DUP3 DUP3 ADD SWAP1 POP SWAP3 SWAP2 POP POP JUMP JUMPDEST PUSH1 0x0 PUSH3 0x3471 DUP3 PUSH3 0x3567 JUMP JUMPDEST SWAP2 POP PUSH3 0x347E DUP4 PUSH3 0x3567 JUMP JUMPDEST SWAP3 POP DUP2 PUSH32 0xFFFFFFFFFFFFFFFFFFFFFFFFFFFFFFFFFFFFFFFFFFFFFFFFFFFFFFFFFFFFFFFF DIV DUP4 GT DUP3 ISZERO ISZERO AND ISZERO PUSH3 0x34BA JUMPI PUSH3 0x34B9 PUSH3 0x3651 JUMP JUMPDEST JUMPDEST DUP3 DUP3 MUL SWAP1 POP SWAP3 SWAP2 POP POP JUMP JUMPDEST PUSH1 0x0 PUSH3 0x34D2 DUP3 PUSH3 0x3547 JUMP JUMPDEST SWAP1 POP SWAP2 SWAP1 POP JUMP JUMPDEST PUSH1 0x0 DUP2 ISZERO ISZERO SWAP1 POP SWAP2 SWAP1 POP JUMP JUMPDEST PUSH1 0x0 DUP2 SWAP1 POP SWAP2 SWAP1 POP JUMP JUMPDEST PUSH1 0x0 PUSH32 0xFFFFFFFF00000000000000000000000000000000000000000000000000000000 DUP3 AND SWAP1 POP SWAP2 SWAP1 POP JUMP JUMPDEST PUSH1 0x0 PUSH32 0xFFFFFFFFFFFF0000000000000000000000000000000000000000000000000000 DUP3 AND SWAP1 POP SWAP2 SWAP1 POP JUMP JUMPDEST PUSH1 0x0 PUSH20 0xFFFFFFFFFFFFFFFFFFFFFFFFFFFFFFFFFFFFFFFF DUP3 AND SWAP1 POP SWAP2 SWAP1 POP JUMP JUMPDEST PUSH1 0x0 DUP2 SWAP1 POP SWAP2 SWAP1 POP JUMP JUMPDEST DUP3 DUP2 DUP4 CALLDATACOPY PUSH1 0x0 DUP4 DUP4 ADD MSTORE POP POP POP JUMP JUMPDEST PUSH1 0x0 JUMPDEST DUP4 DUP2 LT ISZERO PUSH3 0x35A0 JUMPI DUP1 DUP3 ADD MLOAD DUP2 DUP5 ADD MSTORE PUSH1 0x20 DUP2 ADD SWAP1 POP PUSH3 0x3583 JUMP JUMPDEST DUP4 DUP2 GT ISZERO PUSH3 0x35B0 JUMPI PUSH1 0x0 DUP5 DUP5 ADD MSTORE JUMPDEST POP POP POP POP JUMP JUMPDEST PUSH1 0x0 PUSH3 0x35C3 DUP3 PUSH3 0x3567 JUMP JUMPDEST SWAP2 POP PUSH1 0x0 DUP3 EQ ISZERO PUSH3 0x35DA JUMPI PUSH3 0x35D9 PUSH3 0x3651 JUMP JUMPDEST JUMPDEST PUSH1 0x1 DUP3 SUB SWAP1 POP SWAP2 SWAP1 POP JUMP JUMPDEST PUSH1 0x0 PUSH1 0x2 DUP3 DIV SWAP1 POP PUSH1 0x1 DUP3 AND DUP1 PUSH3 0x35FE JUMPI PUSH1 0x7F DUP3 AND SWAP2 POP JUMPDEST PUSH1 0x20 DUP3 LT DUP2 EQ ISZERO PUSH3 0x3615 JUMPI PUSH3 0x3614 PUSH3 0x3680 JUMP JUMPDEST JUMPDEST POP SWAP2 SWAP1 POP JUMP JUMPDEST PUSH3 0x3626 DUP3 PUSH3 0x3721 JUMP JUMPDEST DUP2 ADD DUP2 DUP2 LT PUSH8 0xFFFFFFFFFFFFFFFF DUP3 GT OR ISZERO PUSH3 0x3648 JUMPI PUSH3 0x3647 PUSH3 0x36DE JUMP JUMPDEST JUMPDEST DUP1 PUSH1 0x40 MSTORE POP POP POP JUMP JUMPDEST PUSH32 0x4E487B7100000000000000000000000000000000000000000000000000000000 PUSH1 0x0 MSTORE PUSH1 0x11 PUSH1 0x4 MSTORE PUSH1 0x24 PUSH1 0x0 REVERT JUMPDEST PUSH32 0x4E487B7100000000000000000000000000000000000000000000000000000000 PUSH1 0x0 MSTORE PUSH1 0x22 PUSH1 0x4 MSTORE PUSH1 0x24 PUSH1 0x0 REVERT JUMPDEST PUSH32 0x4E487B7100000000000000000000000000000000000000000000000000000000 PUSH1 0x0 MSTORE PUSH1 0x32 PUSH1 0x4 MSTORE PUSH1 0x24 PUSH1 0x0 REVERT JUMPDEST PUSH32 0x4E487B7100000000000000000000000000000000000000000000000000000000 PUSH1 0x0 MSTORE PUSH1 0x41 PUSH1 0x4 MSTORE PUSH1 0x24 PUSH1 0x0 REVERT JUMPDEST PUSH1 0x0 DUP1 REVERT JUMPDEST PUSH1 0x0 DUP1 REVERT JUMPDEST PUSH1 0x0 DUP1 REVERT JUMPDEST PUSH1 0x0 DUP1 REVERT JUMPDEST PUSH1 0x0 PUSH1 0x1F NOT PUSH1 0x1F DUP4 ADD AND SWAP1 POP SWAP2 SWAP1 POP JUMP JUMPDEST PUSH32 0x537472696E67733A20686578206C656E67746820696E73756666696369656E74 PUSH1 0x0 DUP3 ADD MSTORE POP JUMP JUMPDEST PUSH32 0x5265737472696374656420746F2061646D696E732E0000000000000000000000 PUSH1 0x0 DUP3 ADD MSTORE POP JUMP JUMPDEST PUSH32 0x416363657373436F6E74726F6C3A206163636F756E7420000000000000000000 PUSH1 0x0 DUP3 ADD MSTORE POP JUMP JUMPDEST PUSH32 0x206973206D697373696E6720726F6C6520000000000000000000000000000000 PUSH1 0x0 DUP3 ADD MSTORE POP JUMP JUMPDEST PUSH32 0x416363657373436F6E74726F6C3A2063616E206F6E6C792072656E6F756E6365 PUSH1 0x0 DUP3 ADD MSTORE PUSH32 0x20726F6C657320666F722073656C660000000000000000000000000000000000 PUSH1 0x20 DUP3 ADD MSTORE POP JUMP JUMPDEST PUSH3 0x3830 DUP2 PUSH3 0x34C5 JUMP JUMPDEST DUP2 EQ PUSH3 0x383C JUMPI PUSH1 0x0 DUP1 REVERT JUMPDEST POP JUMP JUMPDEST PUSH3 0x384A DUP2 PUSH3 0x34E5 JUMP JUMPDEST DUP2 EQ PUSH3 0x3856 JUMPI PUSH1 0x0 DUP1 REVERT JUMPDEST POP JUMP JUMPDEST PUSH3 0x3864 DUP2 PUSH3 0x34EF JUMP JUMPDEST DUP2 EQ PUSH3 0x3870 JUMPI PUSH1 0x0 DUP1 REVERT JUMPDEST POP JUMP JUMPDEST PUSH3 0x387E DUP2 PUSH3 0x351B JUMP JUMPDEST DUP2 EQ PUSH3 0x388A JUMPI PUSH1 0x0 DUP1 REVERT JUMPDEST POP JUMP JUMPDEST PUSH3 0x3898 DUP2 PUSH3 0x3567 JUMP JUMPDEST DUP2 EQ PUSH3 0x38A4 JUMPI PUSH1 0x0 DUP1 REVERT JUMPDEST POP JUMP INVALID PUSH1 0x80 PUSH1 0x40 MSTORE CALLVALUE DUP1 ISZERO PUSH3 0x11 JUMPI PUSH1 0x0 DUP1 REVERT JUMPDEST POP PUSH3 0x27 PUSH1 0x0 DUP1 SHL CALLER PUSH3 0x2D PUSH1 0x20 SHL PUSH1 0x20 SHR JUMP JUMPDEST PUSH3 0x1A6 JUMP JUMPDEST PUSH3 0x3F DUP3 DUP3 PUSH3 0x43 PUSH1 0x20 SHL PUSH1 0x20 SHR JUMP JUMPDEST POP POP JUMP JUMPDEST PUSH3 0x55 DUP3 DUP3 PUSH3 0x134 PUSH1 0x20 SHL PUSH1 0x20 SHR JUMP JUMPDEST PUSH3 0x130 JUMPI PUSH1 0x1 PUSH1 0x0 DUP1 DUP5 DUP2 MSTORE PUSH1 0x20 ADD SWAP1 DUP2 MSTORE PUSH1 0x20 ADD PUSH1 0x0 KECCAK256 PUSH1 0x0 ADD PUSH1 0x0 DUP4 PUSH20 0xFFFFFFFFFFFFFFFFFFFFFFFFFFFFFFFFFFFFFFFF AND PUSH20 0xFFFFFFFFFFFFFFFFFFFFFFFFFFFFFFFFFFFFFFFF AND DUP2 MSTORE PUSH1 0x20 ADD SWAP1 DUP2 MSTORE PUSH1 0x20 ADD PUSH1 0x0 KECCAK256 PUSH1 0x0 PUSH2 0x100 EXP DUP2 SLOAD DUP2 PUSH1 0xFF MUL NOT AND SWAP1 DUP4 ISZERO ISZERO MUL OR SWAP1 SSTORE POP PUSH3 0xD5 PUSH3 0x19E PUSH1 0x20 SHL PUSH1 0x20 SHR JUMP JUMPDEST PUSH20 0xFFFFFFFFFFFFFFFFFFFFFFFFFFFFFFFFFFFFFFFF AND DUP2 PUSH20 0xFFFFFFFFFFFFFFFFFFFFFFFFFFFFFFFFFFFFFFFF AND DUP4 PUSH32 0x2F8788117E7EFF1D82E926EC794901D17C78024A50270940304540A733656F0D PUSH1 0x40 MLOAD PUSH1 0x40 MLOAD DUP1 SWAP2 SUB SWAP1 LOG4 JUMPDEST POP POP JUMP JUMPDEST PUSH1 0x0 DUP1 PUSH1 0x0 DUP5 DUP2 MSTORE PUSH1 0x20 ADD SWAP1 DUP2 MSTORE PUSH1 0x20 ADD PUSH1 0x0 KECCAK256 PUSH1 0x0 ADD PUSH1 0x0 DUP4 PUSH20 0xFFFFFFFFFFFFFFFFFFFFFFFFFFFFFFFFFFFFFFFF AND PUSH20 0xFFFFFFFFFFFFFFFFFFFFFFFFFFFFFFFFFFFFFFFF AND DUP2 MSTORE PUSH1 0x20 ADD SWAP1 DUP2 MSTORE PUSH1 0x20 ADD PUSH1 0x0 KECCAK256 PUSH1 0x0 SWAP1 SLOAD SWAP1 PUSH2 0x100 EXP SWAP1 DIV PUSH1 0xFF AND SWAP1 POP SWAP3 SWAP2 POP POP JUMP JUMPDEST PUSH1 0x0 CALLER SWAP1 POP SWAP1 JUMP JUMPDEST PUSH2 0x17E5 DUP1 PUSH3 0x1B6 PUSH1 0x0 CODECOPY PUSH1 0x0 RETURN INVALID PUSH1 0x80 PUSH1 0x40 MSTORE CALLVALUE DUP1 ISZERO PUSH2 0x10 JUMPI PUSH1 0x0 DUP1 REVERT JUMPDEST POP PUSH1 0x4 CALLDATASIZE LT PUSH2 0x116 JUMPI PUSH1 0x0 CALLDATALOAD PUSH1 0xE0 SHR DUP1 PUSH4 0x91B465C8 GT PUSH2 0xA2 JUMPI DUP1 PUSH4 0xBF9FC202 GT PUSH2 0x71 JUMPI DUP1 PUSH4 0xBF9FC202 EQ PUSH2 0x2EE JUMPI DUP1 PUSH4 0xD547741F EQ PUSH2 0x31E JUMPI DUP1 PUSH4 0xF0BD87CC EQ PUSH2 0x33A JUMPI DUP1 PUSH4 0xF3943970 EQ PUSH2 0x358 JUMPI DUP1 PUSH4 0xFA0B5E55 EQ PUSH2 0x376 JUMPI PUSH2 0x116 JUMP JUMPDEST DUP1 PUSH4 0x91B465C8 EQ PUSH2 0x268 JUMPI DUP1 PUSH4 0x91D14854 EQ PUSH2 0x284 JUMPI DUP1 PUSH4 0xA217FDDF EQ PUSH2 0x2B4 JUMPI DUP1 PUSH4 0xB4AF12BF EQ PUSH2 0x2D2 JUMPI PUSH2 0x116 JUMP JUMPDEST DUP1 PUSH4 0x2F2FF15D GT PUSH2 0xE9 JUMPI DUP1 PUSH4 0x2F2FF15D EQ PUSH2 0x1C7 JUMPI DUP1 PUSH4 0x36568ABE EQ PUSH2 0x1E3 JUMPI DUP1 PUSH4 0x6386C1C7 EQ PUSH2 0x1FF JUMPI DUP1 PUSH4 0x70480275 EQ PUSH2 0x230 JUMPI DUP1 PUSH4 0x8F283970 EQ PUSH2 0x24C JUMPI PUSH2 0x116 JUMP JUMPDEST DUP1 PUSH4 0x1FFC9A7 EQ PUSH2 0x11B JUMPI DUP1 PUSH4 0x8CCF219 EQ PUSH2 0x14B JUMPI DUP1 PUSH4 0x248A9CA3 EQ PUSH2 0x167 JUMPI DUP1 PUSH4 0x24D7806C EQ PUSH2 0x197 JUMPI JUMPDEST PUSH1 0x0 DUP1 REVERT JUMPDEST PUSH2 0x135 PUSH1 0x4 DUP1 CALLDATASIZE SUB DUP2 ADD SWAP1 PUSH2 0x130 SWAP2 SWAP1 PUSH2 0x10C2 JUMP JUMPDEST PUSH2 0x392 JUMP JUMPDEST PUSH1 0x40 MLOAD PUSH2 0x142 SWAP2 SWAP1 PUSH2 0x127E JUMP JUMPDEST PUSH1 0x40 MLOAD DUP1 SWAP2 SUB SWAP1 RETURN JUMPDEST PUSH2 0x165 PUSH1 0x4 DUP1 CALLDATASIZE SUB DUP2 ADD SWAP1 PUSH2 0x160 SWAP2 SWAP1 PUSH2 0xFA8 JUMP JUMPDEST PUSH2 0x40C JUMP JUMPDEST STOP JUMPDEST PUSH2 0x181 PUSH1 0x4 DUP1 CALLDATASIZE SUB DUP2 ADD SWAP1 PUSH2 0x17C SWAP2 SWAP1 PUSH2 0x1055 JUMP JUMPDEST PUSH2 0x481 JUMP JUMPDEST PUSH1 0x40 MLOAD PUSH2 0x18E SWAP2 SWAP1 PUSH2 0x1299 JUMP JUMPDEST PUSH1 0x40 MLOAD DUP1 SWAP2 SUB SWAP1 RETURN JUMPDEST PUSH2 0x1B1 PUSH1 0x4 DUP1 CALLDATASIZE SUB DUP2 ADD SWAP1 PUSH2 0x1AC SWAP2 SWAP1 PUSH2 0xFA8 JUMP JUMPDEST PUSH2 0x4A0 JUMP JUMPDEST PUSH1 0x40 MLOAD PUSH2 0x1BE SWAP2 SWAP1 PUSH2 0x127E JUMP JUMPDEST PUSH1 0x40 MLOAD DUP1 SWAP2 SUB SWAP1 RETURN JUMPDEST PUSH2 0x1E1 PUSH1 0x4 DUP1 CALLDATASIZE SUB DUP2 ADD SWAP1 PUSH2 0x1DC SWAP2 SWAP1 PUSH2 0x1082 JUMP JUMPDEST PUSH2 0x4B6 JUMP JUMPDEST STOP JUMPDEST PUSH2 0x1FD PUSH1 0x4 DUP1 CALLDATASIZE SUB DUP2 ADD SWAP1 PUSH2 0x1F8 SWAP2 SWAP1 PUSH2 0x1082 JUMP JUMPDEST PUSH2 0x4DF JUMP JUMPDEST STOP JUMPDEST PUSH2 0x219 PUSH1 0x4 DUP1 CALLDATASIZE SUB DUP2 ADD SWAP1 PUSH2 0x214 SWAP2 SWAP1 PUSH2 0xFA8 JUMP JUMPDEST PUSH2 0x562 JUMP JUMPDEST PUSH1 0x40 MLOAD PUSH2 0x227 SWAP3 SWAP2 SWAP1 PUSH2 0x12CF JUMP JUMPDEST PUSH1 0x40 MLOAD DUP1 SWAP2 SUB SWAP1 RETURN JUMPDEST PUSH2 0x24A PUSH1 0x4 DUP1 CALLDATASIZE SUB DUP2 ADD SWAP1 PUSH2 0x245 SWAP2 SWAP1 PUSH2 0xFA8 JUMP JUMPDEST PUSH2 0x60C JUMP JUMPDEST STOP JUMPDEST PUSH2 0x266 PUSH1 0x4 DUP1 CALLDATASIZE SUB DUP2 ADD SWAP1 PUSH2 0x261 SWAP2 SWAP1 PUSH2 0xFA8 JUMP JUMPDEST PUSH2 0x664 JUMP JUMPDEST STOP JUMPDEST PUSH2 0x282 PUSH1 0x4 DUP1 CALLDATASIZE SUB DUP2 ADD SWAP1 PUSH2 0x27D SWAP2 SWAP1 PUSH2 0xFD5 JUMP JUMPDEST PUSH2 0x6BC JUMP JUMPDEST STOP JUMPDEST PUSH2 0x29E PUSH1 0x4 DUP1 CALLDATASIZE SUB DUP2 ADD SWAP1 PUSH2 0x299 SWAP2 SWAP1 PUSH2 0x1082 JUMP JUMPDEST PUSH2 0x6C0 JUMP JUMPDEST PUSH1 0x40 MLOAD PUSH2 0x2AB SWAP2 SWAP1 PUSH2 0x127E JUMP JUMPDEST PUSH1 0x40 MLOAD DUP1 SWAP2 SUB SWAP1 RETURN JUMPDEST PUSH2 0x2BC PUSH2 0x72A JUMP JUMPDEST PUSH1 0x40 MLOAD PUSH2 0x2C9 SWAP2 SWAP1 PUSH2 0x1299 JUMP JUMPDEST PUSH1 0x40 MLOAD DUP1 SWAP2 SUB SWAP1 RETURN JUMPDEST PUSH2 0x2EC PUSH1 0x4 DUP1 CALLDATASIZE SUB DUP2 ADD SWAP1 PUSH2 0x2E7 SWAP2 SWAP1 PUSH2 0xFA8 JUMP JUMPDEST PUSH2 0x731 JUMP JUMPDEST STOP JUMPDEST PUSH2 0x308 PUSH1 0x4 DUP1 CALLDATASIZE SUB DUP2 ADD SWAP1 PUSH2 0x303 SWAP2 SWAP1 PUSH2 0xFA8 JUMP JUMPDEST PUSH2 0x7A6 JUMP JUMPDEST PUSH1 0x40 MLOAD PUSH2 0x315 SWAP2 SWAP1 PUSH2 0x12B4 JUMP JUMPDEST PUSH1 0x40 MLOAD DUP1 SWAP2 SUB SWAP1 RETURN JUMPDEST PUSH2 0x338 PUSH1 0x4 DUP1 CALLDATASIZE SUB DUP2 ADD SWAP1 PUSH2 0x333 SWAP2 SWAP1 PUSH2 0x1082 JUMP JUMPDEST PUSH2 0x7FF JUMP JUMPDEST STOP JUMPDEST PUSH2 0x342 PUSH2 0x828 JUMP JUMPDEST PUSH1 0x40 MLOAD PUSH2 0x34F SWAP2 SWAP1 PUSH2 0x1299 JUMP JUMPDEST PUSH1 0x40 MLOAD DUP1 SWAP2 SUB SWAP1 RETURN JUMPDEST PUSH2 0x360 PUSH2 0x84C JUMP JUMPDEST PUSH1 0x40 MLOAD PUSH2 0x36D SWAP2 SWAP1 PUSH2 0x1299 JUMP JUMPDEST PUSH1 0x40 MLOAD DUP1 SWAP2 SUB SWAP1 RETURN JUMPDEST PUSH2 0x390 PUSH1 0x4 DUP1 CALLDATASIZE SUB DUP2 ADD SWAP1 PUSH2 0x38B SWAP2 SWAP1 PUSH2 0x1015 JUMP JUMPDEST PUSH2 0x870 JUMP JUMPDEST STOP JUMPDEST PUSH1 0x0 PUSH32 0x7965DB0B00000000000000000000000000000000000000000000000000000000 PUSH28 0xFFFFFFFFFFFFFFFFFFFFFFFFFFFFFFFFFFFFFFFFFFFFFFFFFFFFFFFF NOT AND DUP3 PUSH28 0xFFFFFFFFFFFFFFFFFFFFFFFFFFFFFFFFFFFFFFFFFFFFFFFFFFFFFFFF NOT AND EQ DUP1 PUSH2 0x405 JUMPI POP PUSH2 0x404 DUP3 PUSH2 0xA07 JUMP JUMPDEST JUMPDEST SWAP1 POP SWAP2 SWAP1 POP JUMP JUMPDEST PUSH2 0x415 CALLER PUSH2 0x4A0 JUMP JUMPDEST PUSH2 0x454 JUMPI PUSH1 0x40 MLOAD PUSH32 0x8C379A000000000000000000000000000000000000000000000000000000000 DUP2 MSTORE PUSH1 0x4 ADD PUSH2 0x44B SWAP1 PUSH2 0x133A JUMP JUMPDEST PUSH1 0x40 MLOAD DUP1 SWAP2 SUB SWAP1 REVERT JUMPDEST PUSH2 0x47E PUSH32 0xF309FFC42715A0BFCCDFA0C4CAC305505F15AB9B9262B7451CEEA96C0CC35187 DUP3 PUSH2 0x4B6 JUMP JUMPDEST POP JUMP JUMPDEST PUSH1 0x0 DUP1 PUSH1 0x0 DUP4 DUP2 MSTORE PUSH1 0x20 ADD SWAP1 DUP2 MSTORE PUSH1 0x20 ADD PUSH1 0x0 KECCAK256 PUSH1 0x1 ADD SLOAD SWAP1 POP SWAP2 SWAP1 POP JUMP JUMPDEST PUSH1 0x0 PUSH2 0x4AF PUSH1 0x0 DUP1 SHL DUP4 PUSH2 0x6C0 JUMP JUMPDEST SWAP1 POP SWAP2 SWAP1 POP JUMP JUMPDEST PUSH2 0x4BF DUP3 PUSH2 0x481 JUMP JUMPDEST PUSH2 0x4D0 DUP2 PUSH2 0x4CB PUSH2 0xA71 JUMP JUMPDEST PUSH2 0xA79 JUMP JUMPDEST PUSH2 0x4DA DUP4 DUP4 PUSH2 0xB16 JUMP JUMPDEST POP POP POP JUMP JUMPDEST PUSH2 0x4E7 PUSH2 0xA71 JUMP JUMPDEST PUSH20 0xFFFFFFFFFFFFFFFFFFFFFFFFFFFFFFFFFFFFFFFF AND DUP2 PUSH20 0xFFFFFFFFFFFFFFFFFFFFFFFFFFFFFFFFFFFFFFFF AND EQ PUSH2 0x554 JUMPI PUSH1 0x40 MLOAD PUSH32 0x8C379A000000000000000000000000000000000000000000000000000000000 DUP2 MSTORE PUSH1 0x4 ADD PUSH2 0x54B SWAP1 PUSH2 0x135A JUMP JUMPDEST PUSH1 0x40 MLOAD DUP1 SWAP2 SUB SWAP1 REVERT JUMPDEST PUSH2 0x55E DUP3 DUP3 PUSH2 0xBF6 JUMP JUMPDEST POP POP JUMP JUMPDEST PUSH1 0x0 DUP1 PUSH1 0x0 PUSH1 0x3 PUSH1 0x0 DUP6 PUSH20 0xFFFFFFFFFFFFFFFFFFFFFFFFFFFFFFFFFFFFFFFF AND PUSH20 0xFFFFFFFFFFFFFFFFFFFFFFFFFFFFFFFFFFFFFFFF AND DUP2 MSTORE PUSH1 0x20 ADD SWAP1 DUP2 MSTORE PUSH1 0x20 ADD PUSH1 0x0 KECCAK256 PUSH1 0x40 MLOAD DUP1 PUSH1 0x40 ADD PUSH1 0x40 MSTORE SWAP1 DUP2 PUSH1 0x0 DUP3 ADD SLOAD DUP2 MSTORE PUSH1 0x20 ADD PUSH1 0x1 DUP3 ADD PUSH1 0x0 SWAP1 SLOAD SWAP1 PUSH2 0x100 EXP SWAP1 DIV PUSH1 0xFF AND PUSH1 0x2 DUP2 GT ISZERO PUSH2 0x5E0 JUMPI PUSH2 0x5DF PUSH2 0x1592 JUMP JUMPDEST JUMPDEST PUSH1 0x2 DUP2 GT ISZERO PUSH2 0x5F2 JUMPI PUSH2 0x5F1 PUSH2 0x1592 JUMP JUMPDEST JUMPDEST DUP2 MSTORE POP POP SWAP1 POP DUP1 PUSH1 0x20 ADD MLOAD DUP2 PUSH1 0x0 ADD MLOAD SWAP3 POP SWAP3 POP POP SWAP2 POP SWAP2 JUMP JUMPDEST PUSH2 0x615 CALLER PUSH2 0x4A0 JUMP JUMPDEST PUSH2 0x654 JUMPI PUSH1 0x40 MLOAD PUSH32 0x8C379A000000000000000000000000000000000000000000000000000000000 DUP2 MSTORE PUSH1 0x4 ADD PUSH2 0x64B SWAP1 PUSH2 0x133A JUMP JUMPDEST PUSH1 0x40 MLOAD DUP1 SWAP2 SUB SWAP1 REVERT JUMPDEST PUSH2 0x661 PUSH1 0x0 DUP1 SHL DUP3 PUSH2 0x4B6 JUMP JUMPDEST POP JUMP JUMPDEST PUSH2 0x66D CALLER PUSH2 0x4A0 JUMP JUMPDEST PUSH2 0x6AC JUMPI PUSH1 0x40 MLOAD PUSH32 0x8C379A000000000000000000000000000000000000000000000000000000000 DUP2 MSTORE PUSH1 0x4 ADD PUSH2 0x6A3 SWAP1 PUSH2 0x133A JUMP JUMPDEST PUSH1 0x40 MLOAD DUP1 SWAP2 SUB SWAP1 REVERT JUMPDEST PUSH2 0x6B9 PUSH1 0x0 DUP1 SHL DUP3 PUSH2 0x4B6 JUMP JUMPDEST POP JUMP JUMPDEST POP POP JUMP JUMPDEST PUSH1 0x0 DUP1 PUSH1 0x0 DUP5 DUP2 MSTORE PUSH1 0x20 ADD SWAP1 DUP2 MSTORE PUSH1 0x20 ADD PUSH1 0x0 KECCAK256 PUSH1 0x0 ADD PUSH1 0x0 DUP4 PUSH20 0xFFFFFFFFFFFFFFFFFFFFFFFFFFFFFFFFFFFFFFFF AND PUSH20 0xFFFFFFFFFFFFFFFFFFFFFFFFFFFFFFFFFFFFFFFF AND DUP2 MSTORE PUSH1 0x20 ADD SWAP1 DUP2 MSTORE PUSH1 0x20 ADD PUSH1 0x0 KECCAK256 PUSH1 0x0 SWAP1 SLOAD SWAP1 PUSH2 0x100 EXP SWAP1 DIV PUSH1 0xFF AND SWAP1 POP SWAP3 SWAP2 POP POP JUMP JUMPDEST PUSH1 0x0 DUP1 SHL DUP2 JUMP JUMPDEST PUSH2 0x73A CALLER PUSH2 0x4A0 JUMP JUMPDEST PUSH2 0x779 JUMPI PUSH1 0x40 MLOAD PUSH32 0x8C379A000000000000000000000000000000000000000000000000000000000 DUP2 MSTORE PUSH1 0x4 ADD PUSH2 0x770 SWAP1 PUSH2 0x133A JUMP JUMPDEST PUSH1 0x40 MLOAD DUP1 SWAP2 SUB SWAP1 REVERT JUMPDEST PUSH2 0x7A3 PUSH32 0x85FACED7BDE13E1A7DAD704B895F006E704F207617D68166B31BA2D79624862D DUP3 PUSH2 0x4B6 JUMP JUMPDEST POP JUMP JUMPDEST PUSH1 0x0 PUSH1 0x3 PUSH1 0x0 DUP4 PUSH20 0xFFFFFFFFFFFFFFFFFFFFFFFFFFFFFFFFFFFFFFFF AND PUSH20 0xFFFFFFFFFFFFFFFFFFFFFFFFFFFFFFFFFFFFFFFF AND DUP2 MSTORE PUSH1 0x20 ADD SWAP1 DUP2 MSTORE PUSH1 0x20 ADD PUSH1 0x0 KECCAK256 PUSH1 0x1 ADD PUSH1 0x0 SWAP1 SLOAD SWAP1 PUSH2 0x100 EXP SWAP1 DIV PUSH1 0xFF AND SWAP1 POP SWAP2 SWAP1 POP JUMP JUMPDEST PUSH2 0x808 DUP3 PUSH2 0x481 JUMP JUMPDEST PUSH2 0x819 DUP2 PUSH2 0x814 PUSH2 0xA71 JUMP JUMPDEST PUSH2 0xA79 JUMP JUMPDEST PUSH2 0x823 DUP4 DUP4 PUSH2 0xBF6 JUMP JUMPDEST POP POP POP JUMP JUMPDEST PUSH32 0x85FACED7BDE13E1A7DAD704B895F006E704F207617D68166B31BA2D79624862D DUP2 JUMP JUMPDEST PUSH32 0xF309FFC42715A0BFCCDFA0C4CAC305505F15AB9B9262B7451CEEA96C0CC35187 DUP2 JUMP JUMPDEST PUSH2 0x879 CALLER PUSH2 0x4A0 JUMP JUMPDEST PUSH2 0x8B8 JUMPI PUSH1 0x40 MLOAD PUSH32 0x8C379A000000000000000000000000000000000000000000000000000000000 DUP2 MSTORE PUSH1 0x4 ADD PUSH2 0x8AF SWAP1 PUSH2 0x133A JUMP JUMPDEST PUSH1 0x40 MLOAD DUP1 SWAP2 SUB SWAP1 REVERT JUMPDEST PUSH2 0x8C0 PUSH2 0xF13 JUMP JUMPDEST TIMESTAMP DUP2 PUSH1 0x0 ADD DUP2 DUP2 MSTORE POP POP PUSH1 0x0 DUP3 EQ ISZERO PUSH2 0x909 JUMPI PUSH1 0x0 DUP2 PUSH1 0x20 ADD SWAP1 PUSH1 0x2 DUP2 GT ISZERO PUSH2 0x8EC JUMPI PUSH2 0x8EB PUSH2 0x1592 JUMP JUMPDEST JUMPDEST SWAP1 DUP2 PUSH1 0x2 DUP2 GT ISZERO PUSH2 0x900 JUMPI PUSH2 0x8FF PUSH2 0x1592 JUMP JUMPDEST JUMPDEST DUP2 MSTORE POP POP PUSH2 0x985 JUMP JUMPDEST PUSH1 0x1 DUP3 EQ ISZERO PUSH2 0x948 JUMPI PUSH1 0x1 DUP2 PUSH1 0x20 ADD SWAP1 PUSH1 0x2 DUP2 GT ISZERO PUSH2 0x92B JUMPI PUSH2 0x92A PUSH2 0x1592 JUMP JUMPDEST JUMPDEST SWAP1 DUP2 PUSH1 0x2 DUP2 GT ISZERO PUSH2 0x93F JUMPI PUSH2 0x93E PUSH2 0x1592 JUMP JUMPDEST JUMPDEST DUP2 MSTORE POP POP PUSH2 0x984 JUMP JUMPDEST PUSH1 0x2 DUP3 EQ ISZERO PUSH2 0x983 JUMPI PUSH1 0x2 DUP2 PUSH1 0x20 ADD SWAP1 PUSH1 0x2 DUP2 GT ISZERO PUSH2 0x96A JUMPI PUSH2 0x969 PUSH2 0x1592 JUMP JUMPDEST JUMPDEST SWAP1 DUP2 PUSH1 0x2 DUP2 GT ISZERO PUSH2 0x97E JUMPI PUSH2 0x97D PUSH2 0x1592 JUMP JUMPDEST JUMPDEST DUP2 MSTORE POP POP JUMPDEST JUMPDEST JUMPDEST DUP1 PUSH1 0x3 PUSH1 0x0 DUP6 PUSH20 0xFFFFFFFFFFFFFFFFFFFFFFFFFFFFFFFFFFFFFFFF AND PUSH20 0xFFFFFFFFFFFFFFFFFFFFFFFFFFFFFFFFFFFFFFFF AND DUP2 MSTORE PUSH1 0x20 ADD SWAP1 DUP2 MSTORE PUSH1 0x20 ADD PUSH1 0x0 KECCAK256 PUSH1 0x0 DUP3 ADD MLOAD DUP2 PUSH1 0x0 ADD SSTORE PUSH1 0x20 DUP3 ADD MLOAD DUP2 PUSH1 0x1 ADD PUSH1 0x0 PUSH2 0x100 EXP DUP2 SLOAD DUP2 PUSH1 0xFF MUL NOT AND SWAP1 DUP4 PUSH1 0x2 DUP2 GT ISZERO PUSH2 0x9FA JUMPI PUSH2 0x9F9 PUSH2 0x1592 JUMP JUMPDEST JUMPDEST MUL OR SWAP1 SSTORE POP SWAP1 POP POP POP POP POP JUMP JUMPDEST PUSH1 0x0 PUSH32 0x1FFC9A700000000000000000000000000000000000000000000000000000000 PUSH28 0xFFFFFFFFFFFFFFFFFFFFFFFFFFFFFFFFFFFFFFFFFFFFFFFFFFFFFFFF NOT AND DUP3 PUSH28 0xFFFFFFFFFFFFFFFFFFFFFFFFFFFFFFFFFFFFFFFFFFFFFFFFFFFFFFFF NOT AND EQ SWAP1 POP SWAP2 SWAP1 POP JUMP JUMPDEST PUSH1 0x0 CALLER SWAP1 POP SWAP1 JUMP JUMPDEST PUSH2 0xA83 DUP3 DUP3 PUSH2 0x6C0 JUMP JUMPDEST PUSH2 0xB12 JUMPI PUSH2 0xAA8 DUP2 PUSH20 0xFFFFFFFFFFFFFFFFFFFFFFFFFFFFFFFFFFFFFFFF AND PUSH1 0x14 PUSH2 0xCD7 JUMP JUMPDEST PUSH2 0xAB6 DUP4 PUSH1 0x0 SHR PUSH1 0x20 PUSH2 0xCD7 JUMP JUMPDEST PUSH1 0x40 MLOAD PUSH1 0x20 ADD PUSH2 0xAC7 SWAP3 SWAP2 SWAP1 PUSH2 0x1244 JUMP JUMPDEST PUSH1 0x40 MLOAD PUSH1 0x20 DUP2 DUP4 SUB SUB DUP2 MSTORE SWAP1 PUSH1 0x40 MSTORE PUSH1 0x40 MLOAD PUSH32 0x8C379A000000000000000000000000000000000000000000000000000000000 DUP2 MSTORE PUSH1 0x4 ADD PUSH2 0xB09 SWAP2 SWAP1 PUSH2 0x12F8 JUMP JUMPDEST PUSH1 0x40 MLOAD DUP1 SWAP2 SUB SWAP1 REVERT JUMPDEST POP POP JUMP JUMPDEST PUSH2 0xB20 DUP3 DUP3 PUSH2 0x6C0 JUMP JUMPDEST PUSH2 0xBF2 JUMPI PUSH1 0x1 PUSH1 0x0 DUP1 DUP5 DUP2 MSTORE PUSH1 0x20 ADD SWAP1 DUP2 MSTORE PUSH1 0x20 ADD PUSH1 0x0 KECCAK256 PUSH1 0x0 ADD PUSH1 0x0 DUP4 PUSH20 0xFFFFFFFFFFFFFFFFFFFFFFFFFFFFFFFFFFFFFFFF AND PUSH20 0xFFFFFFFFFFFFFFFFFFFFFFFFFFFFFFFFFFFFFFFF AND DUP2 MSTORE PUSH1 0x20 ADD SWAP1 DUP2 MSTORE PUSH1 0x20 ADD PUSH1 0x0 KECCAK256 PUSH1 0x0 PUSH2 0x100 EXP DUP2 SLOAD DUP2 PUSH1 0xFF MUL NOT AND SWAP1 DUP4 ISZERO ISZERO MUL OR SWAP1 SSTORE POP PUSH2 0xB97 PUSH2 0xA71 JUMP JUMPDEST PUSH20 0xFFFFFFFFFFFFFFFFFFFFFFFFFFFFFFFFFFFFFFFF AND DUP2 PUSH20 0xFFFFFFFFFFFFFFFFFFFFFFFFFFFFFFFFFFFFFFFF AND DUP4 PUSH32 0x2F8788117E7EFF1D82E926EC794901D17C78024A50270940304540A733656F0D PUSH1 0x40 MLOAD PUSH1 0x40 MLOAD DUP1 SWAP2 SUB SWAP1 LOG4 JUMPDEST POP POP JUMP JUMPDEST PUSH2 0xC00 DUP3 DUP3 PUSH2 0x6C0 JUMP JUMPDEST ISZERO PUSH2 0xCD3 JUMPI PUSH1 0x0 DUP1 PUSH1 0x0 DUP5 DUP2 MSTORE PUSH1 0x20 ADD SWAP1 DUP2 MSTORE PUSH1 0x20 ADD PUSH1 0x0 KECCAK256 PUSH1 0x0 ADD PUSH1 0x0 DUP4 PUSH20 0xFFFFFFFFFFFFFFFFFFFFFFFFFFFFFFFFFFFFFFFF AND PUSH20 0xFFFFFFFFFFFFFFFFFFFFFFFFFFFFFFFFFFFFFFFF AND DUP2 MSTORE PUSH1 0x20 ADD SWAP1 DUP2 MSTORE PUSH1 0x20 ADD PUSH1 0x0 KECCAK256 PUSH1 0x0 PUSH2 0x100 EXP DUP2 SLOAD DUP2 PUSH1 0xFF MUL NOT AND SWAP1 DUP4 ISZERO ISZERO MUL OR SWAP1 SSTORE POP PUSH2 0xC78 PUSH2 0xA71 JUMP JUMPDEST PUSH20 0xFFFFFFFFFFFFFFFFFFFFFFFFFFFFFFFFFFFFFFFF AND DUP2 PUSH20 0xFFFFFFFFFFFFFFFFFFFFFFFFFFFFFFFFFFFFFFFF AND DUP4 PUSH32 0xF6391F5C32D9C69D2A47EA670B442974B53935D1EDC7FD64EB21E047A839171B PUSH1 0x40 MLOAD PUSH1 0x40 MLOAD DUP1 SWAP2 SUB SWAP1 LOG4 JUMPDEST POP POP JUMP JUMPDEST PUSH1 0x60 PUSH1 0x0 PUSH1 0x2 DUP4 PUSH1 0x2 PUSH2 0xCEA SWAP2 SWAP1 PUSH2 0x13F7 JUMP JUMPDEST PUSH2 0xCF4 SWAP2 SWAP1 PUSH2 0x13A1 JUMP JUMPDEST PUSH8 0xFFFFFFFFFFFFFFFF DUP2 GT ISZERO PUSH2 0xD0D JUMPI PUSH2 0xD0C PUSH2 0x15F0 JUMP JUMPDEST JUMPDEST PUSH1 0x40 MLOAD SWAP1 DUP1 DUP3 MSTORE DUP1 PUSH1 0x1F ADD PUSH1 0x1F NOT AND PUSH1 0x20 ADD DUP3 ADD PUSH1 0x40 MSTORE DUP1 ISZERO PUSH2 0xD3F JUMPI DUP2 PUSH1 0x20 ADD PUSH1 0x1 DUP3 MUL DUP1 CALLDATASIZE DUP4 CALLDATACOPY DUP1 DUP3 ADD SWAP2 POP POP SWAP1 POP JUMPDEST POP SWAP1 POP PUSH32 0x3000000000000000000000000000000000000000000000000000000000000000 DUP2 PUSH1 0x0 DUP2 MLOAD DUP2 LT PUSH2 0xD77 JUMPI PUSH2 0xD76 PUSH2 0x15C1 JUMP JUMPDEST JUMPDEST PUSH1 0x20 ADD ADD SWAP1 PUSH31 0xFFFFFFFFFFFFFFFFFFFFFFFFFFFFFFFFFFFFFFFFFFFFFFFFFFFFFFFFFFFFFF NOT AND SWAP1 DUP2 PUSH1 0x0 BYTE SWAP1 MSTORE8 POP PUSH32 0x7800000000000000000000000000000000000000000000000000000000000000 DUP2 PUSH1 0x1 DUP2 MLOAD DUP2 LT PUSH2 0xDDB JUMPI PUSH2 0xDDA PUSH2 0x15C1 JUMP JUMPDEST JUMPDEST PUSH1 0x20 ADD ADD SWAP1 PUSH31 0xFFFFFFFFFFFFFFFFFFFFFFFFFFFFFFFFFFFFFFFFFFFFFFFFFFFFFFFFFFFFFF NOT AND SWAP1 DUP2 PUSH1 0x0 BYTE SWAP1 MSTORE8 POP PUSH1 0x0 PUSH1 0x1 DUP5 PUSH1 0x2 PUSH2 0xE1B SWAP2 SWAP1 PUSH2 0x13F7 JUMP JUMPDEST PUSH2 0xE25 SWAP2 SWAP1 PUSH2 0x13A1 JUMP JUMPDEST SWAP1 POP JUMPDEST PUSH1 0x1 DUP2 GT ISZERO PUSH2 0xEC5 JUMPI PUSH32 0x3031323334353637383961626364656600000000000000000000000000000000 PUSH1 0xF DUP7 AND PUSH1 0x10 DUP2 LT PUSH2 0xE67 JUMPI PUSH2 0xE66 PUSH2 0x15C1 JUMP JUMPDEST JUMPDEST BYTE PUSH1 0xF8 SHL DUP3 DUP3 DUP2 MLOAD DUP2 LT PUSH2 0xE7E JUMPI PUSH2 0xE7D PUSH2 0x15C1 JUMP JUMPDEST JUMPDEST PUSH1 0x20 ADD ADD SWAP1 PUSH31 0xFFFFFFFFFFFFFFFFFFFFFFFFFFFFFFFFFFFFFFFFFFFFFFFFFFFFFFFFFFFFFF NOT AND SWAP1 DUP2 PUSH1 0x0 BYTE SWAP1 MSTORE8 POP PUSH1 0x4 DUP6 SWAP1 SHR SWAP5 POP DUP1 PUSH2 0xEBE SWAP1 PUSH2 0x1539 JUMP JUMPDEST SWAP1 POP PUSH2 0xE28 JUMP JUMPDEST POP PUSH1 0x0 DUP5 EQ PUSH2 0xF09 JUMPI PUSH1 0x40 MLOAD PUSH32 0x8C379A000000000000000000000000000000000000000000000000000000000 DUP2 MSTORE PUSH1 0x4 ADD PUSH2 0xF00 SWAP1 PUSH2 0x131A JUMP JUMPDEST PUSH1 0x40 MLOAD DUP1 SWAP2 SUB SWAP1 REVERT JUMPDEST DUP1 SWAP2 POP POP SWAP3 SWAP2 POP POP JUMP JUMPDEST PUSH1 0x40 MLOAD DUP1 PUSH1 0x40 ADD PUSH1 0x40 MSTORE DUP1 PUSH1 0x0 DUP2 MSTORE PUSH1 0x20 ADD PUSH1 0x0 PUSH1 0x2 DUP2 GT ISZERO PUSH2 0xF39 JUMPI PUSH2 0xF38 PUSH2 0x1592 JUMP JUMPDEST JUMPDEST DUP2 MSTORE POP SWAP1 JUMP JUMPDEST PUSH1 0x0 DUP2 CALLDATALOAD SWAP1 POP PUSH2 0xF4E DUP2 PUSH2 0x173C JUMP JUMPDEST SWAP3 SWAP2 POP POP JUMP JUMPDEST PUSH1 0x0 DUP2 CALLDATALOAD SWAP1 POP PUSH2 0xF63 DUP2 PUSH2 0x1753 JUMP JUMPDEST SWAP3 SWAP2 POP POP JUMP JUMPDEST PUSH1 0x0 DUP2 CALLDATALOAD SWAP1 POP PUSH2 0xF78 DUP2 PUSH2 0x176A JUMP JUMPDEST SWAP3 SWAP2 POP POP JUMP JUMPDEST PUSH1 0x0 DUP2 CALLDATALOAD SWAP1 POP PUSH2 0xF8D DUP2 PUSH2 0x1781 JUMP JUMPDEST SWAP3 SWAP2 POP POP JUMP JUMPDEST PUSH1 0x0 DUP2 CALLDATALOAD SWAP1 POP PUSH2 0xFA2 DUP2 PUSH2 0x1798 JUMP JUMPDEST SWAP3 SWAP2 POP POP JUMP JUMPDEST PUSH1 0x0 PUSH1 0x20 DUP3 DUP5 SUB SLT ISZERO PUSH2 0xFBE JUMPI PUSH2 0xFBD PUSH2 0x161F JUMP JUMPDEST JUMPDEST PUSH1 0x0 PUSH2 0xFCC DUP5 DUP3 DUP6 ADD PUSH2 0xF3F JUMP JUMPDEST SWAP2 POP POP SWAP3 SWAP2 POP POP JUMP JUMPDEST PUSH1 0x0 DUP1 PUSH1 0x40 DUP4 DUP6 SUB SLT ISZERO PUSH2 0xFEC JUMPI PUSH2 0xFEB PUSH2 0x161F JUMP JUMPDEST JUMPDEST PUSH1 0x0 PUSH2 0xFFA DUP6 DUP3 DUP7 ADD PUSH2 0xF3F JUMP JUMPDEST SWAP3 POP POP PUSH1 0x20 PUSH2 0x100B DUP6 DUP3 DUP7 ADD PUSH2 0xF7E JUMP JUMPDEST SWAP2 POP POP SWAP3 POP SWAP3 SWAP1 POP JUMP JUMPDEST PUSH1 0x0 DUP1 PUSH1 0x40 DUP4 DUP6 SUB SLT ISZERO PUSH2 0x102C JUMPI PUSH2 0x102B PUSH2 0x161F JUMP JUMPDEST JUMPDEST PUSH1 0x0 PUSH2 0x103A DUP6 DUP3 DUP7 ADD PUSH2 0xF3F JUMP JUMPDEST SWAP3 POP POP PUSH1 0x20 PUSH2 0x104B DUP6 DUP3 DUP7 ADD PUSH2 0xF93 JUMP JUMPDEST SWAP2 POP POP SWAP3 POP SWAP3 SWAP1 POP JUMP JUMPDEST PUSH1 0x0 PUSH1 0x20 DUP3 DUP5 SUB SLT ISZERO PUSH2 0x106B JUMPI PUSH2 0x106A PUSH2 0x161F JUMP JUMPDEST JUMPDEST PUSH1 0x0 PUSH2 0x1079 DUP5 DUP3 DUP6 ADD PUSH2 0xF54 JUMP JUMPDEST SWAP2 POP POP SWAP3 SWAP2 POP POP JUMP JUMPDEST PUSH1 0x0 DUP1 PUSH1 0x40 DUP4 DUP6 SUB SLT ISZERO PUSH2 0x1099 JUMPI PUSH2 0x1098 PUSH2 0x161F JUMP JUMPDEST JUMPDEST PUSH1 0x0 PUSH2 0x10A7 DUP6 DUP3 DUP7 ADD PUSH2 0xF54 JUMP JUMPDEST SWAP3 POP POP PUSH1 0x20 PUSH2 0x10B8 DUP6 DUP3 DUP7 ADD PUSH2 0xF3F JUMP JUMPDEST SWAP2 POP POP SWAP3 POP SWAP3 SWAP1 POP JUMP JUMPDEST PUSH1 0x0 PUSH1 0x20 DUP3 DUP5 SUB SLT ISZERO PUSH2 0x10D8 JUMPI PUSH2 0x10D7 PUSH2 0x161F JUMP JUMPDEST JUMPDEST PUSH1 0x0 PUSH2 0x10E6 DUP5 DUP3 DUP6 ADD PUSH2 0xF69 JUMP JUMPDEST SWAP2 POP POP SWAP3 SWAP2 POP POP JUMP JUMPDEST PUSH2 0x10F8 DUP2 PUSH2 0x1463 JUMP JUMPDEST DUP3 MSTORE POP POP JUMP JUMPDEST PUSH2 0x1107 DUP2 PUSH2 0x146F JUMP JUMPDEST DUP3 MSTORE POP POP JUMP JUMPDEST PUSH2 0x1116 DUP2 PUSH2 0x14F4 JUMP JUMPDEST DUP3 MSTORE POP POP JUMP JUMPDEST PUSH1 0x0 PUSH2 0x1127 DUP3 PUSH2 0x137A JUMP JUMPDEST PUSH2 0x1131 DUP2 DUP6 PUSH2 0x1385 JUMP JUMPDEST SWAP4 POP PUSH2 0x1141 DUP2 DUP6 PUSH1 0x20 DUP7 ADD PUSH2 0x1506 JUMP JUMPDEST PUSH2 0x114A DUP2 PUSH2 0x1624 JUMP JUMPDEST DUP5 ADD SWAP2 POP POP SWAP3 SWAP2 POP POP JUMP JUMPDEST PUSH1 0x0 PUSH2 0x1160 DUP3 PUSH2 0x137A JUMP JUMPDEST PUSH2 0x116A DUP2 DUP6 PUSH2 0x1396 JUMP JUMPDEST SWAP4 POP PUSH2 0x117A DUP2 DUP6 PUSH1 0x20 DUP7 ADD PUSH2 0x1506 JUMP JUMPDEST DUP1 DUP5 ADD SWAP2 POP POP SWAP3 SWAP2 POP POP JUMP JUMPDEST PUSH1 0x0 PUSH2 0x1193 PUSH1 0x20 DUP4 PUSH2 0x1385 JUMP JUMPDEST SWAP2 POP PUSH2 0x119E DUP3 PUSH2 0x1635 JUMP JUMPDEST PUSH1 0x20 DUP3 ADD SWAP1 POP SWAP2 SWAP1 POP JUMP JUMPDEST PUSH1 0x0 PUSH2 0x11B6 PUSH1 0x15 DUP4 PUSH2 0x1385 JUMP JUMPDEST SWAP2 POP PUSH2 0x11C1 DUP3 PUSH2 0x165E JUMP JUMPDEST PUSH1 0x20 DUP3 ADD SWAP1 POP SWAP2 SWAP1 POP JUMP JUMPDEST PUSH1 0x0 PUSH2 0x11D9 PUSH1 0x17 DUP4 PUSH2 0x1396 JUMP JUMPDEST SWAP2 POP PUSH2 0x11E4 DUP3 PUSH2 0x1687 JUMP JUMPDEST PUSH1 0x17 DUP3 ADD SWAP1 POP SWAP2 SWAP1 POP JUMP JUMPDEST PUSH1 0x0 PUSH2 0x11FC PUSH1 0x11 DUP4 PUSH2 0x1396 JUMP JUMPDEST SWAP2 POP PUSH2 0x1207 DUP3 PUSH2 0x16B0 JUMP JUMPDEST PUSH1 0x11 DUP3 ADD SWAP1 POP SWAP2 SWAP1 POP JUMP JUMPDEST PUSH1 0x0 PUSH2 0x121F PUSH1 0x2F DUP4 PUSH2 0x1385 JUMP JUMPDEST SWAP2 POP PUSH2 0x122A DUP3 PUSH2 0x16D9 JUMP JUMPDEST PUSH1 0x40 DUP3 ADD SWAP1 POP SWAP2 SWAP1 POP JUMP JUMPDEST PUSH2 0x123E DUP2 PUSH2 0x14EA JUMP JUMPDEST DUP3 MSTORE POP POP JUMP JUMPDEST PUSH1 0x0 PUSH2 0x124F DUP3 PUSH2 0x11CC JUMP JUMPDEST SWAP2 POP PUSH2 0x125B DUP3 DUP6 PUSH2 0x1155 JUMP JUMPDEST SWAP2 POP PUSH2 0x1266 DUP3 PUSH2 0x11EF JUMP JUMPDEST SWAP2 POP PUSH2 0x1272 DUP3 DUP5 PUSH2 0x1155 JUMP JUMPDEST SWAP2 POP DUP2 SWAP1 POP SWAP4 SWAP3 POP POP POP JUMP JUMPDEST PUSH1 0x0 PUSH1 0x20 DUP3 ADD SWAP1 POP PUSH2 0x1293 PUSH1 0x0 DUP4 ADD DUP5 PUSH2 0x10EF JUMP JUMPDEST SWAP3 SWAP2 POP POP JUMP JUMPDEST PUSH1 0x0 PUSH1 0x20 DUP3 ADD SWAP1 POP PUSH2 0x12AE PUSH1 0x0 DUP4 ADD DUP5 PUSH2 0x10FE JUMP JUMPDEST SWAP3 SWAP2 POP POP JUMP JUMPDEST PUSH1 0x0 PUSH1 0x20 DUP3 ADD SWAP1 POP PUSH2 0x12C9 PUSH1 0x0 DUP4 ADD DUP5 PUSH2 0x110D JUMP JUMPDEST SWAP3 SWAP2 POP POP JUMP JUMPDEST PUSH1 0x0 PUSH1 0x40 DUP3 ADD SWAP1 POP PUSH2 0x12E4 PUSH1 0x0 DUP4 ADD DUP6 PUSH2 0x110D JUMP JUMPDEST PUSH2 0x12F1 PUSH1 0x20 DUP4 ADD DUP5 PUSH2 0x1235 JUMP JUMPDEST SWAP4 SWAP3 POP POP POP JUMP JUMPDEST PUSH1 0x0 PUSH1 0x20 DUP3 ADD SWAP1 POP DUP2 DUP2 SUB PUSH1 0x0 DUP4 ADD MSTORE PUSH2 0x1312 DUP2 DUP5 PUSH2 0x111C JUMP JUMPDEST SWAP1 POP SWAP3 SWAP2 POP POP JUMP JUMPDEST PUSH1 0x0 PUSH1 0x20 DUP3 ADD SWAP1 POP DUP2 DUP2 SUB PUSH1 0x0 DUP4 ADD MSTORE PUSH2 0x1333 DUP2 PUSH2 0x1186 JUMP JUMPDEST SWAP1 POP SWAP2 SWAP1 POP JUMP JUMPDEST PUSH1 0x0 PUSH1 0x20 DUP3 ADD SWAP1 POP DUP2 DUP2 SUB PUSH1 0x0 DUP4 ADD MSTORE PUSH2 0x1353 DUP2 PUSH2 0x11A9 JUMP JUMPDEST SWAP1 POP SWAP2 SWAP1 POP JUMP JUMPDEST PUSH1 0x0 PUSH1 0x20 DUP3 ADD SWAP1 POP DUP2 DUP2 SUB PUSH1 0x0 DUP4 ADD MSTORE PUSH2 0x1373 DUP2 PUSH2 0x1212 JUMP JUMPDEST SWAP1 POP SWAP2 SWAP1 POP JUMP JUMPDEST PUSH1 0x0 DUP2 MLOAD SWAP1 POP SWAP2 SWAP1 POP JUMP JUMPDEST PUSH1 0x0 DUP3 DUP3 MSTORE PUSH1 0x20 DUP3 ADD SWAP1 POP SWAP3 SWAP2 POP POP JUMP JUMPDEST PUSH1 0x0 DUP2 SWAP1 POP SWAP3 SWAP2 POP POP JUMP JUMPDEST PUSH1 0x0 PUSH2 0x13AC DUP3 PUSH2 0x14EA JUMP JUMPDEST SWAP2 POP PUSH2 0x13B7 DUP4 PUSH2 0x14EA JUMP JUMPDEST SWAP3 POP DUP3 PUSH32 0xFFFFFFFFFFFFFFFFFFFFFFFFFFFFFFFFFFFFFFFFFFFFFFFFFFFFFFFFFFFFFFFF SUB DUP3 GT ISZERO PUSH2 0x13EC JUMPI PUSH2 0x13EB PUSH2 0x1563 JUMP JUMPDEST JUMPDEST DUP3 DUP3 ADD SWAP1 POP SWAP3 SWAP2 POP POP JUMP JUMPDEST PUSH1 0x0 PUSH2 0x1402 DUP3 PUSH2 0x14EA JUMP JUMPDEST SWAP2 POP PUSH2 0x140D DUP4 PUSH2 0x14EA JUMP JUMPDEST SWAP3 POP DUP2 PUSH32 0xFFFFFFFFFFFFFFFFFFFFFFFFFFFFFFFFFFFFFFFFFFFFFFFFFFFFFFFFFFFFFFFF DIV DUP4 GT DUP3 ISZERO ISZERO AND ISZERO PUSH2 0x1446 JUMPI PUSH2 0x1445 PUSH2 0x1563 JUMP JUMPDEST JUMPDEST DUP3 DUP3 MUL SWAP1 POP SWAP3 SWAP2 POP POP JUMP JUMPDEST PUSH1 0x0 PUSH2 0x145C DUP3 PUSH2 0x14CA JUMP JUMPDEST SWAP1 POP SWAP2 SWAP1 POP JUMP JUMPDEST PUSH1 0x0 DUP2 ISZERO ISZERO SWAP1 POP SWAP2 SWAP1 POP JUMP JUMPDEST PUSH1 0x0 DUP2 SWAP1 POP SWAP2 SWAP1 POP JUMP JUMPDEST PUSH1 0x0 PUSH32 0xFFFFFFFF00000000000000000000000000000000000000000000000000000000 DUP3 AND SWAP1 POP SWAP2 SWAP1 POP JUMP JUMPDEST PUSH1 0x0 PUSH2 0x14B0 DUP3 PUSH2 0x1451 JUMP JUMPDEST SWAP1 POP SWAP2 SWAP1 POP JUMP JUMPDEST PUSH1 0x0 DUP2 SWAP1 POP PUSH2 0x14C5 DUP3 PUSH2 0x1728 JUMP JUMPDEST SWAP2 SWAP1 POP JUMP JUMPDEST PUSH1 0x0 PUSH20 0xFFFFFFFFFFFFFFFFFFFFFFFFFFFFFFFFFFFFFFFF DUP3 AND SWAP1 POP SWAP2 SWAP1 POP JUMP JUMPDEST PUSH1 0x0 DUP2 SWAP1 POP SWAP2 SWAP1 POP JUMP JUMPDEST PUSH1 0x0 PUSH2 0x14FF DUP3 PUSH2 0x14B7 JUMP JUMPDEST SWAP1 POP SWAP2 SWAP1 POP JUMP JUMPDEST PUSH1 0x0 JUMPDEST DUP4 DUP2 LT ISZERO PUSH2 0x1524 JUMPI DUP1 DUP3 ADD MLOAD DUP2 DUP5 ADD MSTORE PUSH1 0x20 DUP2 ADD SWAP1 POP PUSH2 0x1509 JUMP JUMPDEST DUP4 DUP2 GT ISZERO PUSH2 0x1533 JUMPI PUSH1 0x0 DUP5 DUP5 ADD MSTORE JUMPDEST POP POP POP POP JUMP JUMPDEST PUSH1 0x0 PUSH2 0x1544 DUP3 PUSH2 0x14EA JUMP JUMPDEST SWAP2 POP PUSH1 0x0 DUP3 EQ ISZERO PUSH2 0x1558 JUMPI PUSH2 0x1557 PUSH2 0x1563 JUMP JUMPDEST JUMPDEST PUSH1 0x1 DUP3 SUB SWAP1 POP SWAP2 SWAP1 POP JUMP JUMPDEST PUSH32 0x4E487B7100000000000000000000000000000000000000000000000000000000 PUSH1 0x0 MSTORE PUSH1 0x11 PUSH1 0x4 MSTORE PUSH1 0x24 PUSH1 0x0 REVERT JUMPDEST PUSH32 0x4E487B7100000000000000000000000000000000000000000000000000000000 PUSH1 0x0 MSTORE PUSH1 0x21 PUSH1 0x4 MSTORE PUSH1 0x24 PUSH1 0x0 REVERT JUMPDEST PUSH32 0x4E487B7100000000000000000000000000000000000000000000000000000000 PUSH1 0x0 MSTORE PUSH1 0x32 PUSH1 0x4 MSTORE PUSH1 0x24 PUSH1 0x0 REVERT JUMPDEST PUSH32 0x4E487B7100000000000000000000000000000000000000000000000000000000 PUSH1 0x0 MSTORE PUSH1 0x41 PUSH1 0x4 MSTORE PUSH1 0x24 PUSH1 0x0 REVERT JUMPDEST PUSH1 0x0 DUP1 REVERT JUMPDEST PUSH1 0x0 PUSH1 0x1F NOT PUSH1 0x1F DUP4 ADD AND SWAP1 POP SWAP2 SWAP1 POP JUMP JUMPDEST PUSH32 0x537472696E67733A20686578206C656E67746820696E73756666696369656E74 PUSH1 0x0 DUP3 ADD MSTORE POP JUMP JUMPDEST PUSH32 0x5265737472696374656420746F2061646D696E732E0000000000000000000000 PUSH1 0x0 DUP3 ADD MSTORE POP JUMP JUMPDEST PUSH32 0x416363657373436F6E74726F6C3A206163636F756E7420000000000000000000 PUSH1 0x0 DUP3 ADD MSTORE POP JUMP JUMPDEST PUSH32 0x206973206D697373696E6720726F6C6520000000000000000000000000000000 PUSH1 0x0 DUP3 ADD MSTORE POP JUMP JUMPDEST PUSH32 0x416363657373436F6E74726F6C3A2063616E206F6E6C792072656E6F756E6365 PUSH1 0x0 DUP3 ADD MSTORE PUSH32 0x20726F6C657320666F722073656C660000000000000000000000000000000000 PUSH1 0x20 DUP3 ADD MSTORE POP JUMP JUMPDEST PUSH1 0x3 DUP2 LT PUSH2 0x1739 JUMPI PUSH2 0x1738 PUSH2 0x1592 JUMP JUMPDEST JUMPDEST POP JUMP JUMPDEST PUSH2 0x1745 DUP2 PUSH2 0x1451 JUMP JUMPDEST DUP2 EQ PUSH2 0x1750 JUMPI PUSH1 0x0 DUP1 REVERT JUMPDEST POP JUMP JUMPDEST PUSH2 0x175C DUP2 PUSH2 0x146F JUMP JUMPDEST DUP2 EQ PUSH2 0x1767 JUMPI PUSH1 0x0 DUP1 REVERT JUMPDEST POP JUMP JUMPDEST PUSH2 0x1773 DUP2 PUSH2 0x1479 JUMP JUMPDEST DUP2 EQ PUSH2 0x177E JUMPI PUSH1 0x0 DUP1 REVERT JUMPDEST POP JUMP JUMPDEST PUSH2 0x178A DUP2 PUSH2 0x14A5 JUMP JUMPDEST DUP2 EQ PUSH2 0x1795 JUMPI PUSH1 0x0 DUP1 REVERT JUMPDEST POP JUMP JUMPDEST PUSH2 0x17A1 DUP2 PUSH2 0x14EA JUMP JUMPDEST DUP2 EQ PUSH2 0x17AC JUMPI PUSH1 0x0 DUP1 REVERT JUMPDEST POP JUMP INVALID LOG2 PUSH5 0x6970667358 0x22 SLT KECCAK256 AND 0xB3 0xC 0xCA PUSH21 0x7972EDD900AD131EBEB95C627A690265F51B47FE8B 0xE2 0xC7 MUL DUP6 SWAP6 0xCD PUSH5 0x736F6C6343 STOP ADDMOD MOD STOP CALLER LOG2 PUSH5 0x6970667358 0x22 SLT KECCAK256 PUSH15 0x2A62681B121F2B3B3B6F194C0446C9 0x4C LOG3 0xCF PUSH26 0x5E905694E0215BA2169A66BF64736F6C63430008060033000000 "
		},
		"gasEstimates": {
			"creation": {
				"codeDepositCost": "4222400",
				"executionCost": "infinite",
				"totalCost": "infinite"
			},
			"external": {
				"DEFAULT_ADMIN_ROLE()": "446",
				"DISTRIBUTOR_ROLE()": "417",
				"FARMER_ROLE()": "439",
				"addAdmin(address)": "infinite",
				"animalExists(bytes6)": "2926",
				"changeAdmin(address)": "infinite",
				"checkOwnership(address,address)": "infinite",
				"farmExists(address)": "3025",
				"getAnimalHash(bytes6)": "7237",
				"getFarmCustomerInfo(address)": "infinite",
				"getFarmInfo(address)": "infinite",
				"getRoleAdmin(bytes32)": "infinite",
				"giveAccessForDistributor(address)": "infinite",
				"giveAccessForFarmer(address)": "infinite",
				"grantRole(bytes32,address)": "infinite",
				"hasRole(bytes32,address)": "3229",
				"isAdmin(address)": "3067",
				"registerAnimal(bytes6,address,bytes32,uint256)": "78597",
				"registerFarm(address,address)": "infinite",
				"registerFarmInfo(address,string,string,string,string,string)": "infinite",
				"renounceRole(bytes32,address)": "infinite",
				"revokeRole(bytes32,address)": "infinite",
				"setProfileManager()": "infinite",
				"supportsInterface(bytes4)": "751",
				"updateAnimal(bytes6,address,bytes32,uint256)": "76330",
				"updateFarmInfo(address,address,uint256,bytes32,uint256)": "infinite"
			}
		},
		"methodIdentifiers": {
			"DEFAULT_ADMIN_ROLE()": "a217fddf",
			"DISTRIBUTOR_ROLE()": "f0bd87cc",
			"FARMER_ROLE()": "f3943970",
			"addAdmin(address)": "70480275",
			"animalExists(bytes6)": "40b1fc43",
			"changeAdmin(address)": "8f283970",
			"checkOwnership(address,address)": "a6f50c59",
			"farmExists(address)": "3460c114",
			"getAnimalHash(bytes6)": "e9aa339b",
			"getFarmCustomerInfo(address)": "d9ee3845",
			"getFarmInfo(address)": "1c9a4fd1",
			"getRoleAdmin(bytes32)": "248a9ca3",
			"giveAccessForDistributor(address)": "b4af12bf",
			"giveAccessForFarmer(address)": "08ccf219",
			"grantRole(bytes32,address)": "2f2ff15d",
			"hasRole(bytes32,address)": "91d14854",
			"isAdmin(address)": "24d7806c",
			"registerAnimal(bytes6,address,bytes32,uint256)": "8cd6d3c0",
			"registerFarm(address,address)": "068af890",
			"registerFarmInfo(address,string,string,string,string,string)": "5ece0b54",
			"renounceRole(bytes32,address)": "36568abe",
			"revokeRole(bytes32,address)": "d547741f",
			"setProfileManager()": "19ce533c",
			"supportsInterface(bytes4)": "01ffc9a7",
			"updateAnimal(bytes6,address,bytes32,uint256)": "be068821",
			"updateFarmInfo(address,address,uint256,bytes32,uint256)": "4c813ff1"
		}
	},
	"abi": [
		{
			"anonymous": false,
			"inputs": [
				{
					"indexed": true,
					"internalType": "bytes32",
					"name": "role",
					"type": "bytes32"
				},
				{
					"indexed": true,
					"internalType": "bytes32",
					"name": "previousAdminRole",
					"type": "bytes32"
				},
				{
					"indexed": true,
					"internalType": "bytes32",
					"name": "newAdminRole",
					"type": "bytes32"
				}
			],
			"name": "RoleAdminChanged",
			"type": "event"
		},
		{
			"anonymous": false,
			"inputs": [
				{
					"indexed": true,
					"internalType": "bytes32",
					"name": "role",
					"type": "bytes32"
				},
				{
					"indexed": true,
					"internalType": "address",
					"name": "account",
					"type": "address"
				},
				{
					"indexed": true,
					"internalType": "address",
					"name": "sender",
					"type": "address"
				}
			],
			"name": "RoleGranted",
			"type": "event"
		},
		{
			"anonymous": false,
			"inputs": [
				{
					"indexed": true,
					"internalType": "bytes32",
					"name": "role",
					"type": "bytes32"
				},
				{
					"indexed": true,
					"internalType": "address",
					"name": "account",
					"type": "address"
				},
				{
					"indexed": true,
					"internalType": "address",
					"name": "sender",
					"type": "address"
				}
			],
			"name": "RoleRevoked",
			"type": "event"
		},
		{
			"inputs": [],
			"name": "DEFAULT_ADMIN_ROLE",
			"outputs": [
				{
					"internalType": "bytes32",
					"name": "",
					"type": "bytes32"
				}
			],
			"stateMutability": "view",
			"type": "function"
		},
		{
			"inputs": [],
			"name": "DISTRIBUTOR_ROLE",
			"outputs": [
				{
					"internalType": "bytes32",
					"name": "",
					"type": "bytes32"
				}
			],
			"stateMutability": "view",
			"type": "function"
		},
		{
			"inputs": [],
			"name": "FARMER_ROLE",
			"outputs": [
				{
					"internalType": "bytes32",
					"name": "",
					"type": "bytes32"
				}
			],
			"stateMutability": "view",
			"type": "function"
		},
		{
			"inputs": [
				{
					"internalType": "address",
					"name": "account",
					"type": "address"
				}
			],
			"name": "addAdmin",
			"outputs": [],
			"stateMutability": "nonpayable",
			"type": "function"
		},
		{
			"inputs": [
				{
					"internalType": "bytes6",
					"name": "animalId",
					"type": "bytes6"
				}
			],
			"name": "animalExists",
			"outputs": [
				{
					"internalType": "bool",
					"name": "",
					"type": "bool"
				}
			],
			"stateMutability": "view",
			"type": "function"
		},
		{
			"inputs": [
				{
					"internalType": "address",
					"name": "account",
					"type": "address"
				}
			],
			"name": "changeAdmin",
			"outputs": [],
			"stateMutability": "nonpayable",
			"type": "function"
		},
		{
			"inputs": [
				{
					"internalType": "address",
					"name": "_ownerId",
					"type": "address"
				},
				{
					"internalType": "address",
					"name": "_farmId",
					"type": "address"
				}
			],
			"name": "checkOwnership",
			"outputs": [
				{
					"internalType": "bool",
					"name": "",
					"type": "bool"
				}
			],
			"stateMutability": "view",
			"type": "function"
		},
		{
			"inputs": [
				{
					"internalType": "address",
					"name": "_farmId",
					"type": "address"
				}
			],
			"name": "farmExists",
			"outputs": [
				{
					"internalType": "bool",
					"name": "",
					"type": "bool"
				}
			],
			"stateMutability": "view",
			"type": "function"
		},
		{
			"inputs": [
				{
					"internalType": "bytes6",
					"name": "_animalId",
					"type": "bytes6"
				}
			],
			"name": "getAnimalHash",
			"outputs": [
				{
					"internalType": "bytes32",
					"name": "",
					"type": "bytes32"
				}
			],
			"stateMutability": "view",
			"type": "function"
		},
		{
			"inputs": [
				{
					"internalType": "address",
					"name": "_farmId",
					"type": "address"
				}
			],
			"name": "getFarmCustomerInfo",
			"outputs": [
				{
					"components": [
						{
							"internalType": "string",
							"name": "originFarmName",
							"type": "string"
						},
						{
							"internalType": "string",
							"name": "originFarmInformation",
							"type": "string"
						},
						{
							"internalType": "string",
							"name": "originFarmLatitude",
							"type": "string"
						},
						{
							"internalType": "string",
							"name": "originFarmLongitude",
							"type": "string"
						},
						{
							"internalType": "string",
							"name": "originFarmerName",
							"type": "string"
						}
					],
					"internalType": "struct FarmManager.Farm",
					"name": "",
					"type": "tuple"
				}
			],
			"stateMutability": "view",
			"type": "function"
		},
		{
			"inputs": [
				{
					"internalType": "address",
					"name": "_farmId",
					"type": "address"
				}
			],
			"name": "getFarmInfo",
			"outputs": [
				{
					"internalType": "address",
					"name": "ownerId",
					"type": "address"
				},
				{
					"internalType": "uint256",
					"name": "animalCount",
					"type": "uint256"
				},
				{
					"internalType": "bytes32",
					"name": "farmHash",
					"type": "bytes32"
				},
				{
					"internalType": "uint256",
					"name": "timestamp",
					"type": "uint256"
				}
			],
			"stateMutability": "view",
			"type": "function"
		},
		{
			"inputs": [
				{
					"internalType": "bytes32",
					"name": "role",
					"type": "bytes32"
				}
			],
			"name": "getRoleAdmin",
			"outputs": [
				{
					"internalType": "bytes32",
					"name": "",
					"type": "bytes32"
				}
			],
			"stateMutability": "view",
			"type": "function"
		},
		{
			"inputs": [
				{
					"internalType": "address",
					"name": "account",
					"type": "address"
				}
			],
			"name": "giveAccessForDistributor",
			"outputs": [],
			"stateMutability": "nonpayable",
			"type": "function"
		},
		{
			"inputs": [
				{
					"internalType": "address",
					"name": "account",
					"type": "address"
				}
			],
			"name": "giveAccessForFarmer",
			"outputs": [],
			"stateMutability": "nonpayable",
			"type": "function"
		},
		{
			"inputs": [
				{
					"internalType": "bytes32",
					"name": "role",
					"type": "bytes32"
				},
				{
					"internalType": "address",
					"name": "account",
					"type": "address"
				}
			],
			"name": "grantRole",
			"outputs": [],
			"stateMutability": "nonpayable",
			"type": "function"
		},
		{
			"inputs": [
				{
					"internalType": "bytes32",
					"name": "role",
					"type": "bytes32"
				},
				{
					"internalType": "address",
					"name": "account",
					"type": "address"
				}
			],
			"name": "hasRole",
			"outputs": [
				{
					"internalType": "bool",
					"name": "",
					"type": "bool"
				}
			],
			"stateMutability": "view",
			"type": "function"
		},
		{
			"inputs": [
				{
					"internalType": "address",
					"name": "account",
					"type": "address"
				}
			],
			"name": "isAdmin",
			"outputs": [
				{
					"internalType": "bool",
					"name": "",
					"type": "bool"
				}
			],
			"stateMutability": "view",
			"type": "function"
		},
		{
			"inputs": [
				{
					"internalType": "bytes6",
					"name": "_animalId",
					"type": "bytes6"
				},
				{
					"internalType": "address",
					"name": "_currentFarm",
					"type": "address"
				},
				{
					"internalType": "bytes32",
					"name": "_animalHash",
					"type": "bytes32"
				},
				{
					"internalType": "uint256",
					"name": "_timestamp",
					"type": "uint256"
				}
			],
			"name": "registerAnimal",
			"outputs": [],
			"stateMutability": "nonpayable",
			"type": "function"
		},
		{
			"inputs": [
				{
					"internalType": "address",
					"name": "_farmId",
					"type": "address"
				},
				{
					"internalType": "address",
					"name": "_ownerId",
					"type": "address"
				}
			],
			"name": "registerFarm",
			"outputs": [],
			"stateMutability": "nonpayable",
			"type": "function"
		},
		{
			"inputs": [
				{
					"internalType": "address",
					"name": "_farmId",
					"type": "address"
				},
				{
					"internalType": "string",
					"name": "_originFarmName",
					"type": "string"
				},
				{
					"internalType": "string",
					"name": "_originFarmInfo",
					"type": "string"
				},
				{
					"internalType": "string",
					"name": "_originFarmLat",
					"type": "string"
				},
				{
					"internalType": "string",
					"name": "_originFarmLong",
					"type": "string"
				},
				{
					"internalType": "string",
					"name": "_originFarmerName",
					"type": "string"
				}
			],
			"name": "registerFarmInfo",
			"outputs": [],
			"stateMutability": "nonpayable",
			"type": "function"
		},
		{
			"inputs": [
				{
					"internalType": "bytes32",
					"name": "role",
					"type": "bytes32"
				},
				{
					"internalType": "address",
					"name": "account",
					"type": "address"
				}
			],
			"name": "renounceRole",
			"outputs": [],
			"stateMutability": "nonpayable",
			"type": "function"
		},
		{
			"inputs": [
				{
					"internalType": "bytes32",
					"name": "role",
					"type": "bytes32"
				},
				{
					"internalType": "address",
					"name": "account",
					"type": "address"
				}
			],
			"name": "revokeRole",
			"outputs": [],
			"stateMutability": "nonpayable",
			"type": "function"
		},
		{
			"inputs": [],
			"name": "setProfileManager",
			"outputs": [],
			"stateMutability": "nonpayable",
			"type": "function"
		},
		{
			"inputs": [
				{
					"internalType": "bytes4",
					"name": "interfaceId",
					"type": "bytes4"
				}
			],
			"name": "supportsInterface",
			"outputs": [
				{
					"internalType": "bool",
					"name": "",
					"type": "bool"
				}
			],
			"stateMutability": "view",
			"type": "function"
		},
		{
			"inputs": [
				{
					"internalType": "bytes6",
					"name": "_animalId",
					"type": "bytes6"
				},
				{
					"internalType": "address",
					"name": "_currentFarm",
					"type": "address"
				},
				{
					"internalType": "bytes32",
					"name": "_animalHash",
					"type": "bytes32"
				},
				{
					"internalType": "uint256",
					"name": "_timestamp",
					"type": "uint256"
				}
			],
			"name": "updateAnimal",
			"outputs": [],
			"stateMutability": "nonpayable",
			"type": "function"
		},
		{
			"inputs": [
				{
					"internalType": "address",
					"name": "_farmId",
					"type": "address"
				},
				{
					"internalType": "address",
					"name": "_ownerId",
					"type": "address"
				},
				{
					"internalType": "uint256",
					"name": "_animalCount",
					"type": "uint256"
				},
				{
					"internalType": "bytes32",
					"name": "_farmHash",
					"type": "bytes32"
				},
				{
					"internalType": "uint256",
					"name": "_timestamp",
					"type": "uint256"
				}
			],
			"name": "updateFarmInfo",
			"outputs": [
				{
					"internalType": "address",
					"name": "ownerId",
					"type": "address"
				},
				{
					"internalType": "uint256",
					"name": "animalCount",
					"type": "uint256"
				},
				{
					"internalType": "bytes32",
					"name": "farmHash",
					"type": "bytes32"
				},
				{
					"internalType": "uint256",
					"name": "timestamp",
					"type": "uint256"
				}
			],
			"stateMutability": "nonpayable",
			"type": "function"
		}
	]
}