{
  "contractName": "Customer",
  "abi": [
    {
      "inputs": [],
      "stateMutability": "nonpayable",
      "type": "constructor"
    },
    {
      "anonymous": false,
      "inputs": [
        {
          "indexed": true,
          "internalType": "address",
          "name": "account",
          "type": "address"
        }
      ],
      "name": "ConsumerAdded",
      "type": "event"
    },
    {
      "anonymous": false,
      "inputs": [
        {
          "indexed": true,
          "internalType": "bytes32",
          "name": "role",
          "type": "bytes32"
        },
        {
          "indexed": true,
          "internalType": "bytes32",
          "name": "previousAdminRole",
          "type": "bytes32"
        },
        {
          "indexed": true,
          "internalType": "bytes32",
          "name": "newAdminRole",
          "type": "bytes32"
        }
      ],
      "name": "RoleAdminChanged",
      "type": "event"
    },
    {
      "anonymous": false,
      "inputs": [
        {
          "indexed": true,
          "internalType": "bytes32",
          "name": "role",
          "type": "bytes32"
        },
        {
          "indexed": true,
          "internalType": "address",
          "name": "account",
          "type": "address"
        },
        {
          "indexed": true,
          "internalType": "address",
          "name": "sender",
          "type": "address"
        }
      ],
      "name": "RoleGranted",
      "type": "event"
    },
    {
      "anonymous": false,
      "inputs": [
        {
          "indexed": true,
          "internalType": "bytes32",
          "name": "role",
          "type": "bytes32"
        },
        {
          "indexed": true,
          "internalType": "address",
          "name": "account",
          "type": "address"
        },
        {
          "indexed": true,
          "internalType": "address",
          "name": "sender",
          "type": "address"
        }
      ],
      "name": "RoleRevoked",
      "type": "event"
    },
    {
      "inputs": [],
      "name": "DEFAULT_ADMIN_ROLE",
      "outputs": [
        {
          "internalType": "bytes32",
          "name": "",
          "type": "bytes32"
        }
      ],
      "stateMutability": "view",
      "type": "function",
      "constant": true
    },
    {
      "inputs": [],
      "name": "DISTRIBUTOR_ROLE",
      "outputs": [
        {
          "internalType": "bytes32",
          "name": "",
          "type": "bytes32"
        }
      ],
      "stateMutability": "view",
      "type": "function",
      "constant": true
    },
    {
      "inputs": [],
      "name": "FARMER_ROLE",
      "outputs": [
        {
          "internalType": "bytes32",
          "name": "",
          "type": "bytes32"
        }
      ],
      "stateMutability": "view",
      "type": "function",
      "constant": true
    },
    {
      "inputs": [
        {
          "internalType": "address",
          "name": "account",
          "type": "address"
        }
      ],
      "name": "addAdmin",
      "outputs": [],
      "stateMutability": "nonpayable",
      "type": "function"
    },
    {
      "inputs": [
        {
          "internalType": "address",
          "name": "account",
          "type": "address"
        }
      ],
      "name": "changeAdmin",
      "outputs": [],
      "stateMutability": "nonpayable",
      "type": "function"
    },
    {
      "inputs": [
        {
          "internalType": "bytes32",
          "name": "role",
          "type": "bytes32"
        }
      ],
      "name": "getRoleAdmin",
      "outputs": [
        {
          "internalType": "bytes32",
          "name": "",
          "type": "bytes32"
        }
      ],
      "stateMutability": "view",
      "type": "function",
      "constant": true
    },
    {
      "inputs": [
        {
          "internalType": "address",
          "name": "account",
          "type": "address"
        }
      ],
      "name": "giveAccessForDistributor",
      "outputs": [],
      "stateMutability": "nonpayable",
      "type": "function"
    },
    {
      "inputs": [
        {
          "internalType": "address",
          "name": "account",
          "type": "address"
        }
      ],
      "name": "giveAccessForFarmer",
      "outputs": [],
      "stateMutability": "nonpayable",
      "type": "function"
    },
    {
      "inputs": [
        {
          "internalType": "bytes32",
          "name": "role",
          "type": "bytes32"
        },
        {
          "internalType": "address",
          "name": "account",
          "type": "address"
        }
      ],
      "name": "grantRole",
      "outputs": [],
      "stateMutability": "nonpayable",
      "type": "function"
    },
    {
      "inputs": [
        {
          "internalType": "bytes32",
          "name": "role",
          "type": "bytes32"
        },
        {
          "internalType": "address",
          "name": "account",
          "type": "address"
        }
      ],
      "name": "hasRole",
      "outputs": [
        {
          "internalType": "bool",
          "name": "",
          "type": "bool"
        }
      ],
      "stateMutability": "view",
      "type": "function",
      "constant": true
    },
    {
      "inputs": [
        {
          "internalType": "address",
          "name": "account",
          "type": "address"
        }
      ],
      "name": "isAdmin",
      "outputs": [
        {
          "internalType": "bool",
          "name": "",
          "type": "bool"
        }
      ],
      "stateMutability": "view",
      "type": "function",
      "constant": true
    },
    {
      "inputs": [
        {
          "internalType": "bytes32",
          "name": "role",
          "type": "bytes32"
        },
        {
          "internalType": "address",
          "name": "account",
          "type": "address"
        }
      ],
      "name": "renounceRole",
      "outputs": [],
      "stateMutability": "nonpayable",
      "type": "function"
    },
    {
      "inputs": [
        {
          "internalType": "bytes32",
          "name": "role",
          "type": "bytes32"
        },
        {
          "internalType": "address",
          "name": "account",
          "type": "address"
        }
      ],
      "name": "revokeRole",
      "outputs": [],
      "stateMutability": "nonpayable",
      "type": "function"
    },
    {
      "inputs": [
        {
          "internalType": "bytes4",
          "name": "interfaceId",
          "type": "bytes4"
        }
      ],
      "name": "supportsInterface",
      "outputs": [
        {
          "internalType": "bool",
          "name": "",
          "type": "bool"
        }
      ],
      "stateMutability": "view",
      "type": "function",
      "constant": true
    },
    {
      "inputs": [
        {
          "internalType": "address",
          "name": "account",
          "type": "address"
        }
      ],
      "name": "addConsumer",
      "outputs": [],
      "stateMutability": "nonpayable",
      "type": "function"
    }
  ],
  "bytecode": "0x60806040523480156200001157600080fd5b50620000276000801b336200006760201b60201c565b7f434f4e53554d4552535f524f4c45000000000000000000000000000000000000600180018190555062000061336200007d60201b60201c565b62000330565b6200007982826200017460201b60201c565b5050565b600073ffffffffffffffffffffffffffffffffffffffff168173ffffffffffffffffffffffffffffffffffffffff161415620000b857600080fd5b620000c9816200026560201b60201c565b15620000d457600080fd5b60018060000160008373ffffffffffffffffffffffffffffffffffffffff1673ffffffffffffffffffffffffffffffffffffffff16815260200190815260200160002060006101000a81548160ff0219169083151502179055508073ffffffffffffffffffffffffffffffffffffffff167f28b26e7a3d20aedbc5f8f2ebf7da671c0491723a2b78f47a097b0e46dee0714260405160405180910390a250565b620001868282620002be60201b60201c565b6200026157600160008084815260200190815260200160002060000160008373ffffffffffffffffffffffffffffffffffffffff1673ffffffffffffffffffffffffffffffffffffffff16815260200190815260200160002060006101000a81548160ff021916908315150217905550620002066200032860201b60201c565b73ffffffffffffffffffffffffffffffffffffffff168173ffffffffffffffffffffffffffffffffffffffff16837f2f8788117e7eff1d82e926ec794901d17c78024a50270940304540a733656f0d60405160405180910390a45b5050565b6000600160000160008373ffffffffffffffffffffffffffffffffffffffff1673ffffffffffffffffffffffffffffffffffffffff16815260200190815260200160002060009054906101000a900460ff169050919050565b600080600084815260200190815260200160002060000160008373ffffffffffffffffffffffffffffffffffffffff1673ffffffffffffffffffffffffffffffffffffffff16815260200190815260200160002060009054906101000a900460ff16905092915050565b600033905090565b6114cf80620003406000396000f3fe608060405234801561001057600080fd5b50600436106100f55760003560e01c80637048027511610097578063b4af12bf11610066578063b4af12bf14610280578063d547741f1461029c578063f0bd87cc146102b8578063f3943970146102d6576100f5565b806370480275146101fa5780638f2839701461021657806391d1485414610232578063a217fddf14610262576100f5565b8063248a9ca3116100d3578063248a9ca31461016257806324d7806c146101925780632f2ff15d146101c257806336568abe146101de576100f5565b806301ffc9a7146100fa57806308ccf2191461012a578063112940f914610146575b600080fd5b610114600480360381019061010f9190610dce565b6102f4565b6040516101219190610e16565b60405180910390f35b610144600480360381019061013f9190610e8f565b61036e565b005b610160600480360381019061015b9190610e8f565b6103e3565b005b61017c60048036038101906101779190610ef2565b610437565b6040516101899190610f2e565b60405180910390f35b6101ac60048036038101906101a79190610e8f565b610456565b6040516101b99190610e16565b60405180910390f35b6101dc60048036038101906101d79190610f49565b61046c565b005b6101f860048036038101906101f39190610f49565b610495565b005b610214600480360381019061020f9190610e8f565b610518565b005b610230600480360381019061022b9190610e8f565b610570565b005b61024c60048036038101906102479190610f49565b6105c8565b6040516102599190610e16565b60405180910390f35b61026a610632565b6040516102779190610f2e565b60405180910390f35b61029a60048036038101906102959190610e8f565b610639565b005b6102b660048036038101906102b19190610f49565b6106ae565b005b6102c06106d7565b6040516102cd9190610f2e565b60405180910390f35b6102de6106fb565b6040516102eb9190610f2e565b60405180910390f35b60007f7965db0b000000000000000000000000000000000000000000000000000000007bffffffffffffffffffffffffffffffffffffffffffffffffffffffff1916827bffffffffffffffffffffffffffffffffffffffffffffffffffffffff1916148061036757506103668261071f565b5b9050919050565b61037733610456565b6103b6576040517f08c379a00000000000000000000000000000000000000000000000000000000081526004016103ad90610fe6565b60405180910390fd5b6103e07ff309ffc42715a0bfccdfa0c4cac305505f15ab9b9262b7451ceea96c0cc351878261046c565b50565b6103ec33610789565b61042b576040517f08c379a000000000000000000000000000000000000000000000000000000000815260040161042290611052565b60405180910390fd5b610434816107e2565b50565b6000806000838152602001908152602001600020600101549050919050565b60006104656000801b836105c8565b9050919050565b61047582610437565b610486816104816108cf565b6108d7565b6104908383610974565b505050565b61049d6108cf565b73ffffffffffffffffffffffffffffffffffffffff168173ffffffffffffffffffffffffffffffffffffffff161461050a576040517f08c379a0000000000000000000000000000000000000000000000000000000008152600401610501906110e4565b60405180910390fd5b6105148282610a54565b5050565b61052133610456565b610560576040517f08c379a000000000000000000000000000000000000000000000000000000000815260040161055790610fe6565b60405180910390fd5b61056d6000801b8261046c565b50565b61057933610456565b6105b8576040517f08c379a00000000000000000000000000000000000000000000000000000000081526004016105af90610fe6565b60405180910390fd5b6105c56000801b8261046c565b50565b600080600084815260200190815260200160002060000160008373ffffffffffffffffffffffffffffffffffffffff1673ffffffffffffffffffffffffffffffffffffffff16815260200190815260200160002060009054906101000a900460ff16905092915050565b6000801b81565b61064233610456565b610681576040517f08c379a000000000000000000000000000000000000000000000000000000000815260040161067890610fe6565b60405180910390fd5b6106ab7f85faced7bde13e1a7dad704b895f006e704f207617d68166b31ba2d79624862d8261046c565b50565b6106b782610437565b6106c8816106c36108cf565b6108d7565b6106d28383610a54565b505050565b7f85faced7bde13e1a7dad704b895f006e704f207617d68166b31ba2d79624862d81565b7ff309ffc42715a0bfccdfa0c4cac305505f15ab9b9262b7451ceea96c0cc3518781565b60007f01ffc9a7000000000000000000000000000000000000000000000000000000007bffffffffffffffffffffffffffffffffffffffffffffffffffffffff1916827bffffffffffffffffffffffffffffffffffffffffffffffffffffffff1916149050919050565b6000600160000160008373ffffffffffffffffffffffffffffffffffffffff1673ffffffffffffffffffffffffffffffffffffffff16815260200190815260200160002060009054906101000a900460ff169050919050565b600073ffffffffffffffffffffffffffffffffffffffff168173ffffffffffffffffffffffffffffffffffffffff16141561081c57600080fd5b61082581610789565b1561082f57600080fd5b60018060000160008373ffffffffffffffffffffffffffffffffffffffff1673ffffffffffffffffffffffffffffffffffffffff16815260200190815260200160002060006101000a81548160ff0219169083151502179055508073ffffffffffffffffffffffffffffffffffffffff167f28b26e7a3d20aedbc5f8f2ebf7da671c0491723a2b78f47a097b0e46dee0714260405160405180910390a250565b600033905090565b6108e182826105c8565b610970576109068173ffffffffffffffffffffffffffffffffffffffff166014610b35565b6109148360001c6020610b35565b604051602001610925929190611216565b6040516020818303038152906040526040517f08c379a0000000000000000000000000000000000000000000000000000000008152600401610967919061129a565b60405180910390fd5b5050565b61097e82826105c8565b610a5057600160008084815260200190815260200160002060000160008373ffffffffffffffffffffffffffffffffffffffff1673ffffffffffffffffffffffffffffffffffffffff16815260200190815260200160002060006101000a81548160ff0219169083151502179055506109f56108cf565b73ffffffffffffffffffffffffffffffffffffffff168173ffffffffffffffffffffffffffffffffffffffff16837f2f8788117e7eff1d82e926ec794901d17c78024a50270940304540a733656f0d60405160405180910390a45b5050565b610a5e82826105c8565b15610b3157600080600084815260200190815260200160002060000160008373ffffffffffffffffffffffffffffffffffffffff1673ffffffffffffffffffffffffffffffffffffffff16815260200190815260200160002060006101000a81548160ff021916908315150217905550610ad66108cf565b73ffffffffffffffffffffffffffffffffffffffff168173ffffffffffffffffffffffffffffffffffffffff16837ff6391f5c32d9c69d2a47ea670b442974b53935d1edc7fd64eb21e047a839171b60405160405180910390a45b5050565b606060006002836002610b4891906112f5565b610b52919061134f565b67ffffffffffffffff811115610b6b57610b6a6113a5565b5b6040519080825280601f01601f191660200182016040528015610b9d5781602001600182028036833780820191505090505b5090507f300000000000000000000000000000000000000000000000000000000000000081600081518110610bd557610bd46113d4565b5b60200101907effffffffffffffffffffffffffffffffffffffffffffffffffffffffffffff1916908160001a9053507f780000000000000000000000000000000000000000000000000000000000000081600181518110610c3957610c386113d4565b5b60200101907effffffffffffffffffffffffffffffffffffffffffffffffffffffffffffff1916908160001a90535060006001846002610c7991906112f5565b610c83919061134f565b90505b6001811115610d23577f3031323334353637383961626364656600000000000000000000000000000000600f861660108110610cc557610cc46113d4565b5b1a60f81b828281518110610cdc57610cdb6113d4565b5b60200101907effffffffffffffffffffffffffffffffffffffffffffffffffffffffffffff1916908160001a905350600485901c945080610d1c90611403565b9050610c86565b5060008414610d67576040517f08c379a0000000000000000000000000000000000000000000000000000000008152600401610d5e90611479565b60405180910390fd5b8091505092915050565b600080fd5b60007fffffffff0000000000000000000000000000000000000000000000000000000082169050919050565b610dab81610d76565b8114610db657600080fd5b50565b600081359050610dc881610da2565b92915050565b600060208284031215610de457610de3610d71565b5b6000610df284828501610db9565b91505092915050565b60008115159050919050565b610e1081610dfb565b82525050565b6000602082019050610e2b6000830184610e07565b92915050565b600073ffffffffffffffffffffffffffffffffffffffff82169050919050565b6000610e5c82610e31565b9050919050565b610e6c81610e51565b8114610e7757600080fd5b50565b600081359050610e8981610e63565b92915050565b600060208284031215610ea557610ea4610d71565b5b6000610eb384828501610e7a565b91505092915050565b6000819050919050565b610ecf81610ebc565b8114610eda57600080fd5b50565b600081359050610eec81610ec6565b92915050565b600060208284031215610f0857610f07610d71565b5b6000610f1684828501610edd565b91505092915050565b610f2881610ebc565b82525050565b6000602082019050610f436000830184610f1f565b92915050565b60008060408385031215610f6057610f5f610d71565b5b6000610f6e85828601610edd565b9250506020610f7f85828601610e7a565b9150509250929050565b600082825260208201905092915050565b7f5265737472696374656420746f2061646d696e732e0000000000000000000000600082015250565b6000610fd0601583610f89565b9150610fdb82610f9a565b602082019050919050565b60006020820190508181036000830152610fff81610fc3565b9050919050565b7f6572726f72000000000000000000000000000000000000000000000000000000600082015250565b600061103c600583610f89565b915061104782611006565b602082019050919050565b6000602082019050818103600083015261106b8161102f565b9050919050565b7f416363657373436f6e74726f6c3a2063616e206f6e6c792072656e6f756e636560008201527f20726f6c657320666f722073656c660000000000000000000000000000000000602082015250565b60006110ce602f83610f89565b91506110d982611072565b604082019050919050565b600060208201905081810360008301526110fd816110c1565b9050919050565b600081905092915050565b7f416363657373436f6e74726f6c3a206163636f756e7420000000000000000000600082015250565b6000611145601783611104565b91506111508261110f565b601782019050919050565b600081519050919050565b60005b83811015611184578082015181840152602081019050611169565b83811115611193576000848401525b50505050565b60006111a48261115b565b6111ae8185611104565b93506111be818560208601611166565b80840191505092915050565b7f206973206d697373696e6720726f6c6520000000000000000000000000000000600082015250565b6000611200601183611104565b915061120b826111ca565b601182019050919050565b600061122182611138565b915061122d8285611199565b9150611238826111f3565b91506112448284611199565b91508190509392505050565b6000601f19601f8301169050919050565b600061126c8261115b565b6112768185610f89565b9350611286818560208601611166565b61128f81611250565b840191505092915050565b600060208201905081810360008301526112b48184611261565b905092915050565b6000819050919050565b7f4e487b7100000000000000000000000000000000000000000000000000000000600052601160045260246000fd5b6000611300826112bc565b915061130b836112bc565b9250817fffffffffffffffffffffffffffffffffffffffffffffffffffffffffffffffff0483118215151615611344576113436112c6565b5b828202905092915050565b600061135a826112bc565b9150611365836112bc565b9250827fffffffffffffffffffffffffffffffffffffffffffffffffffffffffffffffff0382111561139a576113996112c6565b5b828201905092915050565b7f4e487b7100000000000000000000000000000000000000000000000000000000600052604160045260246000fd5b7f4e487b7100000000000000000000000000000000000000000000000000000000600052603260045260246000fd5b600061140e826112bc565b91506000821415611422576114216112c6565b5b600182039050919050565b7f537472696e67733a20686578206c656e67746820696e73756666696369656e74600082015250565b6000611463602083610f89565b915061146e8261142d565b602082019050919050565b6000602082019050818103600083015261149281611456565b905091905056fea2646970667358221220a1c56c7b5af3c3e9214d232c677858496943df2bcb70c83208ad4742dbbb6ca964736f6c634300080c0033",
  "immutableReferences": {},
  "source": "\n// SPDX-License-Identifier: MIT\npragma solidity >=0.4.22 <0.9.0;\nimport './Roles.sol';\n\ncontract Customer is Roles{\n\n  Roles.RoleData private consumers;\n\n  event ConsumerAdded(address indexed account);\n\n  constructor()\n  {\n    consumers.adminRole=\"CONSUMERS_ROLE\";\n    _addConsumer(msg.sender);\n  }\n\n  modifier onlyConsumer()\n  {\n    require(isCustomer(msg.sender),\"error\");\n    _;\n  }\n\n  function addConsumer(address account) public \n  onlyConsumer() \n  {\n    _addConsumer(account);\n  }\n\n    function _addConsumer(address account) internal {\n      require(account != address(0));\n      require(!isCustomer(account));\n    consumers.members[account]=true;\n    emit ConsumerAdded(account);\n\n  }\n\n\n  function isCustomer(address account) view internal returns(bool)\n  {\n    return consumers.members[account];\n  }\n}",
  "sourcePath": "/home/crawzer/blockchain/front/my-app/contracts/contracts/Customer.sol",
  "compiler": {
    "name": "solc",
    "version": "0.8.12+commit.f00d7308.Emscripten.clang"
  },
  "schemaVersion": "3.4.5",
  "updatedAt": "2022-04-27T20:41:14.161Z",
  "networkType": "ethereum",
  "devdoc": {
    "kind": "dev",
    "methods": {
      "getRoleAdmin(bytes32)": {
        "details": "Returns the admin role that controls `role`. See {grantRole} and {revokeRole}. To change a role's admin, use {_setRoleAdmin}."
      },
      "grantRole(bytes32,address)": {
        "details": "Grants `role` to `account`. If `account` had not been already granted `role`, emits a {RoleGranted} event. Requirements: - the caller must have ``role``'s admin role."
      },
      "hasRole(bytes32,address)": {
        "details": "Returns `true` if `account` has been granted `role`."
      },
      "renounceRole(bytes32,address)": {
        "details": "Revokes `role` from the calling account. Roles are often managed via {grantRole} and {revokeRole}: this function's purpose is to provide a mechanism for accounts to lose their privileges if they are compromised (such as when a trusted device is misplaced). If the calling account had been revoked `role`, emits a {RoleRevoked} event. Requirements: - the caller must be `account`."
      },
      "revokeRole(bytes32,address)": {
        "details": "Revokes `role` from `account`. If `account` had been granted `role`, emits a {RoleRevoked} event. Requirements: - the caller must have ``role``'s admin role."
      },
      "supportsInterface(bytes4)": {
        "details": "See {IERC165-supportsInterface}."
      }
    },
    "version": 1
  },
  "userdoc": {
    "kind": "user",
    "methods": {},
    "version": 1
  }
}