{
  "contractName": "FarmManager",
  "abi": [
    {
      "anonymous": false,
      "inputs": [
        {
          "indexed": true,
          "internalType": "bytes32",
          "name": "role",
          "type": "bytes32"
        },
        {
          "indexed": true,
          "internalType": "bytes32",
          "name": "previousAdminRole",
          "type": "bytes32"
        },
        {
          "indexed": true,
          "internalType": "bytes32",
          "name": "newAdminRole",
          "type": "bytes32"
        }
      ],
      "name": "RoleAdminChanged",
      "type": "event"
    },
    {
      "anonymous": false,
      "inputs": [
        {
          "indexed": true,
          "internalType": "bytes32",
          "name": "role",
          "type": "bytes32"
        },
        {
          "indexed": true,
          "internalType": "address",
          "name": "account",
          "type": "address"
        },
        {
          "indexed": true,
          "internalType": "address",
          "name": "sender",
          "type": "address"
        }
      ],
      "name": "RoleGranted",
      "type": "event"
    },
    {
      "anonymous": false,
      "inputs": [
        {
          "indexed": true,
          "internalType": "bytes32",
          "name": "role",
          "type": "bytes32"
        },
        {
          "indexed": true,
          "internalType": "address",
          "name": "account",
          "type": "address"
        },
        {
          "indexed": true,
          "internalType": "address",
          "name": "sender",
          "type": "address"
        }
      ],
      "name": "RoleRevoked",
      "type": "event"
    },
    {
      "inputs": [],
      "name": "DEFAULT_ADMIN_ROLE",
      "outputs": [
        {
          "internalType": "bytes32",
          "name": "",
          "type": "bytes32"
        }
      ],
      "stateMutability": "view",
      "type": "function",
      "constant": true
    },
    {
      "inputs": [],
      "name": "DISTRIBUTOR_ROLE",
      "outputs": [
        {
          "internalType": "bytes32",
          "name": "",
          "type": "bytes32"
        }
      ],
      "stateMutability": "view",
      "type": "function",
      "constant": true
    },
    {
      "inputs": [],
      "name": "FARMER_ROLE",
      "outputs": [
        {
          "internalType": "bytes32",
          "name": "",
          "type": "bytes32"
        }
      ],
      "stateMutability": "view",
      "type": "function",
      "constant": true
    },
    {
      "inputs": [
        {
          "internalType": "address",
          "name": "account",
          "type": "address"
        }
      ],
      "name": "addAdmin",
      "outputs": [],
      "stateMutability": "nonpayable",
      "type": "function"
    },
    {
      "inputs": [
        {
          "internalType": "address",
          "name": "account",
          "type": "address"
        }
      ],
      "name": "changeAdmin",
      "outputs": [],
      "stateMutability": "nonpayable",
      "type": "function"
    },
    {
      "inputs": [
        {
          "internalType": "bytes32",
          "name": "role",
          "type": "bytes32"
        }
      ],
      "name": "getRoleAdmin",
      "outputs": [
        {
          "internalType": "bytes32",
          "name": "",
          "type": "bytes32"
        }
      ],
      "stateMutability": "view",
      "type": "function",
      "constant": true
    },
    {
      "inputs": [
        {
          "internalType": "address",
          "name": "account",
          "type": "address"
        }
      ],
      "name": "giveAccessForDistributor",
      "outputs": [],
      "stateMutability": "nonpayable",
      "type": "function"
    },
    {
      "inputs": [
        {
          "internalType": "address",
          "name": "account",
          "type": "address"
        }
      ],
      "name": "giveAccessForFarmer",
      "outputs": [],
      "stateMutability": "nonpayable",
      "type": "function"
    },
    {
      "inputs": [
        {
          "internalType": "bytes32",
          "name": "role",
          "type": "bytes32"
        },
        {
          "internalType": "address",
          "name": "account",
          "type": "address"
        }
      ],
      "name": "grantRole",
      "outputs": [],
      "stateMutability": "nonpayable",
      "type": "function"
    },
    {
      "inputs": [
        {
          "internalType": "bytes32",
          "name": "role",
          "type": "bytes32"
        },
        {
          "internalType": "address",
          "name": "account",
          "type": "address"
        }
      ],
      "name": "hasRole",
      "outputs": [
        {
          "internalType": "bool",
          "name": "",
          "type": "bool"
        }
      ],
      "stateMutability": "view",
      "type": "function",
      "constant": true
    },
    {
      "inputs": [
        {
          "internalType": "address",
          "name": "account",
          "type": "address"
        }
      ],
      "name": "isAdmin",
      "outputs": [
        {
          "internalType": "bool",
          "name": "",
          "type": "bool"
        }
      ],
      "stateMutability": "view",
      "type": "function",
      "constant": true
    },
    {
      "inputs": [
        {
          "internalType": "bytes32",
          "name": "role",
          "type": "bytes32"
        },
        {
          "internalType": "address",
          "name": "account",
          "type": "address"
        }
      ],
      "name": "renounceRole",
      "outputs": [],
      "stateMutability": "nonpayable",
      "type": "function"
    },
    {
      "inputs": [
        {
          "internalType": "bytes32",
          "name": "role",
          "type": "bytes32"
        },
        {
          "internalType": "address",
          "name": "account",
          "type": "address"
        }
      ],
      "name": "revokeRole",
      "outputs": [],
      "stateMutability": "nonpayable",
      "type": "function"
    },
    {
      "inputs": [
        {
          "internalType": "bytes4",
          "name": "interfaceId",
          "type": "bytes4"
        }
      ],
      "name": "supportsInterface",
      "outputs": [
        {
          "internalType": "bool",
          "name": "",
          "type": "bool"
        }
      ],
      "stateMutability": "view",
      "type": "function",
      "constant": true
    },
    {
      "inputs": [
        {
          "internalType": "address",
          "name": "_farmId",
          "type": "address"
        },
        {
          "internalType": "address",
          "name": "_ownerId",
          "type": "address"
        }
      ],
      "name": "registerFarm",
      "outputs": [],
      "stateMutability": "nonpayable",
      "type": "function"
    },
    {
      "inputs": [
        {
          "internalType": "address",
          "name": "_farmId",
          "type": "address"
        },
        {
          "internalType": "string",
          "name": "_originFarmName",
          "type": "string"
        },
        {
          "internalType": "string",
          "name": "_originFarmInfo",
          "type": "string"
        },
        {
          "internalType": "string",
          "name": "_originFarmLat",
          "type": "string"
        },
        {
          "internalType": "string",
          "name": "_originFarmLong",
          "type": "string"
        },
        {
          "internalType": "string",
          "name": "_originFarmerName",
          "type": "string"
        }
      ],
      "name": "registerFarmInfo",
      "outputs": [],
      "stateMutability": "nonpayable",
      "type": "function"
    },
    {
      "inputs": [
        {
          "internalType": "address",
          "name": "_farmId",
          "type": "address"
        }
      ],
      "name": "getFarmCustomerInfo",
      "outputs": [
        {
          "components": [
            {
              "internalType": "string",
              "name": "originFarmName",
              "type": "string"
            },
            {
              "internalType": "string",
              "name": "originFarmInformation",
              "type": "string"
            },
            {
              "internalType": "string",
              "name": "originFarmLatitude",
              "type": "string"
            },
            {
              "internalType": "string",
              "name": "originFarmLongitude",
              "type": "string"
            },
            {
              "internalType": "string",
              "name": "originFarmerName",
              "type": "string"
            }
          ],
          "internalType": "struct FarmManager.Farm",
          "name": "",
          "type": "tuple"
        }
      ],
      "stateMutability": "view",
      "type": "function",
      "constant": true
    },
    {
      "inputs": [
        {
          "internalType": "address",
          "name": "_farmId",
          "type": "address"
        }
      ],
      "name": "getFarmInfo",
      "outputs": [
        {
          "internalType": "address",
          "name": "ownerId",
          "type": "address"
        },
        {
          "internalType": "uint256",
          "name": "animalCount",
          "type": "uint256"
        },
        {
          "internalType": "bytes32",
          "name": "farmHash",
          "type": "bytes32"
        },
        {
          "internalType": "uint256",
          "name": "timestamp",
          "type": "uint256"
        }
      ],
      "stateMutability": "view",
      "type": "function",
      "constant": true
    },
    {
      "inputs": [
        {
          "internalType": "address",
          "name": "_farmId",
          "type": "address"
        },
        {
          "internalType": "address",
          "name": "_ownerId",
          "type": "address"
        },
        {
          "internalType": "uint256",
          "name": "_animalCount",
          "type": "uint256"
        },
        {
          "internalType": "bytes32",
          "name": "_farmHash",
          "type": "bytes32"
        },
        {
          "internalType": "uint256",
          "name": "_timestamp",
          "type": "uint256"
        }
      ],
      "name": "updateFarmInfo",
      "outputs": [
        {
          "internalType": "address",
          "name": "ownerId",
          "type": "address"
        },
        {
          "internalType": "uint256",
          "name": "animalCount",
          "type": "uint256"
        },
        {
          "internalType": "bytes32",
          "name": "farmHash",
          "type": "bytes32"
        },
        {
          "internalType": "uint256",
          "name": "timestamp",
          "type": "uint256"
        }
      ],
      "stateMutability": "nonpayable",
      "type": "function"
    },
    {
      "inputs": [
        {
          "internalType": "address",
          "name": "_ownerId",
          "type": "address"
        },
        {
          "internalType": "address",
          "name": "_farmId",
          "type": "address"
        }
      ],
      "name": "checkOwnership",
      "outputs": [
        {
          "internalType": "bool",
          "name": "",
          "type": "bool"
        }
      ],
      "stateMutability": "view",
      "type": "function",
      "constant": true
    },
    {
      "inputs": [
        {
          "internalType": "address",
          "name": "_farmId",
          "type": "address"
        }
      ],
      "name": "farmExists",
      "outputs": [
        {
          "internalType": "bool",
          "name": "",
          "type": "bool"
        }
      ],
      "stateMutability": "view",
      "type": "function",
      "constant": true
    },
    {
      "inputs": [
        {
          "internalType": "bytes6",
          "name": "_animalId",
          "type": "bytes6"
        },
        {
          "internalType": "address",
          "name": "_currentFarm",
          "type": "address"
        },
        {
          "internalType": "bytes32",
          "name": "_animalHash",
          "type": "bytes32"
        },
        {
          "internalType": "uint256",
          "name": "_timestamp",
          "type": "uint256"
        }
      ],
      "name": "registerAnimal",
      "outputs": [],
      "stateMutability": "nonpayable",
      "type": "function"
    },
    {
      "inputs": [
        {
          "internalType": "bytes6",
          "name": "_animalId",
          "type": "bytes6"
        },
        {
          "internalType": "address",
          "name": "_currentFarm",
          "type": "address"
        },
        {
          "internalType": "bytes32",
          "name": "_animalHash",
          "type": "bytes32"
        },
        {
          "internalType": "uint256",
          "name": "_timestamp",
          "type": "uint256"
        }
      ],
      "name": "updateAnimal",
      "outputs": [],
      "stateMutability": "nonpayable",
      "type": "function"
    },
    {
      "inputs": [
        {
          "internalType": "bytes6",
          "name": "_animalId",
          "type": "bytes6"
        }
      ],
      "name": "getAnimalHash",
      "outputs": [
        {
          "internalType": "bytes32",
          "name": "",
          "type": "bytes32"
        }
      ],
      "stateMutability": "view",
      "type": "function",
      "constant": true
    },
    {
      "inputs": [
        {
          "internalType": "bytes6",
          "name": "animalId",
          "type": "bytes6"
        }
      ],
      "name": "animalExists",
      "outputs": [
        {
          "internalType": "bool",
          "name": "",
          "type": "bool"
        }
      ],
      "stateMutability": "view",
      "type": "function",
      "constant": true
    },
    {
      "inputs": [],
      "name": "setProfileManager",
      "outputs": [],
      "stateMutability": "nonpayable",
      "type": "function"
    }
  ],
  "bytecode": "0x60806040523480156200001157600080fd5b50620000276000801b336200002d60201b60201c565b620001a6565b6200003f82826200004360201b60201c565b5050565b6200005582826200013460201b60201c565b6200013057600160008084815260200190815260200160002060000160008373ffffffffffffffffffffffffffffffffffffffff1673ffffffffffffffffffffffffffffffffffffffff16815260200190815260200160002060006101000a81548160ff021916908315150217905550620000d56200019e60201b60201c565b73ffffffffffffffffffffffffffffffffffffffff168173ffffffffffffffffffffffffffffffffffffffff16837f2f8788117e7eff1d82e926ec794901d17c78024a50270940304540a733656f0d60405160405180910390a45b5050565b600080600084815260200190815260200160002060000160008373ffffffffffffffffffffffffffffffffffffffff1673ffffffffffffffffffffffffffffffffffffffff16815260200190815260200160002060009054906101000a900460ff16905092915050565b600033905090565b61527880620001b66000396000f3fe60806040523480156200001157600080fd5b5060043610620001b45760003560e01c80637048027511620000f3578063b4af12bf11620000a5578063d9ee3845116200007b578063d9ee38451462000533578063e9aa339b1462000569578063f0bd87cc146200059f578063f394397014620005c157620001b4565b8063b4af12bf14620004d3578063be06882114620004f3578063d547741f146200051357620001b4565b80637048027514620003e55780638cd6d3c014620004055780638f283970146200042557806391d148541462000445578063a217fddf146200047b578063a6f50c59146200049d57620001b4565b806324d7806c116200016b57806336568abe116200014157806336568abe146200033657806340b1fc4314620003565780634c813ff1146200038c5780635ece0b5414620003c557620001b4565b806324d7806c14620002aa5780632f2ff15d14620002e05780633460c114146200030057620001b4565b806301ffc9a714620001b9578063068af89014620001ef57806308ccf219146200020f57806319ce533c146200022f5780631c9a4fd1146200023b578063248a9ca31462000274575b600080fd5b620001d76004803603810190620001d1919062002b96565b620005e3565b604051620001e6919062002be5565b60405180910390f35b6200020d600480360381019062000207919062002c67565b62000660565b005b6200022d600480360381019062000227919062002cae565b62000842565b005b62000239620008be565b005b62000259600480360381019062000253919062002cae565b62000979565b6040516200026b949392919062002d27565b60405180910390f35b6200029260048036038101906200028c919062002da5565b62000d7b565b604051620002a1919062002dd7565b60405180910390f35b620002c86004803603810190620002c2919062002cae565b62000d9a565b604051620002d7919062002be5565b60405180910390f35b620002fe6004803603810190620002f8919062002df4565b62000db2565b005b6200031e600480360381019062000318919062002cae565b62000de3565b6040516200032d919062002be5565b60405180910390f35b6200035460048036038101906200034e919062002df4565b62000e8f565b005b6200037460048036038101906200036e919062002e98565b62000f19565b60405162000383919062002be5565b60405180910390f35b620003aa6004803603810190620003a4919062002efb565b62000f8b565b604051620003bc949392919062002d27565b60405180910390f35b620003e36004803603810190620003dd9190620030e5565b620014e8565b005b620004036004803603810190620003fd919062002cae565b620016bc565b005b6200042360048036038101906200041d91906200321c565b6200171b565b005b6200044360048036038101906200043d919062002cae565b62001895565b005b6200046360048036038101906200045d919062002df4565b620018f4565b60405162000472919062002be5565b60405180910390f35b620004856200195e565b60405162000494919062002dd7565b60405180910390f35b620004bb6004803603810190620004b5919062002c67565b62001965565b604051620004ca919062002be5565b60405180910390f35b620004f16004803603810190620004eb919062002cae565b62001d7a565b005b6200051160048036038101906200050b91906200321c565b62001df6565b005b6200053160048036038101906200052b919062002df4565b62001fbb565b005b6200055160048036038101906200054b919062002cae565b62001fec565b604051620005609190620033bd565b60405180910390f35b62000587600480360381019062000581919062002e98565b62002352565b60405162000596919062002dd7565b60405180910390f35b620005a962002426565b604051620005b8919062002dd7565b60405180910390f35b620005cb6200244a565b604051620005da919062002dd7565b60405180910390f35b60007f7965db0b000000000000000000000000000000000000000000000000000000007bffffffffffffffffffffffffffffffffffffffffffffffffffffffff1916827bffffffffffffffffffffffffffffffffffffffffffffffffffffffff1916148062000659575062000658826200246e565b5b9050919050565b6200066b3362000d9a565b620006ad576040517f08c379a0000000000000000000000000000000000000000000000000000000008152600401620006a49062003442565b60405180910390fd5b620006b7620029ae565b81816000019073ffffffffffffffffffffffffffffffffffffffff16908173ffffffffffffffffffffffffffffffffffffffff168152505080600460008573ffffffffffffffffffffffffffffffffffffffff1673ffffffffffffffffffffffffffffffffffffffff16815260200190815260200160002060008201518160000160006101000a81548173ffffffffffffffffffffffffffffffffffffffff021916908373ffffffffffffffffffffffffffffffffffffffff1602179055506020820151816001015560408201518160020155606082015181600301556080820151816004016000820151816000019080519060200190620007bb929190620029fe565b506020820151816001019080519060200190620007da929190620029fe565b506040820151816002019080519060200190620007f9929190620029fe565b50606082015181600301908051906020019062000818929190620029fe565b50608082015181600401908051906020019062000837929190620029fe565b505050905050505050565b6200084d3362000d9a565b6200088f576040517f08c379a0000000000000000000000000000000000000000000000000000000008152600401620008869062003442565b60405180910390fd5b620008bb7ff309ffc42715a0bfccdfa0c4cac305505f15ab9b9262b7451ceea96c0cc351878262000db2565b50565b620008c93362000d9a565b6200090b576040517f08c379a0000000000000000000000000000000000000000000000000000000008152600401620009029062003442565b60405180910390fd5b604051620009199062002a8f565b604051809103906000f08015801562000936573d6000803e3d6000fd5b50600360006101000a81548173ffffffffffffffffffffffffffffffffffffffff021916908373ffffffffffffffffffffffffffffffffffffffff160217905550565b6000806000806000600460008773ffffffffffffffffffffffffffffffffffffffff1673ffffffffffffffffffffffffffffffffffffffff1681526020019081526020016000206040518060a00160405290816000820160009054906101000a900473ffffffffffffffffffffffffffffffffffffffff1673ffffffffffffffffffffffffffffffffffffffff1673ffffffffffffffffffffffffffffffffffffffff168152602001600182015481526020016002820154815260200160038201548152602001600482016040518060a001604052908160008201805462000a619062003493565b80601f016020809104026020016040519081016040528092919081815260200182805462000a8f9062003493565b801562000ae05780601f1062000ab45761010080835404028352916020019162000ae0565b820191906000526020600020905b81548152906001019060200180831162000ac257829003601f168201915b5050505050815260200160018201805462000afb9062003493565b80601f016020809104026020016040519081016040528092919081815260200182805462000b299062003493565b801562000b7a5780601f1062000b4e5761010080835404028352916020019162000b7a565b820191906000526020600020905b81548152906001019060200180831162000b5c57829003601f168201915b5050505050815260200160028201805462000b959062003493565b80601f016020809104026020016040519081016040528092919081815260200182805462000bc39062003493565b801562000c145780601f1062000be85761010080835404028352916020019162000c14565b820191906000526020600020905b81548152906001019060200180831162000bf657829003601f168201915b5050505050815260200160038201805462000c2f9062003493565b80601f016020809104026020016040519081016040528092919081815260200182805462000c5d9062003493565b801562000cae5780601f1062000c825761010080835404028352916020019162000cae565b820191906000526020600020905b81548152906001019060200180831162000c9057829003601f168201915b5050505050815260200160048201805462000cc99062003493565b80601f016020809104026020016040519081016040528092919081815260200182805462000cf79062003493565b801562000d485780601f1062000d1c5761010080835404028352916020019162000d48565b820191906000526020600020905b81548152906001019060200180831162000d2a57829003601f168201915b50505050508152505081525050905080600001518160200151826040015183606001519450945094509450509193509193565b6000806000838152602001908152602001600020600101549050919050565b600062000dab6000801b83620018f4565b9050919050565b62000dbd8262000d7b565b62000dd28162000dcc620024d8565b620024e0565b62000dde838362002588565b505050565b60008073ffffffffffffffffffffffffffffffffffffffff16600460008473ffffffffffffffffffffffffffffffffffffffff1673ffffffffffffffffffffffffffffffffffffffff16815260200190815260200160002060000160009054906101000a900473ffffffffffffffffffffffffffffffffffffffff1673ffffffffffffffffffffffffffffffffffffffff161462000e85576001905062000e8a565b600090505b919050565b62000e99620024d8565b73ffffffffffffffffffffffffffffffffffffffff168173ffffffffffffffffffffffffffffffffffffffff161462000f09576040517f08c379a000000000000000000000000000000000000000000000000000000000815260040162000f00906200353f565b60405180910390fd5b62000f1582826200266d565b5050565b60008060001b600560008479ffffffffffffffffffffffffffffffffffffffffffffffffffff191679ffffffffffffffffffffffffffffffffffffffffffffffffffff1916815260200190815260200160002060010154111562000f81576001905062000f86565b600090505b919050565b60008060008087600460008b73ffffffffffffffffffffffffffffffffffffffff1673ffffffffffffffffffffffffffffffffffffffff16815260200190815260200160002060000160006101000a81548173ffffffffffffffffffffffffffffffffffffffff021916908373ffffffffffffffffffffffffffffffffffffffff16021790555086600460008b73ffffffffffffffffffffffffffffffffffffffff1673ffffffffffffffffffffffffffffffffffffffff1681526020019081526020016000206001018190555085600460008b73ffffffffffffffffffffffffffffffffffffffff1673ffffffffffffffffffffffffffffffffffffffff1681526020019081526020016000206002018190555084600460008b73ffffffffffffffffffffffffffffffffffffffff1673ffffffffffffffffffffffffffffffffffffffff168152602001908152602001600020600301819055506000600460008b73ffffffffffffffffffffffffffffffffffffffff1673ffffffffffffffffffffffffffffffffffffffff1681526020019081526020016000206040518060a00160405290816000820160009054906101000a900473ffffffffffffffffffffffffffffffffffffffff1673ffffffffffffffffffffffffffffffffffffffff1673ffffffffffffffffffffffffffffffffffffffff168152602001600182015481526020016002820154815260200160038201548152602001600482016040518060a0016040529081600082018054620011c99062003493565b80601f0160208091040260200160405190810160405280929190818152602001828054620011f79062003493565b8015620012485780601f106200121c5761010080835404028352916020019162001248565b820191906000526020600020905b8154815290600101906020018083116200122a57829003601f168201915b50505050508152602001600182018054620012639062003493565b80601f0160208091040260200160405190810160405280929190818152602001828054620012919062003493565b8015620012e25780601f10620012b657610100808354040283529160200191620012e2565b820191906000526020600020905b815481529060010190602001808311620012c457829003601f168201915b50505050508152602001600282018054620012fd9062003493565b80601f01602080910402602001604051908101604052809291908181526020018280546200132b9062003493565b80156200137c5780601f1062001350576101008083540402835291602001916200137c565b820191906000526020600020905b8154815290600101906020018083116200135e57829003601f168201915b50505050508152602001600382018054620013979062003493565b80601f0160208091040260200160405190810160405280929190818152602001828054620013c59062003493565b8015620014165780601f10620013ea5761010080835404028352916020019162001416565b820191906000526020600020905b815481529060010190602001808311620013f857829003601f168201915b50505050508152602001600482018054620014319062003493565b80601f01602080910402602001604051908101604052809291908181526020018280546200145f9062003493565b8015620014b05780601f106200148457610100808354040283529160200191620014b0565b820191906000526020600020905b8154815290600101906020018083116200149257829003601f168201915b505050505081525050815250509050806000015181602001518260400151836060015194509450945094505095509550955095915050565b80600460008873ffffffffffffffffffffffffffffffffffffffff1673ffffffffffffffffffffffffffffffffffffffff168152602001908152602001600020600401600401908051906020019062001543929190620029fe565b5083600460008873ffffffffffffffffffffffffffffffffffffffff1673ffffffffffffffffffffffffffffffffffffffff16815260200190815260200160002060040160010190805190602001906200159f929190620029fe565b5082600460008873ffffffffffffffffffffffffffffffffffffffff1673ffffffffffffffffffffffffffffffffffffffff1681526020019081526020016000206004016002019080519060200190620015fb929190620029fe565b5081600460008873ffffffffffffffffffffffffffffffffffffffff1673ffffffffffffffffffffffffffffffffffffffff168152602001908152602001600020600401600301908051906020019062001657929190620029fe565b5084600460008873ffffffffffffffffffffffffffffffffffffffff1673ffffffffffffffffffffffffffffffffffffffff1681526020019081526020016000206004016000019080519060200190620016b3929190620029fe565b50505050505050565b620016c73362000d9a565b62001709576040517f08c379a0000000000000000000000000000000000000000000000000000000008152600401620017009062003442565b60405180910390fd5b620017186000801b8262000db2565b50565b6000801b600560008679ffffffffffffffffffffffffffffffffffffffffffffffffffff191679ffffffffffffffffffffffffffffffffffffffffffffffffffff191681526020019081526020016000206001015411156200178b57620017858484848462001df6565b6200188f565b6200179562002a9d565b83816000019073ffffffffffffffffffffffffffffffffffffffff16908173ffffffffffffffffffffffffffffffffffffffff1681525050828160200181815250508181604001818152505080600560008779ffffffffffffffffffffffffffffffffffffffffffffffffffff191679ffffffffffffffffffffffffffffffffffffffffffffffffffff1916815260200190815260200160002060008201518160000160006101000a81548173ffffffffffffffffffffffffffffffffffffffff021916908373ffffffffffffffffffffffffffffffffffffffff1602179055506020820151816001015560408201518160020155905050505b50505050565b620018a03362000d9a565b620018e2576040517f08c379a0000000000000000000000000000000000000000000000000000000008152600401620018d99062003442565b60405180910390fd5b620018f16000801b8262000db2565b50565b600080600084815260200190815260200160002060000160008373ffffffffffffffffffffffffffffffffffffffff1673ffffffffffffffffffffffffffffffffffffffff16815260200190815260200160002060009054906101000a900460ff16905092915050565b6000801b81565b600080600460008473ffffffffffffffffffffffffffffffffffffffff1673ffffffffffffffffffffffffffffffffffffffff1681526020019081526020016000206040518060a00160405290816000820160009054906101000a900473ffffffffffffffffffffffffffffffffffffffff1673ffffffffffffffffffffffffffffffffffffffff1673ffffffffffffffffffffffffffffffffffffffff168152602001600182015481526020016002820154815260200160038201548152602001600482016040518060a001604052908160008201805462001a489062003493565b80601f016020809104026020016040519081016040528092919081815260200182805462001a769062003493565b801562001ac75780601f1062001a9b5761010080835404028352916020019162001ac7565b820191906000526020600020905b81548152906001019060200180831162001aa957829003601f168201915b5050505050815260200160018201805462001ae29062003493565b80601f016020809104026020016040519081016040528092919081815260200182805462001b109062003493565b801562001b615780601f1062001b355761010080835404028352916020019162001b61565b820191906000526020600020905b81548152906001019060200180831162001b4357829003601f168201915b5050505050815260200160028201805462001b7c9062003493565b80601f016020809104026020016040519081016040528092919081815260200182805462001baa9062003493565b801562001bfb5780601f1062001bcf5761010080835404028352916020019162001bfb565b820191906000526020600020905b81548152906001019060200180831162001bdd57829003601f168201915b5050505050815260200160038201805462001c169062003493565b80601f016020809104026020016040519081016040528092919081815260200182805462001c449062003493565b801562001c955780601f1062001c695761010080835404028352916020019162001c95565b820191906000526020600020905b81548152906001019060200180831162001c7757829003601f168201915b5050505050815260200160048201805462001cb09062003493565b80601f016020809104026020016040519081016040528092919081815260200182805462001cde9062003493565b801562001d2f5780601f1062001d035761010080835404028352916020019162001d2f565b820191906000526020600020905b81548152906001019060200180831162001d1157829003601f168201915b5050505050815250508152505090508373ffffffffffffffffffffffffffffffffffffffff16816000015173ffffffffffffffffffffffffffffffffffffffff161491505092915050565b62001d853362000d9a565b62001dc7576040517f08c379a000000000000000000000000000000000000000000000000000000000815260040162001dbe9062003442565b60405180910390fd5b62001df37f85faced7bde13e1a7dad704b895f006e704f207617d68166b31ba2d79624862d8262000db2565b50565b6000600560008679ffffffffffffffffffffffffffffffffffffffffffffffffffff191679ffffffffffffffffffffffffffffffffffffffffffffffffffff191681526020019081526020016000206040518060600160405290816000820160009054906101000a900473ffffffffffffffffffffffffffffffffffffffff1673ffffffffffffffffffffffffffffffffffffffff1673ffffffffffffffffffffffffffffffffffffffff16815260200160018201548152602001600282015481525050905083816000019073ffffffffffffffffffffffffffffffffffffffff16908173ffffffffffffffffffffffffffffffffffffffff1681525050828160200181815250508181604001818152505080600560008779ffffffffffffffffffffffffffffffffffffffffffffffffffff191679ffffffffffffffffffffffffffffffffffffffffffffffffffff1916815260200190815260200160002060008201518160000160006101000a81548173ffffffffffffffffffffffffffffffffffffffff021916908373ffffffffffffffffffffffffffffffffffffffff16021790555060208201518160010155604082015181600201559050505050505050565b62001fc68262000d7b565b62001fdb8162001fd5620024d8565b620024e0565b62001fe783836200266d565b505050565b62001ff662002ad7565b6000600460008473ffffffffffffffffffffffffffffffffffffffff1673ffffffffffffffffffffffffffffffffffffffff1681526020019081526020016000206004016040518060a0016040529081600082018054620020579062003493565b80601f0160208091040260200160405190810160405280929190818152602001828054620020859062003493565b8015620020d65780601f10620020aa57610100808354040283529160200191620020d6565b820191906000526020600020905b815481529060010190602001808311620020b857829003601f168201915b50505050508152602001600182018054620020f19062003493565b80601f01602080910402602001604051908101604052809291908181526020018280546200211f9062003493565b8015620021705780601f10620021445761010080835404028352916020019162002170565b820191906000526020600020905b8154815290600101906020018083116200215257829003601f168201915b505050505081526020016002820180546200218b9062003493565b80601f0160208091040260200160405190810160405280929190818152602001828054620021b99062003493565b80156200220a5780601f10620021de576101008083540402835291602001916200220a565b820191906000526020600020905b815481529060010190602001808311620021ec57829003601f168201915b50505050508152602001600382018054620022259062003493565b80601f0160208091040260200160405190810160405280929190818152602001828054620022539062003493565b8015620022a45780601f106200227857610100808354040283529160200191620022a4565b820191906000526020600020905b8154815290600101906020018083116200228657829003601f168201915b50505050508152602001600482018054620022bf9062003493565b80601f0160208091040260200160405190810160405280929190818152602001828054620022ed9062003493565b80156200233e5780601f1062002312576101008083540402835291602001916200233e565b820191906000526020600020905b8154815290600101906020018083116200232057829003601f168201915b505050505081525050905080915050919050565b600080600560008479ffffffffffffffffffffffffffffffffffffffffffffffffffff191679ffffffffffffffffffffffffffffffffffffffffffffffffffff191681526020019081526020016000206040518060600160405290816000820160009054906101000a900473ffffffffffffffffffffffffffffffffffffffff1673ffffffffffffffffffffffffffffffffffffffff1673ffffffffffffffffffffffffffffffffffffffff1681526020016001820154815260200160028201548152505090508060200151915050919050565b7f85faced7bde13e1a7dad704b895f006e704f207617d68166b31ba2d79624862d81565b7ff309ffc42715a0bfccdfa0c4cac305505f15ab9b9262b7451ceea96c0cc3518781565b60007f01ffc9a7000000000000000000000000000000000000000000000000000000007bffffffffffffffffffffffffffffffffffffffffffffffffffffffff1916827bffffffffffffffffffffffffffffffffffffffffffffffffffffffff1916149050919050565b600033905090565b620024ec8282620018f4565b6200258457620025148173ffffffffffffffffffffffffffffffffffffffff16601462002753565b620025248360001c602062002753565b6040516020016200253792919062003643565b6040516020818303038152906040526040517f08c379a00000000000000000000000000000000000000000000000000000000081526004016200257b9190620036c6565b60405180910390fd5b5050565b620025948282620018f4565b6200266957600160008084815260200190815260200160002060000160008373ffffffffffffffffffffffffffffffffffffffff1673ffffffffffffffffffffffffffffffffffffffff16815260200190815260200160002060006101000a81548160ff0219169083151502179055506200260e620024d8565b73ffffffffffffffffffffffffffffffffffffffff168173ffffffffffffffffffffffffffffffffffffffff16837f2f8788117e7eff1d82e926ec794901d17c78024a50270940304540a733656f0d60405160405180910390a45b5050565b620026798282620018f4565b156200274f57600080600084815260200190815260200160002060000160008373ffffffffffffffffffffffffffffffffffffffff1673ffffffffffffffffffffffffffffffffffffffff16815260200190815260200160002060006101000a81548160ff021916908315150217905550620026f4620024d8565b73ffffffffffffffffffffffffffffffffffffffff168173ffffffffffffffffffffffffffffffffffffffff16837ff6391f5c32d9c69d2a47ea670b442974b53935d1edc7fd64eb21e047a839171b60405160405180910390a45b5050565b60606000600283600262002768919062003719565b6200277491906200377a565b67ffffffffffffffff81111562002790576200278f62002f9e565b5b6040519080825280601f01601f191660200182016040528015620027c35781602001600182028036833780820191505090505b5090507f300000000000000000000000000000000000000000000000000000000000000081600081518110620027fe57620027fd620037d7565b5b60200101907effffffffffffffffffffffffffffffffffffffffffffffffffffffffffffff1916908160001a9053507f780000000000000000000000000000000000000000000000000000000000000081600181518110620028655762002864620037d7565b5b60200101907effffffffffffffffffffffffffffffffffffffffffffffffffffffffffffff1916908160001a90535060006001846002620028a7919062003719565b620028b391906200377a565b90505b60018111156200295d577f3031323334353637383961626364656600000000000000000000000000000000600f861660108110620028f957620028f8620037d7565b5b1a60f81b828281518110620029135762002912620037d7565b5b60200101907effffffffffffffffffffffffffffffffffffffffffffffffffffffffffffff1916908160001a905350600485901c945080620029559062003806565b9050620028b6565b5060008414620029a4576040517f08c379a00000000000000000000000000000000000000000000000000000000081526004016200299b9062003885565b60405180910390fd5b8091505092915050565b6040518060a00160405280600073ffffffffffffffffffffffffffffffffffffffff168152602001600081526020016000801916815260200160008152602001620029f862002ad7565b81525090565b82805462002a0c9062003493565b90600052602060002090601f01602090048101928262002a30576000855562002a7c565b82601f1062002a4b57805160ff191683800117855562002a7c565b8280016001018555821562002a7c579182015b8281111562002a7b57825182559160200191906001019062002a5e565b5b50905062002a8b919062002b06565b5090565b61199b80620038a883390190565b6040518060600160405280600073ffffffffffffffffffffffffffffffffffffffff16815260200160008019168152602001600081525090565b6040518060a0016040528060608152602001606081526020016060815260200160608152602001606081525090565b5b8082111562002b2157600081600090555060010162002b07565b5090565b6000604051905090565b600080fd5b600080fd5b60007fffffffff0000000000000000000000000000000000000000000000000000000082169050919050565b62002b708162002b39565b811462002b7c57600080fd5b50565b60008135905062002b908162002b65565b92915050565b60006020828403121562002baf5762002bae62002b2f565b5b600062002bbf8482850162002b7f565b91505092915050565b60008115159050919050565b62002bdf8162002bc8565b82525050565b600060208201905062002bfc600083018462002bd4565b92915050565b600073ffffffffffffffffffffffffffffffffffffffff82169050919050565b600062002c2f8262002c02565b9050919050565b62002c418162002c22565b811462002c4d57600080fd5b50565b60008135905062002c618162002c36565b92915050565b6000806040838503121562002c815762002c8062002b2f565b5b600062002c918582860162002c50565b925050602062002ca48582860162002c50565b9150509250929050565b60006020828403121562002cc75762002cc662002b2f565b5b600062002cd78482850162002c50565b91505092915050565b62002ceb8162002c22565b82525050565b6000819050919050565b62002d068162002cf1565b82525050565b6000819050919050565b62002d218162002d0c565b82525050565b600060808201905062002d3e600083018762002ce0565b62002d4d602083018662002cfb565b62002d5c604083018562002d16565b62002d6b606083018462002cfb565b95945050505050565b62002d7f8162002d0c565b811462002d8b57600080fd5b50565b60008135905062002d9f8162002d74565b92915050565b60006020828403121562002dbe5762002dbd62002b2f565b5b600062002dce8482850162002d8e565b91505092915050565b600060208201905062002dee600083018462002d16565b92915050565b6000806040838503121562002e0e5762002e0d62002b2f565b5b600062002e1e8582860162002d8e565b925050602062002e318582860162002c50565b9150509250929050565b60007fffffffffffff000000000000000000000000000000000000000000000000000082169050919050565b62002e728162002e3b565b811462002e7e57600080fd5b50565b60008135905062002e928162002e67565b92915050565b60006020828403121562002eb15762002eb062002b2f565b5b600062002ec18482850162002e81565b91505092915050565b62002ed58162002cf1565b811462002ee157600080fd5b50565b60008135905062002ef58162002eca565b92915050565b600080600080600060a0868803121562002f1a5762002f1962002b2f565b5b600062002f2a8882890162002c50565b955050602062002f3d8882890162002c50565b945050604062002f508882890162002ee4565b935050606062002f638882890162002d8e565b925050608062002f768882890162002ee4565b9150509295509295909350565b600080fd5b600080fd5b6000601f19601f8301169050919050565b7f4e487b7100000000000000000000000000000000000000000000000000000000600052604160045260246000fd5b62002fd88262002f8d565b810181811067ffffffffffffffff8211171562002ffa5762002ff962002f9e565b5b80604052505050565b60006200300f62002b25565b90506200301d828262002fcd565b919050565b600067ffffffffffffffff82111562003040576200303f62002f9e565b5b6200304b8262002f8d565b9050602081019050919050565b82818337600083830152505050565b60006200307e620030788462003022565b62003003565b9050828152602081018484840111156200309d576200309c62002f88565b5b620030aa84828562003058565b509392505050565b600082601f830112620030ca57620030c962002f83565b5b8135620030dc84826020860162003067565b91505092915050565b60008060008060008060c0878903121562003105576200310462002b2f565b5b60006200311589828a0162002c50565b965050602087013567ffffffffffffffff81111562003139576200313862002b34565b5b6200314789828a01620030b2565b955050604087013567ffffffffffffffff8111156200316b576200316a62002b34565b5b6200317989828a01620030b2565b945050606087013567ffffffffffffffff8111156200319d576200319c62002b34565b5b620031ab89828a01620030b2565b935050608087013567ffffffffffffffff811115620031cf57620031ce62002b34565b5b620031dd89828a01620030b2565b92505060a087013567ffffffffffffffff81111562003201576200320062002b34565b5b6200320f89828a01620030b2565b9150509295509295509295565b6000806000806080858703121562003239576200323862002b2f565b5b6000620032498782880162002e81565b94505060206200325c8782880162002c50565b93505060406200326f8782880162002d8e565b9250506060620032828782880162002ee4565b91505092959194509250565b600081519050919050565b600082825260208201905092915050565b60005b83811015620032ca578082015181840152602081019050620032ad565b83811115620032da576000848401525b50505050565b6000620032ed826200328e565b620032f9818562003299565b93506200330b818560208601620032aa565b620033168162002f8d565b840191505092915050565b600060a0830160008301518482036000860152620033408282620032e0565b915050602083015184820360208601526200335c8282620032e0565b91505060408301518482036040860152620033788282620032e0565b91505060608301518482036060860152620033948282620032e0565b91505060808301518482036080860152620033b08282620032e0565b9150508091505092915050565b60006020820190508181036000830152620033d9818462003321565b905092915050565b600082825260208201905092915050565b7f5265737472696374656420746f2061646d696e732e0000000000000000000000600082015250565b60006200342a601583620033e1565b91506200343782620033f2565b602082019050919050565b600060208201905081810360008301526200345d816200341b565b9050919050565b7f4e487b7100000000000000000000000000000000000000000000000000000000600052602260045260246000fd5b60006002820490506001821680620034ac57607f821691505b60208210811415620034c357620034c262003464565b5b50919050565b7f416363657373436f6e74726f6c3a2063616e206f6e6c792072656e6f756e636560008201527f20726f6c657320666f722073656c660000000000000000000000000000000000602082015250565b600062003527602f83620033e1565b91506200353482620034c9565b604082019050919050565b600060208201905081810360008301526200355a8162003518565b9050919050565b600081905092915050565b7f416363657373436f6e74726f6c3a206163636f756e7420000000000000000000600082015250565b6000620035a460178362003561565b9150620035b1826200356c565b601782019050919050565b6000620035c9826200328e565b620035d5818562003561565b9350620035e7818560208601620032aa565b80840191505092915050565b7f206973206d697373696e6720726f6c6520000000000000000000000000000000600082015250565b60006200362b60118362003561565b91506200363882620035f3565b601182019050919050565b6000620036508262003595565b91506200365e8285620035bc565b91506200366b826200361c565b9150620036798284620035bc565b91508190509392505050565b600062003692826200328e565b6200369e8185620033e1565b9350620036b0818560208601620032aa565b620036bb8162002f8d565b840191505092915050565b60006020820190508181036000830152620036e2818462003685565b905092915050565b7f4e487b7100000000000000000000000000000000000000000000000000000000600052601160045260246000fd5b6000620037268262002cf1565b9150620037338362002cf1565b9250817fffffffffffffffffffffffffffffffffffffffffffffffffffffffffffffffff04831182151516156200376f576200376e620036ea565b5b828202905092915050565b6000620037878262002cf1565b9150620037948362002cf1565b9250827fffffffffffffffffffffffffffffffffffffffffffffffffffffffffffffffff03821115620037cc57620037cb620036ea565b5b828201905092915050565b7f4e487b7100000000000000000000000000000000000000000000000000000000600052603260045260246000fd5b6000620038138262002cf1565b915060008214156200382a5762003829620036ea565b5b600182039050919050565b7f537472696e67733a20686578206c656e67746820696e73756666696369656e74600082015250565b60006200386d602083620033e1565b91506200387a8262003835565b602082019050919050565b60006020820190508181036000830152620038a0816200385e565b905091905056fe60806040523480156200001157600080fd5b50620000276000801b336200002d60201b60201c565b620001a6565b6200003f82826200004360201b60201c565b5050565b6200005582826200013460201b60201c565b6200013057600160008084815260200190815260200160002060000160008373ffffffffffffffffffffffffffffffffffffffff1673ffffffffffffffffffffffffffffffffffffffff16815260200190815260200160002060006101000a81548160ff021916908315150217905550620000d56200019e60201b60201c565b73ffffffffffffffffffffffffffffffffffffffff168173ffffffffffffffffffffffffffffffffffffffff16837f2f8788117e7eff1d82e926ec794901d17c78024a50270940304540a733656f0d60405160405180910390a45b5050565b600080600084815260200190815260200160002060000160008373ffffffffffffffffffffffffffffffffffffffff1673ffffffffffffffffffffffffffffffffffffffff16815260200190815260200160002060009054906101000a900460ff16905092915050565b600033905090565b6117e580620001b66000396000f3fe608060405234801561001057600080fd5b50600436106101165760003560e01c806391b465c8116100a2578063bf9fc20211610071578063bf9fc202146102ee578063d547741f1461031e578063f0bd87cc1461033a578063f394397014610358578063fa0b5e551461037657610116565b806391b465c81461026857806391d1485414610284578063a217fddf146102b4578063b4af12bf146102d257610116565b80632f2ff15d116100e95780632f2ff15d146101c757806336568abe146101e35780636386c1c7146101ff57806370480275146102305780638f2839701461024c57610116565b806301ffc9a71461011b57806308ccf2191461014b578063248a9ca31461016757806324d7806c14610197575b600080fd5b61013560048036038101906101309190610f9c565b610392565b6040516101429190610fe4565b60405180910390f35b6101656004803603810190610160919061105d565b61040c565b005b610181600480360381019061017c91906110c0565b610481565b60405161018e91906110fc565b60405180910390f35b6101b160048036038101906101ac919061105d565b6104a0565b6040516101be9190610fe4565b60405180910390f35b6101e160048036038101906101dc9190611117565b6104b6565b005b6101fd60048036038101906101f89190611117565b6104df565b005b6102196004803603810190610214919061105d565b610562565b6040516102279291906111e7565b60405180910390f35b61024a6004803603810190610245919061105d565b61060c565b005b6102666004803603810190610261919061105d565b610664565b005b610282600480360381019061027d919061124e565b6106bc565b005b61029e60048036038101906102999190611117565b6106c0565b6040516102ab9190610fe4565b60405180910390f35b6102bc61072a565b6040516102c991906110fc565b60405180910390f35b6102ec60048036038101906102e7919061105d565b610731565b005b6103086004803603810190610303919061105d565b6107a6565b604051610315919061128e565b60405180910390f35b61033860048036038101906103339190611117565b6107ff565b005b610342610828565b60405161034f91906110fc565b60405180910390f35b61036061084c565b60405161036d91906110fc565b60405180910390f35b610390600480360381019061038b91906112d5565b610870565b005b60007f7965db0b000000000000000000000000000000000000000000000000000000007bffffffffffffffffffffffffffffffffffffffffffffffffffffffff1916827bffffffffffffffffffffffffffffffffffffffffffffffffffffffff19161480610405575061040482610a07565b5b9050919050565b610415336104a0565b610454576040517f08c379a000000000000000000000000000000000000000000000000000000000815260040161044b90611372565b60405180910390fd5b61047e7ff309ffc42715a0bfccdfa0c4cac305505f15ab9b9262b7451ceea96c0cc35187826104b6565b50565b6000806000838152602001908152602001600020600101549050919050565b60006104af6000801b836106c0565b9050919050565b6104bf82610481565b6104d0816104cb610a71565b610a79565b6104da8383610b16565b505050565b6104e7610a71565b73ffffffffffffffffffffffffffffffffffffffff168173ffffffffffffffffffffffffffffffffffffffff1614610554576040517f08c379a000000000000000000000000000000000000000000000000000000000815260040161054b90611404565b60405180910390fd5b61055e8282610bf6565b5050565b6000806000600360008573ffffffffffffffffffffffffffffffffffffffff1673ffffffffffffffffffffffffffffffffffffffff168152602001908152602001600020604051806040016040529081600082015481526020016001820160009054906101000a900460ff1660028111156105e0576105df611157565b5b60028111156105f2576105f1611157565b5b815250509050806020015181600001519250925050915091565b610615336104a0565b610654576040517f08c379a000000000000000000000000000000000000000000000000000000000815260040161064b90611372565b60405180910390fd5b6106616000801b826104b6565b50565b61066d336104a0565b6106ac576040517f08c379a00000000000000000000000000000000000000000000000000000000081526004016106a390611372565b60405180910390fd5b6106b96000801b826104b6565b50565b5050565b600080600084815260200190815260200160002060000160008373ffffffffffffffffffffffffffffffffffffffff1673ffffffffffffffffffffffffffffffffffffffff16815260200190815260200160002060009054906101000a900460ff16905092915050565b6000801b81565b61073a336104a0565b610779576040517f08c379a000000000000000000000000000000000000000000000000000000000815260040161077090611372565b60405180910390fd5b6107a37f85faced7bde13e1a7dad704b895f006e704f207617d68166b31ba2d79624862d826104b6565b50565b6000600360008373ffffffffffffffffffffffffffffffffffffffff1673ffffffffffffffffffffffffffffffffffffffff16815260200190815260200160002060010160009054906101000a900460ff169050919050565b61080882610481565b61081981610814610a71565b610a79565b6108238383610bf6565b505050565b7f85faced7bde13e1a7dad704b895f006e704f207617d68166b31ba2d79624862d81565b7ff309ffc42715a0bfccdfa0c4cac305505f15ab9b9262b7451ceea96c0cc3518781565b610879336104a0565b6108b8576040517f08c379a00000000000000000000000000000000000000000000000000000000081526004016108af90611372565b60405180910390fd5b6108c0610f13565b428160000181815250506000821415610909576000816020019060028111156108ec576108eb611157565b5b90816002811115610900576108ff611157565b5b81525050610985565b60018214156109485760018160200190600281111561092b5761092a611157565b5b9081600281111561093f5761093e611157565b5b81525050610984565b60028214156109835760028160200190600281111561096a57610969611157565b5b9081600281111561097e5761097d611157565b5b815250505b5b5b80600360008573ffffffffffffffffffffffffffffffffffffffff1673ffffffffffffffffffffffffffffffffffffffff1681526020019081526020016000206000820151816000015560208201518160010160006101000a81548160ff021916908360028111156109fa576109f9611157565b5b0217905550905050505050565b60007f01ffc9a7000000000000000000000000000000000000000000000000000000007bffffffffffffffffffffffffffffffffffffffffffffffffffffffff1916827bffffffffffffffffffffffffffffffffffffffffffffffffffffffff1916149050919050565b600033905090565b610a8382826106c0565b610b1257610aa88173ffffffffffffffffffffffffffffffffffffffff166014610cd7565b610ab68360001c6020610cd7565b604051602001610ac7929190611536565b6040516020818303038152906040526040517f08c379a0000000000000000000000000000000000000000000000000000000008152600401610b0991906115ba565b60405180910390fd5b5050565b610b2082826106c0565b610bf257600160008084815260200190815260200160002060000160008373ffffffffffffffffffffffffffffffffffffffff1673ffffffffffffffffffffffffffffffffffffffff16815260200190815260200160002060006101000a81548160ff021916908315150217905550610b97610a71565b73ffffffffffffffffffffffffffffffffffffffff168173ffffffffffffffffffffffffffffffffffffffff16837f2f8788117e7eff1d82e926ec794901d17c78024a50270940304540a733656f0d60405160405180910390a45b5050565b610c0082826106c0565b15610cd357600080600084815260200190815260200160002060000160008373ffffffffffffffffffffffffffffffffffffffff1673ffffffffffffffffffffffffffffffffffffffff16815260200190815260200160002060006101000a81548160ff021916908315150217905550610c78610a71565b73ffffffffffffffffffffffffffffffffffffffff168173ffffffffffffffffffffffffffffffffffffffff16837ff6391f5c32d9c69d2a47ea670b442974b53935d1edc7fd64eb21e047a839171b60405160405180910390a45b5050565b606060006002836002610cea919061160b565b610cf49190611665565b67ffffffffffffffff811115610d0d57610d0c6116bb565b5b6040519080825280601f01601f191660200182016040528015610d3f5781602001600182028036833780820191505090505b5090507f300000000000000000000000000000000000000000000000000000000000000081600081518110610d7757610d766116ea565b5b60200101907effffffffffffffffffffffffffffffffffffffffffffffffffffffffffffff1916908160001a9053507f780000000000000000000000000000000000000000000000000000000000000081600181518110610ddb57610dda6116ea565b5b60200101907effffffffffffffffffffffffffffffffffffffffffffffffffffffffffffff1916908160001a90535060006001846002610e1b919061160b565b610e259190611665565b90505b6001811115610ec5577f3031323334353637383961626364656600000000000000000000000000000000600f861660108110610e6757610e666116ea565b5b1a60f81b828281518110610e7e57610e7d6116ea565b5b60200101907effffffffffffffffffffffffffffffffffffffffffffffffffffffffffffff1916908160001a905350600485901c945080610ebe90611719565b9050610e28565b5060008414610f09576040517f08c379a0000000000000000000000000000000000000000000000000000000008152600401610f009061178f565b60405180910390fd5b8091505092915050565b60405180604001604052806000815260200160006002811115610f3957610f38611157565b5b81525090565b600080fd5b60007fffffffff0000000000000000000000000000000000000000000000000000000082169050919050565b610f7981610f44565b8114610f8457600080fd5b50565b600081359050610f9681610f70565b92915050565b600060208284031215610fb257610fb1610f3f565b5b6000610fc084828501610f87565b91505092915050565b60008115159050919050565b610fde81610fc9565b82525050565b6000602082019050610ff96000830184610fd5565b92915050565b600073ffffffffffffffffffffffffffffffffffffffff82169050919050565b600061102a82610fff565b9050919050565b61103a8161101f565b811461104557600080fd5b50565b60008135905061105781611031565b92915050565b60006020828403121561107357611072610f3f565b5b600061108184828501611048565b91505092915050565b6000819050919050565b61109d8161108a565b81146110a857600080fd5b50565b6000813590506110ba81611094565b92915050565b6000602082840312156110d6576110d5610f3f565b5b60006110e4848285016110ab565b91505092915050565b6110f68161108a565b82525050565b600060208201905061111160008301846110ed565b92915050565b6000806040838503121561112e5761112d610f3f565b5b600061113c858286016110ab565b925050602061114d85828601611048565b9150509250929050565b7f4e487b7100000000000000000000000000000000000000000000000000000000600052602160045260246000fd5b6003811061119757611196611157565b5b50565b60008190506111a882611186565b919050565b60006111b88261119a565b9050919050565b6111c8816111ad565b82525050565b6000819050919050565b6111e1816111ce565b82525050565b60006040820190506111fc60008301856111bf565b61120960208301846111d8565b9392505050565b600061121b8261101f565b9050919050565b61122b81611210565b811461123657600080fd5b50565b60008135905061124881611222565b92915050565b6000806040838503121561126557611264610f3f565b5b600061127385828601611048565b925050602061128485828601611239565b9150509250929050565b60006020820190506112a360008301846111bf565b92915050565b6112b2816111ce565b81146112bd57600080fd5b50565b6000813590506112cf816112a9565b92915050565b600080604083850312156112ec576112eb610f3f565b5b60006112fa85828601611048565b925050602061130b858286016112c0565b9150509250929050565b600082825260208201905092915050565b7f5265737472696374656420746f2061646d696e732e0000000000000000000000600082015250565b600061135c601583611315565b915061136782611326565b602082019050919050565b6000602082019050818103600083015261138b8161134f565b9050919050565b7f416363657373436f6e74726f6c3a2063616e206f6e6c792072656e6f756e636560008201527f20726f6c657320666f722073656c660000000000000000000000000000000000602082015250565b60006113ee602f83611315565b91506113f982611392565b604082019050919050565b6000602082019050818103600083015261141d816113e1565b9050919050565b600081905092915050565b7f416363657373436f6e74726f6c3a206163636f756e7420000000000000000000600082015250565b6000611465601783611424565b91506114708261142f565b601782019050919050565b600081519050919050565b60005b838110156114a4578082015181840152602081019050611489565b838111156114b3576000848401525b50505050565b60006114c48261147b565b6114ce8185611424565b93506114de818560208601611486565b80840191505092915050565b7f206973206d697373696e6720726f6c6520000000000000000000000000000000600082015250565b6000611520601183611424565b915061152b826114ea565b601182019050919050565b600061154182611458565b915061154d82856114b9565b915061155882611513565b915061156482846114b9565b91508190509392505050565b6000601f19601f8301169050919050565b600061158c8261147b565b6115968185611315565b93506115a6818560208601611486565b6115af81611570565b840191505092915050565b600060208201905081810360008301526115d48184611581565b905092915050565b7f4e487b7100000000000000000000000000000000000000000000000000000000600052601160045260246000fd5b6000611616826111ce565b9150611621836111ce565b9250817fffffffffffffffffffffffffffffffffffffffffffffffffffffffffffffffff048311821515161561165a576116596115dc565b5b828202905092915050565b6000611670826111ce565b915061167b836111ce565b9250827fffffffffffffffffffffffffffffffffffffffffffffffffffffffffffffffff038211156116b0576116af6115dc565b5b828201905092915050565b7f4e487b7100000000000000000000000000000000000000000000000000000000600052604160045260246000fd5b7f4e487b7100000000000000000000000000000000000000000000000000000000600052603260045260246000fd5b6000611724826111ce565b91506000821415611738576117376115dc565b5b600182039050919050565b7f537472696e67733a20686578206c656e67746820696e73756666696369656e74600082015250565b6000611779602083611315565b915061178482611743565b602082019050919050565b600060208201905081810360008301526117a88161176c565b905091905056fea2646970667358221220f132be40d94ca0b5c302cb0c6ac0cfcbae86207b9e960625726b20388d0ad34164736f6c634300080c0033a2646970667358221220f6ec9201d91dad28068eab0a42466863d19ebc1ecf0d7db9ebfcdfba8c74b6ff64736f6c634300080c0033",
  "immutableReferences": {},
  "source": "// SPDX-License-Identifier: MIT\npragma solidity >=0.4.22 <0.9.0;\nimport './../Roles.sol';\nimport './ProfileManager.sol';\n\n\ncontract FarmManager is Roles{\n\n    uint farmCount;\n    uint globalAnimalCount;\n\n    ProfileManager PM;\n\n    struct FarmData\n    {\n    address ownerId;\n    uint animalCount;\n    bytes32 farmHash;\n    uint timestamp;\n    Farm farmInfo;\n    }\n\n     struct Farm{\n    string  originFarmName;     // Farmer Name\n    string  originFarmInformation;  // Farmer Information\n    string  originFarmLatitude;     // Farm Latitude\n    string  originFarmLongitude;    // Farm Longitude\n    string originFarmerName;        // farmer name\n  }\n  \n    struct AnimalData\n    {\n        address currentFarm;\n        bytes32 animalHash;\n        uint timestamp;\n    }\n\n    mapping(address=>FarmData) farmMap;\n    mapping(bytes6=>AnimalData) animalMap;\n\n    function registerFarm(address _farmId,address _ownerId) public \n    onlyAdmin() \n   // farmExists()\n    {\n        FarmData memory farm;\n        farm.ownerId=_ownerId;\n        farmMap[_farmId]=farm;\n      /*  farm.animalCount=_animalCount;\n        farm.farmHash=_farmHash;\n        farm.timestamp=_timestamp;\n        farmMap[_farmId]=farm;  */\n  }\n\n  function registerFarmInfo(address _farmId,string memory _originFarmName,string memory _originFarmInfo,string memory _originFarmLat,string memory _originFarmLong,string memory _originFarmerName) public\n  {\n      farmMap[_farmId].farmInfo.originFarmerName=_originFarmerName;\n      farmMap[_farmId].farmInfo.originFarmInformation=_originFarmInfo;\n      farmMap[_farmId].farmInfo.originFarmLatitude=_originFarmLat;\n      farmMap[_farmId].farmInfo.originFarmLongitude=_originFarmLong;\n      farmMap[_farmId].farmInfo.originFarmName=_originFarmName; \n  }\n\n  function getFarmCustomerInfo(address _farmId) public view returns(Farm memory)\n  {\n      Farm memory farm= farmMap[_farmId].farmInfo;\n      return farm;\n  }\n\n \n   function getFarmInfo(address _farmId) view public onlyFarmer() checkFarmerAccess() returns(address ownerId,uint animalCount,bytes32 farmHash,uint timestamp) \n    {\n        FarmData memory farmData=farmMap[_farmId];\n        return(farmData.ownerId,farmData.animalCount,farmData.farmHash,farmData.timestamp);\n    }\n\n\n    function updateFarmInfo(address _farmId,address _ownerId,uint _animalCount,bytes32 _farmHash,uint _timestamp) public onlyFarmer() checkFarmerAccess() returns(address ownerId,uint animalCount,bytes32 farmHash,uint timestamp)\n    {\n        farmMap[_farmId].ownerId=_ownerId;\n        farmMap[_farmId].animalCount=_animalCount;\n        farmMap[_farmId].farmHash=_farmHash;\n        farmMap[_farmId].timestamp=_timestamp;\n        FarmData memory farmData=farmMap[_farmId];\n        return(farmData.ownerId,farmData.animalCount,farmData.farmHash,farmData.timestamp);\n    }\n\n    function checkOwnership( address _ownerId,address _farmId) view public returns(bool)\n    {\n        FarmData memory farmData=farmMap[_farmId];\n        return farmData.ownerId==_ownerId;\n    }\n\n    function farmExists(address _farmId) view public returns(bool)\n    {\n         if(farmMap[_farmId].ownerId!=address(0x0))\n         return true;\n         else \n         return false;\n    }\n\n    function registerAnimal(bytes6 _animalId,address _currentFarm,bytes32 _animalHash, uint _timestamp) public\n    {\n        if(animalMap[_animalId].animalHash>0)\n        {\n            updateAnimal(_animalId,_currentFarm,_animalHash,_timestamp);\n        }\n        else\n        {\n\n        AnimalData memory animal;\n        animal.currentFarm=_currentFarm;\n        animal.animalHash=_animalHash;\n        animal.timestamp=_timestamp;\n        animalMap[_animalId]=animal;\n        }\n       \n    }\n\n    function updateAnimal(bytes6 _animalId,address _currentFarm,bytes32 _animalHash, uint _timestamp) public\n    {\n        AnimalData memory animal=animalMap[_animalId];\n        animal.currentFarm=_currentFarm;\n        animal.animalHash=_animalHash;\n        animal.timestamp=_timestamp;\n        animalMap[_animalId]=animal;\n\n    }\n\n    function getAnimalHash(bytes6 _animalId) view public returns(bytes32){\n        AnimalData memory animal=animalMap[_animalId];\n        return animal.animalHash;\n\n    }\n\n    function animalExists(bytes6 animalId) view public returns(bool)\n    {\n        if(animalMap[animalId].animalHash>0)\n        return true;\n        else return false;\n    }\n\n\n    function setProfileManager() public\n    onlyAdmin()\n    {\n        PM=new ProfileManager();\n    }\n\n\n    modifier onlyFarmer()\n    {\n        //require(msg.sender==PM.userMap[]);\n        _;\n    }\n\n\n    modifier checkFarmerAccess()\n    {\n        //require(msg.sender==PM.userMap[]);\n        _;\n    }\n    \n\n    \n\n\n\n}\n",
  "sourcePath": "/home/crawzer/blockchain/front/my-app/contracts/contracts/BeefCattleSupplyChain/FarmManager.sol",
  "compiler": {
    "name": "solc",
    "version": "0.8.12+commit.f00d7308.Emscripten.clang"
  },
  "schemaVersion": "3.4.5",
  "updatedAt": "2022-05-03T23:58:10.807Z",
  "networkType": "ethereum",
  "devdoc": {
    "kind": "dev",
    "methods": {
      "getRoleAdmin(bytes32)": {
        "details": "Returns the admin role that controls `role`. See {grantRole} and {revokeRole}. To change a role's admin, use {_setRoleAdmin}."
      },
      "grantRole(bytes32,address)": {
        "details": "Grants `role` to `account`. If `account` had not been already granted `role`, emits a {RoleGranted} event. Requirements: - the caller must have ``role``'s admin role."
      },
      "hasRole(bytes32,address)": {
        "details": "Returns `true` if `account` has been granted `role`."
      },
      "renounceRole(bytes32,address)": {
        "details": "Revokes `role` from the calling account. Roles are often managed via {grantRole} and {revokeRole}: this function's purpose is to provide a mechanism for accounts to lose their privileges if they are compromised (such as when a trusted device is misplaced). If the calling account had been revoked `role`, emits a {RoleRevoked} event. Requirements: - the caller must be `account`."
      },
      "revokeRole(bytes32,address)": {
        "details": "Revokes `role` from `account`. If `account` had been granted `role`, emits a {RoleRevoked} event. Requirements: - the caller must have ``role``'s admin role."
      },
      "supportsInterface(bytes4)": {
        "details": "See {IERC165-supportsInterface}."
      }
    },
    "version": 1
  },
  "userdoc": {
    "kind": "user",
    "methods": {},
    "version": 1
  }
}