{
  "contractName": "ProfileManager",
  "abi": [
    {
      "inputs": [],
      "stateMutability": "nonpayable",
      "type": "constructor"
    },
    {
      "anonymous": false,
      "inputs": [
        {
          "indexed": true,
          "internalType": "bytes32",
          "name": "role",
          "type": "bytes32"
        },
        {
          "indexed": true,
          "internalType": "bytes32",
          "name": "previousAdminRole",
          "type": "bytes32"
        },
        {
          "indexed": true,
          "internalType": "bytes32",
          "name": "newAdminRole",
          "type": "bytes32"
        }
      ],
      "name": "RoleAdminChanged",
      "type": "event"
    },
    {
      "anonymous": false,
      "inputs": [
        {
          "indexed": true,
          "internalType": "bytes32",
          "name": "role",
          "type": "bytes32"
        },
        {
          "indexed": true,
          "internalType": "address",
          "name": "account",
          "type": "address"
        },
        {
          "indexed": true,
          "internalType": "address",
          "name": "sender",
          "type": "address"
        }
      ],
      "name": "RoleGranted",
      "type": "event"
    },
    {
      "anonymous": false,
      "inputs": [
        {
          "indexed": true,
          "internalType": "bytes32",
          "name": "role",
          "type": "bytes32"
        },
        {
          "indexed": true,
          "internalType": "address",
          "name": "account",
          "type": "address"
        },
        {
          "indexed": true,
          "internalType": "address",
          "name": "sender",
          "type": "address"
        }
      ],
      "name": "RoleRevoked",
      "type": "event"
    },
    {
      "inputs": [],
      "name": "DEFAULT_ADMIN_ROLE",
      "outputs": [
        {
          "internalType": "bytes32",
          "name": "",
          "type": "bytes32"
        }
      ],
      "stateMutability": "view",
      "type": "function",
      "constant": true
    },
    {
      "inputs": [],
      "name": "DISTRIBUTOR_ROLE",
      "outputs": [
        {
          "internalType": "bytes32",
          "name": "",
          "type": "bytes32"
        }
      ],
      "stateMutability": "view",
      "type": "function",
      "constant": true
    },
    {
      "inputs": [],
      "name": "FARMER_ROLE",
      "outputs": [
        {
          "internalType": "bytes32",
          "name": "",
          "type": "bytes32"
        }
      ],
      "stateMutability": "view",
      "type": "function",
      "constant": true
    },
    {
      "inputs": [
        {
          "internalType": "address",
          "name": "account",
          "type": "address"
        }
      ],
      "name": "addAdmin",
      "outputs": [],
      "stateMutability": "nonpayable",
      "type": "function"
    },
    {
      "inputs": [
        {
          "internalType": "address",
          "name": "account",
          "type": "address"
        }
      ],
      "name": "changeAdmin",
      "outputs": [],
      "stateMutability": "nonpayable",
      "type": "function"
    },
    {
      "inputs": [
        {
          "internalType": "bytes32",
          "name": "role",
          "type": "bytes32"
        }
      ],
      "name": "getRoleAdmin",
      "outputs": [
        {
          "internalType": "bytes32",
          "name": "",
          "type": "bytes32"
        }
      ],
      "stateMutability": "view",
      "type": "function",
      "constant": true
    },
    {
      "inputs": [
        {
          "internalType": "address",
          "name": "account",
          "type": "address"
        }
      ],
      "name": "giveAccessForDistributor",
      "outputs": [],
      "stateMutability": "nonpayable",
      "type": "function"
    },
    {
      "inputs": [
        {
          "internalType": "address",
          "name": "account",
          "type": "address"
        }
      ],
      "name": "giveAccessForFarmer",
      "outputs": [],
      "stateMutability": "nonpayable",
      "type": "function"
    },
    {
      "inputs": [
        {
          "internalType": "bytes32",
          "name": "role",
          "type": "bytes32"
        },
        {
          "internalType": "address",
          "name": "account",
          "type": "address"
        }
      ],
      "name": "grantRole",
      "outputs": [],
      "stateMutability": "nonpayable",
      "type": "function"
    },
    {
      "inputs": [
        {
          "internalType": "bytes32",
          "name": "role",
          "type": "bytes32"
        },
        {
          "internalType": "address",
          "name": "account",
          "type": "address"
        }
      ],
      "name": "hasRole",
      "outputs": [
        {
          "internalType": "bool",
          "name": "",
          "type": "bool"
        }
      ],
      "stateMutability": "view",
      "type": "function",
      "constant": true
    },
    {
      "inputs": [
        {
          "internalType": "address",
          "name": "account",
          "type": "address"
        }
      ],
      "name": "isAdmin",
      "outputs": [
        {
          "internalType": "bool",
          "name": "",
          "type": "bool"
        }
      ],
      "stateMutability": "view",
      "type": "function",
      "constant": true
    },
    {
      "inputs": [
        {
          "internalType": "bytes32",
          "name": "role",
          "type": "bytes32"
        },
        {
          "internalType": "address",
          "name": "account",
          "type": "address"
        }
      ],
      "name": "renounceRole",
      "outputs": [],
      "stateMutability": "nonpayable",
      "type": "function"
    },
    {
      "inputs": [
        {
          "internalType": "bytes32",
          "name": "role",
          "type": "bytes32"
        },
        {
          "internalType": "address",
          "name": "account",
          "type": "address"
        }
      ],
      "name": "revokeRole",
      "outputs": [],
      "stateMutability": "nonpayable",
      "type": "function"
    },
    {
      "inputs": [
        {
          "internalType": "bytes4",
          "name": "interfaceId",
          "type": "bytes4"
        }
      ],
      "name": "supportsInterface",
      "outputs": [
        {
          "internalType": "bool",
          "name": "",
          "type": "bool"
        }
      ],
      "stateMutability": "view",
      "type": "function",
      "constant": true
    },
    {
      "inputs": [
        {
          "internalType": "address",
          "name": "_userId",
          "type": "address"
        },
        {
          "internalType": "uint256",
          "name": "_accessLevel",
          "type": "uint256"
        }
      ],
      "name": "registerUser",
      "outputs": [],
      "stateMutability": "nonpayable",
      "type": "function"
    },
    {
      "inputs": [
        {
          "internalType": "address",
          "name": "_userId",
          "type": "address"
        }
      ],
      "name": "getUserInfo",
      "outputs": [
        {
          "internalType": "enum ProfileManager.AccessLevel",
          "name": "",
          "type": "uint8"
        },
        {
          "internalType": "uint256",
          "name": "",
          "type": "uint256"
        }
      ],
      "stateMutability": "view",
      "type": "function",
      "constant": true
    },
    {
      "inputs": [
        {
          "internalType": "address",
          "name": "_userId",
          "type": "address"
        },
        {
          "internalType": "contract AccessControl",
          "name": "_accessLevel",
          "type": "address"
        }
      ],
      "name": "updateUser",
      "outputs": [],
      "stateMutability": "nonpayable",
      "type": "function"
    },
    {
      "inputs": [
        {
          "internalType": "address",
          "name": "_userId",
          "type": "address"
        }
      ],
      "name": "checkAccessLevel",
      "outputs": [
        {
          "internalType": "enum ProfileManager.AccessLevel",
          "name": "",
          "type": "uint8"
        }
      ],
      "stateMutability": "view",
      "type": "function",
      "constant": true
    }
  ],
  "bytecode": "0x60806040523480156200001157600080fd5b50620000276000801b336200002d60201b60201c565b620001a6565b6200003f82826200004360201b60201c565b5050565b6200005582826200013460201b60201c565b6200013057600160008084815260200190815260200160002060000160008373ffffffffffffffffffffffffffffffffffffffff1673ffffffffffffffffffffffffffffffffffffffff16815260200190815260200160002060006101000a81548160ff021916908315150217905550620000d56200019e60201b60201c565b73ffffffffffffffffffffffffffffffffffffffff168173ffffffffffffffffffffffffffffffffffffffff16837f2f8788117e7eff1d82e926ec794901d17c78024a50270940304540a733656f0d60405160405180910390a45b5050565b600080600084815260200190815260200160002060000160008373ffffffffffffffffffffffffffffffffffffffff1673ffffffffffffffffffffffffffffffffffffffff16815260200190815260200160002060009054906101000a900460ff16905092915050565b600033905090565b6117e580620001b66000396000f3fe608060405234801561001057600080fd5b50600436106101165760003560e01c806391b465c8116100a2578063bf9fc20211610071578063bf9fc202146102ee578063d547741f1461031e578063f0bd87cc1461033a578063f394397014610358578063fa0b5e551461037657610116565b806391b465c81461026857806391d1485414610284578063a217fddf146102b4578063b4af12bf146102d257610116565b80632f2ff15d116100e95780632f2ff15d146101c757806336568abe146101e35780636386c1c7146101ff57806370480275146102305780638f2839701461024c57610116565b806301ffc9a71461011b57806308ccf2191461014b578063248a9ca31461016757806324d7806c14610197575b600080fd5b61013560048036038101906101309190610f9c565b610392565b6040516101429190610fe4565b60405180910390f35b6101656004803603810190610160919061105d565b61040c565b005b610181600480360381019061017c91906110c0565b610481565b60405161018e91906110fc565b60405180910390f35b6101b160048036038101906101ac919061105d565b6104a0565b6040516101be9190610fe4565b60405180910390f35b6101e160048036038101906101dc9190611117565b6104b6565b005b6101fd60048036038101906101f89190611117565b6104df565b005b6102196004803603810190610214919061105d565b610562565b6040516102279291906111e7565b60405180910390f35b61024a6004803603810190610245919061105d565b61060c565b005b6102666004803603810190610261919061105d565b610664565b005b610282600480360381019061027d919061124e565b6106bc565b005b61029e60048036038101906102999190611117565b6106c0565b6040516102ab9190610fe4565b60405180910390f35b6102bc61072a565b6040516102c991906110fc565b60405180910390f35b6102ec60048036038101906102e7919061105d565b610731565b005b6103086004803603810190610303919061105d565b6107a6565b604051610315919061128e565b60405180910390f35b61033860048036038101906103339190611117565b6107ff565b005b610342610828565b60405161034f91906110fc565b60405180910390f35b61036061084c565b60405161036d91906110fc565b60405180910390f35b610390600480360381019061038b91906112d5565b610870565b005b60007f7965db0b000000000000000000000000000000000000000000000000000000007bffffffffffffffffffffffffffffffffffffffffffffffffffffffff1916827bffffffffffffffffffffffffffffffffffffffffffffffffffffffff19161480610405575061040482610a07565b5b9050919050565b610415336104a0565b610454576040517f08c379a000000000000000000000000000000000000000000000000000000000815260040161044b90611372565b60405180910390fd5b61047e7ff309ffc42715a0bfccdfa0c4cac305505f15ab9b9262b7451ceea96c0cc35187826104b6565b50565b6000806000838152602001908152602001600020600101549050919050565b60006104af6000801b836106c0565b9050919050565b6104bf82610481565b6104d0816104cb610a71565b610a79565b6104da8383610b16565b505050565b6104e7610a71565b73ffffffffffffffffffffffffffffffffffffffff168173ffffffffffffffffffffffffffffffffffffffff1614610554576040517f08c379a000000000000000000000000000000000000000000000000000000000815260040161054b90611404565b60405180910390fd5b61055e8282610bf6565b5050565b6000806000600360008573ffffffffffffffffffffffffffffffffffffffff1673ffffffffffffffffffffffffffffffffffffffff168152602001908152602001600020604051806040016040529081600082015481526020016001820160009054906101000a900460ff1660028111156105e0576105df611157565b5b60028111156105f2576105f1611157565b5b815250509050806020015181600001519250925050915091565b610615336104a0565b610654576040517f08c379a000000000000000000000000000000000000000000000000000000000815260040161064b90611372565b60405180910390fd5b6106616000801b826104b6565b50565b61066d336104a0565b6106ac576040517f08c379a00000000000000000000000000000000000000000000000000000000081526004016106a390611372565b60405180910390fd5b6106b96000801b826104b6565b50565b5050565b600080600084815260200190815260200160002060000160008373ffffffffffffffffffffffffffffffffffffffff1673ffffffffffffffffffffffffffffffffffffffff16815260200190815260200160002060009054906101000a900460ff16905092915050565b6000801b81565b61073a336104a0565b610779576040517f08c379a000000000000000000000000000000000000000000000000000000000815260040161077090611372565b60405180910390fd5b6107a37f85faced7bde13e1a7dad704b895f006e704f207617d68166b31ba2d79624862d826104b6565b50565b6000600360008373ffffffffffffffffffffffffffffffffffffffff1673ffffffffffffffffffffffffffffffffffffffff16815260200190815260200160002060010160009054906101000a900460ff169050919050565b61080882610481565b61081981610814610a71565b610a79565b6108238383610bf6565b505050565b7f85faced7bde13e1a7dad704b895f006e704f207617d68166b31ba2d79624862d81565b7ff309ffc42715a0bfccdfa0c4cac305505f15ab9b9262b7451ceea96c0cc3518781565b610879336104a0565b6108b8576040517f08c379a00000000000000000000000000000000000000000000000000000000081526004016108af90611372565b60405180910390fd5b6108c0610f13565b428160000181815250506000821415610909576000816020019060028111156108ec576108eb611157565b5b90816002811115610900576108ff611157565b5b81525050610985565b60018214156109485760018160200190600281111561092b5761092a611157565b5b9081600281111561093f5761093e611157565b5b81525050610984565b60028214156109835760028160200190600281111561096a57610969611157565b5b9081600281111561097e5761097d611157565b5b815250505b5b5b80600360008573ffffffffffffffffffffffffffffffffffffffff1673ffffffffffffffffffffffffffffffffffffffff1681526020019081526020016000206000820151816000015560208201518160010160006101000a81548160ff021916908360028111156109fa576109f9611157565b5b0217905550905050505050565b60007f01ffc9a7000000000000000000000000000000000000000000000000000000007bffffffffffffffffffffffffffffffffffffffffffffffffffffffff1916827bffffffffffffffffffffffffffffffffffffffffffffffffffffffff1916149050919050565b600033905090565b610a8382826106c0565b610b1257610aa88173ffffffffffffffffffffffffffffffffffffffff166014610cd7565b610ab68360001c6020610cd7565b604051602001610ac7929190611536565b6040516020818303038152906040526040517f08c379a0000000000000000000000000000000000000000000000000000000008152600401610b0991906115ba565b60405180910390fd5b5050565b610b2082826106c0565b610bf257600160008084815260200190815260200160002060000160008373ffffffffffffffffffffffffffffffffffffffff1673ffffffffffffffffffffffffffffffffffffffff16815260200190815260200160002060006101000a81548160ff021916908315150217905550610b97610a71565b73ffffffffffffffffffffffffffffffffffffffff168173ffffffffffffffffffffffffffffffffffffffff16837f2f8788117e7eff1d82e926ec794901d17c78024a50270940304540a733656f0d60405160405180910390a45b5050565b610c0082826106c0565b15610cd357600080600084815260200190815260200160002060000160008373ffffffffffffffffffffffffffffffffffffffff1673ffffffffffffffffffffffffffffffffffffffff16815260200190815260200160002060006101000a81548160ff021916908315150217905550610c78610a71565b73ffffffffffffffffffffffffffffffffffffffff168173ffffffffffffffffffffffffffffffffffffffff16837ff6391f5c32d9c69d2a47ea670b442974b53935d1edc7fd64eb21e047a839171b60405160405180910390a45b5050565b606060006002836002610cea919061160b565b610cf49190611665565b67ffffffffffffffff811115610d0d57610d0c6116bb565b5b6040519080825280601f01601f191660200182016040528015610d3f5781602001600182028036833780820191505090505b5090507f300000000000000000000000000000000000000000000000000000000000000081600081518110610d7757610d766116ea565b5b60200101907effffffffffffffffffffffffffffffffffffffffffffffffffffffffffffff1916908160001a9053507f780000000000000000000000000000000000000000000000000000000000000081600181518110610ddb57610dda6116ea565b5b60200101907effffffffffffffffffffffffffffffffffffffffffffffffffffffffffffff1916908160001a90535060006001846002610e1b919061160b565b610e259190611665565b90505b6001811115610ec5577f3031323334353637383961626364656600000000000000000000000000000000600f861660108110610e6757610e666116ea565b5b1a60f81b828281518110610e7e57610e7d6116ea565b5b60200101907effffffffffffffffffffffffffffffffffffffffffffffffffffffffffffff1916908160001a905350600485901c945080610ebe90611719565b9050610e28565b5060008414610f09576040517f08c379a0000000000000000000000000000000000000000000000000000000008152600401610f009061178f565b60405180910390fd5b8091505092915050565b60405180604001604052806000815260200160006002811115610f3957610f38611157565b5b81525090565b600080fd5b60007fffffffff0000000000000000000000000000000000000000000000000000000082169050919050565b610f7981610f44565b8114610f8457600080fd5b50565b600081359050610f9681610f70565b92915050565b600060208284031215610fb257610fb1610f3f565b5b6000610fc084828501610f87565b91505092915050565b60008115159050919050565b610fde81610fc9565b82525050565b6000602082019050610ff96000830184610fd5565b92915050565b600073ffffffffffffffffffffffffffffffffffffffff82169050919050565b600061102a82610fff565b9050919050565b61103a8161101f565b811461104557600080fd5b50565b60008135905061105781611031565b92915050565b60006020828403121561107357611072610f3f565b5b600061108184828501611048565b91505092915050565b6000819050919050565b61109d8161108a565b81146110a857600080fd5b50565b6000813590506110ba81611094565b92915050565b6000602082840312156110d6576110d5610f3f565b5b60006110e4848285016110ab565b91505092915050565b6110f68161108a565b82525050565b600060208201905061111160008301846110ed565b92915050565b6000806040838503121561112e5761112d610f3f565b5b600061113c858286016110ab565b925050602061114d85828601611048565b9150509250929050565b7f4e487b7100000000000000000000000000000000000000000000000000000000600052602160045260246000fd5b6003811061119757611196611157565b5b50565b60008190506111a882611186565b919050565b60006111b88261119a565b9050919050565b6111c8816111ad565b82525050565b6000819050919050565b6111e1816111ce565b82525050565b60006040820190506111fc60008301856111bf565b61120960208301846111d8565b9392505050565b600061121b8261101f565b9050919050565b61122b81611210565b811461123657600080fd5b50565b60008135905061124881611222565b92915050565b6000806040838503121561126557611264610f3f565b5b600061127385828601611048565b925050602061128485828601611239565b9150509250929050565b60006020820190506112a360008301846111bf565b92915050565b6112b2816111ce565b81146112bd57600080fd5b50565b6000813590506112cf816112a9565b92915050565b600080604083850312156112ec576112eb610f3f565b5b60006112fa85828601611048565b925050602061130b858286016112c0565b9150509250929050565b600082825260208201905092915050565b7f5265737472696374656420746f2061646d696e732e0000000000000000000000600082015250565b600061135c601583611315565b915061136782611326565b602082019050919050565b6000602082019050818103600083015261138b8161134f565b9050919050565b7f416363657373436f6e74726f6c3a2063616e206f6e6c792072656e6f756e636560008201527f20726f6c657320666f722073656c660000000000000000000000000000000000602082015250565b60006113ee602f83611315565b91506113f982611392565b604082019050919050565b6000602082019050818103600083015261141d816113e1565b9050919050565b600081905092915050565b7f416363657373436f6e74726f6c3a206163636f756e7420000000000000000000600082015250565b6000611465601783611424565b91506114708261142f565b601782019050919050565b600081519050919050565b60005b838110156114a4578082015181840152602081019050611489565b838111156114b3576000848401525b50505050565b60006114c48261147b565b6114ce8185611424565b93506114de818560208601611486565b80840191505092915050565b7f206973206d697373696e6720726f6c6520000000000000000000000000000000600082015250565b6000611520601183611424565b915061152b826114ea565b601182019050919050565b600061154182611458565b915061154d82856114b9565b915061155882611513565b915061156482846114b9565b91508190509392505050565b6000601f19601f8301169050919050565b600061158c8261147b565b6115968185611315565b93506115a6818560208601611486565b6115af81611570565b840191505092915050565b600060208201905081810360008301526115d48184611581565b905092915050565b7f4e487b7100000000000000000000000000000000000000000000000000000000600052601160045260246000fd5b6000611616826111ce565b9150611621836111ce565b9250817fffffffffffffffffffffffffffffffffffffffffffffffffffffffffffffffff048311821515161561165a576116596115dc565b5b828202905092915050565b6000611670826111ce565b915061167b836111ce565b9250827fffffffffffffffffffffffffffffffffffffffffffffffffffffffffffffffff038211156116b0576116af6115dc565b5b828201905092915050565b7f4e487b7100000000000000000000000000000000000000000000000000000000600052604160045260246000fd5b7f4e487b7100000000000000000000000000000000000000000000000000000000600052603260045260246000fd5b6000611724826111ce565b91506000821415611738576117376115dc565b5b600182039050919050565b7f537472696e67733a20686578206c656e67746820696e73756666696369656e74600082015250565b6000611779602083611315565b915061178482611743565b602082019050919050565b600060208201905081810360008301526117a88161176c565b905091905056fea2646970667358221220f132be40d94ca0b5c302cb0c6ac0cfcbae86207b9e960625726b20388d0ad34164736f6c634300080c0033",
  "immutableReferences": {},
  "source": "// SPDX-License-Identifier: MIT\npragma solidity >=0.4.22 <0.9.0;\nimport './../Roles.sol';\n\n\ncontract ProfileManager is Roles{\n\n    //admin address\n    address admin;\n\n    //access level\n    enum AccessLevel \n    {\n        restricted,\n        Manager,\n        Viewer\n        \n    }\n    //number of registred users\n    uint userCount;\n\n\n    //userInfo\n    struct User{\n        uint timeAdded;\n        AccessLevel accessLevel;\n    }\n\n    //all users\n    mapping(address=>User) userMap;\n\n\n    constructor()\n    {\n\n    }\n\n    //register a user\n    function registerUser(address _userId,uint _accessLevel) public\n    onlyAdmin()\n    {\n        User memory user;\n        user.timeAdded=block.timestamp;\n        if(_accessLevel==0)\n        {\n            user.accessLevel=AccessLevel.restricted;\n        }\n        else if(_accessLevel==1)\n        {\n            user.accessLevel=AccessLevel.Manager;\n\n\n        }\n           else if(_accessLevel==2)\n        {\n            user.accessLevel=AccessLevel.Viewer;\n\n        }\n\n         userMap[_userId]=user;\n        \n        //emit \n    }\n\n    function getUserInfo(address _userId) public view returns(AccessLevel,uint)\n    {\n        User memory user=userMap[_userId];\n        return (user.accessLevel,user.timeAdded);\n    }\n\n    function updateUser(address _userId,AccessControl _accessLevel) public\n    {\n       // userMap[_userId].accessLevel=_accessLevel;          \n    }\n\n    function checkAccessLevel(address _userId) public view returns(AccessLevel)\n    {\n        return userMap[_userId].accessLevel;\n    }\n\n\n  modifier userExists() {\n    require(isAdmin(msg.sender), \"Restricted to admins.\");\n      _;\n  }\n\n\n}",
  "sourcePath": "/home/crawzer/blockchain/front/my-app/contracts/contracts/BeefCattleSupplyChain/ProfileManager.sol",
  "compiler": {
    "name": "solc",
    "version": "0.8.12+commit.f00d7308.Emscripten.clang"
  },
  "schemaVersion": "3.4.5",
  "updatedAt": "2022-05-03T23:58:10.856Z",
  "networkType": "ethereum",
  "devdoc": {
    "kind": "dev",
    "methods": {
      "getRoleAdmin(bytes32)": {
        "details": "Returns the admin role that controls `role`. See {grantRole} and {revokeRole}. To change a role's admin, use {_setRoleAdmin}."
      },
      "grantRole(bytes32,address)": {
        "details": "Grants `role` to `account`. If `account` had not been already granted `role`, emits a {RoleGranted} event. Requirements: - the caller must have ``role``'s admin role."
      },
      "hasRole(bytes32,address)": {
        "details": "Returns `true` if `account` has been granted `role`."
      },
      "renounceRole(bytes32,address)": {
        "details": "Revokes `role` from the calling account. Roles are often managed via {grantRole} and {revokeRole}: this function's purpose is to provide a mechanism for accounts to lose their privileges if they are compromised (such as when a trusted device is misplaced). If the calling account had been revoked `role`, emits a {RoleRevoked} event. Requirements: - the caller must be `account`."
      },
      "revokeRole(bytes32,address)": {
        "details": "Revokes `role` from `account`. If `account` had been granted `role`, emits a {RoleRevoked} event. Requirements: - the caller must have ``role``'s admin role."
      },
      "supportsInterface(bytes4)": {
        "details": "See {IERC165-supportsInterface}."
      }
    },
    "version": 1
  },
  "userdoc": {
    "kind": "user",
    "methods": {},
    "version": 1
  }
}