{
  "contractName": "Retailer",
  "abi": [
    {
      "inputs": [],
      "stateMutability": "nonpayable",
      "type": "constructor"
    },
    {
      "anonymous": false,
      "inputs": [
        {
          "indexed": true,
          "internalType": "address",
          "name": "account",
          "type": "address"
        }
      ],
      "name": "RetailerAdded",
      "type": "event"
    },
    {
      "anonymous": false,
      "inputs": [
        {
          "indexed": true,
          "internalType": "bytes32",
          "name": "role",
          "type": "bytes32"
        },
        {
          "indexed": true,
          "internalType": "bytes32",
          "name": "previousAdminRole",
          "type": "bytes32"
        },
        {
          "indexed": true,
          "internalType": "bytes32",
          "name": "newAdminRole",
          "type": "bytes32"
        }
      ],
      "name": "RoleAdminChanged",
      "type": "event"
    },
    {
      "anonymous": false,
      "inputs": [
        {
          "indexed": true,
          "internalType": "bytes32",
          "name": "role",
          "type": "bytes32"
        },
        {
          "indexed": true,
          "internalType": "address",
          "name": "account",
          "type": "address"
        },
        {
          "indexed": true,
          "internalType": "address",
          "name": "sender",
          "type": "address"
        }
      ],
      "name": "RoleGranted",
      "type": "event"
    },
    {
      "anonymous": false,
      "inputs": [
        {
          "indexed": true,
          "internalType": "bytes32",
          "name": "role",
          "type": "bytes32"
        },
        {
          "indexed": true,
          "internalType": "address",
          "name": "account",
          "type": "address"
        },
        {
          "indexed": true,
          "internalType": "address",
          "name": "sender",
          "type": "address"
        }
      ],
      "name": "RoleRevoked",
      "type": "event"
    },
    {
      "inputs": [],
      "name": "DEFAULT_ADMIN_ROLE",
      "outputs": [
        {
          "internalType": "bytes32",
          "name": "",
          "type": "bytes32"
        }
      ],
      "stateMutability": "view",
      "type": "function"
    },
    {
      "inputs": [],
      "name": "DISTRIBUTOR_ROLE",
      "outputs": [
        {
          "internalType": "bytes32",
          "name": "",
          "type": "bytes32"
        }
      ],
      "stateMutability": "view",
      "type": "function"
    },
    {
      "inputs": [],
      "name": "FARMER_ROLE",
      "outputs": [
        {
          "internalType": "bytes32",
          "name": "",
          "type": "bytes32"
        }
      ],
      "stateMutability": "view",
      "type": "function"
    },
    {
      "inputs": [
        {
          "internalType": "address",
          "name": "account",
          "type": "address"
        }
      ],
      "name": "addAdmin",
      "outputs": [],
      "stateMutability": "nonpayable",
      "type": "function"
    },
    {
      "inputs": [
        {
          "internalType": "address",
          "name": "account",
          "type": "address"
        }
      ],
      "name": "changeAdmin",
      "outputs": [],
      "stateMutability": "nonpayable",
      "type": "function"
    },
    {
      "inputs": [
        {
          "internalType": "bytes32",
          "name": "role",
          "type": "bytes32"
        }
      ],
      "name": "getRoleAdmin",
      "outputs": [
        {
          "internalType": "bytes32",
          "name": "",
          "type": "bytes32"
        }
      ],
      "stateMutability": "view",
      "type": "function"
    },
    {
      "inputs": [
        {
          "internalType": "address",
          "name": "account",
          "type": "address"
        }
      ],
      "name": "giveAccessForDistributor",
      "outputs": [],
      "stateMutability": "nonpayable",
      "type": "function"
    },
    {
      "inputs": [
        {
          "internalType": "address",
          "name": "account",
          "type": "address"
        }
      ],
      "name": "giveAccessForFarmer",
      "outputs": [],
      "stateMutability": "nonpayable",
      "type": "function"
    },
    {
      "inputs": [
        {
          "internalType": "bytes32",
          "name": "role",
          "type": "bytes32"
        },
        {
          "internalType": "address",
          "name": "account",
          "type": "address"
        }
      ],
      "name": "grantRole",
      "outputs": [],
      "stateMutability": "nonpayable",
      "type": "function"
    },
    {
      "inputs": [
        {
          "internalType": "bytes32",
          "name": "role",
          "type": "bytes32"
        },
        {
          "internalType": "address",
          "name": "account",
          "type": "address"
        }
      ],
      "name": "hasRole",
      "outputs": [
        {
          "internalType": "bool",
          "name": "",
          "type": "bool"
        }
      ],
      "stateMutability": "view",
      "type": "function"
    },
    {
      "inputs": [
        {
          "internalType": "address",
          "name": "account",
          "type": "address"
        }
      ],
      "name": "isAdmin",
      "outputs": [
        {
          "internalType": "bool",
          "name": "",
          "type": "bool"
        }
      ],
      "stateMutability": "view",
      "type": "function"
    },
    {
      "inputs": [
        {
          "internalType": "bytes32",
          "name": "role",
          "type": "bytes32"
        },
        {
          "internalType": "address",
          "name": "account",
          "type": "address"
        }
      ],
      "name": "renounceRole",
      "outputs": [],
      "stateMutability": "nonpayable",
      "type": "function"
    },
    {
      "inputs": [
        {
          "internalType": "bytes32",
          "name": "role",
          "type": "bytes32"
        },
        {
          "internalType": "address",
          "name": "account",
          "type": "address"
        }
      ],
      "name": "revokeRole",
      "outputs": [],
      "stateMutability": "nonpayable",
      "type": "function"
    },
    {
      "inputs": [
        {
          "internalType": "bytes4",
          "name": "interfaceId",
          "type": "bytes4"
        }
      ],
      "name": "supportsInterface",
      "outputs": [
        {
          "internalType": "bool",
          "name": "",
          "type": "bool"
        }
      ],
      "stateMutability": "view",
      "type": "function"
    },
    {
      "inputs": [
        {
          "internalType": "address",
          "name": "account",
          "type": "address"
        }
      ],
      "name": "addRetailer",
      "outputs": [],
      "stateMutability": "nonpayable",
      "type": "function"
    }
  ],
  "bytecode": "0x60806040523480156200001157600080fd5b50620000276000801b336200006760201b60201c565b7f52657461696c65725f524f4c4500000000000000000000000000000000000000600180018190555062000061336200007d60201b60201c565b620003eb565b620000798282620001ac60201b60201c565b5050565b600073ffffffffffffffffffffffffffffffffffffffff168173ffffffffffffffffffffffffffffffffffffffff161415620000b857600080fd5b620000c9816200029d60201b60201c565b156200010c576040517f08c379a00000000000000000000000000000000000000000000000000000000081526004016200010390620003c9565b60405180910390fd5b60018060000160008373ffffffffffffffffffffffffffffffffffffffff1673ffffffffffffffffffffffffffffffffffffffff16815260200190815260200160002060006101000a81548160ff0219169083151502179055508073ffffffffffffffffffffffffffffffffffffffff167f71ae26cad02663e3d92efd6ec56031a80d74a20c0ab4183faa8bf262261c9baa60405160405180910390a250565b620001be8282620002f660201b60201c565b6200029957600160008084815260200190815260200160002060000160008373ffffffffffffffffffffffffffffffffffffffff1673ffffffffffffffffffffffffffffffffffffffff16815260200190815260200160002060006101000a81548160ff0219169083151502179055506200023e6200036060201b60201c565b73ffffffffffffffffffffffffffffffffffffffff168173ffffffffffffffffffffffffffffffffffffffff16837f2f8788117e7eff1d82e926ec794901d17c78024a50270940304540a733656f0d60405160405180910390a45b5050565b6000600160000160008373ffffffffffffffffffffffffffffffffffffffff1673ffffffffffffffffffffffffffffffffffffffff16815260200190815260200160002060009054906101000a900460ff169050919050565b600080600084815260200190815260200160002060000160008373ffffffffffffffffffffffffffffffffffffffff1673ffffffffffffffffffffffffffffffffffffffff16815260200190815260200160002060009054906101000a900460ff16905092915050565b600033905090565b600082825260208201905092915050565b7f6675636b206f6666000000000000000000000000000000000000000000000000600082015250565b6000620003b160088362000368565b9150620003be8262000379565b602082019050919050565b60006020820190508181036000830152620003e481620003a2565b9050919050565b61157180620003fb6000396000f3fe608060405234801561001057600080fd5b50600436106100f55760003560e01c80638ec4f50511610097578063b4af12bf11610066578063b4af12bf14610280578063d547741f1461029c578063f0bd87cc146102b8578063f3943970146102d6576100f5565b80638ec4f505146101fa5780638f2839701461021657806391d1485414610232578063a217fddf14610262576100f5565b806324d7806c116100d357806324d7806c146101765780632f2ff15d146101a657806336568abe146101c257806370480275146101de576100f5565b806301ffc9a7146100fa57806308ccf2191461012a578063248a9ca314610146575b600080fd5b610114600480360381019061010f9190610e04565b6102f4565b6040516101219190610e4c565b60405180910390f35b610144600480360381019061013f9190610ec5565b61036e565b005b610160600480360381019061015b9190610f28565b6103e3565b60405161016d9190610f64565b60405180910390f35b610190600480360381019061018b9190610ec5565b610402565b60405161019d9190610e4c565b60405180910390f35b6101c060048036038101906101bb9190610f7f565b610418565b005b6101dc60048036038101906101d79190610f7f565b610441565b005b6101f860048036038101906101f39190610ec5565b6104c4565b005b610214600480360381019061020f9190610ec5565b61051c565b005b610230600480360381019061022b9190610ec5565b610570565b005b61024c60048036038101906102479190610f7f565b6105c8565b6040516102599190610e4c565b60405180910390f35b61026a610632565b6040516102779190610f64565b60405180910390f35b61029a60048036038101906102959190610ec5565b610639565b005b6102b660048036038101906102b19190610f7f565b6106ae565b005b6102c06106d7565b6040516102cd9190610f64565b60405180910390f35b6102de6106fb565b6040516102eb9190610f64565b60405180910390f35b60007f7965db0b000000000000000000000000000000000000000000000000000000007bffffffffffffffffffffffffffffffffffffffffffffffffffffffff1916827bffffffffffffffffffffffffffffffffffffffffffffffffffffffff1916148061036757506103668261071f565b5b9050919050565b61037733610402565b6103b6576040517f08c379a00000000000000000000000000000000000000000000000000000000081526004016103ad9061101c565b60405180910390fd5b6103e07ff309ffc42715a0bfccdfa0c4cac305505f15ab9b9262b7451ceea96c0cc3518782610418565b50565b6000806000838152602001908152602001600020600101549050919050565b60006104116000801b836105c8565b9050919050565b610421826103e3565b6104328161042d610789565b610791565b61043c838361082e565b505050565b610449610789565b73ffffffffffffffffffffffffffffffffffffffff168173ffffffffffffffffffffffffffffffffffffffff16146104b6576040517f08c379a00000000000000000000000000000000000000000000000000000000081526004016104ad906110ae565b60405180910390fd5b6104c0828261090e565b5050565b6104cd33610402565b61050c576040517f08c379a00000000000000000000000000000000000000000000000000000000081526004016105039061101c565b60405180910390fd5b6105196000801b82610418565b50565b610525336109ef565b610564576040517f08c379a000000000000000000000000000000000000000000000000000000000815260040161055b9061111a565b60405180910390fd5b61056d81610a48565b50565b61057933610402565b6105b8576040517f08c379a00000000000000000000000000000000000000000000000000000000081526004016105af9061101c565b60405180910390fd5b6105c56000801b82610418565b50565b600080600084815260200190815260200160002060000160008373ffffffffffffffffffffffffffffffffffffffff1673ffffffffffffffffffffffffffffffffffffffff16815260200190815260200160002060009054906101000a900460ff16905092915050565b6000801b81565b61064233610402565b610681576040517f08c379a00000000000000000000000000000000000000000000000000000000081526004016106789061101c565b60405180910390fd5b6106ab7f85faced7bde13e1a7dad704b895f006e704f207617d68166b31ba2d79624862d82610418565b50565b6106b7826103e3565b6106c8816106c3610789565b610791565b6106d2838361090e565b505050565b7f85faced7bde13e1a7dad704b895f006e704f207617d68166b31ba2d79624862d81565b7ff309ffc42715a0bfccdfa0c4cac305505f15ab9b9262b7451ceea96c0cc3518781565b60007f01ffc9a7000000000000000000000000000000000000000000000000000000007bffffffffffffffffffffffffffffffffffffffffffffffffffffffff1916827bffffffffffffffffffffffffffffffffffffffffffffffffffffffff1916149050919050565b600033905090565b61079b82826105c8565b61082a576107c08173ffffffffffffffffffffffffffffffffffffffff166014610b6b565b6107ce8360001c6020610b6b565b6040516020016107df92919061124c565b6040516020818303038152906040526040517f08c379a000000000000000000000000000000000000000000000000000000000815260040161082191906112d0565b60405180910390fd5b5050565b61083882826105c8565b61090a57600160008084815260200190815260200160002060000160008373ffffffffffffffffffffffffffffffffffffffff1673ffffffffffffffffffffffffffffffffffffffff16815260200190815260200160002060006101000a81548160ff0219169083151502179055506108af610789565b73ffffffffffffffffffffffffffffffffffffffff168173ffffffffffffffffffffffffffffffffffffffff16837f2f8788117e7eff1d82e926ec794901d17c78024a50270940304540a733656f0d60405160405180910390a45b5050565b61091882826105c8565b156109eb57600080600084815260200190815260200160002060000160008373ffffffffffffffffffffffffffffffffffffffff1673ffffffffffffffffffffffffffffffffffffffff16815260200190815260200160002060006101000a81548160ff021916908315150217905550610990610789565b73ffffffffffffffffffffffffffffffffffffffff168173ffffffffffffffffffffffffffffffffffffffff16837ff6391f5c32d9c69d2a47ea670b442974b53935d1edc7fd64eb21e047a839171b60405160405180910390a45b5050565b6000600160000160008373ffffffffffffffffffffffffffffffffffffffff1673ffffffffffffffffffffffffffffffffffffffff16815260200190815260200160002060009054906101000a900460ff169050919050565b600073ffffffffffffffffffffffffffffffffffffffff168173ffffffffffffffffffffffffffffffffffffffff161415610a8257600080fd5b610a8b816109ef565b15610acb576040517f08c379a0000000000000000000000000000000000000000000000000000000008152600401610ac29061133e565b60405180910390fd5b60018060000160008373ffffffffffffffffffffffffffffffffffffffff1673ffffffffffffffffffffffffffffffffffffffff16815260200190815260200160002060006101000a81548160ff0219169083151502179055508073ffffffffffffffffffffffffffffffffffffffff167f71ae26cad02663e3d92efd6ec56031a80d74a20c0ab4183faa8bf262261c9baa60405160405180910390a250565b606060006002836002610b7e9190611397565b610b8891906113f1565b67ffffffffffffffff811115610ba157610ba0611447565b5b6040519080825280601f01601f191660200182016040528015610bd35781602001600182028036833780820191505090505b5090507f300000000000000000000000000000000000000000000000000000000000000081600081518110610c0b57610c0a611476565b5b60200101907effffffffffffffffffffffffffffffffffffffffffffffffffffffffffffff1916908160001a9053507f780000000000000000000000000000000000000000000000000000000000000081600181518110610c6f57610c6e611476565b5b60200101907effffffffffffffffffffffffffffffffffffffffffffffffffffffffffffff1916908160001a90535060006001846002610caf9190611397565b610cb991906113f1565b90505b6001811115610d59577f3031323334353637383961626364656600000000000000000000000000000000600f861660108110610cfb57610cfa611476565b5b1a60f81b828281518110610d1257610d11611476565b5b60200101907effffffffffffffffffffffffffffffffffffffffffffffffffffffffffffff1916908160001a905350600485901c945080610d52906114a5565b9050610cbc565b5060008414610d9d576040517f08c379a0000000000000000000000000000000000000000000000000000000008152600401610d949061151b565b60405180910390fd5b8091505092915050565b600080fd5b60007fffffffff0000000000000000000000000000000000000000000000000000000082169050919050565b610de181610dac565b8114610dec57600080fd5b50565b600081359050610dfe81610dd8565b92915050565b600060208284031215610e1a57610e19610da7565b5b6000610e2884828501610def565b91505092915050565b60008115159050919050565b610e4681610e31565b82525050565b6000602082019050610e616000830184610e3d565b92915050565b600073ffffffffffffffffffffffffffffffffffffffff82169050919050565b6000610e9282610e67565b9050919050565b610ea281610e87565b8114610ead57600080fd5b50565b600081359050610ebf81610e99565b92915050565b600060208284031215610edb57610eda610da7565b5b6000610ee984828501610eb0565b91505092915050565b6000819050919050565b610f0581610ef2565b8114610f1057600080fd5b50565b600081359050610f2281610efc565b92915050565b600060208284031215610f3e57610f3d610da7565b5b6000610f4c84828501610f13565b91505092915050565b610f5e81610ef2565b82525050565b6000602082019050610f796000830184610f55565b92915050565b60008060408385031215610f9657610f95610da7565b5b6000610fa485828601610f13565b9250506020610fb585828601610eb0565b9150509250929050565b600082825260208201905092915050565b7f5265737472696374656420746f2061646d696e732e0000000000000000000000600082015250565b6000611006601583610fbf565b915061101182610fd0565b602082019050919050565b6000602082019050818103600083015261103581610ff9565b9050919050565b7f416363657373436f6e74726f6c3a2063616e206f6e6c792072656e6f756e636560008201527f20726f6c657320666f722073656c660000000000000000000000000000000000602082015250565b6000611098602f83610fbf565b91506110a38261103c565b604082019050919050565b600060208201905081810360008301526110c78161108b565b9050919050565b7f6572726f72000000000000000000000000000000000000000000000000000000600082015250565b6000611104600583610fbf565b915061110f826110ce565b602082019050919050565b60006020820190508181036000830152611133816110f7565b9050919050565b600081905092915050565b7f416363657373436f6e74726f6c3a206163636f756e7420000000000000000000600082015250565b600061117b60178361113a565b915061118682611145565b601782019050919050565b600081519050919050565b60005b838110156111ba57808201518184015260208101905061119f565b838111156111c9576000848401525b50505050565b60006111da82611191565b6111e4818561113a565b93506111f481856020860161119c565b80840191505092915050565b7f206973206d697373696e6720726f6c6520000000000000000000000000000000600082015250565b600061123660118361113a565b915061124182611200565b601182019050919050565b60006112578261116e565b915061126382856111cf565b915061126e82611229565b915061127a82846111cf565b91508190509392505050565b6000601f19601f8301169050919050565b60006112a282611191565b6112ac8185610fbf565b93506112bc81856020860161119c565b6112c581611286565b840191505092915050565b600060208201905081810360008301526112ea8184611297565b905092915050565b7f6675636b206f6666000000000000000000000000000000000000000000000000600082015250565b6000611328600883610fbf565b9150611333826112f2565b602082019050919050565b600060208201905081810360008301526113578161131b565b9050919050565b6000819050919050565b7f4e487b7100000000000000000000000000000000000000000000000000000000600052601160045260246000fd5b60006113a28261135e565b91506113ad8361135e565b9250817fffffffffffffffffffffffffffffffffffffffffffffffffffffffffffffffff04831182151516156113e6576113e5611368565b5b828202905092915050565b60006113fc8261135e565b91506114078361135e565b9250827fffffffffffffffffffffffffffffffffffffffffffffffffffffffffffffffff0382111561143c5761143b611368565b5b828201905092915050565b7f4e487b7100000000000000000000000000000000000000000000000000000000600052604160045260246000fd5b7f4e487b7100000000000000000000000000000000000000000000000000000000600052603260045260246000fd5b60006114b08261135e565b915060008214156114c4576114c3611368565b5b600182039050919050565b7f537472696e67733a20686578206c656e67746820696e73756666696369656e74600082015250565b6000611505602083610fbf565b9150611510826114cf565b602082019050919050565b60006020820190508181036000830152611534816114f8565b905091905056fea26469706673582212208b193760c75d47c8be1f18b76587f2e1d810c90caa0cd61329eaa06ff9f573c164736f6c634300080c0033",
  "immutableReferences": {},
  "source": "// SPDX-License-Identifier: MIT\npragma solidity >=0.4.22 <0.9.0;\nimport './Roles.sol';\n\ncontract Retailer is Roles{\n\n  Roles.RoleData private retailers;\n\n  event RetailerAdded(address indexed account);\n\n  constructor()\n  {\n    retailers.adminRole=\"Retailer_ROLE\";\n    _addRetailer(msg.sender);\n  }\n\n  modifier onlyRetailer()\n  {\n    require(verif(msg.sender),\"error\");\n    _;\n  }\n\n  function addRetailer(address account) public \n  onlyRetailer() \n  {\n    _addRetailer(account);\n  }\n\n    function _addRetailer(address account) internal {\n      require(account != address(0));\n      require(!verif(account),\"fuck off\");\n    retailers.members[account]=true;\n    emit RetailerAdded(account);\n\n  }\n\n\n  function verif(address account) view internal returns(bool)\n  {\n    return retailers.members[account];\n  }\n}",
  "sourcePath": "/home/crawzer/blockchain/front/my-app/contracts/contracts/Retailer.sol",
  "compiler": {
    "name": "solc",
    "version": "0.8.12+commit.f00d7308.Emscripten.clang"
  },
  "schemaVersion": "3.4.5",
  "updatedAt": "2022-04-27T20:40:57.411Z",
  "devdoc": {
    "kind": "dev",
    "methods": {
      "getRoleAdmin(bytes32)": {
        "details": "Returns the admin role that controls `role`. See {grantRole} and {revokeRole}. To change a role's admin, use {_setRoleAdmin}."
      },
      "grantRole(bytes32,address)": {
        "details": "Grants `role` to `account`. If `account` had not been already granted `role`, emits a {RoleGranted} event. Requirements: - the caller must have ``role``'s admin role."
      },
      "hasRole(bytes32,address)": {
        "details": "Returns `true` if `account` has been granted `role`."
      },
      "renounceRole(bytes32,address)": {
        "details": "Revokes `role` from the calling account. Roles are often managed via {grantRole} and {revokeRole}: this function's purpose is to provide a mechanism for accounts to lose their privileges if they are compromised (such as when a trusted device is misplaced). If the calling account had been revoked `role`, emits a {RoleRevoked} event. Requirements: - the caller must be `account`."
      },
      "revokeRole(bytes32,address)": {
        "details": "Revokes `role` from `account`. If `account` had been granted `role`, emits a {RoleRevoked} event. Requirements: - the caller must have ``role``'s admin role."
      },
      "supportsInterface(bytes4)": {
        "details": "See {IERC165-supportsInterface}."
      }
    },
    "version": 1
  },
  "userdoc": {
    "kind": "user",
    "methods": {},
    "version": 1
  }
}