{
  "contractName": "Roles",
  "abi": [
    {
      "inputs": [],
      "stateMutability": "nonpayable",
      "type": "constructor"
    },
    {
      "anonymous": false,
      "inputs": [
        {
          "indexed": true,
          "internalType": "bytes32",
          "name": "role",
          "type": "bytes32"
        },
        {
          "indexed": true,
          "internalType": "bytes32",
          "name": "previousAdminRole",
          "type": "bytes32"
        },
        {
          "indexed": true,
          "internalType": "bytes32",
          "name": "newAdminRole",
          "type": "bytes32"
        }
      ],
      "name": "RoleAdminChanged",
      "type": "event"
    },
    {
      "anonymous": false,
      "inputs": [
        {
          "indexed": true,
          "internalType": "bytes32",
          "name": "role",
          "type": "bytes32"
        },
        {
          "indexed": true,
          "internalType": "address",
          "name": "account",
          "type": "address"
        },
        {
          "indexed": true,
          "internalType": "address",
          "name": "sender",
          "type": "address"
        }
      ],
      "name": "RoleGranted",
      "type": "event"
    },
    {
      "anonymous": false,
      "inputs": [
        {
          "indexed": true,
          "internalType": "bytes32",
          "name": "role",
          "type": "bytes32"
        },
        {
          "indexed": true,
          "internalType": "address",
          "name": "account",
          "type": "address"
        },
        {
          "indexed": true,
          "internalType": "address",
          "name": "sender",
          "type": "address"
        }
      ],
      "name": "RoleRevoked",
      "type": "event"
    },
    {
      "inputs": [],
      "name": "DEFAULT_ADMIN_ROLE",
      "outputs": [
        {
          "internalType": "bytes32",
          "name": "",
          "type": "bytes32"
        }
      ],
      "stateMutability": "view",
      "type": "function"
    },
    {
      "inputs": [],
      "name": "DISTRIBUTOR_ROLE",
      "outputs": [
        {
          "internalType": "bytes32",
          "name": "",
          "type": "bytes32"
        }
      ],
      "stateMutability": "view",
      "type": "function"
    },
    {
      "inputs": [],
      "name": "FARMER_ROLE",
      "outputs": [
        {
          "internalType": "bytes32",
          "name": "",
          "type": "bytes32"
        }
      ],
      "stateMutability": "view",
      "type": "function"
    },
    {
      "inputs": [
        {
          "internalType": "bytes32",
          "name": "role",
          "type": "bytes32"
        }
      ],
      "name": "getRoleAdmin",
      "outputs": [
        {
          "internalType": "bytes32",
          "name": "",
          "type": "bytes32"
        }
      ],
      "stateMutability": "view",
      "type": "function"
    },
    {
      "inputs": [
        {
          "internalType": "bytes32",
          "name": "role",
          "type": "bytes32"
        },
        {
          "internalType": "address",
          "name": "account",
          "type": "address"
        }
      ],
      "name": "grantRole",
      "outputs": [],
      "stateMutability": "nonpayable",
      "type": "function"
    },
    {
      "inputs": [
        {
          "internalType": "bytes32",
          "name": "role",
          "type": "bytes32"
        },
        {
          "internalType": "address",
          "name": "account",
          "type": "address"
        }
      ],
      "name": "hasRole",
      "outputs": [
        {
          "internalType": "bool",
          "name": "",
          "type": "bool"
        }
      ],
      "stateMutability": "view",
      "type": "function"
    },
    {
      "inputs": [
        {
          "internalType": "bytes32",
          "name": "role",
          "type": "bytes32"
        },
        {
          "internalType": "address",
          "name": "account",
          "type": "address"
        }
      ],
      "name": "renounceRole",
      "outputs": [],
      "stateMutability": "nonpayable",
      "type": "function"
    },
    {
      "inputs": [
        {
          "internalType": "bytes32",
          "name": "role",
          "type": "bytes32"
        },
        {
          "internalType": "address",
          "name": "account",
          "type": "address"
        }
      ],
      "name": "revokeRole",
      "outputs": [],
      "stateMutability": "nonpayable",
      "type": "function"
    },
    {
      "inputs": [
        {
          "internalType": "bytes4",
          "name": "interfaceId",
          "type": "bytes4"
        }
      ],
      "name": "supportsInterface",
      "outputs": [
        {
          "internalType": "bool",
          "name": "",
          "type": "bool"
        }
      ],
      "stateMutability": "view",
      "type": "function"
    },
    {
      "inputs": [
        {
          "internalType": "address",
          "name": "account",
          "type": "address"
        }
      ],
      "name": "giveAccessForFarmer",
      "outputs": [],
      "stateMutability": "nonpayable",
      "type": "function"
    },
    {
      "inputs": [
        {
          "internalType": "address",
          "name": "account",
          "type": "address"
        }
      ],
      "name": "giveAccessForDistributor",
      "outputs": [],
      "stateMutability": "nonpayable",
      "type": "function"
    },
    {
      "inputs": [
        {
          "internalType": "address",
          "name": "account",
          "type": "address"
        }
      ],
      "name": "isAdmin",
      "outputs": [
        {
          "internalType": "bool",
          "name": "",
          "type": "bool"
        }
      ],
      "stateMutability": "view",
      "type": "function"
    },
    {
      "inputs": [
        {
          "internalType": "address",
          "name": "account",
          "type": "address"
        }
      ],
      "name": "addAdmin",
      "outputs": [],
      "stateMutability": "nonpayable",
      "type": "function"
    },
    {
      "inputs": [
        {
          "internalType": "address",
          "name": "account",
          "type": "address"
        }
      ],
      "name": "changeAdmin",
      "outputs": [],
      "stateMutability": "nonpayable",
      "type": "function"
    }
  ],
  "bytecode": "0x608060405234801561001057600080fd5b506100246000801b3361002960201b60201c565b61019b565b610039828261003d60201b60201c565b5050565b61004d828261012960201b60201c565b61012557600160008084815260200190815260200160002060000160008373ffffffffffffffffffffffffffffffffffffffff1673ffffffffffffffffffffffffffffffffffffffff16815260200190815260200160002060006101000a81548160ff0219169083151502179055506100ca61019360201b60201c565b73ffffffffffffffffffffffffffffffffffffffff168173ffffffffffffffffffffffffffffffffffffffff16837f2f8788117e7eff1d82e926ec794901d17c78024a50270940304540a733656f0d60405160405180910390a45b5050565b600080600084815260200190815260200160002060000160008373ffffffffffffffffffffffffffffffffffffffff1673ffffffffffffffffffffffffffffffffffffffff16815260200190815260200160002060009054906101000a900460ff16905092915050565b600033905090565b6112a2806101aa6000396000f3fe608060405234801561001057600080fd5b50600436106100ea5760003560e01c80638f2839701161008c578063b4af12bf11610066578063b4af12bf14610259578063d547741f14610275578063f0bd87cc14610291578063f3943970146102af576100ea565b80638f283970146101ef57806391d148541461020b578063a217fddf1461023b576100ea565b806324d7806c116100c857806324d7806c1461016b5780632f2ff15d1461019b57806336568abe146101b757806370480275146101d3576100ea565b806301ffc9a7146100ef57806308ccf2191461011f578063248a9ca31461013b575b600080fd5b61010960048036038101906101049190610c0d565b6102cd565b6040516101169190610c55565b60405180910390f35b61013960048036038101906101349190610cce565b610347565b005b61015560048036038101906101509190610d31565b6103bc565b6040516101629190610d6d565b60405180910390f35b61018560048036038101906101809190610cce565b6103db565b6040516101929190610c55565b60405180910390f35b6101b560048036038101906101b09190610d88565b6103f1565b005b6101d160048036038101906101cc9190610d88565b61041a565b005b6101ed60048036038101906101e89190610cce565b61049d565b005b61020960048036038101906102049190610cce565b6104f5565b005b61022560048036038101906102209190610d88565b61054d565b6040516102329190610c55565b60405180910390f35b6102436105b7565b6040516102509190610d6d565b60405180910390f35b610273600480360381019061026e9190610cce565b6105be565b005b61028f600480360381019061028a9190610d88565b610633565b005b61029961065c565b6040516102a69190610d6d565b60405180910390f35b6102b7610680565b6040516102c49190610d6d565b60405180910390f35b60007f7965db0b000000000000000000000000000000000000000000000000000000007bffffffffffffffffffffffffffffffffffffffffffffffffffffffff1916827bffffffffffffffffffffffffffffffffffffffffffffffffffffffff19161480610340575061033f826106a4565b5b9050919050565b610350336103db565b61038f576040517f08c379a000000000000000000000000000000000000000000000000000000000815260040161038690610e25565b60405180910390fd5b6103b97ff309ffc42715a0bfccdfa0c4cac305505f15ab9b9262b7451ceea96c0cc35187826103f1565b50565b6000806000838152602001908152602001600020600101549050919050565b60006103ea6000801b8361054d565b9050919050565b6103fa826103bc565b61040b8161040661070e565b610716565b61041583836107b3565b505050565b61042261070e565b73ffffffffffffffffffffffffffffffffffffffff168173ffffffffffffffffffffffffffffffffffffffff161461048f576040517f08c379a000000000000000000000000000000000000000000000000000000000815260040161048690610eb7565b60405180910390fd5b6104998282610893565b5050565b6104a6336103db565b6104e5576040517f08c379a00000000000000000000000000000000000000000000000000000000081526004016104dc90610e25565b60405180910390fd5b6104f26000801b826103f1565b50565b6104fe336103db565b61053d576040517f08c379a000000000000000000000000000000000000000000000000000000000815260040161053490610e25565b60405180910390fd5b61054a6000801b826103f1565b50565b600080600084815260200190815260200160002060000160008373ffffffffffffffffffffffffffffffffffffffff1673ffffffffffffffffffffffffffffffffffffffff16815260200190815260200160002060009054906101000a900460ff16905092915050565b6000801b81565b6105c7336103db565b610606576040517f08c379a00000000000000000000000000000000000000000000000000000000081526004016105fd90610e25565b60405180910390fd5b6106307f85faced7bde13e1a7dad704b895f006e704f207617d68166b31ba2d79624862d826103f1565b50565b61063c826103bc565b61064d8161064861070e565b610716565b6106578383610893565b505050565b7f85faced7bde13e1a7dad704b895f006e704f207617d68166b31ba2d79624862d81565b7ff309ffc42715a0bfccdfa0c4cac305505f15ab9b9262b7451ceea96c0cc3518781565b60007f01ffc9a7000000000000000000000000000000000000000000000000000000007bffffffffffffffffffffffffffffffffffffffffffffffffffffffff1916827bffffffffffffffffffffffffffffffffffffffffffffffffffffffff1916149050919050565b600033905090565b610720828261054d565b6107af576107458173ffffffffffffffffffffffffffffffffffffffff166014610974565b6107538360001c6020610974565b604051602001610764929190610fe9565b6040516020818303038152906040526040517f08c379a00000000000000000000000000000000000000000000000000000000081526004016107a6919061106d565b60405180910390fd5b5050565b6107bd828261054d565b61088f57600160008084815260200190815260200160002060000160008373ffffffffffffffffffffffffffffffffffffffff1673ffffffffffffffffffffffffffffffffffffffff16815260200190815260200160002060006101000a81548160ff02191690831515021790555061083461070e565b73ffffffffffffffffffffffffffffffffffffffff168173ffffffffffffffffffffffffffffffffffffffff16837f2f8788117e7eff1d82e926ec794901d17c78024a50270940304540a733656f0d60405160405180910390a45b5050565b61089d828261054d565b1561097057600080600084815260200190815260200160002060000160008373ffffffffffffffffffffffffffffffffffffffff1673ffffffffffffffffffffffffffffffffffffffff16815260200190815260200160002060006101000a81548160ff02191690831515021790555061091561070e565b73ffffffffffffffffffffffffffffffffffffffff168173ffffffffffffffffffffffffffffffffffffffff16837ff6391f5c32d9c69d2a47ea670b442974b53935d1edc7fd64eb21e047a839171b60405160405180910390a45b5050565b60606000600283600261098791906110c8565b6109919190611122565b67ffffffffffffffff8111156109aa576109a9611178565b5b6040519080825280601f01601f1916602001820160405280156109dc5781602001600182028036833780820191505090505b5090507f300000000000000000000000000000000000000000000000000000000000000081600081518110610a1457610a136111a7565b5b60200101907effffffffffffffffffffffffffffffffffffffffffffffffffffffffffffff1916908160001a9053507f780000000000000000000000000000000000000000000000000000000000000081600181518110610a7857610a776111a7565b5b60200101907effffffffffffffffffffffffffffffffffffffffffffffffffffffffffffff1916908160001a90535060006001846002610ab891906110c8565b610ac29190611122565b90505b6001811115610b62577f3031323334353637383961626364656600000000000000000000000000000000600f861660108110610b0457610b036111a7565b5b1a60f81b828281518110610b1b57610b1a6111a7565b5b60200101907effffffffffffffffffffffffffffffffffffffffffffffffffffffffffffff1916908160001a905350600485901c945080610b5b906111d6565b9050610ac5565b5060008414610ba6576040517f08c379a0000000000000000000000000000000000000000000000000000000008152600401610b9d9061124c565b60405180910390fd5b8091505092915050565b600080fd5b60007fffffffff0000000000000000000000000000000000000000000000000000000082169050919050565b610bea81610bb5565b8114610bf557600080fd5b50565b600081359050610c0781610be1565b92915050565b600060208284031215610c2357610c22610bb0565b5b6000610c3184828501610bf8565b91505092915050565b60008115159050919050565b610c4f81610c3a565b82525050565b6000602082019050610c6a6000830184610c46565b92915050565b600073ffffffffffffffffffffffffffffffffffffffff82169050919050565b6000610c9b82610c70565b9050919050565b610cab81610c90565b8114610cb657600080fd5b50565b600081359050610cc881610ca2565b92915050565b600060208284031215610ce457610ce3610bb0565b5b6000610cf284828501610cb9565b91505092915050565b6000819050919050565b610d0e81610cfb565b8114610d1957600080fd5b50565b600081359050610d2b81610d05565b92915050565b600060208284031215610d4757610d46610bb0565b5b6000610d5584828501610d1c565b91505092915050565b610d6781610cfb565b82525050565b6000602082019050610d826000830184610d5e565b92915050565b60008060408385031215610d9f57610d9e610bb0565b5b6000610dad85828601610d1c565b9250506020610dbe85828601610cb9565b9150509250929050565b600082825260208201905092915050565b7f5265737472696374656420746f2061646d696e732e0000000000000000000000600082015250565b6000610e0f601583610dc8565b9150610e1a82610dd9565b602082019050919050565b60006020820190508181036000830152610e3e81610e02565b9050919050565b7f416363657373436f6e74726f6c3a2063616e206f6e6c792072656e6f756e636560008201527f20726f6c657320666f722073656c660000000000000000000000000000000000602082015250565b6000610ea1602f83610dc8565b9150610eac82610e45565b604082019050919050565b60006020820190508181036000830152610ed081610e94565b9050919050565b600081905092915050565b7f416363657373436f6e74726f6c3a206163636f756e7420000000000000000000600082015250565b6000610f18601783610ed7565b9150610f2382610ee2565b601782019050919050565b600081519050919050565b60005b83811015610f57578082015181840152602081019050610f3c565b83811115610f66576000848401525b50505050565b6000610f7782610f2e565b610f818185610ed7565b9350610f91818560208601610f39565b80840191505092915050565b7f206973206d697373696e6720726f6c6520000000000000000000000000000000600082015250565b6000610fd3601183610ed7565b9150610fde82610f9d565b601182019050919050565b6000610ff482610f0b565b91506110008285610f6c565b915061100b82610fc6565b91506110178284610f6c565b91508190509392505050565b6000601f19601f8301169050919050565b600061103f82610f2e565b6110498185610dc8565b9350611059818560208601610f39565b61106281611023565b840191505092915050565b600060208201905081810360008301526110878184611034565b905092915050565b6000819050919050565b7f4e487b7100000000000000000000000000000000000000000000000000000000600052601160045260246000fd5b60006110d38261108f565b91506110de8361108f565b9250817fffffffffffffffffffffffffffffffffffffffffffffffffffffffffffffffff048311821515161561111757611116611099565b5b828202905092915050565b600061112d8261108f565b91506111388361108f565b9250827fffffffffffffffffffffffffffffffffffffffffffffffffffffffffffffffff0382111561116d5761116c611099565b5b828201905092915050565b7f4e487b7100000000000000000000000000000000000000000000000000000000600052604160045260246000fd5b7f4e487b7100000000000000000000000000000000000000000000000000000000600052603260045260246000fd5b60006111e18261108f565b915060008214156111f5576111f4611099565b5b600182039050919050565b7f537472696e67733a20686578206c656e67746820696e73756666696369656e74600082015250565b6000611236602083610dc8565b915061124182611200565b602082019050919050565b6000602082019050818103600083015261126581611229565b905091905056fea2646970667358221220c58aea9b4c953f0ce4f64418b3630e3f4a59fe75f408bd5359e1063b73d4875b64736f6c634300080c0033",
  "immutableReferences": {},
  "source": "// SPDX-License-Identifier: MIT\npragma solidity >=0.4.22 <0.9.0;\n\nimport \"../node_modules/@openzeppelin/contracts/access/AccessControl.sol\";\n\ncontract Roles is AccessControl{\n    \n   // bytes32 public constant DEFAULT_ADMIN_ROLE = keccak256(\"ADMIN\");\n    bytes32 public constant FARMER_ROLE = keccak256(\"FARMER\");\n    bytes32 public constant DISTRIBUTOR_ROLE = keccak256(\"DISTRIBUTOR\");\n\n constructor () {\n    _setupRole(DEFAULT_ADMIN_ROLE, msg.sender); \n  }\n\n    function giveAccessForFarmer(address account) public onlyAdmin()\n    {\n        grantRole(FARMER_ROLE, account);\n    }\n\n      function giveAccessForDistributor(address account) public onlyAdmin()\n    {\n        grantRole(DISTRIBUTOR_ROLE, account);\n    }\n\n\n  function isAdmin(address account) public virtual view returns(bool)\n  {\n    return hasRole(DEFAULT_ADMIN_ROLE, account);\n  }\n\n  modifier onlyAdmin() {\n    require(isAdmin(msg.sender), \"Restricted to admins.\");\n      _;\n  }\n\n  function addAdmin(address account) public virtual onlyAdmin\n  {\n    grantRole(DEFAULT_ADMIN_ROLE, account);\n  }\n  function changeAdmin(address account) public virtual onlyAdmin\n  {\n      grantRole(DEFAULT_ADMIN_ROLE, account);\n\n\n  }\n}",
  "sourcePath": "/home/crawzer/blockchain/front/my-app/contracts/contracts/Roles.sol",
  "compiler": {
    "name": "solc",
    "version": "0.8.12+commit.f00d7308.Emscripten.clang"
  },
  "schemaVersion": "3.4.5",
  "updatedAt": "2022-04-27T20:40:57.422Z",
  "devdoc": {
    "kind": "dev",
    "methods": {
      "getRoleAdmin(bytes32)": {
        "details": "Returns the admin role that controls `role`. See {grantRole} and {revokeRole}. To change a role's admin, use {_setRoleAdmin}."
      },
      "grantRole(bytes32,address)": {
        "details": "Grants `role` to `account`. If `account` had not been already granted `role`, emits a {RoleGranted} event. Requirements: - the caller must have ``role``'s admin role."
      },
      "hasRole(bytes32,address)": {
        "details": "Returns `true` if `account` has been granted `role`."
      },
      "renounceRole(bytes32,address)": {
        "details": "Revokes `role` from the calling account. Roles are often managed via {grantRole} and {revokeRole}: this function's purpose is to provide a mechanism for accounts to lose their privileges if they are compromised (such as when a trusted device is misplaced). If the calling account had been revoked `role`, emits a {RoleRevoked} event. Requirements: - the caller must be `account`."
      },
      "revokeRole(bytes32,address)": {
        "details": "Revokes `role` from `account`. If `account` had been granted `role`, emits a {RoleRevoked} event. Requirements: - the caller must have ``role``'s admin role."
      },
      "supportsInterface(bytes4)": {
        "details": "See {IERC165-supportsInterface}."
      }
    },
    "version": 1
  },
  "userdoc": {
    "kind": "user",
    "methods": {},
    "version": 1
  }
}