{
  "contractName": "SupplyChain",
  "abi": [
    {
      "inputs": [],
      "stateMutability": "payable",
      "type": "constructor",
      "payable": true
    },
    {
      "anonymous": false,
      "inputs": [
        {
          "indexed": true,
          "internalType": "address",
          "name": "account",
          "type": "address"
        }
      ],
      "name": "DistributorAdded",
      "type": "event"
    },
    {
      "anonymous": false,
      "inputs": [
        {
          "indexed": true,
          "internalType": "address",
          "name": "account",
          "type": "address"
        }
      ],
      "name": "FarmerAdded",
      "type": "event"
    },
    {
      "anonymous": false,
      "inputs": [
        {
          "indexed": false,
          "internalType": "uint256",
          "name": "id",
          "type": "uint256"
        }
      ],
      "name": "ForSaleByFarmer",
      "type": "event"
    },
    {
      "anonymous": false,
      "inputs": [
        {
          "indexed": true,
          "internalType": "address",
          "name": "account",
          "type": "address"
        }
      ],
      "name": "ProcessorAdded",
      "type": "event"
    },
    {
      "anonymous": false,
      "inputs": [
        {
          "indexed": false,
          "internalType": "uint256",
          "name": "id",
          "type": "uint256"
        }
      ],
      "name": "ProduceByFarmer",
      "type": "event"
    },
    {
      "anonymous": false,
      "inputs": [
        {
          "indexed": false,
          "internalType": "uint256",
          "name": "id",
          "type": "uint256"
        }
      ],
      "name": "PurchasedByDistributor",
      "type": "event"
    },
    {
      "anonymous": false,
      "inputs": [
        {
          "indexed": true,
          "internalType": "bytes32",
          "name": "role",
          "type": "bytes32"
        },
        {
          "indexed": true,
          "internalType": "bytes32",
          "name": "previousAdminRole",
          "type": "bytes32"
        },
        {
          "indexed": true,
          "internalType": "bytes32",
          "name": "newAdminRole",
          "type": "bytes32"
        }
      ],
      "name": "RoleAdminChanged",
      "type": "event"
    },
    {
      "anonymous": false,
      "inputs": [
        {
          "indexed": true,
          "internalType": "bytes32",
          "name": "role",
          "type": "bytes32"
        },
        {
          "indexed": true,
          "internalType": "address",
          "name": "account",
          "type": "address"
        },
        {
          "indexed": true,
          "internalType": "address",
          "name": "sender",
          "type": "address"
        }
      ],
      "name": "RoleGranted",
      "type": "event"
    },
    {
      "anonymous": false,
      "inputs": [
        {
          "indexed": true,
          "internalType": "bytes32",
          "name": "role",
          "type": "bytes32"
        },
        {
          "indexed": true,
          "internalType": "address",
          "name": "account",
          "type": "address"
        },
        {
          "indexed": true,
          "internalType": "address",
          "name": "sender",
          "type": "address"
        }
      ],
      "name": "RoleRevoked",
      "type": "event"
    },
    {
      "anonymous": false,
      "inputs": [
        {
          "indexed": false,
          "internalType": "uint256",
          "name": "id",
          "type": "uint256"
        }
      ],
      "name": "ShippedByFarmer",
      "type": "event"
    },
    {
      "inputs": [],
      "name": "DEFAULT_ADMIN_ROLE",
      "outputs": [
        {
          "internalType": "bytes32",
          "name": "",
          "type": "bytes32"
        }
      ],
      "stateMutability": "view",
      "type": "function",
      "constant": true
    },
    {
      "inputs": [],
      "name": "DISTRIBUTOR_ROLE",
      "outputs": [
        {
          "internalType": "bytes32",
          "name": "",
          "type": "bytes32"
        }
      ],
      "stateMutability": "view",
      "type": "function",
      "constant": true
    },
    {
      "inputs": [],
      "name": "FARMER_ROLE",
      "outputs": [
        {
          "internalType": "bytes32",
          "name": "",
          "type": "bytes32"
        }
      ],
      "stateMutability": "view",
      "type": "function",
      "constant": true
    },
    {
      "inputs": [
        {
          "internalType": "address",
          "name": "account",
          "type": "address"
        }
      ],
      "name": "addAdmin",
      "outputs": [],
      "stateMutability": "nonpayable",
      "type": "function"
    },
    {
      "inputs": [
        {
          "internalType": "address",
          "name": "account",
          "type": "address"
        }
      ],
      "name": "addDistributor",
      "outputs": [],
      "stateMutability": "nonpayable",
      "type": "function"
    },
    {
      "inputs": [
        {
          "internalType": "address",
          "name": "account",
          "type": "address"
        }
      ],
      "name": "addFarmer",
      "outputs": [],
      "stateMutability": "nonpayable",
      "type": "function"
    },
    {
      "inputs": [
        {
          "internalType": "address",
          "name": "account",
          "type": "address"
        }
      ],
      "name": "addProcessor",
      "outputs": [],
      "stateMutability": "nonpayable",
      "type": "function"
    },
    {
      "inputs": [
        {
          "internalType": "address",
          "name": "account",
          "type": "address"
        }
      ],
      "name": "changeAdmin",
      "outputs": [],
      "stateMutability": "nonpayable",
      "type": "function"
    },
    {
      "inputs": [
        {
          "internalType": "bytes32",
          "name": "role",
          "type": "bytes32"
        }
      ],
      "name": "getRoleAdmin",
      "outputs": [
        {
          "internalType": "bytes32",
          "name": "",
          "type": "bytes32"
        }
      ],
      "stateMutability": "view",
      "type": "function",
      "constant": true
    },
    {
      "inputs": [
        {
          "internalType": "address",
          "name": "account",
          "type": "address"
        }
      ],
      "name": "giveAccessForDistributor",
      "outputs": [],
      "stateMutability": "nonpayable",
      "type": "function"
    },
    {
      "inputs": [
        {
          "internalType": "address",
          "name": "account",
          "type": "address"
        }
      ],
      "name": "giveAccessForFarmer",
      "outputs": [],
      "stateMutability": "nonpayable",
      "type": "function"
    },
    {
      "inputs": [
        {
          "internalType": "bytes32",
          "name": "role",
          "type": "bytes32"
        },
        {
          "internalType": "address",
          "name": "account",
          "type": "address"
        }
      ],
      "name": "grantRole",
      "outputs": [],
      "stateMutability": "nonpayable",
      "type": "function"
    },
    {
      "inputs": [
        {
          "internalType": "bytes32",
          "name": "role",
          "type": "bytes32"
        },
        {
          "internalType": "address",
          "name": "account",
          "type": "address"
        }
      ],
      "name": "hasRole",
      "outputs": [
        {
          "internalType": "bool",
          "name": "",
          "type": "bool"
        }
      ],
      "stateMutability": "view",
      "type": "function",
      "constant": true
    },
    {
      "inputs": [
        {
          "internalType": "address",
          "name": "account",
          "type": "address"
        }
      ],
      "name": "isAdmin",
      "outputs": [
        {
          "internalType": "bool",
          "name": "",
          "type": "bool"
        }
      ],
      "stateMutability": "view",
      "type": "function",
      "constant": true
    },
    {
      "inputs": [
        {
          "internalType": "bytes32",
          "name": "role",
          "type": "bytes32"
        },
        {
          "internalType": "address",
          "name": "account",
          "type": "address"
        }
      ],
      "name": "renounceRole",
      "outputs": [],
      "stateMutability": "nonpayable",
      "type": "function"
    },
    {
      "inputs": [
        {
          "internalType": "bytes32",
          "name": "role",
          "type": "bytes32"
        },
        {
          "internalType": "address",
          "name": "account",
          "type": "address"
        }
      ],
      "name": "revokeRole",
      "outputs": [],
      "stateMutability": "nonpayable",
      "type": "function"
    },
    {
      "inputs": [
        {
          "internalType": "bytes4",
          "name": "interfaceId",
          "type": "bytes4"
        }
      ],
      "name": "supportsInterface",
      "outputs": [
        {
          "internalType": "bool",
          "name": "",
          "type": "bool"
        }
      ],
      "stateMutability": "view",
      "type": "function",
      "constant": true
    },
    {
      "inputs": [
        {
          "internalType": "uint256",
          "name": "_id",
          "type": "uint256"
        }
      ],
      "name": "showProductInfo",
      "outputs": [
        {
          "internalType": "enum SupplyChain.State",
          "name": "",
          "type": "uint8"
        }
      ],
      "stateMutability": "view",
      "type": "function",
      "constant": true
    },
    {
      "inputs": [],
      "name": "helloworld",
      "outputs": [
        {
          "internalType": "string",
          "name": "",
          "type": "string"
        }
      ],
      "stateMutability": "pure",
      "type": "function",
      "constant": true
    },
    {
      "inputs": [
        {
          "internalType": "uint256",
          "name": "_upc",
          "type": "uint256"
        }
      ],
      "name": "fetchItem",
      "outputs": [
        {
          "internalType": "address",
          "name": "originFarmerID",
          "type": "address"
        },
        {
          "internalType": "string",
          "name": "originFarmName",
          "type": "string"
        },
        {
          "internalType": "string",
          "name": "originFarmInformation",
          "type": "string"
        },
        {
          "internalType": "string",
          "name": "originFarmLatitude",
          "type": "string"
        },
        {
          "internalType": "string",
          "name": "originFarmLongitude",
          "type": "string"
        },
        {
          "internalType": "string",
          "name": "originFarmerName",
          "type": "string"
        }
      ],
      "stateMutability": "view",
      "type": "function",
      "constant": true
    },
    {
      "inputs": [
        {
          "internalType": "uint256",
          "name": "_upc",
          "type": "uint256"
        },
        {
          "internalType": "string",
          "name": "_originFarmName",
          "type": "string"
        },
        {
          "internalType": "string",
          "name": "_originFarmInformation",
          "type": "string"
        },
        {
          "internalType": "string",
          "name": "_originFarmLatitude",
          "type": "string"
        },
        {
          "internalType": "string",
          "name": "_originFarmLongitude",
          "type": "string"
        },
        {
          "internalType": "uint256",
          "name": "_productDate",
          "type": "uint256"
        },
        {
          "internalType": "string",
          "name": "_originFarmerName",
          "type": "string"
        }
      ],
      "name": "produceItemByFarmer",
      "outputs": [],
      "stateMutability": "nonpayable",
      "type": "function"
    },
    {
      "inputs": [
        {
          "internalType": "uint256",
          "name": "_upc",
          "type": "uint256"
        }
      ],
      "name": "purchaseItemByDistributor",
      "outputs": [],
      "stateMutability": "payable",
      "type": "function",
      "payable": true
    },
    {
      "inputs": [
        {
          "internalType": "uint256",
          "name": "_upc",
          "type": "uint256"
        }
      ],
      "name": "shippedItemByFarmer",
      "outputs": [],
      "stateMutability": "nonpayable",
      "type": "function"
    },
    {
      "inputs": [
        {
          "internalType": "uint256",
          "name": "_upc",
          "type": "uint256"
        },
        {
          "internalType": "uint256",
          "name": "_price",
          "type": "uint256"
        }
      ],
      "name": "sellItemByFarmer",
      "outputs": [],
      "stateMutability": "nonpayable",
      "type": "function"
    }
  ],
  "bytecode": "0x608060405260016007556001600855620000236000801b336200011a60201b60201c565b7f4641524d45525f524f4c4500000000000000000000000000000000000000000060018001819055506200005d336200013060201b60201c565b7f4469737472696275746f725f524f4c450000000000000000000000000000000060036001018190555062000098336200025f60201b60201c565b7f50524f434553534f525f524f4c45000000000000000000000000000000000000600560010181905550620000d3336200038f60201b60201c565b33600960006101000a81548173ffffffffffffffffffffffffffffffffffffffff021916908373ffffffffffffffffffffffffffffffffffffffff160217905550620007b0565b6200012c8282620004bf60201b60201c565b5050565b600073ffffffffffffffffffffffffffffffffffffffff168173ffffffffffffffffffffffffffffffffffffffff1614156200016b57600080fd5b6200017c81620005b060201b60201c565b15620001bf576040517f08c379a0000000000000000000000000000000000000000000000000000000008152600401620001b6906200078e565b60405180910390fd5b60018060000160008373ffffffffffffffffffffffffffffffffffffffff1673ffffffffffffffffffffffffffffffffffffffff16815260200190815260200160002060006101000a81548160ff0219169083151502179055508073ffffffffffffffffffffffffffffffffffffffff167f2e0ded4123377a3c2bc9a26f1717655a129e2f20752924d42e730ec89c83dbd060405160405180910390a250565b600073ffffffffffffffffffffffffffffffffffffffff168173ffffffffffffffffffffffffffffffffffffffff1614156200029a57600080fd5b620002ab816200060960201b60201c565b15620002ee576040517f08c379a0000000000000000000000000000000000000000000000000000000008152600401620002e5906200078e565b60405180910390fd5b6001600360000160008373ffffffffffffffffffffffffffffffffffffffff1673ffffffffffffffffffffffffffffffffffffffff16815260200190815260200160002060006101000a81548160ff0219169083151502179055508073ffffffffffffffffffffffffffffffffffffffff167fddbf200aa634dc3fb81cfd68583dd1040d1c751d335e1d86b631bde3e977fea860405160405180910390a250565b600073ffffffffffffffffffffffffffffffffffffffff168173ffffffffffffffffffffffffffffffffffffffff161415620003ca57600080fd5b620003db816200066260201b60201c565b156200041e576040517f08c379a000000000000000000000000000000000000000000000000000000000815260040162000415906200078e565b60405180910390fd5b6001600560000160008373ffffffffffffffffffffffffffffffffffffffff1673ffffffffffffffffffffffffffffffffffffffff16815260200190815260200160002060006101000a81548160ff0219169083151502179055508073ffffffffffffffffffffffffffffffffffffffff167f05c1b3ccb9c2d46f702e834ef4d1089736770e1dc99594e4eed7d32156c5809960405160405180910390a250565b620004d18282620006bb60201b60201c565b620005ac57600160008084815260200190815260200160002060000160008373ffffffffffffffffffffffffffffffffffffffff1673ffffffffffffffffffffffffffffffffffffffff16815260200190815260200160002060006101000a81548160ff021916908315150217905550620005516200072560201b60201c565b73ffffffffffffffffffffffffffffffffffffffff168173ffffffffffffffffffffffffffffffffffffffff16837f2f8788117e7eff1d82e926ec794901d17c78024a50270940304540a733656f0d60405160405180910390a45b5050565b6000600160000160008373ffffffffffffffffffffffffffffffffffffffff1673ffffffffffffffffffffffffffffffffffffffff16815260200190815260200160002060009054906101000a900460ff169050919050565b6000600360000160008373ffffffffffffffffffffffffffffffffffffffff1673ffffffffffffffffffffffffffffffffffffffff16815260200190815260200160002060009054906101000a900460ff169050919050565b6000600560000160008373ffffffffffffffffffffffffffffffffffffffff1673ffffffffffffffffffffffffffffffffffffffff16815260200190815260200160002060009054906101000a900460ff169050919050565b600080600084815260200190815260200160002060000160008373ffffffffffffffffffffffffffffffffffffffff1673ffffffffffffffffffffffffffffffffffffffff16815260200190815260200160002060009054906101000a900460ff16905092915050565b600033905090565b600082825260208201905092915050565b7f6675636b206f6666000000000000000000000000000000000000000000000000600082015250565b6000620007766008836200072d565b915062000783826200073e565b602082019050919050565b60006020820190508181036000830152620007a98162000767565b9050919050565b61327a80620007c06000396000f3fe60806040526004361061014b5760003560e01c806380c3f96d116100b6578063c52620821161006f578063c52620821461049f578063d547741f146104dc578063e618f00014610505578063f0bd87cc1461052e578063f394397014610559578063fdcdc06f146105845761014b565b806380c3f96d1461037a5780638f283970146103a357806391d14854146103cc578063a217fddf14610409578063ad4b9cfb14610434578063b4af12bf146104765761014b565b80632f2f4859116101085780632f2f4859146102825780632f2ff15d146102ad57806336568abe146102d657806370480275146102ff57806371f3ff90146103285780637250e224146103515761014b565b806301ffc9a71461015057806308ccf2191461018d57806308f3e9e1146101b6578063248a9ca3146101df57806324d7806c1461021c5780632546075314610259575b600080fd5b34801561015c57600080fd5b5061017760048036038101906101729190612690565b6105a0565b60405161018491906126d8565b60405180910390f35b34801561019957600080fd5b506101b460048036038101906101af9190612751565b61061a565b005b3480156101c257600080fd5b506101dd60048036038101906101d891906128fa565b61068f565b005b3480156101eb57600080fd5b5061020660048036038101906102019190612a5e565b610d03565b6040516102139190612a9a565b60405180910390f35b34801561022857600080fd5b50610243600480360381019061023e9190612751565b610d22565b60405161025091906126d8565b60405180910390f35b34801561026557600080fd5b50610280600480360381019061027b9190612751565b610d38565b005b34801561028e57600080fd5b50610297610d8c565b6040516102a49190612b3d565b60405180910390f35b3480156102b957600080fd5b506102d460048036038101906102cf9190612b5f565b610dcf565b005b3480156102e257600080fd5b506102fd60048036038101906102f89190612b5f565b610df8565b005b34801561030b57600080fd5b5061032660048036038101906103219190612751565b610e7b565b005b34801561033457600080fd5b5061034f600480360381019061034a9190612b9f565b610ed3565b005b34801561035d57600080fd5b5061037860048036038101906103739190612751565b610fa2565b005b34801561038657600080fd5b506103a1600480360381019061039c9190612751565b610ff6565b005b3480156103af57600080fd5b506103ca60048036038101906103c59190612751565b61104a565b005b3480156103d857600080fd5b506103f360048036038101906103ee9190612b5f565b6110a2565b60405161040091906126d8565b60405180910390f35b34801561041557600080fd5b5061041e61110c565b60405161042b9190612a9a565b60405180910390f35b34801561044057600080fd5b5061045b60048036038101906104569190612b9f565b611113565b60405161046d96959493929190612bdb565b60405180910390f35b34801561048257600080fd5b5061049d60048036038101906104989190612751565b6114a6565b005b3480156104ab57600080fd5b506104c660048036038101906104c19190612b9f565b61151b565b6040516104d39190612cd6565b60405180910390f35b3480156104e857600080fd5b5061050360048036038101906104fe9190612b5f565b61154d565b005b34801561051157600080fd5b5061052c60048036038101906105279190612cf1565b611576565b005b34801561053a57600080fd5b5061054361160b565b6040516105509190612a9a565b60405180910390f35b34801561056557600080fd5b5061056e61162f565b60405161057b9190612a9a565b60405180910390f35b61059e60048036038101906105999190612b9f565b611653565b005b60007f7965db0b000000000000000000000000000000000000000000000000000000007bffffffffffffffffffffffffffffffffffffffffffffffffffffffff1916827bffffffffffffffffffffffffffffffffffffffffffffffffffffffff1916148061061357506106128261188a565b5b9050919050565b61062333610d22565b610662576040517f08c379a000000000000000000000000000000000000000000000000000000000815260040161065990612d7d565b60405180910390fd5b61068c7ff309ffc42715a0bfccdfa0c4cac305505f15ab9b9262b7451ceea96c0cc3518782610dcf565b50565b61069761220c565b8781602001818152505033816040019073ffffffffffffffffffffffffffffffffffffffff16908173ffffffffffffffffffffffffffffffffffffffff168152505033816060019073ffffffffffffffffffffffffffffffffffffffff16908173ffffffffffffffffffffffffffffffffffffffff1681525050868160800181905250858160a00181905250848160c00181905250838160e00181905250600754886107439190612dcc565b8161010001818152505082816101400181815250506000816101800190600381111561077257610771612c5f565b5b9081600381111561078657610785612c5f565b5b8152505080600b60008a8152602001908152602001600020600082015181600001556020820151816001015560408201518160020160006101000a81548173ffffffffffffffffffffffffffffffffffffffff021916908373ffffffffffffffffffffffffffffffffffffffff16021790555060608201518160030160006101000a81548173ffffffffffffffffffffffffffffffffffffffff021916908373ffffffffffffffffffffffffffffffffffffffff160217905550608082015181600401908051906020019061085c929190612316565b5060a0820151816005019080519060200190610879929190612316565b5060c0820151816006019080519060200190610896929190612316565b5060e08201518160070190805190602001906108b3929190612316565b5061010082015181600801556101208201518160090190805190602001906108dc929190612316565b5061014082015181600a015561016082015181600b015561018082015181600c0160006101000a81548160ff0219169083600381111561091f5761091e612c5f565b5b02179055506101a082015181600c0160016101000a81548173ffffffffffffffffffffffffffffffffffffffff021916908373ffffffffffffffffffffffffffffffffffffffff1602179055506101c082015181600d0160008201518160000160006101000a81548160ff021916908360068111156109a1576109a0612c5f565b5b021790555060208201518160000160016101000a81548160ff021916908360018111156109d1576109d0612c5f565b5b021790555060408201518160010160008201518160000160006101000a81548160ff0219169083600f811115610a0a57610a09612c5f565b5b021790555060208201518160000160016101000a81548160ff02191690836002811115610a3a57610a39612c5f565b5b021790555060408201518160000160026101000a81548160ff02191690836000811115610a6a57610a69612c5f565b5b021790555060608201518160000160036101000a81548160ff02191690836008811115610a9a57610a99612c5f565b5b021790555060808201518160000160046101000a81548160ff02191690836001811115610aca57610ac9612c5f565b5b021790555060a08201518160000160056101000a81548160ff02191690836007811115610afa57610af9612c5f565b5b021790555060c08201518160000160066101000a81548160ff02191690836008811115610b2a57610b29612c5f565b5b021790555060e08201518160000160076101000a81548160ff02191690836000811115610b5a57610b59612c5f565b5b02179055506101008201518160000160086101000a81548160ff0219169083600c811115610b8b57610b8a612c5f565b5b0217905550505050506101e082015181600f0160006101000a81548173ffffffffffffffffffffffffffffffffffffffff021916908373ffffffffffffffffffffffffffffffffffffffff1602179055506102008201518160100160006101000a81548173ffffffffffffffffffffffffffffffffffffffff021916908373ffffffffffffffffffffffffffffffffffffffff1602179055509050506001600754610c369190612dcc565b600781905550610c4461239c565b3381600001516000019073ffffffffffffffffffffffffffffffffffffffff16908173ffffffffffffffffffffffffffffffffffffffff16815250508681600001516040018190525085816000015160600181905250848160000151608001819052508781600001516020018190525082816000015160a001819052507fe8a027a2bb83abbf6ec926b84d4aeb91585c16b58b27b8d0f0fb451566a5521189604051610cf09190612e31565b60405180910390a1505050505050505050565b6000806000838152602001908152602001600020600101549050919050565b6000610d316000801b836110a2565b9050919050565b610d41336118f4565b610d80576040517f08c379a0000000000000000000000000000000000000000000000000000000008152600401610d7790612e98565b60405180910390fd5b610d898161194d565b50565b606060006040518060400160405280600b81526020017f68656c6c6f20776f726c6400000000000000000000000000000000000000000081525090508091505090565b610dd882610d03565b610de981610de4611a71565b611a79565b610df38383611b16565b505050565b610e00611a71565b73ffffffffffffffffffffffffffffffffffffffff168173ffffffffffffffffffffffffffffffffffffffff1614610e6d576040517f08c379a0000000000000000000000000000000000000000000000000000000008152600401610e6490612f2a565b60405180910390fd5b610e778282611bf6565b5050565b610e8433610d22565b610ec3576040517f08c379a0000000000000000000000000000000000000000000000000000000008152600401610eba90612d7d565b60405180910390fd5b610ed06000801b82610dcf565b50565b8060026003811115610ee857610ee7612c5f565b5b600b6000838152602001908152602001600020600c0160009054906101000a900460ff166003811115610f1e57610f1d612c5f565b5b14610f2857600080fd5b6003600b6000848152602001908152602001600020600c0160006101000a81548160ff02191690836003811115610f6257610f61612c5f565b5b02179055507fe6ae062d51064ae2a5a31a72fcb1bee1d343fdc6bddc1d3dfce658ece4f0321282604051610f969190612e31565b60405180910390a15050565b610fab33611cd7565b610fea576040517f08c379a0000000000000000000000000000000000000000000000000000000008152600401610fe190612e98565b60405180910390fd5b610ff381611d30565b50565b610fff33611e54565b61103e576040517f08c379a000000000000000000000000000000000000000000000000000000000815260040161103590612e98565b60405180910390fd5b61104781611ead565b50565b61105333610d22565b611092576040517f08c379a000000000000000000000000000000000000000000000000000000000815260040161108990612d7d565b60405180910390fd5b61109f6000801b82610dcf565b50565b600080600084815260200190815260200160002060000160008373ffffffffffffffffffffffffffffffffffffffff1673ffffffffffffffffffffffffffffffffffffffff16815260200190815260200160002060009054906101000a900460ff16905092915050565b6000801b81565b600060608060608060606000600a60008981526020019081526020016000206000016040518060c00160405290816000820160009054906101000a900473ffffffffffffffffffffffffffffffffffffffff1673ffffffffffffffffffffffffffffffffffffffff1673ffffffffffffffffffffffffffffffffffffffff1681526020016001820180546111a690612f79565b80601f01602080910402602001604051908101604052809291908181526020018280546111d290612f79565b801561121f5780601f106111f45761010080835404028352916020019161121f565b820191906000526020600020905b81548152906001019060200180831161120257829003601f168201915b5050505050815260200160028201805461123890612f79565b80601f016020809104026020016040519081016040528092919081815260200182805461126490612f79565b80156112b15780601f10611286576101008083540402835291602001916112b1565b820191906000526020600020905b81548152906001019060200180831161129457829003601f168201915b505050505081526020016003820180546112ca90612f79565b80601f01602080910402602001604051908101604052809291908181526020018280546112f690612f79565b80156113435780601f1061131857610100808354040283529160200191611343565b820191906000526020600020905b81548152906001019060200180831161132657829003601f168201915b5050505050815260200160048201805461135c90612f79565b80601f016020809104026020016040519081016040528092919081815260200182805461138890612f79565b80156113d55780601f106113aa576101008083540402835291602001916113d5565b820191906000526020600020905b8154815290600101906020018083116113b857829003601f168201915b505050505081526020016005820180546113ee90612f79565b80601f016020809104026020016040519081016040528092919081815260200182805461141a90612f79565b80156114675780601f1061143c57610100808354040283529160200191611467565b820191906000526020600020905b81548152906001019060200180831161144a57829003601f168201915b5050505050815250509050806000015181602001518260400151836060015184608001518560a001519650965096509650965096505091939550919395565b6114af33610d22565b6114ee576040517f08c379a00000000000000000000000000000000000000000000000000000000081526004016114e590612d7d565b60405180910390fd5b6115187f85faced7bde13e1a7dad704b895f006e704f207617d68166b31ba2d79624862d82610dcf565b50565b600080600b6000848152602001908152602001600020600c0160009054906101000a900460ff16905080915050919050565b61155682610d03565b61156781611562611a71565b611a79565b6115718383611bf6565b505050565b6001600b6000848152602001908152602001600020600c0160006101000a81548160ff021916908360038111156115b0576115af612c5f565b5b021790555080600b6000848152602001908152602001600020600b01819055507f7a02b5a0b1f928cffcafd0e750f369a40f124f4f34f65801fe1f0d945b9a7915826040516115ff9190612e31565b60405180910390a15050565b7f85faced7bde13e1a7dad704b895f006e704f207617d68166b31ba2d79624862d81565b7ff309ffc42715a0bfccdfa0c4cac305505f15ab9b9262b7451ceea96c0cc3518781565b806001600381111561166857611667612c5f565b5b600b6000838152602001908152602001600020600c0160009054906101000a900460ff16600381111561169e5761169d612c5f565b5b146116a857600080fd5b600b6000838152602001908152602001600020600b0154803410156116cc57600080fd5b6000600b600085815260200190815260200160002060030160009054906101000a900473ffffffffffffffffffffffffffffffffffffffff1690508073ffffffffffffffffffffffffffffffffffffffff166108fc600b6000878152602001908152602001600020600b01549081150290604051600060405180830381858888f19350505050158015611763573d6000803e3d6000fd5b5033600b600086815260200190815260200160002060020160006101000a81548173ffffffffffffffffffffffffffffffffffffffff021916908373ffffffffffffffffffffffffffffffffffffffff16021790555033600b6000868152602001908152602001600020600c0160016101000a81548173ffffffffffffffffffffffffffffffffffffffff021916908373ffffffffffffffffffffffffffffffffffffffff1602179055506002600b6000868152602001908152602001600020600c0160006101000a81548160ff0219169083600381111561184857611847612c5f565b5b02179055507facd9402b9f9e8c15fa7c1819f8393ca56eb61316cc354fc6ac2150aed3ce79318460405161187c9190612e31565b60405180910390a150505050565b60007f01ffc9a7000000000000000000000000000000000000000000000000000000007bffffffffffffffffffffffffffffffffffffffffffffffffffffffff1916827bffffffffffffffffffffffffffffffffffffffffffffffffffffffff1916149050919050565b6000600560000160008373ffffffffffffffffffffffffffffffffffffffff1673ffffffffffffffffffffffffffffffffffffffff16815260200190815260200160002060009054906101000a900460ff169050919050565b600073ffffffffffffffffffffffffffffffffffffffff168173ffffffffffffffffffffffffffffffffffffffff16141561198757600080fd5b611990816118f4565b156119d0576040517f08c379a00000000000000000000000000000000000000000000000000000000081526004016119c790612ff7565b60405180910390fd5b6001600560000160008373ffffffffffffffffffffffffffffffffffffffff1673ffffffffffffffffffffffffffffffffffffffff16815260200190815260200160002060006101000a81548160ff0219169083151502179055508073ffffffffffffffffffffffffffffffffffffffff167f05c1b3ccb9c2d46f702e834ef4d1089736770e1dc99594e4eed7d32156c5809960405160405180910390a250565b600033905090565b611a8382826110a2565b611b1257611aa88173ffffffffffffffffffffffffffffffffffffffff166014611fd0565b611ab68360001c6020611fd0565b604051602001611ac79291906130eb565b6040516020818303038152906040526040517f08c379a0000000000000000000000000000000000000000000000000000000008152600401611b099190612b3d565b60405180910390fd5b5050565b611b2082826110a2565b611bf257600160008084815260200190815260200160002060000160008373ffffffffffffffffffffffffffffffffffffffff1673ffffffffffffffffffffffffffffffffffffffff16815260200190815260200160002060006101000a81548160ff021916908315150217905550611b97611a71565b73ffffffffffffffffffffffffffffffffffffffff168173ffffffffffffffffffffffffffffffffffffffff16837f2f8788117e7eff1d82e926ec794901d17c78024a50270940304540a733656f0d60405160405180910390a45b5050565b611c0082826110a2565b15611cd357600080600084815260200190815260200160002060000160008373ffffffffffffffffffffffffffffffffffffffff1673ffffffffffffffffffffffffffffffffffffffff16815260200190815260200160002060006101000a81548160ff021916908315150217905550611c78611a71565b73ffffffffffffffffffffffffffffffffffffffff168173ffffffffffffffffffffffffffffffffffffffff16837ff6391f5c32d9c69d2a47ea670b442974b53935d1edc7fd64eb21e047a839171b60405160405180910390a45b5050565b6000600360000160008373ffffffffffffffffffffffffffffffffffffffff1673ffffffffffffffffffffffffffffffffffffffff16815260200190815260200160002060009054906101000a900460ff169050919050565b600073ffffffffffffffffffffffffffffffffffffffff168173ffffffffffffffffffffffffffffffffffffffff161415611d6a57600080fd5b611d7381611cd7565b15611db3576040517f08c379a0000000000000000000000000000000000000000000000000000000008152600401611daa90612ff7565b60405180910390fd5b6001600360000160008373ffffffffffffffffffffffffffffffffffffffff1673ffffffffffffffffffffffffffffffffffffffff16815260200190815260200160002060006101000a81548160ff0219169083151502179055508073ffffffffffffffffffffffffffffffffffffffff167fddbf200aa634dc3fb81cfd68583dd1040d1c751d335e1d86b631bde3e977fea860405160405180910390a250565b6000600160000160008373ffffffffffffffffffffffffffffffffffffffff1673ffffffffffffffffffffffffffffffffffffffff16815260200190815260200160002060009054906101000a900460ff169050919050565b600073ffffffffffffffffffffffffffffffffffffffff168173ffffffffffffffffffffffffffffffffffffffff161415611ee757600080fd5b611ef081611e54565b15611f30576040517f08c379a0000000000000000000000000000000000000000000000000000000008152600401611f2790612ff7565b60405180910390fd5b60018060000160008373ffffffffffffffffffffffffffffffffffffffff1673ffffffffffffffffffffffffffffffffffffffff16815260200190815260200160002060006101000a81548160ff0219169083151502179055508073ffffffffffffffffffffffffffffffffffffffff167f2e0ded4123377a3c2bc9a26f1717655a129e2f20752924d42e730ec89c83dbd060405160405180910390a250565b606060006002836002611fe39190613125565b611fed9190612dcc565b67ffffffffffffffff811115612006576120056127cf565b5b6040519080825280601f01601f1916602001820160405280156120385781602001600182028036833780820191505090505b5090507f3000000000000000000000000000000000000000000000000000000000000000816000815181106120705761206f61317f565b5b60200101907effffffffffffffffffffffffffffffffffffffffffffffffffffffffffffff1916908160001a9053507f7800000000000000000000000000000000000000000000000000000000000000816001815181106120d4576120d361317f565b5b60200101907effffffffffffffffffffffffffffffffffffffffffffffffffffffffffffff1916908160001a905350600060018460026121149190613125565b61211e9190612dcc565b90505b60018111156121be577f3031323334353637383961626364656600000000000000000000000000000000600f8616601081106121605761215f61317f565b5b1a60f81b8282815181106121775761217661317f565b5b60200101907effffffffffffffffffffffffffffffffffffffffffffffffffffffffffffff1916908160001a905350600485901c9450806121b7906131ae565b9050612121565b5060008414612202576040517f08c379a00000000000000000000000000000000000000000000000000000000081526004016121f990613224565b60405180910390fd5b8091505092915050565b6040518061022001604052806000815260200160008152602001600073ffffffffffffffffffffffffffffffffffffffff168152602001600073ffffffffffffffffffffffffffffffffffffffff1681526020016060815260200160608152602001606081526020016060815260200160008152602001606081526020016000815260200160008152602001600060038111156122ac576122ab612c5f565b5b8152602001600073ffffffffffffffffffffffffffffffffffffffff1681526020016122d66123de565b8152602001600073ffffffffffffffffffffffffffffffffffffffff168152602001600073ffffffffffffffffffffffffffffffffffffffff1681525090565b82805461232290612f79565b90600052602060002090601f016020900481019282612344576000855561238b565b82601f1061235d57805160ff191683800117855561238b565b8280016001018555821561238b579182015b8281111561238a57825182559160200191906001019061236f565b5b5090506123989190612429565b5090565b6040518060c001604052806123af612446565b81526020016123bc612492565b8152602001600081526020016000815260200160008152602001600081525090565b6040518060600160405280600060068111156123fd576123fc612c5f565b5b81526020016000600181111561241657612415612c5f565b5b8152602001612423612538565b81525090565b5b8082111561244257600081600090555060010161242a565b5090565b6040518060c00160405280600073ffffffffffffffffffffffffffffffffffffffff16815260200160608152602001606081526020016060815260200160608152602001606081525090565b60405180610120016040528060008152602001606081526020016000815260200160008152602001600060038111156124ce576124cd612c5f565b5b8152602001600073ffffffffffffffffffffffffffffffffffffffff1681526020016124f86123de565b8152602001600073ffffffffffffffffffffffffffffffffffffffff168152602001600073ffffffffffffffffffffffffffffffffffffffff1681525090565b6040518061012001604052806000600f81111561255857612557612c5f565b5b81526020016000600281111561257157612570612c5f565b5b815260200160008081111561258957612588612c5f565b5b8152602001600060088111156125a2576125a1612c5f565b5b8152602001600060018111156125bb576125ba612c5f565b5b8152602001600060078111156125d4576125d3612c5f565b5b8152602001600060088111156125ed576125ec612c5f565b5b815260200160008081111561260557612604612c5f565b5b81526020016000600c81111561261e5761261d612c5f565b5b81525090565b6000604051905090565b600080fd5b600080fd5b60007fffffffff0000000000000000000000000000000000000000000000000000000082169050919050565b61266d81612638565b811461267857600080fd5b50565b60008135905061268a81612664565b92915050565b6000602082840312156126a6576126a561262e565b5b60006126b48482850161267b565b91505092915050565b60008115159050919050565b6126d2816126bd565b82525050565b60006020820190506126ed60008301846126c9565b92915050565b600073ffffffffffffffffffffffffffffffffffffffff82169050919050565b600061271e826126f3565b9050919050565b61272e81612713565b811461273957600080fd5b50565b60008135905061274b81612725565b92915050565b6000602082840312156127675761276661262e565b5b60006127758482850161273c565b91505092915050565b6000819050919050565b6127918161277e565b811461279c57600080fd5b50565b6000813590506127ae81612788565b92915050565b600080fd5b600080fd5b6000601f19601f8301169050919050565b7f4e487b7100000000000000000000000000000000000000000000000000000000600052604160045260246000fd5b612807826127be565b810181811067ffffffffffffffff82111715612826576128256127cf565b5b80604052505050565b6000612839612624565b905061284582826127fe565b919050565b600067ffffffffffffffff821115612865576128646127cf565b5b61286e826127be565b9050602081019050919050565b82818337600083830152505050565b600061289d6128988461284a565b61282f565b9050828152602081018484840111156128b9576128b86127b9565b5b6128c484828561287b565b509392505050565b600082601f8301126128e1576128e06127b4565b5b81356128f184826020860161288a565b91505092915050565b600080600080600080600060e0888a0312156129195761291861262e565b5b60006129278a828b0161279f565b975050602088013567ffffffffffffffff81111561294857612947612633565b5b6129548a828b016128cc565b965050604088013567ffffffffffffffff81111561297557612974612633565b5b6129818a828b016128cc565b955050606088013567ffffffffffffffff8111156129a2576129a1612633565b5b6129ae8a828b016128cc565b945050608088013567ffffffffffffffff8111156129cf576129ce612633565b5b6129db8a828b016128cc565b93505060a06129ec8a828b0161279f565b92505060c088013567ffffffffffffffff811115612a0d57612a0c612633565b5b612a198a828b016128cc565b91505092959891949750929550565b6000819050919050565b612a3b81612a28565b8114612a4657600080fd5b50565b600081359050612a5881612a32565b92915050565b600060208284031215612a7457612a7361262e565b5b6000612a8284828501612a49565b91505092915050565b612a9481612a28565b82525050565b6000602082019050612aaf6000830184612a8b565b92915050565b600081519050919050565b600082825260208201905092915050565b60005b83811015612aef578082015181840152602081019050612ad4565b83811115612afe576000848401525b50505050565b6000612b0f82612ab5565b612b198185612ac0565b9350612b29818560208601612ad1565b612b32816127be565b840191505092915050565b60006020820190508181036000830152612b578184612b04565b905092915050565b60008060408385031215612b7657612b7561262e565b5b6000612b8485828601612a49565b9250506020612b958582860161273c565b9150509250929050565b600060208284031215612bb557612bb461262e565b5b6000612bc38482850161279f565b91505092915050565b612bd581612713565b82525050565b600060c082019050612bf06000830189612bcc565b8181036020830152612c028188612b04565b90508181036040830152612c168187612b04565b90508181036060830152612c2a8186612b04565b90508181036080830152612c3e8185612b04565b905081810360a0830152612c528184612b04565b9050979650505050505050565b7f4e487b7100000000000000000000000000000000000000000000000000000000600052602160045260246000fd5b60048110612c9f57612c9e612c5f565b5b50565b6000819050612cb082612c8e565b919050565b6000612cc082612ca2565b9050919050565b612cd081612cb5565b82525050565b6000602082019050612ceb6000830184612cc7565b92915050565b60008060408385031215612d0857612d0761262e565b5b6000612d168582860161279f565b9250506020612d278582860161279f565b9150509250929050565b7f5265737472696374656420746f2061646d696e732e0000000000000000000000600082015250565b6000612d67601583612ac0565b9150612d7282612d31565b602082019050919050565b60006020820190508181036000830152612d9681612d5a565b9050919050565b7f4e487b7100000000000000000000000000000000000000000000000000000000600052601160045260246000fd5b6000612dd78261277e565b9150612de28361277e565b9250827fffffffffffffffffffffffffffffffffffffffffffffffffffffffffffffffff03821115612e1757612e16612d9d565b5b828201905092915050565b612e2b8161277e565b82525050565b6000602082019050612e466000830184612e22565b92915050565b7f6572726f72000000000000000000000000000000000000000000000000000000600082015250565b6000612e82600583612ac0565b9150612e8d82612e4c565b602082019050919050565b60006020820190508181036000830152612eb181612e75565b9050919050565b7f416363657373436f6e74726f6c3a2063616e206f6e6c792072656e6f756e636560008201527f20726f6c657320666f722073656c660000000000000000000000000000000000602082015250565b6000612f14602f83612ac0565b9150612f1f82612eb8565b604082019050919050565b60006020820190508181036000830152612f4381612f07565b9050919050565b7f4e487b7100000000000000000000000000000000000000000000000000000000600052602260045260246000fd5b60006002820490506001821680612f9157607f821691505b60208210811415612fa557612fa4612f4a565b5b50919050565b7f6675636b206f6666000000000000000000000000000000000000000000000000600082015250565b6000612fe1600883612ac0565b9150612fec82612fab565b602082019050919050565b6000602082019050818103600083015261301081612fd4565b9050919050565b600081905092915050565b7f416363657373436f6e74726f6c3a206163636f756e7420000000000000000000600082015250565b6000613058601783613017565b915061306382613022565b601782019050919050565b600061307982612ab5565b6130838185613017565b9350613093818560208601612ad1565b80840191505092915050565b7f206973206d697373696e6720726f6c6520000000000000000000000000000000600082015250565b60006130d5601183613017565b91506130e08261309f565b601182019050919050565b60006130f68261304b565b9150613102828561306e565b915061310d826130c8565b9150613119828461306e565b91508190509392505050565b60006131308261277e565b915061313b8361277e565b9250817fffffffffffffffffffffffffffffffffffffffffffffffffffffffffffffffff048311821515161561317457613173612d9d565b5b828202905092915050565b7f4e487b7100000000000000000000000000000000000000000000000000000000600052603260045260246000fd5b60006131b98261277e565b915060008214156131cd576131cc612d9d565b5b600182039050919050565b7f537472696e67733a20686578206c656e67746820696e73756666696369656e74600082015250565b600061320e602083612ac0565b9150613219826131d8565b602082019050919050565b6000602082019050818103600083015261323d81613201565b905091905056fea264697066735822122091a6d2d0d65d17f14419cc036821830af6f4bab0866d367f1f499eb31704db5b64736f6c634300080c0033",
  "immutableReferences": {},
  "source": "// SPDX-License-Identifier: MIT\n\n\npragma solidity >=0.4.22 <0.9.0;\nimport '../Processor.sol';\nimport '../Farmer.sol';\nimport '../Distributor.sol';\nimport './Meat.sol';\n\ncontract SupplyChain is Farmer,Distributor,Processor {\n uint  sku=1;\n uint  upc=1;\n\n   address owner;\n\n  mapping (uint => Txblocks) private itemsHistory;\n\n   struct Txblocks {\n    Farm origin; \n    Product productDetails; \n    uint FTP;\n    uint PTD;\n    uint DTR;\n    uint RTC;\n\n  }\n\n  struct Product{\n    uint    productID;              // Product ID potentially a combination of upc + sku\n    string  productNotes;           // Product Notes\n    uint256 productDate;            // Product Date\n    uint    productPrice;           // Product Price\n    State   state;              // Product State\n    address distributorID;          // Distributor ID\n    Meat.meat  meatType;           // type of the red meat\n    address retailerID;             // address of the Retailer\n    address consumerID;             // address of the Consumer \n  }\n\n  struct Farm{\n    address originFarmerID;     //address of the farmer\n    string  originFarmName;     // Farmer Name\n    string  originFarmInformation;  // Farmer Information\n    string  originFarmLatitude;     // Farm Latitude\n    string  originFarmLongitude;    // Farm Longitude\n    string originFarmerName;        // farmer name\n  }\n  \n  /*function verif(address account) pure private override(Farmer,Distributor,Processor) returns(bool)\n  {\n    return true;\n  }*/\n \n    //maps id with item\n    mapping (uint => Item) items;\n\n    State constant defaultState = State.ProduceByFarmer;\n\n    //state of product\n    enum State\n    {\n    ProduceByFarmer,\n    ForSaleByFarmer,\n    PurchasedByDistributor,\n    ShippedByFarmer\n    }\n   \n\n   function showProductInfo(uint _id) public view returns(State)\n   {\n       State item=items[_id].state;\n       return item;\n   }\n\n   function helloworld() public pure returns(string memory)\n   {\n      string memory hw=\"hello world\";\n     return hw;\n   }\n\n    function fetchItem(uint _upc) public view returns\n    (\n\n    address originFarmerID,\n    string memory  originFarmName,\n    string memory originFarmInformation,\n    string memory originFarmLatitude,\n    string memory originFarmLongitude,\n    string memory originFarmerName\n\n    )\n    {\n    Farm memory farm = itemsHistory[_upc].origin;\n    return\n    (\n      farm.originFarmerID,\n      farm.originFarmName,\n      farm.originFarmInformation,\n      farm.originFarmLatitude,\n      farm.originFarmLongitude,\n     farm.originFarmerName   \n    );\n    \n  }\n\n \n\n\n\n\n    \n\n\n    //product info\n    struct Item  {\n    uint    sku;    // Stock Keeping Unit (SKU)\n    uint    upc;    //universal product code\n    address ownerID;    // the current owner\n    address originFarmerID;     //address of the farmer\n    string  originFarmName;     // Farmer Name\n    string  originFarmInformation;  // Farmer Information\n    string  originFarmLatitude;     // Farm Latitude\n    string  originFarmLongitude;    // Farm Longitude\n    uint    productID;              // Product ID potentially a combination of upc + sku\n    string  productNotes;           // Product Notes\n    uint256 productDate;            // Product Date\n    uint    productPrice;           // Product Price\n    State   state;              // Product State\n    address distributorID;          // Distributor ID\n    Meat.meat  meatType;           // type of the red meat\n    address retailerID;             // address of the Retailer\n    address consumerID;             // address of the Consumer \n  }\n\n    event ProduceByFarmer(uint id); \n    event ForSaleByFarmer(uint id); \n    event PurchasedByDistributor(uint id);\n    event ShippedByFarmer(uint id);\n\n\n    constructor() payable\n    {\n      owner=msg.sender;\n    }\n\n    function produceItemByFarmer(uint _upc, string memory _originFarmName, string memory _originFarmInformation, string memory _originFarmLatitude, string memory _originFarmLongitude, uint _productDate,string memory _originFarmerName) \n\n     public\n    {\n      Item memory item;\n      item.upc=_upc;\n      item.ownerID=msg.sender;\n      item.originFarmerID=msg.sender;\n      item.originFarmName=_originFarmName;\n      item.originFarmInformation=_originFarmInformation;\n      item.originFarmLatitude=_originFarmLatitude;\n      item.originFarmLongitude=_originFarmLongitude;\n      item.productID=_upc+sku;\n      item.productDate=_productDate;\n      item.state=defaultState;\n      items[_upc]=item;\n\n      sku = sku + 1;\n       Txblocks memory history;\n     history.origin.originFarmerID=msg.sender;\n     history.origin.originFarmInformation=_originFarmInformation;\n     history.origin.originFarmLatitude=_originFarmLatitude;\n     history.origin.originFarmLongitude=_originFarmLongitude;\n     history.origin.originFarmName=_originFarmName;\n     history.origin.originFarmerName=_originFarmerName;\n      emit ProduceByFarmer(_upc);\n  \n    }\n\n      function purchaseItemByDistributor(uint _upc) public payable\n    \n    forSaleByFarmer(_upc)\n    paidEnough(items[_upc].productPrice)\n   {\n    address payable ownerAddressPayable = payable(items[_upc].originFarmerID); // make originFarmID payable\n    ownerAddressPayable.transfer(items[_upc].productPrice); // transfer funds from distributor to farmer\n    items[_upc].ownerID = msg.sender; \n    items[_upc].distributorID = msg.sender; // update distributor\n    items[_upc].state = State.PurchasedByDistributor; // update state\n    emit PurchasedByDistributor(_upc);\n\n  }\n\n    function shippedItemByFarmer(uint _upc) public \n  \n    purchasedByDistributor(_upc)\n    {\n    items[_upc].state = State.ShippedByFarmer; \n    emit ShippedByFarmer(_upc);\n  }\n\n   modifier forSaleByFarmer(uint _upc)\n        {\n          require(items[_upc].state==State.ForSaleByFarmer);\n          _;\n        } \n\n  modifier purchasedByDistributor(uint _upc) {\n    require(items[_upc].state == State.PurchasedByDistributor);\n    _;\n  }\n\n    modifier paidEnough(uint _price)\n    {\n      require(msg.value>=_price);\n      _;\n    }\n      function sellItemByFarmer(uint _upc, uint _price) public\n    {\n      items[_upc].state= State.ForSaleByFarmer;\n      items[_upc].productPrice = _price;\n      emit ForSaleByFarmer(_upc);\n    }\n    }",
  "sourcePath": "/home/crawzer/blockchain/front/my-app/contracts/contracts/SupplyChain/SupplyChain.sol",
  "compiler": {
    "name": "solc",
    "version": "0.8.12+commit.f00d7308.Emscripten.clang"
  },
  "schemaVersion": "3.4.5",
  "updatedAt": "2022-04-27T20:41:14.107Z",
  "networkType": "ethereum",
  "devdoc": {
    "kind": "dev",
    "methods": {
      "getRoleAdmin(bytes32)": {
        "details": "Returns the admin role that controls `role`. See {grantRole} and {revokeRole}. To change a role's admin, use {_setRoleAdmin}."
      },
      "grantRole(bytes32,address)": {
        "details": "Grants `role` to `account`. If `account` had not been already granted `role`, emits a {RoleGranted} event. Requirements: - the caller must have ``role``'s admin role."
      },
      "hasRole(bytes32,address)": {
        "details": "Returns `true` if `account` has been granted `role`."
      },
      "renounceRole(bytes32,address)": {
        "details": "Revokes `role` from the calling account. Roles are often managed via {grantRole} and {revokeRole}: this function's purpose is to provide a mechanism for accounts to lose their privileges if they are compromised (such as when a trusted device is misplaced). If the calling account had been revoked `role`, emits a {RoleRevoked} event. Requirements: - the caller must be `account`."
      },
      "revokeRole(bytes32,address)": {
        "details": "Revokes `role` from `account`. If `account` had been granted `role`, emits a {RoleRevoked} event. Requirements: - the caller must have ``role``'s admin role."
      },
      "supportsInterface(bytes4)": {
        "details": "See {IERC165-supportsInterface}."
      }
    },
    "version": 1
  },
  "userdoc": {
    "kind": "user",
    "methods": {},
    "version": 1
  }
}