{
  "contractName": "TraceManager",
  "abi": [
    {
      "anonymous": false,
      "inputs": [
        {
          "indexed": true,
          "internalType": "bytes32",
          "name": "role",
          "type": "bytes32"
        },
        {
          "indexed": true,
          "internalType": "bytes32",
          "name": "previousAdminRole",
          "type": "bytes32"
        },
        {
          "indexed": true,
          "internalType": "bytes32",
          "name": "newAdminRole",
          "type": "bytes32"
        }
      ],
      "name": "RoleAdminChanged",
      "type": "event"
    },
    {
      "anonymous": false,
      "inputs": [
        {
          "indexed": true,
          "internalType": "bytes32",
          "name": "role",
          "type": "bytes32"
        },
        {
          "indexed": true,
          "internalType": "address",
          "name": "account",
          "type": "address"
        },
        {
          "indexed": true,
          "internalType": "address",
          "name": "sender",
          "type": "address"
        }
      ],
      "name": "RoleGranted",
      "type": "event"
    },
    {
      "anonymous": false,
      "inputs": [
        {
          "indexed": true,
          "internalType": "bytes32",
          "name": "role",
          "type": "bytes32"
        },
        {
          "indexed": true,
          "internalType": "address",
          "name": "account",
          "type": "address"
        },
        {
          "indexed": true,
          "internalType": "address",
          "name": "sender",
          "type": "address"
        }
      ],
      "name": "RoleRevoked",
      "type": "event"
    },
    {
      "inputs": [],
      "name": "DEFAULT_ADMIN_ROLE",
      "outputs": [
        {
          "internalType": "bytes32",
          "name": "",
          "type": "bytes32"
        }
      ],
      "stateMutability": "view",
      "type": "function",
      "constant": true
    },
    {
      "inputs": [],
      "name": "DISTRIBUTOR_ROLE",
      "outputs": [
        {
          "internalType": "bytes32",
          "name": "",
          "type": "bytes32"
        }
      ],
      "stateMutability": "view",
      "type": "function",
      "constant": true
    },
    {
      "inputs": [],
      "name": "FARMER_ROLE",
      "outputs": [
        {
          "internalType": "bytes32",
          "name": "",
          "type": "bytes32"
        }
      ],
      "stateMutability": "view",
      "type": "function",
      "constant": true
    },
    {
      "inputs": [
        {
          "internalType": "address",
          "name": "account",
          "type": "address"
        }
      ],
      "name": "addAdmin",
      "outputs": [],
      "stateMutability": "nonpayable",
      "type": "function"
    },
    {
      "inputs": [
        {
          "internalType": "address",
          "name": "account",
          "type": "address"
        }
      ],
      "name": "changeAdmin",
      "outputs": [],
      "stateMutability": "nonpayable",
      "type": "function"
    },
    {
      "inputs": [
        {
          "internalType": "bytes32",
          "name": "role",
          "type": "bytes32"
        }
      ],
      "name": "getRoleAdmin",
      "outputs": [
        {
          "internalType": "bytes32",
          "name": "",
          "type": "bytes32"
        }
      ],
      "stateMutability": "view",
      "type": "function",
      "constant": true
    },
    {
      "inputs": [
        {
          "internalType": "address",
          "name": "account",
          "type": "address"
        }
      ],
      "name": "giveAccessForDistributor",
      "outputs": [],
      "stateMutability": "nonpayable",
      "type": "function"
    },
    {
      "inputs": [
        {
          "internalType": "address",
          "name": "account",
          "type": "address"
        }
      ],
      "name": "giveAccessForFarmer",
      "outputs": [],
      "stateMutability": "nonpayable",
      "type": "function"
    },
    {
      "inputs": [
        {
          "internalType": "bytes32",
          "name": "role",
          "type": "bytes32"
        },
        {
          "internalType": "address",
          "name": "account",
          "type": "address"
        }
      ],
      "name": "grantRole",
      "outputs": [],
      "stateMutability": "nonpayable",
      "type": "function"
    },
    {
      "inputs": [
        {
          "internalType": "bytes32",
          "name": "role",
          "type": "bytes32"
        },
        {
          "internalType": "address",
          "name": "account",
          "type": "address"
        }
      ],
      "name": "hasRole",
      "outputs": [
        {
          "internalType": "bool",
          "name": "",
          "type": "bool"
        }
      ],
      "stateMutability": "view",
      "type": "function",
      "constant": true
    },
    {
      "inputs": [
        {
          "internalType": "address",
          "name": "account",
          "type": "address"
        }
      ],
      "name": "isAdmin",
      "outputs": [
        {
          "internalType": "bool",
          "name": "",
          "type": "bool"
        }
      ],
      "stateMutability": "view",
      "type": "function",
      "constant": true
    },
    {
      "inputs": [
        {
          "internalType": "bytes32",
          "name": "role",
          "type": "bytes32"
        },
        {
          "internalType": "address",
          "name": "account",
          "type": "address"
        }
      ],
      "name": "renounceRole",
      "outputs": [],
      "stateMutability": "nonpayable",
      "type": "function"
    },
    {
      "inputs": [
        {
          "internalType": "bytes32",
          "name": "role",
          "type": "bytes32"
        },
        {
          "internalType": "address",
          "name": "account",
          "type": "address"
        }
      ],
      "name": "revokeRole",
      "outputs": [],
      "stateMutability": "nonpayable",
      "type": "function"
    },
    {
      "inputs": [
        {
          "internalType": "bytes4",
          "name": "interfaceId",
          "type": "bytes4"
        }
      ],
      "name": "supportsInterface",
      "outputs": [
        {
          "internalType": "bool",
          "name": "",
          "type": "bool"
        }
      ],
      "stateMutability": "view",
      "type": "function",
      "constant": true
    },
    {
      "inputs": [
        {
          "internalType": "uint256",
          "name": "_animalId",
          "type": "uint256"
        },
        {
          "internalType": "address",
          "name": "_srcFarm",
          "type": "address"
        },
        {
          "internalType": "address",
          "name": "_dstFarm",
          "type": "address"
        },
        {
          "internalType": "uint256",
          "name": "_timeMoved",
          "type": "uint256"
        }
      ],
      "name": "addMovementData",
      "outputs": [],
      "stateMutability": "nonpayable",
      "type": "function"
    },
    {
      "inputs": [
        {
          "internalType": "uint256",
          "name": "_animalId",
          "type": "uint256"
        }
      ],
      "name": "getMovementCount",
      "outputs": [
        {
          "internalType": "uint256",
          "name": "",
          "type": "uint256"
        }
      ],
      "stateMutability": "view",
      "type": "function",
      "constant": true
    },
    {
      "inputs": [
        {
          "internalType": "uint256",
          "name": "_animalId",
          "type": "uint256"
        },
        {
          "internalType": "uint256",
          "name": "_index",
          "type": "uint256"
        }
      ],
      "name": "getMovementData",
      "outputs": [
        {
          "internalType": "address",
          "name": "srcFarm",
          "type": "address"
        },
        {
          "internalType": "address",
          "name": "dstFarm",
          "type": "address"
        },
        {
          "internalType": "uint256",
          "name": "timeMoved",
          "type": "uint256"
        }
      ],
      "stateMutability": "view",
      "type": "function",
      "constant": true
    }
  ],
  "bytecode": "0x60806040523480156200001157600080fd5b50620000276000801b336200002d60201b60201c565b620001a6565b6200003f82826200004360201b60201c565b5050565b6200005582826200013460201b60201c565b6200013057600160008084815260200190815260200160002060000160008373ffffffffffffffffffffffffffffffffffffffff1673ffffffffffffffffffffffffffffffffffffffff16815260200190815260200160002060006101000a81548160ff021916908315150217905550620000d56200019e60201b60201c565b73ffffffffffffffffffffffffffffffffffffffff168173ffffffffffffffffffffffffffffffffffffffff16837f2f8788117e7eff1d82e926ec794901d17c78024a50270940304540a733656f0d60405160405180910390a45b5050565b600080600084815260200190815260200160002060000160008373ffffffffffffffffffffffffffffffffffffffff1673ffffffffffffffffffffffffffffffffffffffff16815260200190815260200160002060009054906101000a900460ff16905092915050565b600033905090565b61180580620001b66000396000f3fe608060405234801561001057600080fd5b506004361061010b5760003560e01c806370480275116100a2578063b4af12bf11610071578063b4af12bf146102c6578063d547741f146102e2578063f0bd87cc146102fe578063f2d5b4b41461031c578063f39439701461034e5761010b565b806370480275146102405780638f2839701461025c57806391d1485414610278578063a217fddf146102a85761010b565b806324d7806c116100de57806324d7806c146101bc5780632f2ff15d146101ec57806336568abe146102085780635f54851a146102245761010b565b806301ff9ca61461011057806301ffc9a71461014057806308ccf21914610170578063248a9ca31461018c575b600080fd5b61012a60048036038101906101259190610f95565b61036c565b6040516101379190610fd1565b60405180910390f35b61015a60048036038101906101559190611044565b61038c565b604051610167919061108c565b60405180910390f35b61018a60048036038101906101859190611105565b610406565b005b6101a660048036038101906101a19190611168565b61047b565b6040516101b391906111a4565b60405180910390f35b6101d660048036038101906101d19190611105565b61049a565b6040516101e3919061108c565b60405180910390f35b610206600480360381019061020191906111bf565b6104b0565b005b610222600480360381019061021d91906111bf565b6104d9565b005b61023e600480360381019061023991906111ff565b61055c565b005b61025a60048036038101906102559190611105565b6106ed565b005b61027660048036038101906102719190611105565b610745565b005b610292600480360381019061028d91906111bf565b61079d565b60405161029f919061108c565b60405180910390f35b6102b0610807565b6040516102bd91906111a4565b60405180910390f35b6102e060048036038101906102db9190611105565b61080e565b005b6102fc60048036038101906102f791906111bf565b610883565b005b6103066108ac565b60405161031391906111a4565b60405180910390f35b61033660048036038101906103319190611266565b6108d0565b604051610345939291906112b5565b60405180910390f35b6103566109dd565b60405161036391906111a4565b60405180910390f35b600060036000838152602001908152602001600020600101549050919050565b60007f7965db0b000000000000000000000000000000000000000000000000000000007bffffffffffffffffffffffffffffffffffffffffffffffffffffffff1916827bffffffffffffffffffffffffffffffffffffffffffffffffffffffff191614806103ff57506103fe82610a01565b5b9050919050565b61040f3361049a565b61044e576040517f08c379a000000000000000000000000000000000000000000000000000000000815260040161044590611349565b60405180910390fd5b6104787ff309ffc42715a0bfccdfa0c4cac305505f15ab9b9262b7451ceea96c0cc35187826104b0565b50565b6000806000838152602001908152602001600020600101549050919050565b60006104a96000801b8361079d565b9050919050565b6104b98261047b565b6104ca816104c5610a6b565b610a73565b6104d48383610b10565b505050565b6104e1610a6b565b73ffffffffffffffffffffffffffffffffffffffff168173ffffffffffffffffffffffffffffffffffffffff161461054e576040517f08c379a0000000000000000000000000000000000000000000000000000000008152600401610545906113db565b60405180910390fd5b6105588282610bf0565b5050565b610564610f0d565b83816000019073ffffffffffffffffffffffffffffffffffffffff16908173ffffffffffffffffffffffffffffffffffffffff168152505082816020019073ffffffffffffffffffffffffffffffffffffffff16908173ffffffffffffffffffffffffffffffffffffffff1681525050818160400181815250506000600360008781526020019081526020016000206001015490508160036000888152602001908152602001600020600001600083815260200190815260200160002060008201518160000160006101000a81548173ffffffffffffffffffffffffffffffffffffffff021916908373ffffffffffffffffffffffffffffffffffffffff16021790555060208201518160010160006101000a81548173ffffffffffffffffffffffffffffffffffffffff021916908373ffffffffffffffffffffffffffffffffffffffff1602179055506040820151816002015590505080806106c79061142a565b915050806003600088815260200190815260200160002060010181905550505050505050565b6106f63361049a565b610735576040517f08c379a000000000000000000000000000000000000000000000000000000000815260040161072c90611349565b60405180910390fd5b6107426000801b826104b0565b50565b61074e3361049a565b61078d576040517f08c379a000000000000000000000000000000000000000000000000000000000815260040161078490611349565b60405180910390fd5b61079a6000801b826104b0565b50565b600080600084815260200190815260200160002060000160008373ffffffffffffffffffffffffffffffffffffffff1673ffffffffffffffffffffffffffffffffffffffff16815260200190815260200160002060009054906101000a900460ff16905092915050565b6000801b81565b6108173361049a565b610856576040517f08c379a000000000000000000000000000000000000000000000000000000000815260040161084d90611349565b60405180910390fd5b6108807f85faced7bde13e1a7dad704b895f006e704f207617d68166b31ba2d79624862d826104b0565b50565b61088c8261047b565b61089d81610898610a6b565b610a73565b6108a78383610bf0565b505050565b7f85faced7bde13e1a7dad704b895f006e704f207617d68166b31ba2d79624862d81565b6000806000806003600087815260200190815260200160002060000160008681526020019081526020016000206040518060600160405290816000820160009054906101000a900473ffffffffffffffffffffffffffffffffffffffff1673ffffffffffffffffffffffffffffffffffffffff1673ffffffffffffffffffffffffffffffffffffffff1681526020016001820160009054906101000a900473ffffffffffffffffffffffffffffffffffffffff1673ffffffffffffffffffffffffffffffffffffffff1673ffffffffffffffffffffffffffffffffffffffff1681526020016002820154815250509050806000015181602001518260400151935093509350509250925092565b7ff309ffc42715a0bfccdfa0c4cac305505f15ab9b9262b7451ceea96c0cc3518781565b60007f01ffc9a7000000000000000000000000000000000000000000000000000000007bffffffffffffffffffffffffffffffffffffffffffffffffffffffff1916827bffffffffffffffffffffffffffffffffffffffffffffffffffffffff1916149050919050565b600033905090565b610a7d828261079d565b610b0c57610aa28173ffffffffffffffffffffffffffffffffffffffff166014610cd1565b610ab08360001c6020610cd1565b604051602001610ac1929190611585565b6040516020818303038152906040526040517f08c379a0000000000000000000000000000000000000000000000000000000008152600401610b039190611609565b60405180910390fd5b5050565b610b1a828261079d565b610bec57600160008084815260200190815260200160002060000160008373ffffffffffffffffffffffffffffffffffffffff1673ffffffffffffffffffffffffffffffffffffffff16815260200190815260200160002060006101000a81548160ff021916908315150217905550610b91610a6b565b73ffffffffffffffffffffffffffffffffffffffff168173ffffffffffffffffffffffffffffffffffffffff16837f2f8788117e7eff1d82e926ec794901d17c78024a50270940304540a733656f0d60405160405180910390a45b5050565b610bfa828261079d565b15610ccd57600080600084815260200190815260200160002060000160008373ffffffffffffffffffffffffffffffffffffffff1673ffffffffffffffffffffffffffffffffffffffff16815260200190815260200160002060006101000a81548160ff021916908315150217905550610c72610a6b565b73ffffffffffffffffffffffffffffffffffffffff168173ffffffffffffffffffffffffffffffffffffffff16837ff6391f5c32d9c69d2a47ea670b442974b53935d1edc7fd64eb21e047a839171b60405160405180910390a45b5050565b606060006002836002610ce4919061162b565b610cee9190611685565b67ffffffffffffffff811115610d0757610d066116db565b5b6040519080825280601f01601f191660200182016040528015610d395781602001600182028036833780820191505090505b5090507f300000000000000000000000000000000000000000000000000000000000000081600081518110610d7157610d7061170a565b5b60200101907effffffffffffffffffffffffffffffffffffffffffffffffffffffffffffff1916908160001a9053507f780000000000000000000000000000000000000000000000000000000000000081600181518110610dd557610dd461170a565b5b60200101907effffffffffffffffffffffffffffffffffffffffffffffffffffffffffffff1916908160001a90535060006001846002610e15919061162b565b610e1f9190611685565b90505b6001811115610ebf577f3031323334353637383961626364656600000000000000000000000000000000600f861660108110610e6157610e6061170a565b5b1a60f81b828281518110610e7857610e7761170a565b5b60200101907effffffffffffffffffffffffffffffffffffffffffffffffffffffffffffff1916908160001a905350600485901c945080610eb890611739565b9050610e22565b5060008414610f03576040517f08c379a0000000000000000000000000000000000000000000000000000000008152600401610efa906117af565b60405180910390fd5b8091505092915050565b6040518060600160405280600073ffffffffffffffffffffffffffffffffffffffff168152602001600073ffffffffffffffffffffffffffffffffffffffff168152602001600081525090565b600080fd5b6000819050919050565b610f7281610f5f565b8114610f7d57600080fd5b50565b600081359050610f8f81610f69565b92915050565b600060208284031215610fab57610faa610f5a565b5b6000610fb984828501610f80565b91505092915050565b610fcb81610f5f565b82525050565b6000602082019050610fe66000830184610fc2565b92915050565b60007fffffffff0000000000000000000000000000000000000000000000000000000082169050919050565b61102181610fec565b811461102c57600080fd5b50565b60008135905061103e81611018565b92915050565b60006020828403121561105a57611059610f5a565b5b60006110688482850161102f565b91505092915050565b60008115159050919050565b61108681611071565b82525050565b60006020820190506110a1600083018461107d565b92915050565b600073ffffffffffffffffffffffffffffffffffffffff82169050919050565b60006110d2826110a7565b9050919050565b6110e2816110c7565b81146110ed57600080fd5b50565b6000813590506110ff816110d9565b92915050565b60006020828403121561111b5761111a610f5a565b5b6000611129848285016110f0565b91505092915050565b6000819050919050565b61114581611132565b811461115057600080fd5b50565b6000813590506111628161113c565b92915050565b60006020828403121561117e5761117d610f5a565b5b600061118c84828501611153565b91505092915050565b61119e81611132565b82525050565b60006020820190506111b96000830184611195565b92915050565b600080604083850312156111d6576111d5610f5a565b5b60006111e485828601611153565b92505060206111f5858286016110f0565b9150509250929050565b6000806000806080858703121561121957611218610f5a565b5b600061122787828801610f80565b9450506020611238878288016110f0565b9350506040611249878288016110f0565b925050606061125a87828801610f80565b91505092959194509250565b6000806040838503121561127d5761127c610f5a565b5b600061128b85828601610f80565b925050602061129c85828601610f80565b9150509250929050565b6112af816110c7565b82525050565b60006060820190506112ca60008301866112a6565b6112d760208301856112a6565b6112e46040830184610fc2565b949350505050565b600082825260208201905092915050565b7f5265737472696374656420746f2061646d696e732e0000000000000000000000600082015250565b60006113336015836112ec565b915061133e826112fd565b602082019050919050565b6000602082019050818103600083015261136281611326565b9050919050565b7f416363657373436f6e74726f6c3a2063616e206f6e6c792072656e6f756e636560008201527f20726f6c657320666f722073656c660000000000000000000000000000000000602082015250565b60006113c5602f836112ec565b91506113d082611369565b604082019050919050565b600060208201905081810360008301526113f4816113b8565b9050919050565b7f4e487b7100000000000000000000000000000000000000000000000000000000600052601160045260246000fd5b600061143582610f5f565b91507fffffffffffffffffffffffffffffffffffffffffffffffffffffffffffffffff821415611468576114676113fb565b5b600182019050919050565b600081905092915050565b7f416363657373436f6e74726f6c3a206163636f756e7420000000000000000000600082015250565b60006114b4601783611473565b91506114bf8261147e565b601782019050919050565b600081519050919050565b60005b838110156114f35780820151818401526020810190506114d8565b83811115611502576000848401525b50505050565b6000611513826114ca565b61151d8185611473565b935061152d8185602086016114d5565b80840191505092915050565b7f206973206d697373696e6720726f6c6520000000000000000000000000000000600082015250565b600061156f601183611473565b915061157a82611539565b601182019050919050565b6000611590826114a7565b915061159c8285611508565b91506115a782611562565b91506115b38284611508565b91508190509392505050565b6000601f19601f8301169050919050565b60006115db826114ca565b6115e581856112ec565b93506115f58185602086016114d5565b6115fe816115bf565b840191505092915050565b6000602082019050818103600083015261162381846115d0565b905092915050565b600061163682610f5f565b915061164183610f5f565b9250817fffffffffffffffffffffffffffffffffffffffffffffffffffffffffffffffff048311821515161561167a576116796113fb565b5b828202905092915050565b600061169082610f5f565b915061169b83610f5f565b9250827fffffffffffffffffffffffffffffffffffffffffffffffffffffffffffffffff038211156116d0576116cf6113fb565b5b828201905092915050565b7f4e487b7100000000000000000000000000000000000000000000000000000000600052604160045260246000fd5b7f4e487b7100000000000000000000000000000000000000000000000000000000600052603260045260246000fd5b600061174482610f5f565b91506000821415611758576117576113fb565b5b600182039050919050565b7f537472696e67733a20686578206c656e67746820696e73756666696369656e74600082015250565b60006117996020836112ec565b91506117a482611763565b602082019050919050565b600060208201905081810360008301526117c88161178c565b905091905056fea2646970667358221220cafb34b687602a721fbf7259a16127976ed3723ce8e0cd1b24126354efba0f5564736f6c634300080c0033",
  "immutableReferences": {},
  "source": "// SPDX-License-Identifier: MIT\npragma solidity >=0.4.22 <0.9.0;\nimport './../Roles.sol';\n\n\n\n\n\ncontract TraceManager is Roles{\n\n\n\n\n    struct Movement \n    {\n        address srcFarm;\n        address dstFarm;\n        uint timeMoved;\n\n    }\n    \n    struct Animal\n    {\n        \n     mapping(uint=>Movement) movementMap;\n     uint MovementCount;\n\n    }\n\n    uint animalCount;\n    address admin;\n    mapping(uint=>Animal) animalMap;\n\n    function addMovementData(uint _animalId,address _srcFarm,address _dstFarm, uint _timeMoved) public \n    {\n        Movement memory movement;\n        movement.srcFarm=_srcFarm;\n        movement.dstFarm=_dstFarm;\n        movement.timeMoved=_timeMoved;\n        uint count= animalMap[_animalId].MovementCount;\n        animalMap[_animalId].movementMap[count]=movement;\n        count++;\n        animalMap[_animalId].MovementCount=count;\n\n    }\n\n    function getMovementCount(uint _animalId) public view returns(uint)\n    //onlyadmin()\n    {\n        return animalMap[_animalId].MovementCount;\n    }\n\n    function getMovementData(uint _animalId,uint _index) public view returns (address srcFarm,\n        address dstFarm,\n        uint timeMoved)\n        //onlyAdmin\n    {\n         Movement memory movement=animalMap[_animalId].movementMap[_index];\n         return (movement.srcFarm,movement.dstFarm,movement.timeMoved);\n    }\n\n  \n\n}",
  "sourcePath": "/home/crawzer/blockchain/front/my-app/contracts/contracts/BeefCattleSupplyChain/TraceManager.sol",
  "compiler": {
    "name": "solc",
    "version": "0.8.12+commit.f00d7308.Emscripten.clang"
  },
  "schemaVersion": "3.4.5",
  "updatedAt": "2022-05-03T23:58:10.883Z",
  "networkType": "ethereum",
  "devdoc": {
    "kind": "dev",
    "methods": {
      "getRoleAdmin(bytes32)": {
        "details": "Returns the admin role that controls `role`. See {grantRole} and {revokeRole}. To change a role's admin, use {_setRoleAdmin}."
      },
      "grantRole(bytes32,address)": {
        "details": "Grants `role` to `account`. If `account` had not been already granted `role`, emits a {RoleGranted} event. Requirements: - the caller must have ``role``'s admin role."
      },
      "hasRole(bytes32,address)": {
        "details": "Returns `true` if `account` has been granted `role`."
      },
      "renounceRole(bytes32,address)": {
        "details": "Revokes `role` from the calling account. Roles are often managed via {grantRole} and {revokeRole}: this function's purpose is to provide a mechanism for accounts to lose their privileges if they are compromised (such as when a trusted device is misplaced). If the calling account had been revoked `role`, emits a {RoleRevoked} event. Requirements: - the caller must be `account`."
      },
      "revokeRole(bytes32,address)": {
        "details": "Revokes `role` from `account`. If `account` had been granted `role`, emits a {RoleRevoked} event. Requirements: - the caller must have ``role``'s admin role."
      },
      "supportsInterface(bytes4)": {
        "details": "See {IERC165-supportsInterface}."
      }
    },
    "version": 1
  },
  "userdoc": {
    "kind": "user",
    "methods": {},
    "version": 1
  }
}