{
  "contractName": "TransactionManager",
  "abi": [
    {
      "anonymous": false,
      "inputs": [
        {
          "indexed": true,
          "internalType": "bytes32",
          "name": "role",
          "type": "bytes32"
        },
        {
          "indexed": true,
          "internalType": "bytes32",
          "name": "previousAdminRole",
          "type": "bytes32"
        },
        {
          "indexed": true,
          "internalType": "bytes32",
          "name": "newAdminRole",
          "type": "bytes32"
        }
      ],
      "name": "RoleAdminChanged",
      "type": "event"
    },
    {
      "anonymous": false,
      "inputs": [
        {
          "indexed": true,
          "internalType": "bytes32",
          "name": "role",
          "type": "bytes32"
        },
        {
          "indexed": true,
          "internalType": "address",
          "name": "account",
          "type": "address"
        },
        {
          "indexed": true,
          "internalType": "address",
          "name": "sender",
          "type": "address"
        }
      ],
      "name": "RoleGranted",
      "type": "event"
    },
    {
      "anonymous": false,
      "inputs": [
        {
          "indexed": true,
          "internalType": "bytes32",
          "name": "role",
          "type": "bytes32"
        },
        {
          "indexed": true,
          "internalType": "address",
          "name": "account",
          "type": "address"
        },
        {
          "indexed": true,
          "internalType": "address",
          "name": "sender",
          "type": "address"
        }
      ],
      "name": "RoleRevoked",
      "type": "event"
    },
    {
      "inputs": [],
      "name": "DEFAULT_ADMIN_ROLE",
      "outputs": [
        {
          "internalType": "bytes32",
          "name": "",
          "type": "bytes32"
        }
      ],
      "stateMutability": "view",
      "type": "function",
      "constant": true
    },
    {
      "inputs": [],
      "name": "DISTRIBUTOR_ROLE",
      "outputs": [
        {
          "internalType": "bytes32",
          "name": "",
          "type": "bytes32"
        }
      ],
      "stateMutability": "view",
      "type": "function",
      "constant": true
    },
    {
      "inputs": [],
      "name": "FARMER_ROLE",
      "outputs": [
        {
          "internalType": "bytes32",
          "name": "",
          "type": "bytes32"
        }
      ],
      "stateMutability": "view",
      "type": "function",
      "constant": true
    },
    {
      "inputs": [
        {
          "internalType": "address",
          "name": "account",
          "type": "address"
        }
      ],
      "name": "addAdmin",
      "outputs": [],
      "stateMutability": "nonpayable",
      "type": "function"
    },
    {
      "inputs": [
        {
          "internalType": "address",
          "name": "account",
          "type": "address"
        }
      ],
      "name": "changeAdmin",
      "outputs": [],
      "stateMutability": "nonpayable",
      "type": "function"
    },
    {
      "inputs": [
        {
          "internalType": "bytes32",
          "name": "role",
          "type": "bytes32"
        }
      ],
      "name": "getRoleAdmin",
      "outputs": [
        {
          "internalType": "bytes32",
          "name": "",
          "type": "bytes32"
        }
      ],
      "stateMutability": "view",
      "type": "function",
      "constant": true
    },
    {
      "inputs": [
        {
          "internalType": "address",
          "name": "account",
          "type": "address"
        }
      ],
      "name": "giveAccessForDistributor",
      "outputs": [],
      "stateMutability": "nonpayable",
      "type": "function"
    },
    {
      "inputs": [
        {
          "internalType": "address",
          "name": "account",
          "type": "address"
        }
      ],
      "name": "giveAccessForFarmer",
      "outputs": [],
      "stateMutability": "nonpayable",
      "type": "function"
    },
    {
      "inputs": [
        {
          "internalType": "bytes32",
          "name": "role",
          "type": "bytes32"
        },
        {
          "internalType": "address",
          "name": "account",
          "type": "address"
        }
      ],
      "name": "grantRole",
      "outputs": [],
      "stateMutability": "nonpayable",
      "type": "function"
    },
    {
      "inputs": [
        {
          "internalType": "bytes32",
          "name": "role",
          "type": "bytes32"
        },
        {
          "internalType": "address",
          "name": "account",
          "type": "address"
        }
      ],
      "name": "hasRole",
      "outputs": [
        {
          "internalType": "bool",
          "name": "",
          "type": "bool"
        }
      ],
      "stateMutability": "view",
      "type": "function",
      "constant": true
    },
    {
      "inputs": [
        {
          "internalType": "address",
          "name": "account",
          "type": "address"
        }
      ],
      "name": "isAdmin",
      "outputs": [
        {
          "internalType": "bool",
          "name": "",
          "type": "bool"
        }
      ],
      "stateMutability": "view",
      "type": "function",
      "constant": true
    },
    {
      "inputs": [
        {
          "internalType": "bytes32",
          "name": "role",
          "type": "bytes32"
        },
        {
          "internalType": "address",
          "name": "account",
          "type": "address"
        }
      ],
      "name": "renounceRole",
      "outputs": [],
      "stateMutability": "nonpayable",
      "type": "function"
    },
    {
      "inputs": [
        {
          "internalType": "bytes32",
          "name": "role",
          "type": "bytes32"
        },
        {
          "internalType": "address",
          "name": "account",
          "type": "address"
        }
      ],
      "name": "revokeRole",
      "outputs": [],
      "stateMutability": "nonpayable",
      "type": "function"
    },
    {
      "inputs": [
        {
          "internalType": "bytes4",
          "name": "interfaceId",
          "type": "bytes4"
        }
      ],
      "name": "supportsInterface",
      "outputs": [
        {
          "internalType": "bool",
          "name": "",
          "type": "bool"
        }
      ],
      "stateMutability": "view",
      "type": "function",
      "constant": true
    },
    {
      "inputs": [
        {
          "internalType": "uint256",
          "name": "_transactionId",
          "type": "uint256"
        },
        {
          "internalType": "address",
          "name": "_srcFarm",
          "type": "address"
        },
        {
          "internalType": "address",
          "name": "_dstFarm",
          "type": "address"
        },
        {
          "internalType": "address",
          "name": "_srcOwner",
          "type": "address"
        },
        {
          "internalType": "address",
          "name": "_dstOwner",
          "type": "address"
        },
        {
          "internalType": "uint256",
          "name": "_animalCount",
          "type": "uint256"
        },
        {
          "internalType": "uint256",
          "name": "_timeUpdated",
          "type": "uint256"
        },
        {
          "internalType": "uint48[]",
          "name": "_animalList",
          "type": "uint48[]"
        }
      ],
      "name": "createTransaction",
      "outputs": [],
      "stateMutability": "nonpayable",
      "type": "function"
    },
    {
      "inputs": [
        {
          "internalType": "uint256",
          "name": "_transactionId",
          "type": "uint256"
        }
      ],
      "name": "updateTransaction",
      "outputs": [],
      "stateMutability": "nonpayable",
      "type": "function"
    },
    {
      "inputs": [],
      "name": "getTransactionCount",
      "outputs": [
        {
          "internalType": "uint256",
          "name": "",
          "type": "uint256"
        }
      ],
      "stateMutability": "view",
      "type": "function",
      "constant": true
    },
    {
      "inputs": [
        {
          "internalType": "uint256",
          "name": "_transactionId",
          "type": "uint256"
        }
      ],
      "name": "getAnimalList",
      "outputs": [],
      "stateMutability": "nonpayable",
      "type": "function"
    },
    {
      "inputs": [
        {
          "internalType": "address",
          "name": "_managerAddress",
          "type": "address"
        },
        {
          "internalType": "uint256",
          "name": "_managerType",
          "type": "uint256"
        }
      ],
      "name": "setManager",
      "outputs": [],
      "stateMutability": "nonpayable",
      "type": "function"
    },
    {
      "inputs": [
        {
          "internalType": "uint256",
          "name": "_managerType",
          "type": "uint256"
        }
      ],
      "name": "getManager",
      "outputs": [
        {
          "internalType": "address",
          "name": "",
          "type": "address"
        }
      ],
      "stateMutability": "view",
      "type": "function",
      "constant": true
    }
  ],
  "bytecode": "0x60806040523480156200001157600080fd5b50620000276000801b336200002d60201b60201c565b620001a6565b6200003f82826200004360201b60201c565b5050565b6200005582826200013460201b60201c565b6200013057600160008084815260200190815260200160002060000160008373ffffffffffffffffffffffffffffffffffffffff1673ffffffffffffffffffffffffffffffffffffffff16815260200190815260200160002060006101000a81548160ff021916908315150217905550620000d56200019e60201b60201c565b73ffffffffffffffffffffffffffffffffffffffff168173ffffffffffffffffffffffffffffffffffffffff16837f2f8788117e7eff1d82e926ec794901d17c78024a50270940304540a733656f0d60405160405180910390a45b5050565b600080600084815260200190815260200160002060000160008373ffffffffffffffffffffffffffffffffffffffff1673ffffffffffffffffffffffffffffffffffffffff16815260200190815260200160002060009054906101000a900460ff16905092915050565b600033905090565b611b7f80620001b66000396000f3fe608060405234801561001057600080fd5b506004361061012c5760003560e01c806370480275116100ad578063d547741f11610071578063d547741f14610329578063da1c411814610345578063e744457814610375578063f0bd87cc14610391578063f3943970146103af5761012c565b806370480275146102875780638f283970146102a357806391d14854146102bf578063a217fddf146102ef578063b4af12bf1461030d5761012c565b806324d7806c116100f457806324d7806c146101e55780632e7700f0146102155780632f2ff15d1461023357806336568abe1461024f57806353e6e82e1461026b5761012c565b806301ffc9a71461013157806308ccf219146101615780630c3bd7bd1461017d57806321243b0a14610199578063248a9ca3146101b5575b600080fd5b61014b6004803603810190610146919061115f565b6103cd565b60405161015891906111a7565b60405180910390f35b61017b60048036038101906101769190611220565b610447565b005b610197600480360381019061019291906112e8565b6104bc565b005b6101b360048036038101906101ae91906113be565b6107c4565b005b6101cf60048036038101906101ca9190611421565b6107c7565b6040516101dc919061145d565b60405180910390f35b6101ff60048036038101906101fa9190611220565b6107e6565b60405161020c91906111a7565b60405180910390f35b61021d6107fc565b60405161022a9190611487565b60405180910390f35b61024d600480360381019061024891906114a2565b610806565b005b610269600480360381019061026491906114a2565b61082f565b005b610285600480360381019061028091906114e2565b6108b2565b005b6102a1600480360381019061029c9190611220565b6109a1565b005b6102bd60048036038101906102b89190611220565b6109f9565b005b6102d960048036038101906102d491906114a2565b610a51565b6040516102e691906111a7565b60405180910390f35b6102f7610abb565b604051610304919061145d565b60405180910390f35b61032760048036038101906103229190611220565b610ac2565b005b610343600480360381019061033e91906114a2565b610b37565b005b61035f600480360381019061035a91906113be565b610b60565b60405161036c9190611531565b60405180910390f35b61038f600480360381019061038a91906113be565b610b67565b005b610399610ba9565b6040516103a6919061145d565b60405180910390f35b6103b7610bcd565b6040516103c4919061145d565b60405180910390f35b60007f7965db0b000000000000000000000000000000000000000000000000000000007bffffffffffffffffffffffffffffffffffffffffffffffffffffffff1916827bffffffffffffffffffffffffffffffffffffffffffffffffffffffff19161480610440575061043f82610bf1565b5b9050919050565b610450336107e6565b61048f576040517f08c379a0000000000000000000000000000000000000000000000000000000008152600401610486906115a9565b60405180910390fd5b6104b97ff309ffc42715a0bfccdfa0c4cac305505f15ab9b9262b7451ceea96c0cc3518782610806565b50565b87600660008b815260200190815260200160002060000160006101000a81548173ffffffffffffffffffffffffffffffffffffffff021916908373ffffffffffffffffffffffffffffffffffffffff16021790555086600660008b815260200190815260200160002060010160006101000a81548173ffffffffffffffffffffffffffffffffffffffff021916908373ffffffffffffffffffffffffffffffffffffffff16021790555084600660008b815260200190815260200160002060030160006101000a81548173ffffffffffffffffffffffffffffffffffffffff021916908373ffffffffffffffffffffffffffffffffffffffff16021790555085600660008b815260200190815260200160002060020160006101000a81548173ffffffffffffffffffffffffffffffffffffffff021916908373ffffffffffffffffffffffffffffffffffffffff16021790555083600660008b81526020019081526020016000206004018190555082600660008b8152602001908152602001600020600601819055506000600660008b815260200190815260200160002060030160146101000a81548160ff021916908360028111156106805761067f6115c9565b5b021790555060005b848110156107b8578282828181106106a3576106a26115f8565b5b90506020020160208101906106b89190611665565b65ffffffffffff16600660008c8152602001908152602001600020600501600083815260200190815260200160002081905550600560009054906101000a900473ffffffffffffffffffffffffffffffffffffffff1673ffffffffffffffffffffffffffffffffffffffff16635f54851a84848481811061073c5761073b6115f8565b5b90506020020160208101906107519190611665565b8b8b886040518563ffffffff1660e01b815260040161077394939291906116cd565b600060405180830381600087803b15801561078d57600080fd5b505af11580156107a1573d6000803e3d6000fd5b5050505080806107b090611741565b915050610688565b50505050505050505050565b50565b6000806000838152602001908152602001600020600101549050919050565b60006107f56000801b83610a51565b9050919050565b6000600154905090565b61080f826107c7565b6108208161081b610c5b565b610c63565b61082a8383610d00565b505050565b610837610c5b565b73ffffffffffffffffffffffffffffffffffffffff168173ffffffffffffffffffffffffffffffffffffffff16146108a4576040517f08c379a000000000000000000000000000000000000000000000000000000000815260040161089b906117fc565b60405180910390fd5b6108ae8282610de0565b5050565b60008114156109015781600360006101000a81548173ffffffffffffffffffffffffffffffffffffffff021916908373ffffffffffffffffffffffffffffffffffffffff16021790555061099d565b60018114156109505781600460006101000a81548173ffffffffffffffffffffffffffffffffffffffff021916908373ffffffffffffffffffffffffffffffffffffffff16021790555061099c565b600281141561099b5781600560006101000a81548173ffffffffffffffffffffffffffffffffffffffff021916908373ffffffffffffffffffffffffffffffffffffffff1602179055505b5b5b5050565b6109aa336107e6565b6109e9576040517f08c379a00000000000000000000000000000000000000000000000000000000081526004016109e0906115a9565b60405180910390fd5b6109f66000801b82610806565b50565b610a02336107e6565b610a41576040517f08c379a0000000000000000000000000000000000000000000000000000000008152600401610a38906115a9565b60405180910390fd5b610a4e6000801b82610806565b50565b600080600084815260200190815260200160002060000160008373ffffffffffffffffffffffffffffffffffffffff1673ffffffffffffffffffffffffffffffffffffffff16815260200190815260200160002060009054906101000a900460ff16905092915050565b6000801b81565b610acb336107e6565b610b0a576040517f08c379a0000000000000000000000000000000000000000000000000000000008152600401610b01906115a9565b60405180910390fd5b610b347f85faced7bde13e1a7dad704b895f006e704f207617d68166b31ba2d79624862d82610806565b50565b610b40826107c7565b610b5181610b4c610c5b565b610c63565b610b5b8383610de0565b505050565b6000919050565b60016006600083815260200190815260200160002060030160146101000a81548160ff02191690836002811115610ba157610ba06115c9565b5b021790555050565b7f85faced7bde13e1a7dad704b895f006e704f207617d68166b31ba2d79624862d81565b7ff309ffc42715a0bfccdfa0c4cac305505f15ab9b9262b7451ceea96c0cc3518781565b60007f01ffc9a7000000000000000000000000000000000000000000000000000000007bffffffffffffffffffffffffffffffffffffffffffffffffffffffff1916827bffffffffffffffffffffffffffffffffffffffffffffffffffffffff1916149050919050565b600033905090565b610c6d8282610a51565b610cfc57610c928173ffffffffffffffffffffffffffffffffffffffff166014610ec1565b610ca08360001c6020610ec1565b604051602001610cb192919061192e565b6040516020818303038152906040526040517f08c379a0000000000000000000000000000000000000000000000000000000008152600401610cf391906119b2565b60405180910390fd5b5050565b610d0a8282610a51565b610ddc57600160008084815260200190815260200160002060000160008373ffffffffffffffffffffffffffffffffffffffff1673ffffffffffffffffffffffffffffffffffffffff16815260200190815260200160002060006101000a81548160ff021916908315150217905550610d81610c5b565b73ffffffffffffffffffffffffffffffffffffffff168173ffffffffffffffffffffffffffffffffffffffff16837f2f8788117e7eff1d82e926ec794901d17c78024a50270940304540a733656f0d60405160405180910390a45b5050565b610dea8282610a51565b15610ebd57600080600084815260200190815260200160002060000160008373ffffffffffffffffffffffffffffffffffffffff1673ffffffffffffffffffffffffffffffffffffffff16815260200190815260200160002060006101000a81548160ff021916908315150217905550610e62610c5b565b73ffffffffffffffffffffffffffffffffffffffff168173ffffffffffffffffffffffffffffffffffffffff16837ff6391f5c32d9c69d2a47ea670b442974b53935d1edc7fd64eb21e047a839171b60405160405180910390a45b5050565b606060006002836002610ed491906119d4565b610ede9190611a2e565b67ffffffffffffffff811115610ef757610ef6611a84565b5b6040519080825280601f01601f191660200182016040528015610f295781602001600182028036833780820191505090505b5090507f300000000000000000000000000000000000000000000000000000000000000081600081518110610f6157610f606115f8565b5b60200101907effffffffffffffffffffffffffffffffffffffffffffffffffffffffffffff1916908160001a9053507f780000000000000000000000000000000000000000000000000000000000000081600181518110610fc557610fc46115f8565b5b60200101907effffffffffffffffffffffffffffffffffffffffffffffffffffffffffffff1916908160001a9053506000600184600261100591906119d4565b61100f9190611a2e565b90505b60018111156110af577f3031323334353637383961626364656600000000000000000000000000000000600f861660108110611051576110506115f8565b5b1a60f81b828281518110611068576110676115f8565b5b60200101907effffffffffffffffffffffffffffffffffffffffffffffffffffffffffffff1916908160001a905350600485901c9450806110a890611ab3565b9050611012565b50600084146110f3576040517f08c379a00000000000000000000000000000000000000000000000000000000081526004016110ea90611b29565b60405180910390fd5b8091505092915050565b600080fd5b600080fd5b60007fffffffff0000000000000000000000000000000000000000000000000000000082169050919050565b61113c81611107565b811461114757600080fd5b50565b60008135905061115981611133565b92915050565b600060208284031215611175576111746110fd565b5b60006111838482850161114a565b91505092915050565b60008115159050919050565b6111a18161118c565b82525050565b60006020820190506111bc6000830184611198565b92915050565b600073ffffffffffffffffffffffffffffffffffffffff82169050919050565b60006111ed826111c2565b9050919050565b6111fd816111e2565b811461120857600080fd5b50565b60008135905061121a816111f4565b92915050565b600060208284031215611236576112356110fd565b5b60006112448482850161120b565b91505092915050565b6000819050919050565b6112608161124d565b811461126b57600080fd5b50565b60008135905061127d81611257565b92915050565b600080fd5b600080fd5b600080fd5b60008083601f8401126112a8576112a7611283565b5b8235905067ffffffffffffffff8111156112c5576112c4611288565b5b6020830191508360208202830111156112e1576112e061128d565b5b9250929050565b60008060008060008060008060006101008a8c03121561130b5761130a6110fd565b5b60006113198c828d0161126e565b995050602061132a8c828d0161120b565b985050604061133b8c828d0161120b565b975050606061134c8c828d0161120b565b965050608061135d8c828d0161120b565b95505060a061136e8c828d0161126e565b94505060c061137f8c828d0161126e565b93505060e08a013567ffffffffffffffff8111156113a05761139f611102565b5b6113ac8c828d01611292565b92509250509295985092959850929598565b6000602082840312156113d4576113d36110fd565b5b60006113e28482850161126e565b91505092915050565b6000819050919050565b6113fe816113eb565b811461140957600080fd5b50565b60008135905061141b816113f5565b92915050565b600060208284031215611437576114366110fd565b5b60006114458482850161140c565b91505092915050565b611457816113eb565b82525050565b6000602082019050611472600083018461144e565b92915050565b6114818161124d565b82525050565b600060208201905061149c6000830184611478565b92915050565b600080604083850312156114b9576114b86110fd565b5b60006114c78582860161140c565b92505060206114d88582860161120b565b9150509250929050565b600080604083850312156114f9576114f86110fd565b5b60006115078582860161120b565b92505060206115188582860161126e565b9150509250929050565b61152b816111e2565b82525050565b60006020820190506115466000830184611522565b92915050565b600082825260208201905092915050565b7f5265737472696374656420746f2061646d696e732e0000000000000000000000600082015250565b600061159360158361154c565b915061159e8261155d565b602082019050919050565b600060208201905081810360008301526115c281611586565b9050919050565b7f4e487b7100000000000000000000000000000000000000000000000000000000600052602160045260246000fd5b7f4e487b7100000000000000000000000000000000000000000000000000000000600052603260045260246000fd5b600065ffffffffffff82169050919050565b61164281611627565b811461164d57600080fd5b50565b60008135905061165f81611639565b92915050565b60006020828403121561167b5761167a6110fd565b5b600061168984828501611650565b91505092915050565b6000819050919050565b60006116b76116b26116ad84611627565b611692565b61124d565b9050919050565b6116c78161169c565b82525050565b60006080820190506116e260008301876116be565b6116ef6020830186611522565b6116fc6040830185611522565b6117096060830184611478565b95945050505050565b7f4e487b7100000000000000000000000000000000000000000000000000000000600052601160045260246000fd5b600061174c8261124d565b91507fffffffffffffffffffffffffffffffffffffffffffffffffffffffffffffffff82141561177f5761177e611712565b5b600182019050919050565b7f416363657373436f6e74726f6c3a2063616e206f6e6c792072656e6f756e636560008201527f20726f6c657320666f722073656c660000000000000000000000000000000000602082015250565b60006117e6602f8361154c565b91506117f18261178a565b604082019050919050565b60006020820190508181036000830152611815816117d9565b9050919050565b600081905092915050565b7f416363657373436f6e74726f6c3a206163636f756e7420000000000000000000600082015250565b600061185d60178361181c565b915061186882611827565b601782019050919050565b600081519050919050565b60005b8381101561189c578082015181840152602081019050611881565b838111156118ab576000848401525b50505050565b60006118bc82611873565b6118c6818561181c565b93506118d681856020860161187e565b80840191505092915050565b7f206973206d697373696e6720726f6c6520000000000000000000000000000000600082015250565b600061191860118361181c565b9150611923826118e2565b601182019050919050565b600061193982611850565b915061194582856118b1565b91506119508261190b565b915061195c82846118b1565b91508190509392505050565b6000601f19601f8301169050919050565b600061198482611873565b61198e818561154c565b935061199e81856020860161187e565b6119a781611968565b840191505092915050565b600060208201905081810360008301526119cc8184611979565b905092915050565b60006119df8261124d565b91506119ea8361124d565b9250817fffffffffffffffffffffffffffffffffffffffffffffffffffffffffffffffff0483118215151615611a2357611a22611712565b5b828202905092915050565b6000611a398261124d565b9150611a448361124d565b9250827fffffffffffffffffffffffffffffffffffffffffffffffffffffffffffffffff03821115611a7957611a78611712565b5b828201905092915050565b7f4e487b7100000000000000000000000000000000000000000000000000000000600052604160045260246000fd5b6000611abe8261124d565b91506000821415611ad257611ad1611712565b5b600182039050919050565b7f537472696e67733a20686578206c656e67746820696e73756666696369656e74600082015250565b6000611b1360208361154c565b9150611b1e82611add565b602082019050919050565b60006020820190508181036000830152611b4281611b06565b905091905056fea264697066735822122032a8544bff0291e320fb58b1298e54e7531cb1772850e9af7f7ee281e51726bc64736f6c634300080c0033",
  "immutableReferences": {},
  "source": "// SPDX-License-Identifier: MIT\npragma solidity >=0.4.22 <0.9.0;\nimport './../Roles.sol';\nimport './ProfileManager.sol';\nimport './FarmManager.sol';\nimport './TraceManager.sol';\n\n\n\n\ncontract TransactionManager is Roles{\n\n    uint transactionCount;\n    address admin;\n    ProfileManager PM;\n    FarmManager FM;\n    TraceManager TM;\n    \n    struct Transaction {\n\n      address srcFarm;\n      address dstFarm;\n      address srcOwner;\n      address dstOwner;\n      Status orderStatus;\n      uint animalCount;\n      mapping (uint=>uint) animalMap;\n      uint timeUpdated;\n    }\n\n    mapping(uint=>Transaction) transactionMap;\n\n    enum Status {\n        proposed,\n        confirmed,\n        canceled\n    }\n\n   function createTransaction(uint _transactionId,address _srcFarm,\n      address _dstFarm,\n      address _srcOwner,\n      address _dstOwner,\n      uint _animalCount,\n      uint _timeUpdated,\n      uint48[] calldata _animalList) public\n  //  onlyFarmer()\n    {\n        transactionMap[_transactionId].srcFarm=_srcFarm;\n        transactionMap[_transactionId].dstFarm=_dstFarm;\n        transactionMap[_transactionId].dstOwner=_dstOwner;\n        transactionMap[_transactionId].srcOwner=_srcOwner;\n        transactionMap[_transactionId].animalCount=_animalCount;\n        transactionMap[_transactionId].timeUpdated=_timeUpdated;\n        transactionMap[_transactionId].orderStatus=Status.proposed;\n      //  transactionMap[_transactionId].animalMap[]=_srcFarm;\n    //    transactionMap[transactionId]=transaction;\n      for(uint i=0;i<_animalCount;i++)\n      {    \n        transactionMap[_transactionId].animalMap[i]=_animalList[i]; \n         TM.addMovementData(_animalList[i], _srcFarm, _dstFarm, _timeUpdated);\n      }\n\n    }\n\n    function updateTransaction(uint _transactionId) public {\n       transactionMap[_transactionId].orderStatus=Status.confirmed;\n\n    }\n\n  /*  function getTransactionInfo(uint _transactionId)public returns()\n    {\n        returns transactionMap[transactionId]\n    }*/\n\n    function getTransactionCount()public view returns(uint)\n    {\n        return transactionCount;\n\n    }\n\n    function getAnimalList(uint _transactionId)public \n    {\n\n    }\n\n    function setManager(address _managerAddress,uint _managerType) public\n    {\n      if(_managerType==0)\n      {\n         PM=ProfileManager(_managerAddress);\n      }\n      else if(_managerType==1)\n      {\n        FM=FarmManager(_managerAddress);\n      }\n      else if(_managerType==2)\n      {\n        TM=TraceManager(_managerAddress);\n      }\n    }\n\n    function getManager(uint _managerType) public view returns(address)\n    {\n      /* if(_managerType==0)\n      {\n         return PM;\n      }\n      else if(_managerType==1)\n      {\n        return FM;\n      }\n      else if(_managerType==2)\n      {\n        return TM.address;\n      }\n      else {\n        return '0x0';\n      }*/\n    }\n  \n\n}\n",
  "sourcePath": "/home/crawzer/blockchain/front/my-app/contracts/contracts/BeefCattleSupplyChain/TransactionManager.sol",
  "compiler": {
    "name": "solc",
    "version": "0.8.12+commit.f00d7308.Emscripten.clang"
  },
  "schemaVersion": "3.4.5",
  "updatedAt": "2022-05-03T23:58:10.900Z",
  "networkType": "ethereum",
  "devdoc": {
    "kind": "dev",
    "methods": {
      "getRoleAdmin(bytes32)": {
        "details": "Returns the admin role that controls `role`. See {grantRole} and {revokeRole}. To change a role's admin, use {_setRoleAdmin}."
      },
      "grantRole(bytes32,address)": {
        "details": "Grants `role` to `account`. If `account` had not been already granted `role`, emits a {RoleGranted} event. Requirements: - the caller must have ``role``'s admin role."
      },
      "hasRole(bytes32,address)": {
        "details": "Returns `true` if `account` has been granted `role`."
      },
      "renounceRole(bytes32,address)": {
        "details": "Revokes `role` from the calling account. Roles are often managed via {grantRole} and {revokeRole}: this function's purpose is to provide a mechanism for accounts to lose their privileges if they are compromised (such as when a trusted device is misplaced). If the calling account had been revoked `role`, emits a {RoleRevoked} event. Requirements: - the caller must be `account`."
      },
      "revokeRole(bytes32,address)": {
        "details": "Revokes `role` from `account`. If `account` had been granted `role`, emits a {RoleRevoked} event. Requirements: - the caller must have ``role``'s admin role."
      },
      "supportsInterface(bytes4)": {
        "details": "See {IERC165-supportsInterface}."
      }
    },
    "version": 1
  },
  "userdoc": {
    "kind": "user",
    "methods": {},
    "version": 1
  }
}